:100000000C947200189500001895000018950000D7
:10001000189500001895000018950000189500002C
:10002000189500001895000018950000189500001C
:10003000189500001895000018950000189500000C
:1000400018950000189500001895000018950000FC
:100050000C94631118950000189500001895000085
:10006000189500000D946B4B189500001895000032
:1000700018950000189500001895000018950000CC
:1000800018950000189500001895000018950000BC
:100090000D94994B189500001895000018950000D4
:1000A000189500001895000018950000189500009C
:1000B000189500001895000018950000189500008C
:1000C000189500001895000018950000189500007C
:1000D00018950000189500000D94C74B0D94F54B32
:1000E000189500008FEF8DBFC0EBE8EC4E2E81E23B
:1000F0008EBFD1E2FEE15F2EA89584B7082E877FE0
:1001000084BF88E199278093600090936000EEEFB0
:10011000FFE1A0E0B2E088278D933197E9F78FE502
:100120008093C40080E08093C50088E18093C10083
:1001300066248FEF9FEFA5E9B9E18D939C9380E052
:1001400090E0A7E9B9E18D939C938FEF9FEFA9E928
:10015000B9E18D939C9370E07093740070E070939C
:10016000750070E072B974E071B970EC75B977EC34
:1001700074B970E078B970E077B970E07BB979E86C
:100180007AB970E07EB97AE87DB970E071BB70E051
:1001900070BB70E074BB70E073BB70E470930201DD
:1001A00070E47093010172E07093050172E5709341
:1001B000040175E5709308017AEA7093070170E015
:1001C00070930B0178EF70930A0180E080939D0F8C
:1001D00080E080937A0F80E080937B0F80E08093B3
:1001E0007C0F80E090E0ADE7BFE08D939C9380E0D2
:1001F0008093800083E08093810080E09CE4909372
:1002000085008093840070916F00716070936F001F
:10021000789483E08093810084EC92E0909397003F
:100220008093960085E590E09093990080939800E4
:1002300072E87093900078E1709391000F943C47BE
:100240000F94A10687E08093C40080E08093C500EE
:1002500088E18093C10086E08093C2008FE580939F
:10026000CC0080E08093CD0086E08093CA0088E1D6
:100270008093C90087E08093340180E0809335014A
:1002800086E08093320180913101807E8861809385
:1002900031017091C10070687093C1007091C90004
:1002A00070687093C900709131017068709331016A
:1002B00073E070937E0070E070937D0070EC70933B
:1002C0007C0087E880937A0080EC80937C007091BA
:1002D0007A00706870937A0070910B01706270936D
:1002E0000B0170910B01706470930B0188EE93E029
:1002F0000F942C460F943C470E947213E8E5F0E0FF
:10030000A4E0B2E091E00F94A04D0091040201300E
:1003100011F00C94A501E8E4F0E0A8EBBDE090E159
:100320000F94A04DA8E4B0E10C9102FB16F00C94E0
:10033000A501E4EFFCE90F94654B0F946345A8EB2E
:10034000BDE00F945D450F946A450F943C470E94B1
:100350005D9FA8E6BFE07C917E7F7C9380E08093E8
:10036000130EACE6BFE07C917F7E7C93ACE6BFE0F1
:100370007C917F777C93ACE6BFE07C917F7B7C9324
:10038000A3E9BFE00D911D912D913C91A1E2B0E157
:100390000D931D932D933C9383E68093C80DA8E4A1
:1003A000B0E10C9102FB16F00C94DE01E0E0FDE9F7
:1003B0000F94654B0F9463450F946A4570916F00DD
:1003C0007E7F70936F00A7E8BFE00D911D912D9186
:1003D0003C91A8EBBEE00D931D932D933C9370913F
:1003E0006F00716070936F0080E08093CB0D80E0B0
:1003F0008093CC0D80E08093140E80E08093150EE6
:10040000ACE6BFE00C9101FB16F00C940802779A61
:100410000F943C475A924A9284EF91E0D2018D9317
:100420009C9382E00F942D470E94B424229682E090
:100430000F9453440F943C470E94C2D2129A0F94D7
:100440003C475A924A9288EE93E0D2018D939C9356
:1004500082E00F942D470E94B424229682E00F94EC
:100460005344A8E6BFE07C9172607C930F943C47B4
:10047000A4E0B2E0BA93AA930E94B6352296ABEC00
:10048000BDE08C918F5F8C93ACE6BFE00C9100FBDC
:1004900016F40C944D020C94A90100910402013051
:1004A00081E009F080E08F930091CB0D053080E072
:1004B00010F009F081E09F91892B882311F40C94AE
:1004C00036020091CB0D053018F011F00C946A0241
:1004D0000C949A02A0E7BFE00C9102FB16F40C9476
:1004E0009202A0E7BFE07C9174607C93A0E1B2E04F
:1004F000E8E0FDE90F94654B0F9424480F943C47C6
:100500005A924A9281E0D2018C9381E00F942D4758
:10051000A0E1B2E0BA93AA930E945E9B249681E088
:100520000F9453440F943C470E9452350C94A901F8
:100530000C94A402A8E6BFE07C917E7F7C93A0E7A8
:10054000BFE07C917B7F7C93E8E5F0E0A4E0B2E043
:1005500091E00F94A04D00910402013011F40C942D
:10056000C6020F943C470E948E23E8E5F0E0A4E029
:10057000B2E091E00F94A04D00910402013011F41B
:100580000C94C6020F943C470E949BD30F943C47A7
:100590005A924A9284E690E0D2018D939C9382E035
:1005A0000F942D470E94B424229682E00F94534466
:1005B000A0E1B2E0E8E1FDE90F94654B0F94244817
:1005C0000F943C47A0E1B2E0BA93AA930E9439D9B4
:1005D00022960F943C470F943C47A4E0B2E0BA93B4
:1005E000AA935A924A9288E2D2018C9381E00F94A6
:1005F0002D475A924A92D201E2E2FDE90F94654BEF
:100600000F94244883E00F942D470E9403EF269611
:1006100084E00F945344A0E1B2E0E6E2FDE90F94D8
:10062000654B0F9424480F943C47A0E1B2E0BA9385
:10063000AA930E9439D922960F943C470F943C47C5
:10064000A4E0B2E0BA93AA935A924A9288E2D20105
:100650008C9381E00F942D475A924A92D201E2E2A4
:10066000FDE90F94654B0F94244883E00F942D47C8
:100670000E9403EF269684E00F945344A0E1B2E079
:10068000E6E3FDE90F94654B0F9424480F943C4733
:10069000A0E1B2E0BA93AA930E9439D922960F94AE
:1006A0003C470F943C47A4E0B2E0BA93AA935A9215
:1006B0004A9288E2D2018C9381E00F942D475A929E
:1006C0004A92D201E2E2FDE90F94654B0F9424486F
:1006D00083E00F942D470E9403EF269684E00F9449
:1006E0005344A0E1B2E0E4E4FDE90F94654B0F94BC
:1006F00024480F943C47A0E1B2E0BA93AA930E9429
:1007000039D922960F943C470F943C47A4E0B2E0BD
:10071000BA93AA935A924A9284E6D2018C9381E0CA
:100720000F942D475A924A92D201E2E2FDE90F94CA
:10073000654B0F94244883E00F942D470E9403EFEC
:10074000269684E00F945344A3E3B6E08C9180FB9B
:1007500016F40C94DB030F943C470F943C47A4E041
:10076000B2E0BA93AA935A924A928FE0D2018C9344
:1007700081E00F942D475A924A92D201E0E5FDE9BB
:100780000F94654B0F9424488BE00F942D470E94E3
:1007900003EF26968CE00F9453440091040200303E
:1007A00018F011F00C94D6030C94DB03709133060F
:1007B000716070933306A0E1B2E0ECE5FDE90F94BF
:1007C000654B0F9424480F943C47A0E1B2E0BA93E4
:1007D000AA930E9439D922960F943C470F943C4724
:1007E000A4E0B2E0BA93AA935A924A928AE0D20164
:1007F0008C9381E00F942D475A924A92D201E2E203
:10080000FDE90F94654B0F94244883E00F942D4726
:100810000E9403EF269684E00F945344A0E1B2E0D7
:10082000ECE6FDE90F94654B0F9424480F943C4788
:10083000A0E1B2E0BA93AA930E9439D922960F940C
:100840003C470F943C47A4E0B2E0BA93AA935A9273
:100850004A9285E0D2018C9381E00F942D475A9201
:100860004A92D201E2E2FDE90F94654B0F942448CD
:1008700083E00F942D470E9403EF269684E00F94A7
:100880005344A0E1B2E0EAE7FDE90F94654B0F9411
:1008900024480F943C47A0E1B2E0BA93AA930E9487
:1008A00039D922960F943C470F943C47A4E0B2E01C
:1008B000BA93AA935A924A9285E0D2018C9381E02E
:1008C0000F942D475A924A92D201E2E2FDE90F9429
:1008D000654B0F94244883E00F942D470E9403EF4B
:1008E000269684E00F94534480E08093CA0D80E004
:1008F0008093110EA3E9BFE00D911D912D913C91C4
:10090000ADEBBFE00D931D932D933C930F943C47AB
:100910005A924A9284EF91E0D2018D939C9382E0A7
:100920000F942D470E94B424229682E00F945344E2
:10093000ACE6BFE00C9100FB16F40C94A604A8E60C
:10094000BFE07C9171607C930C94AB04A8E6BFE09F
:100950007C917E7F7C93A8E4B0E10C9102FB16F0C1
:100960000C94BA04E8E8FDE90F94654B0F946345D5
:100970000F946A45A8E6BFE00C9100FB16F40C94B6
:1009800029110F943C470F943C47A4E0B2E0BA937E
:10099000AA935A924A920AE010E020E030E0D20195
:1009A0000D931D932D933C9384E00F942D475A9201
:1009B0004A92A9EBBFE00D911D912D913C91D2017E
:1009C0000D931D932D933C9384E00F942D470E942B
:1009D000E9F3269688E00F94534400910402013015
:1009E00081E009F080E08F930091130E003081E0E8
:1009F00009F080E09F918923882311F40C9441062B
:100A00000F943C47A4E0B2E0BA93AA930E944DD958
:100A10002296A8E4B0E10C9102FB16F00C9432058A
:100A2000E6E9FDE90F94654B0F9463450F943C474D
:100A3000A0EBBEE1E8ECFDE00F94B04C0F945B45F9
:100A4000ECE9FDE90F94654B0F9463450F943C4727
:100A5000A0EBBEE1E9ECFDE00F94B04C0F945B45D8
:100A60000F946A45ADE6BFE00C9105FB81E00EF006
:100A700080E08F93ADE6BFE00C9101FB81E00EF0CA
:100A800080E09F918923882311F40C947E050F94B4
:100A90003C470F943C47A5E0B2E0BA93AA935A9220
:100AA0004A9208E512E020E030E0D2010D931D9358
:100AB0002D933C9384E00F942D475A924A92ADEBCC
:100AC000BFE00D911D912D913C91D2010D931D938D
:100AD0002D933C9384E00F942D470E94E9F32696D2
:100AE00088E00F94534400910502013011F00C94FA
:100AF0007E05A9E6BFE07C9178607C93ACE6BFE020
:100B00000C9103FB16F00C949305A3E9BFE00D9143
:100B10001D912D913C91ADEBBFE00D931D932D9355
:100B20003C930C94FE0500910402003081E009F032
:100B300080E08F93A9E6BFE00C9103FB81E00EF00B
:100B400080E09F91892B8F93A9E6BFE00C9104FB75
:100B500081E00EF080E09F91892B882311F40C94A2
:100B6000FE05A9E6BFE00C9103FB16F00C94C70547
:100B7000A9E6BFE07C91777F7C93A9E6BFE07C91FA
:100B80007F7E7C9382E0809304020C94DB05A9E6CF
:100B9000BFE00C9104FB16F00C94D805A9E6BFE069
:100BA0007C917F7E7C9381E0809304020C94DB0532
:100BB00080E0809304020F943C470F943C47A4E0EC
:100BC000B2E0BA93AA935A924A9280910402D20157
:100BD0008C9381E00F942D470E9456DD249681E08E
:100BE0000F945344A3E9BFE00D911D912D913C91C9
:100BF000ADEBBFE00D931D932D933C930F943C47B9
:100C00000E9477C4ACE6BFE00C9104FB81E00EF4D7
:100C100080E08F93ACE6BFE00C9103FB81E00EF423
:100C200080E09F918923882311F40C943506ABEC66
:100C3000BDE08C918F5F8C93A8E4B0E10C9100FB38
:100C400016F00C943506EEE9FDE90F94654B0F9410
:100C500063450F943C47A0EBBEE1EBECFDE00F9445
:100C6000B04C0F945B450F946A45A3E9BFE00D912A
:100C70001D912D913C91A9EBBFE00D931D932D93F8
:100C80003C930F943C470F943C47A4E0B2E0BA93E6
:100C9000AA935A924A9208E611E020E030E0D2018D
:100CA0000D931D932D933C9384E00F942D475A92FE
:100CB0004A92A5ECBFE00D911D912D913C91D2017E
:100CC0000D931D932D933C9384E00F942D470E9428
:100CD000E9F3269688E00F94534400910402013012
:100CE00081E009F080E08F930091D40D013081E024
:100CF00009F080E09F918923882311F40C9449071F
:100D00000091740F0F3080E010F009F081E08F93B4
:100D10000091740F0D3281E008F080E09F918923EB
:100D2000882311F40C944907A0E1B2E0E8EAFDE958
:100D30000F94654B0F9424480F943C47A0E1B2E018
:100D4000BA93AA930E9439D922960F943C470F94E4
:100D50003C47A4E0B2E0BA93AA935A924A9283E045
:100D6000D2018C9381E00F942D475A924A92D2017E
:100D7000E2EBFDE90F94654B0F94244886E00F9455
:100D80002D470E9403EF269687E00F94534400916D
:100D90000402003018F011F00C94D0060C942707D0
:100DA000A3E9BFE00D911D912D913C91A5ECBFE011
:100DB0000D931D932D933C930F943C470F943C4708
:100DC000A4E0B2E0BA93AA93A6E9B8E1BA93AA93D1
:100DD0005A924A9284E0D2018C9381E00F942D477D
:100DE0005A924A92D201E8EBFDE90F94654B0F94B9
:100DF000244882E00F942D47AAE2B2E0BA93AA9366
:100E00005A924A9288E0D2018C9381E00F942D4748
:100E10000E94ADF22C9684E00F945344009104029A
:100E2000003011F00C9427070F943C47EAE2F2E0FF
:100E300002E010E0AAE2B2E00F94EC470F943C47C6
:100E4000AAE2B2E00F94FA4CA4E7BFE00C930F942F
:100E50003C470F943C47A4E0B2E0BA93AA935A925D
:100E60004A9283E0D2018C9381E00F942D475A92ED
:100E70004A92D201E2E2FDE90F94654B0F942448B7
:100E800083E00F942D470E9403EF269684E00F9491
:100E900053440F943C470F943C47A4E0B2E0BA930C
:100EA000AA935A924A9208EC10E020E030E0D20176
:100EB0000D931D932D933C9384E00F942D475A92EC
:100EC0004A92A1ECBFE00D911D912D913C91D20170
:100ED0000D931D932D933C9384E00F942D470E9416
:100EE000E9F3269688E00F94534400910402013000
:100EF00081E009F080E08F93A9E6BFE00C9107FB49
:100F000081E00EF080E09F91892B882311F40C94EE
:100F10003908A3E9BFE00D911D912D913C91A1EC01
:100F2000BFE00D931D932D933C930F943C470E947B
:100F300073250091160E003011F00C94A607A9E657
:100F4000BFE07C917F777C930C94AB07A9E6BFE070
:100F50007C9170687C9381E080930402009104028C
:100F6000083010F00C94CD07A4E0B2E0AD90BB24A3
:100F7000A3ECBEE0AA0DBB1D0C91003018F011F0DF
:100F80000C94C4070C94C6070C94CD07A4E0B2E0FF
:100F90008C918F5F8C930C94AE0700910402083003
:100FA00010F40C943908A0E1B2E0EAEBFDE90F94EB
:100FB000654B0F9424480F943C47A0E1B2E0BA93EC
:100FC000AA930E9439D922960F943C470F943C472C
:100FD000A4E0B2E0BA93AA935A924A9283E0D20173
:100FE0008C9381E00F942D475A924A92D201E2E20B
:100FF000FDE90F94654B0F94244883E00F942D472F
:101000000E9403EF269684E00F945344A0E1B2E0DF
:10101000EEECFDE90F94654B0F9424480F943C4788
:10102000A0E1B2E0BA93AA930E9439D922960F9414
:101030003C470F943C47A4E0B2E0BA93AA935A927B
:101040004A9283E0D2018C9381E00F942D475A920B
:101050004A92D201E2E2FDE90F94654B0F942448D5
:1010600083E00F942D470E9403EF269684E00F94AF
:101070005344AAE6BFE00C9100FB16F00C949908CB
:10108000AAE6BFE07C917E7F7C9381E0809304029E
:1010900000910402083018F011F00C946508A4E0E7
:1010A000B2E0AD90BB24A3ECBEE0AA0DBB1D0C9139
:1010B000003011F00C945E080C946508A4E0B2E0D6
:1010C0008C918F5F8C930C94480800910402083037
:1010D00018F011F00C946E080C94710881E0809364
:1010E00004020F943C47A4E0B2E0AD90BB24A3EC13
:1010F000BEE0AA0DBB1DBA93AA930E94DA282296DD
:1011000080E0A4E0B2E0AD90BB24ABECBEE0AA0D61
:10111000BB1D8C9380E0A4E0B2E0AD90BB24ABEBB0
:10112000BEE0AA0DBB1D8C93A9E6BFE07C91706464
:101130007C93A9E6BFE00C9106FB16F00C948009A5
:1011400081E08093040200910402083018F011F04D
:101150000C94F208A4E0B2E0AD90BB24A3ECBEE096
:10116000AA0DBB1D0C91003018F011F00C94BA08B8
:101170000C94EB08A4E0B2E0AD90BB24ABECBEE075
:10118000AA0DBB1D0C91003011F00C94D908A4E0FD
:10119000B2E0AD90BB24ABECBEE0AA0DBB1D8C91C0
:1011A0008F5F8C9381E0809305020C94F2080C947D
:1011B000EB08A4E0B2E0AD90BB24ABECBEE0AA0D1E
:1011C000BB1D0C910C3311F00C94EB0882E0809362
:1011D00005020C94F208A4E0B2E08C918F5F8C932E
:1011E0000C94A30800910402083018F011F00C943C
:1011F0008009A8E4B0E10C9102FB16F00C941209EE
:10120000E4EEFDE90F94654B0F9463450F943C4762
:10121000A0EBBEE1E4E0F2E00F94B04C0F945B452C
:101220000F946A450F943C470F943C47A4E0B2E00A
:10123000AD90BB24ABEBBEE0AA0DBB1DBA93AA9345
:101240005A924A92A4E0B2E0AD90BB24A3ECBEE077
:10125000AA0DBB1D8C91D2018C9381E00F942D4778
:101260005A924A9280910502D2018C9381E00F94A8
:101270002D470E949A27269682E00F945344A8E4B3
:10128000B0E10C9102FB16F00C945E09E4EFFDE96D
:101290000F94654B0F9463450F943C47A0EBBEE160
:1012A000E4E0F2E0A190BB24EBEBFEE0EA0DFB1DD5
:1012B0000F94B04C0F945B450F946A450F943C47D4
:1012C0005A924A9288EC90E0D2018D939C9382E0EE
:1012D0000F942D470E94B424229682E00F94534429
:1012E00000910502023011F00C9480098DE3A4E016
:1012F000B2E0AD90BB24ABECBEE0AA0DBB1D8C935D
:1013000081E08093040200910402083018F011F08B
:101310000C94B509A4E0B2E0AD90BB24A3ECBEE010
:10132000AA0DBB1D0C91003080E010F009F081E0A7
:101330008F93A4E0B2E0AD90BB24ABECBEE0AA0D6D
:10134000BB1D0C910D3381E009F080E09F91892352
:10135000882311F40C94AE090C94B509A4E0B2E012
:101360008C918F5F8C930C94830900910402083058
:1013700018F011F00C94110AA8E4B0E10C9102FBF2
:1013800016F00C94D509E0E0FEE90F94654B0F943C
:1013900063450F943C47A0EBBEE1E4E0F2E00F941C
:1013A000B04C0F945B450F946A450F943C470F94E3
:1013B0003C47A5E0B2E0BA93AA935A924A92A4E0BD
:1013C000B2E0AD90BB24A3ECBEE0AA0DBB1D8C9196
:1013D000D2018C9381E00F942D470E94F02924962E
:1013E00081E00F94534480E0A4E0B2E0AD90BB24D0
:1013F000ABEBBEE0AA0DBB1D8C9380E0A4E0B2E095
:10140000AD90BB24A3ECBEE0AA0DBB1D8C9380E085
:10141000A4E0B2E0AD90BB24ABECBEE0AA0DBB1DD6
:101420008C9381E08093040200910402083018F04C
:1014300011F00C94340AA4E0B2E0AD90BB24A3EC0C
:10144000BEE0AA0DBB1D0C91003018F011F00C94F9
:101450002B0A0C942D0A0C94340AA4E0B2E08C916F
:101460008F5F8C930C94140A00910402083018F0DA
:1014700011F00C943D0A0C94420AA9E6BFE07C915D
:101480007F7B7C93A9E6BFE00C9100FB16F40C94E3
:101490005E0AAAE2B2E0E0E1FEE90F94654B0F9428
:1014A00024480F943C47AAE2B2E08C91A4ECB0E14E
:1014B0000F94D74DA8E0B2E00D931C9381E0809388
:1014C0000402A9E6BFE00C9100FB81E00EF080E091
:1014D0008F93A8E0B2E00D911C91003050E0150709
:1014E00080E010F009F081E09F91892B882311F4AE
:1014F0000C94890A0F943C470F943C47A4E0B2E057
:10150000BA93AA93A7E9B7E1BA93AA930E9474D0B9
:10151000249600910402003011F00C949E0A0F945E
:101520003C470F943C47A4E0B2E0BA93AA93A7E9E2
:10153000B7E1BA93AA930E940F3824960091130E34
:10154000003011F00C94FC0AA8E6BFE00C9104FBFB
:1015500081E00EF080E08F93ACE6BFE00C9104FBDD
:1015600081E00EF080E09F918923882311F40C9490
:10157000FC0AA8E4B0E10C9102FB16F00C94C80A36
:10158000E2E1FEE90F94654B0F9463450F946A45C1
:10159000A8E6BFE07C917F7E7C930F943C47AAEA4B
:1015A000BCE00F94DD47A4E0B2E08C930F943C477D
:1015B0000F943C47A4E0B2E0BA93AA93AAEABCE035
:1015C000BA93AA935A924A9280910402D2018C93C0
:1015D00081E00F942D470E9439E3269681E00F9415
:1015E000534400910402003011F00C94FC0AA8E668
:1015F000BFE07C9170617C9300913005013081E007
:1016000009F080E08F9300912F05013081E009F00F
:1016100080E09F9189238F930091130E003081E029
:1016200009F080E09F918923882311F40C94A70B83
:10163000A8E4B0E10C9102FB16F00C94270BE0E259
:10164000FEE90F94654B0F9463450F946A450F9420
:101650003C47A1E3B5E00F94DD47A4E0B2E08C93F2
:101660000F943C470F943C47A4E0B2E0BA93AA938E
:10167000A1E3B5E0BA93AA935A924A9280910402E8
:10168000D2018C9381E00F942D470E9439E3269676
:1016900081E00F94534400910402003018F011F0DF
:1016A0000C94540B0C94590B80E0809330050C94EF
:1016B000A70B80E091E00F9422470F943C4786E00F
:1016C00090E0E1E3F5E005E010E00A931A93AA81C7
:1016D000BB810F94E447A881B981EEE2FEE90F9443
:1016E000654B0F94B14D0FB680E0481A81E0580A5F
:1016F00022960FBE11F00C94930B0F943C47E1E33C
:10170000F5E00BE010E0A0EBBEE10F94EC470F9486
:101710005B45E4E3FEE90F94654B0F9463450F943A
:101720006A450C94A70B0F943C47E1E3F5E005E014
:1017300010E0A0EBBEE10F94EC470F945B45E4E3AF
:10174000FEE90F94654B0F9463450F946A450F941F
:101750003C470E94A4A0A8E6BFE00C9107FB81E0F3
:101760000EF080E08F930091130E003081E009F0BD
:1017700080E09F918923882311F40C94B30CA8E492
:10178000B0E10C9102FB16F00C94CE0BECE3FEE9F9
:101790000F94654B0F9463450F946A45A8E6BFE02C
:1017A0007C917F777C9381E0809304020091040216
:1017B000003218F011F00C94B30C009147104091D6
:1017C0000402040FA5E0B2E00C9380910502815061
:1017D00080930502A5E0B2E08C918F718C93A5E017
:1017E000B2E08C918F5F8C93A5E0B2E0AD90BB240A
:1017F000A4EDBEE0AA0DBB1D0C91003018F011F055
:101800000C94040C0C94AB0CA8E4B0E10C9100FB1C
:1018100016F00C941D0CE4E4FEE90F94654B0F9454
:1018200063450F943C47A0EBBEE1E5E0F2E00F9486
:10183000B04C0F945B450F946A45A5E0B2E00D9162
:10184000112740ED5AE1040F151FAAE0B2E00D93F5
:101850001C93AAE0B2E00F946F440F943C470F949E
:101860003C47A8E0B2E0BA93AA935A924A92AAE0FF
:10187000B2E08D919C91D2018D939C9382E00F9464
:101880002D470E94C9FE249682E00F945344A8E09D
:10189000B2E00D911C91013050E0150780E010F08E
:1018A00009F081E08F93A8E0B2E00D911C910F3F09
:1018B00050E0150781E008F080E09F91892388239C
:1018C00011F40C94A90C80910802809305020F94E6
:1018D0003C470F943C47A5E0B2E0BA93AA93AFEC23
:1018E000B5E1BA93AA935A924A9280910502D20125
:1018F0008C9381E00F942D470E9439E3269681E076
:101900000F94534400910502013011F00C94A90C7E
:101910000091471040910402040FA5E0B2E00C933F
:1019200080910502815080930502A5E0B2E08C9180
:101930008F718C93A5E0B2E08C918F5F8C9380E0E7
:10194000A5E0B2E0AD90BB24A4EDBEE0AA0DBB1DA6
:101950008C930C94B30CA4E0B2E08C918F5F8C93C9
:1019600010F40C94D60BA8E6BFE00C9103FB81E0C9
:101970000EF080E08F930091130E003081E009F0AB
:1019800080E09F918923882311F40C94FF0CA8E434
:10199000B0E10C9102FB16F00C94D60CEAE4FEE9DF
:1019A0000F94654B0F9463450F946A45A8E6BFE01A
:1019B0007C91777F7C938091CF15809304028091F6
:1019C00004028150809304020F943C470F943C47DB
:1019D000A4E0B2E0BA93AA93A0EDB5E1BA93AA93BA
:1019E0005A924A9280910402D2018C9381E00F9422
:1019F0002D470E9439E3269681E00F945344A9E6CF
:101A0000BFE00C9102FB81E00EF080E08F93A8E62E
:101A1000BFE00C9100FB81E00EF480E09F918923F0
:101A2000882311F40C943F0DA9E6BFE07C917B7FE5
:101A30007C930091CD0D003081E009F080E08F9320
:101A40000091C90D053081E009F080E09F91892364
:101A5000882311F40C943F0DA8E4B0E10C9102FB33
:101A600016F00C943B0DE4E5FEE90F94654B0F94E2
:101A700063450F946A450F943C470E944EE8A8E6E0
:101A8000BFE00C9106FB81E00EF080E08F930091A7
:101A9000130E003081E009F080E09F9189238823B4
:101AA00011F40C94DC0FA8E4B0E10C9102FB16F0E9
:101AB0000C947C0DE4E6FEE90F94654B0F946345AE
:101AC0000F943C47A0EBBEE1E3EAFFE00F949C4C8F
:101AD0000F945B45E4E7FEE90F94654B0F94634573
:101AE0000F943C47A0EBBEE1E5EAFFE00F949C4C6D
:101AF0000F945B450F946A45A5EABFE08D919C91D8
:101B0000A7EABFE08D939C93A5EABFE04D915C915D
:101B1000A3EABFE00D911C910417150711F40C9472
:101B2000580FA3EABFE00D911C91A5EABFE04D91CB
:101B30005C91041B150BA6E0B2E00D931C93A6E08C
:101B4000B2E00D911C91003050E015070CF402C07A
:101B50000C94BA0DA6E0B2E00D911C914FEC5AE145
:101B6000040F151FA6E0B2E00D931C93A6E0B2E0AF
:101B70000F946844A6E0B2E00D911C910F3150E043
:101B800015071CF011F00C94C70D0C94CC0DABE6AE
:101B9000BFE07C9172607C930F943C470F943C476C
:101BA000A8E0B2E0BA93AA935A924A92A5EABFE09B
:101BB0008D919C91D2018D939C9382E00F942D473F
:101BC0000E94C9FE249682E00F945344A8E0B2E03C
:101BD0000D911C91013050E0150780E010F009F0E4
:101BE00081E08F93A8E0B2E00D911C910F3F50E08F
:101BF000150781E008F080E09F9189238F93009181
:101C0000D415003080E010F009F081E09F91892325
:101C10008F930091D4150F3F81E008F080E09F91F1
:101C20008923882311F40C94FD0E8091CF158093A5
:101C300005020091050244E00423A4E0B2E00C9305
:101C400000910402003011F00C942B0EAFECB5E1C2
:101C50008C9184608C9380910802809304020F948D
:101C60003C470F943C47A4E0B2E0BA93AA93AFEC90
:101C7000B5E1BA93AA935A924A9280910402D20192
:101C80008C9381E00F942D470E9439E3269681E0E2
:101C90000F94534400910402013011F00C94EF0EA4
:101CA0000091CF15053511F00C948F0EA7E9BFE018
:101CB0000D911D912D913C91A9ECB4E00D931D93D4
:101CC0002D933C93A4EDBEE08C9187FB16F00C9411
:101CD0008F0E7091D40E7F777093D40EE4E9F1E00B
:101CE000A5EABFE092E07BE70F94844DA8E4B0E161
:101CF0000C9100FB16F00C948F0EE8E7FEE90F94B0
:101D0000654B0F9463450F943C47A0EBBEE1E5EAB9
:101D1000FFE00F949C4C0F945B450F946A45009133
:101D2000050244E00423A4E0B2E00C930091040215
:101D3000003018F011F00C949F0E0C94E40E84E027
:101D400080930402A4E0B2E08C9180958C93009182
:101D5000CF15409104020423A0EDB5E10C938091CE
:101D6000080280930402A4E0B2E08C918F5F8C9310
:101D7000809104028093CF150F943C470F943C4709
:101D8000A4E0B2E0BA93AA935A924A92A5EABFE0BD
:101D90008D919C91D2018D939C9382E00F942D475D
:101DA000AFECB5E1BA93AA935A924A9282E090E0DE
:101DB000D2018D939C9382E00F942D470E9492FF55
:101DC000289684E00F9453440F943C47A5EABFE063
:101DD000BA93AA930E9430FE22960C94FB0EA9E6B9
:101DE000BFE00C9101FB16F00C94FB0EA8E6BFE0DF
:101DF0007C917F7B7C930C942F0FA8E4B0E10C9135
:101E000000FB16F00C94260FE6E8FEE90F94654BF4
:101E10000F9463450F943C47A0EBBEE1E8E0F2E08D
:101E20000F949C4C0F945B45E4E9FEE90F94654BDD
:101E30000F9463450F943C47A0EBBEE1E4EDF5E160
:101E40000F94B04C0F945B450F946A450F943C4738
:101E5000A5EABFE0BA93AA930E9430FE2296A8E4B6
:101E6000B0E10C9100FB16F00C94580FE8E9FEE984
:101E70000F94654B0F9463450F943C47A0EBBEE174
:101E8000E3EAFFE00F949C4C0F945B45EEE9FEE91A
:101E90000F94654B0F9463450F943C47A0EBBEE154
:101EA000E5EAFFE00F949C4C0F945B450F946A4564
:101EB000A7EABFE04D915C91A5EABFE00D911C91AE
:101EC0000417150711F40C94DC0FA0E1B5E00D9197
:101ED0001C910F3F5FEF150781E009F480E08F93BD
:101EE000A7EABFE04D915C91A0E1B5E00D911C9196
:101EF0000417150781E009F080E09F91892388236A
:101F000011F40C94A70F8FEF9FEFA0E1B5E08D9334
:101F10009C93ADE6BFE07C917F7E7C93A8E4B0E12A
:101F20000C9100FB16F00C94A70FE8EAFEE90F9461
:101F3000654B0F9463450F943C47A0EBBEE1E0E195
:101F4000F5E00F949C4C0F945B450F946A450F94F9
:101F50003C470E9477C4A3EABFE04D915C91A5EA9B
:101F6000BFE00D911C910417150711F00C94DC0FC4
:101F7000A8E6BFE07C917F7B7C937091D40E7D7F3F
:101F80007093D40E00E010E020E030E0A9EABFE05A
:101F90000D931D932D933C93ABE6BFE00C9101FB99
:101FA00016F00C94DC0FABE6BFE07C917D7F7C9358
:101FB0000F943C470E94E4D2A9E6BFE00C9101FBDC
:101FC00081E00EF080E08F93A8E6BFE00C9100FB6B
:101FD00081E00EF480E09F918923882311F40C9412
:101FE0006710A9E6BFE07C917D7F7C9380E08093C1
:101FF000110EACE6BFE00C9104FB16F00C946710D8
:1020000080E08093CB0D0091CD0D013081E009F08F
:1020100080E08F930091C90D013081E009F080E0EC
:102020009F91892B882311F40C941D10ACE6BFE01E
:102030007C9170627C930C943D100091CE0D013028
:1020400081E009F080E08F93ADE6BFE00C9104FBE6
:1020500081E00EF080E09F918923882311F40C9495
:102060003810ACE6BFE07C9170627C930C943D101C
:10207000ACE6BFE07C917F7D7C93ACE6BFE00C9149
:1020800005FB16F00C94671081E08093130EACE60C
:10209000BFE07C917F777C93A3E9BFE00D911D9118
:1020A0002D913C91A1E2B0E10D931D932D933C93B2
:1020B000A8E4B0E10C9102FB16F00C946710E6EB7B
:1020C000FEE90F94654B0F9463450F946A450091A8
:1020D000130E003018F011F00C9470100C94EB10EB
:1020E0000F943C470E947CE40091130E003011F0E5
:1020F0000C94EB10ACE6BFE00C9107FB16F00C94CF
:1021000091107091D40E70687093D40E80E080931B
:10211000140E80E08093150E80E08093CC0D0C941B
:10212000BF10A4E1BEE08C918F5F8C930091140EE0
:10213000043018F011F00C949F100C94BF1080E044
:102140008093140E0091CD0D013081E009F080E004
:102150008F930091CE0D013081E009F080E09F91D6
:10216000892B882311F40C94BA10A9E6BFE07C9166
:1021700070617C93ACECBDE08C918F5F8C93A8E494
:10218000B0E10C9100FB16F00C94E810E0ECFEE9D5
:102190000F94654B0F9463450F943C47A0EBBEE151
:1021A000E4E1FEE00F94B04C0F945B45ECE9FDE9EF
:1021B0000F94654B0F9463450F943C47A0EBBEE131
:1021C000ECECFDE00F94B04C0F945B450F946A4526
:1021D00080E08093110E0091CB0D033080E010F071
:1021E00009F081E08F930091CC0D033080E010F076
:1021F00009F081E09F91892B8F93ACE6BFE00C91B1
:1022000000FB81E00EF480E09F91892B882311F47C
:102210000C940F11A8E6BFE07C9171607C93ABE653
:10222000BFE00C9102FB16F00C941B11A8E6BFE076
:102230007C9171607C93ABE6BFE00C9100FB16F0E3
:102240000C942711A8E6BFE07C9171607C930C94FC
:10225000BA0470910B01706870930B0170910B01BF
:10226000706470930B0170910B01706270930B019D
:1022700070910B01706170930B01ABE6BFE00C91A4
:1022800002FB16F00C946111ABE6BFE07C917B7F02
:102290007C93A8E6BFE07C917E7F7C93A8E4B0E1CC
:1022A0000C9102FB16F00C945D11EAECFEE90F9420
:1022B000654B0F9463450F946A450F943C470E9409
:1022C000AED30C94A9010F921F922F923F924F927E
:1022D0005F927F92AF92BF920F931F932F933F9382
:1022E0004F935F936F937F938F939F93AF93BF931E
:1022F000CF93DF93EF93FF938FB78F938BB78F932A
:1023000088278BBF80E093ED9093850080938400B5
:10231000AAE7BFE08C918F5F8C93AFE7BFE00F948B
:102320005B4400917A0F033018F011F00C949A116D
:102330000C94551280E080937A0FABE7BFE08C914C
:102340008F5F8C9300917B0F053011F00C94551228
:1023500080E080937B0FACE7BFE08C918F5F8C9324
:10236000A6E5B2E00D911D912D913C91AEE5B2E054
:102370000D931D932D933C93AAE5B2E00D911D9111
:102380002D913C91A2E6B2E00D931D932D933C93C9
:1023900000E010E020E030E0A6E5B2E00D931D93F0
:1023A0002D933C9300E010E020E030E0AAE5B2E09D
:1023B0000D931D932D933C9300917C0F0B3318F0DC
:1023C00011F00C94E5110C94551280E080937C0F71
:1023D000ADE7BFE00F946844ADE7BFE00D911C91FD
:1023E000003A55E0150718F011F00C94F9110C940F
:1023F0001212A8E4B0E10C9102FB16F00C94081242
:10240000EAEDFEE90F94654B0F9463450F946A451E
:102410000F943C470E94E4D280E090E0ADE7BFE03B
:102420008D939C9340E054E260E971EEAFE7BFE02A
:102430000D911D912D913C91041715072607370723
:1024400018F011F00C9426120C945512A8E4B0E187
:102450000C9102FB16F00C943512ECEEFEE90F9491
:10246000654B0F9463450F946A45EEE7F1E0A3E0F6
:10247000B2E091E00F94A04D00910302013011F001
:102480000C944312109A70910501706170930501CC
:102490008AE090E00F942C46709105017F7E709346
:1024A00005010F943C470E949BD3ADE9BFE08C919E
:1024B0008F5F8C9300919D0F0F3918F011F00C94E1
:1024C00063120C947612A8E4B0E10C9100FB16F0B4
:1024D0000C947212E2E0FFE90F94654B0F94634590
:1024E0000F946A450F943C470E949BD38F918BBFFA
:1024F0008F918FBFFF91EF91DF91CF91BF91AF91FE
:102500009F918F917F916F915F914F913F912F910B
:102510001F910F91BF90AF907F905F904F903F9031
:102520002F901F900F90189500000895F894FFCFFA
:10253000A15AA35AA55A795082508C50F16EF36E6D
:10254000F56E616D6A6DD959DA59DB59F95CFA5C3F
:102550000C5D725B775B865B895BA25BE160E2602E
:10256000E360555F5E5FAB5F41514A515451E94EA4
:10257000ED4EF24EB44FB84FC04FC44F416A436A5C
:102580009165926593657D607E60816019601A60D7
:102590001B607969C569DB69996CAD6C59665A66CF
:1025A0005B665F66B956C2566859B168B368B6686B
:1025B00049584B58525899539B539F53C15DC85D1E
:1025C000D85D3D5A3E5A425A9C729D72BA728D55E0
:1025D0008E559655096B0A6B3E734173895E8A5E10
:1025E0008D5E115912591359D26B47C52AEB09CF89
:1025F000BA6FA654D26BA15AA35A47C579508250DC
:102600008C502B55F16EF56E616DDA59DB59D95945
:10261000F95C0C5D165DDDFF8A90775B2AEBE2606A
:10262000E1606564555F535F5C5FAB5F54519851E7
:10263000E967ED4EF14EF24EE94E2C6EB84FBA4FAF
:10264000B44F5EB19655D59DDB9DE49DEE9DEB9D0F
:10265000FE9DE3A8416A426A096B29B24076B1B394
:10266000B6B39D729165926593657D60816041739B
:1026700019601A607969C569DB69DB72A65425C4E3
:10268000996C7A822D6505740674087430FB5A665D
:102690005B6659668A5EC2561057AA610B62A961D1
:1026A000DA618D6EB168B368B668F38049584B58EB
:1026B0004EF799539B539E53A15356A1115912594A
:1026C000C85DC15DF5553D5A3E5A9C729D7255AA32
:1026D00032CBBA6FB96F55EC9D63A26341795079E3
:1026E0005C7997B081E00F94274781E00F942747EA
:1026F00081E00F94274782E00F94274782E00F94F0
:10270000274784E00F94274784E00F94274784E00D
:102710000F94274781E20F94274781E00F942747C2
:1027200081E00F942747EEE9F1E0AA81BB8191E0B7
:102730000F94A04D80E0A881B9818C9300E010E057
:1027400020E030E0A8E6BFE00D931D932D933C936D
:1027500000E010E020E030E0ACE6BFE00D931D9318
:102760002D933C9300E010E020E030E0A0E7BFE0D4
:102770000D931D932D933C9388EE93E00F942C467C
:102780000F943C470E94942170914810716070939F
:102790004810ACE6BFE07C9171607C938BE0809345
:1027A00053022F9A70910201706470930201E0EE5F
:1027B000FEE0AC89BD890F949D4DAC89BD890C911B
:1027C000003011F00C94EA130F943C470F947A22D6
:1027D0000C94FA13AC89BD890C910F3F11F00C9445
:1027E000FA13E0EEFEE0A0E1BB2781E08C937BE7EB
:1027F0000F94814DA8E4B0E10C9102FB16F00C940B
:102800001514EEE0FFE90F94654B0F946345E0E289
:10281000FFE90F94654B0F946345E2E3FFE90F94E2
:10282000654B0F9463450F946A45A8E4B0E10C91A1
:1028300002FB16F00C942414E6E3FFE90F94654BB9
:102840000F9463450F946A4581E0AC89BD898C93F0
:10285000AC89BD890C91053018F011F00C948F14DF
:10286000EC89FD89A190BB24E6EAF4E0AA0CBB1C2C
:10287000AA0CBB1CEA0DFB1DAC89BD89AD90BB2425
:10288000A2E1BFE0AA0CBB1CAA0CBB1CAA0DBB1D7D
:1028900094E00F94A04DEC89FD89A190BB24ECEB52
:1028A000F4E0AA0CBB1CEA0DFB1DAC89BD89AD9000
:1028B000BB24A8E2BFE0AA0CBB1CAA0DBB1D0F9451
:1028C0009F4DAC89BD89AD90BB24A8E2BFE0AA0CA6
:1028D000BB1CAA0DBB1D0D911C9140E150E0042BC7
:1028E000152BAC89BD89AD90BB24A8E2BFE0AA0C32
:1028F000BB1CAA0DBB1D0D931C9380E0AC89BD8948
:10290000AD90BB24A3E3BFE0AA0DBB1D8C93AC89A3
:10291000BD898C918F5F8C9310F40C9428148FE0F8
:102920008093390F8FE080933A0F8FE080933B0FB5
:102930008FE080933C0F8FE180933D0FE3E9F1E05E
:10294000AC89BD8991E00F94A04DAC89BD890C91F3
:10295000003011F00C94B114ABE6BFE07C917160D3
:102960007C9380E080939E0FE4E8F1E0AC89BD8920
:1029700091E00F94A04DAC89BD898C918093740F28
:10298000E5E8F1E0AC89BD8991E00F94A04DAC89F8
:10299000BD898C918093750FE6E8F1E0AC89BD8923
:1029A00091E00F94A04DAC89BD898C918093760FF6
:1029B000E7E8F1E0AC89BD8991E00F94A04DAC89C6
:1029C000BD898C918093770FE8E8F1E0AC89BD89EF
:1029D00091E00F94A04DAC89BD898C918093780FC4
:1029E000E9E8F1E0AC89BD8991E00F94A04DAC8994
:1029F000BD898C918093790FA8E4B0E10C9100FB24
:102A000016F00C9423150F943C47AC81BD81BA930A
:102A1000AA935A924A9280E0D2018C9381E00F945B
:102A20002D470E947CCD249681E00F945344E2E42C
:102A3000FFE90F94654B0F946345AC81BD810F9402
:102A40005D450F946A4580E08093D40D80E08093CB
:102A5000BE04E8E9F1E0A3EABFE092E00F94A04DE4
:102A6000EAE9F1E0A5EABFE092E00F94A04DA8E406
:102A7000B0E10C9100FB16F00C946615EAE4FFE956
:102A80000F94654B0F9463450F943C47A0EBBEE158
:102A9000E3EAFFE00F949C4C0F945B45E0E5FFE90F
:102AA0000F94654B0F9463450F943C47A0EBBEE138
:102AB000E5EAFFE00F949C4C0F945B45E8E5FFE9E5
:102AC0000F94654B0F9463450F946A45A3EABFE0EA
:102AD0000D911C91003050E0150711F00C948415F5
:102AE0000F943C475A924A92A3EABFE08D919C9181
:102AF000D2018D939C9382E00F942D470E9400FF9A
:102B0000229682E00F945344A3EABFE00F946F44EF
:102B100080E090E0AE85BF858D939C9380E08093AC
:102B20009D0F0F943C47A3EABFE0BA93AA930E947B
:102B300030FE22960F943C470F943C47AC85BD85F0
:102B4000BA93AA935A924A92A3EABFE08D919C91BC
:102B5000D2018D939C9382E00F942D470E94C9FE71
:102B6000249682E00F945344AC85BD850D911C9151
:102B70000E3F50E0150710F00C94CA150091D415C3
:102B8000003011F00C94CA158EEF90E0AC85BD8535
:102B90008D939C93AE85BF850F946844AC85BD85AD
:102BA0000D911C910E3F50E0150781E009F080E087
:102BB0008F93AE85BF850D911C910F3C5AE115078F
:102BC00081E009F080E09F91892B882311F40C9417
:102BD0008E15AE85BF858D919C91AA85BB858D9301
:102BE0009D9388278D938C93A5EABFE00F946F4443
:102BF00080E090E0AE85BF858D939C9380E08093CC
:102C00009D0F0F943C47A5EABFE0BA93AA930E9498
:102C100030FE2296A3EABFE04D915C91A5EABFE0A9
:102C20000D911C910417150711F00C941F1681E0EB
:102C300090E0AC85BD858D939C930C9445160F94C4
:102C40003C470F943C47AC85BD85BA93AA935A92F2
:102C50004A92A5EABFE08D919C91D2018D939C93FD
:102C600082E00F942D470E94C9FE249682E00F94C3
:102C70005344AFECB5E10D91112744E050E004233B
:102C80001523AC85BD850D931C93AE85BF850F9430
:102C90006844AC85BD850D911C91003050E015074E
:102CA00080E010F009F081E08F93AE85BF850D9133
:102CB0001C910F3C5AE1150781E009F080E09F91DB
:102CC000892B882311F40C94FE15AA85BB850D91E0
:102CD0001D912D913C91AE85BF854D915C916627EC
:102CE00077270F947F4CAA85BB850D931D932D9359
:102CF0003D93A8E4B0E10C9100FB16F00C94A216F1
:102D0000EAE4FFE90F94654B0F9463450F943C4749
:102D1000A0EBBEE1E3EAFFE00F949C4C0F945B450F
:102D2000E0E5FFE90F94654B0F9463450F943C4732
:102D3000A0EBBEE1E5EAFFE00F949C4C0F945B45ED
:102D40000F946A4500914710003011F00C94BA16A8
:102D50000F943C475A924A9280ED9AE1D2018D93AA
:102D60009C9382E00F942D470E9400FF229682E000
:102D70000F945344E8E9F1E0AE85BF8592E00F94EB
:102D8000A04DA3EABFE04D915C91AE85BF850D914A
:102D90001C910417150781E009F480E08F93A3EAE2
:102DA000BFE00D911C91003050E0150781E009F45F
:102DB00080E09F918923882311F40C94D717A3EA0C
:102DC000BFE00D911C9141E050E0041B150BAE8556
:102DD000BF850D931C930F943C470F943C47AE85E1
:102DE000BF85BA93AA935A924A92AA89BB898D91B8
:102DF0009C91D2018D939C9382E00F942D470E9469
:102E0000C9FE249682E00F94534480E090E0AE85A2
:102E1000BF858D939C93AFECB5E18C9184608C93CE
:102E20000091CF15053511F00C944D1781E0AA895A
:102E3000BB898C9382E0AC89BD898C93AC89BD89B8
:102E40000C91073018F011F00C944517AC89BD892E
:102E5000AD90BB24AEECB5E1AA0DBB1D8C91AA8947
:102E6000BB89AD90BB24A8ECB4E1AA0DBB1D8C932B
:102E7000AA89BB898C918F5F8C93AC89BD898C9119
:102E80008F5F8C9310F40C941E1781E090E0AE8558
:102E9000BF858D939C930C94C5170091CF15063276
:102EA00011F00C94C51781E0AA89BB898C938FE03F
:102EB000AC89BD898C93AC89BD890C91093118F01E
:102EC00011F00C94BF17AC89BD89AD90BB24AEEC5A
:102ED000B5E1AA0DBB1D0C9140E3041BAA89BB8977
:102EE000AD90BB24A8ECB4E1AA0DBB1D0C93AA893C
:102EF000BB89AD90BB24A8ECB4E1AA0DBB1D0C911D
:102F00004AE0049F0C92AC89BD890C9141E0040F0A
:102F1000A889B9890C93AA89BB89AD90BB24A8EC78
:102F2000B4E1AA0DBB1D0C91A889B989AD90BB2451
:102F3000AEECB5E1AA0DBB1D4C91040FAA89BB896B
:102F4000AD90BB24A8ECB4E1AA0DBB1D0C93AA89DB
:102F5000BB89AD90BB24A8ECB4E1AA0DBB1D8C913C
:102F600080538C93AA89BB898C918F5F8C93AC8999
:102F7000BD898C918E5F8C9310F40C945B1781E06B
:102F800090E0AE85BF858D939C93AE85BF850D91F6
:102F90001C91013050E0150711F00C94D7170F94D5
:102FA0003C470E949B240F943C470E94BECC40E4C7
:102FB00050E060E070E0AA85BB850D911D912D91D8
:102FC0003C910F94894C1CF011F00C94E9170C946F
:102FD000ED1781E0A881B9818C93A3EABFE00D9140
:102FE0001C9122273327A5EABFE04D915C9166270B
:102FF00077270F94844CA9EABFE00D931D932D937E
:103000003D93AC81BD81ECE5FFE90F94654B0F94D6
:1030100024480F943C47AC81BD810F94B444E3EA4B
:10302000FFE00F942B4D0F943C475A924A9280E058
:10303000D2018C9381E00F942D47AE81BF81BA936A
:10304000AA930E945E9B249681E00F945344E7EB81
:10305000F1E0AEE2B0E191E00F94A04DE8EBF1E0D9
:10306000AE85BF8592E00F94A04DAE85BF858D9152
:103070009C91A885B9858D939D9388278D938C937A
:10308000A885B9850D911D912D913C9140EB54E09F
:1030900060E070E00F940148AFE2B0E10D931D9342
:1030A0002D933D93EFEAF0E0ADECBDE091E00F949D
:1030B000A04DE0EBF0E0AEECBDE091E00F94A04D50
:1030C000EDE9F1E0ACE9BFE091E00F94A04D009193
:1030D0009C0F003011F00C94731880E080939B0FCC
:1030E0008E980C94771881E080939B0F8E9A00E065
:1030F00010E020E030E0A9EEBFE00D931D932D938A
:103100003C93ECEAF1E0ADEABFE092E00F94A04D11
:1031100080E080932D10ECE6F1E0AAE4BAE091E0C3
:103120000F94A04DEDE6F1E0ABE4BAE091E00F942E
:10313000A04D8FEF80934C0A70914C0A746070938D
:103140004C0A70914C0A726070934C0AEEE6F1E002
:10315000ADE4BAE091E00F94A04DEFE6F1E0AEE40B
:10316000BAE094E00F94A04D80E08093690A80E07B
:1031700080936A0AA2E5BAE088278C93ADE5BAE0AD
:1031800088278C93E5E7F1E0ABE6BAE091E00F9495
:10319000A04D70913306777F70933306E8E0F1E03D
:1031A000ACE6BAE091E00F94A04DE9E0F1E0ADE6C5
:1031B000BAE091E00F94A04DE2ECF0E0AC81BD816B
:1031C00091E20F94A04D0F943C47EC81FD8101E00A
:1031D00010E0AC81BD810F94EC47AC81BD81E4E689
:1031E000FFE90F94654B0F94B14D11F00C94001949
:1031F00080E29CE1A7ECB4E08D939C930C94391988
:10320000E6E6FFE90F94654B0F94B14D11F00C9475
:10321000111980E29CE1A7ECB4E08D939C930C948F
:103220003919E8E6FFE90F94654B0F94B14D11F0A1
:103230000C9422198CE390E0A7ECB4E08D939C935E
:103240000C943919EAE6FFE90F94654B0F94B14DE0
:1032500011F00C9433198CE291E0A7ECB4E08D935B
:103260009C930C9439198CE291E0A7ECB4E08D9317
:103270009C93EDE4F1E0A1EDB4E091E00F94A04D5A
:10328000EEE4F1E0A2EDB4E094E00F94A04DE2E5AD
:10329000F1E0A6EDB4E094E00F94A04D80E0AA899F
:1032A000BB898C9347E359E861E470E0A2EDB4E098
:1032B0000D911D912D913C91041715072607370795
:1032C00018F011F00C9466190C946B19AA89BB893B
:1032D0008C918F5F8C930F943C47E6EDF4E00F9454
:1032E0005E478578AC89BD898C93AC89BD890C918A
:1032F000003080E010F009F081E08F93E6EDF4E01B
:103300000F94F348ECE5FCE90F94654B0F94074AE2
:103310000F94714780E010F009F081E09F91892BB4
:10332000882311F40C949919AA89BB898C918F5F19
:103330008C93AA89BB890C91003018F011F00C9481
:10334000A3190C94051AAC81BD81ECE6FFE90F943A
:10335000654B0F9424480F943C47AC81BD810F947A
:10336000B444E2EDF4E00F942D4DAC81BD810F9497
:10337000B444E8E7FFE90F94654B0F942448E6ED69
:10338000F4E0A4E7B0E10F94754D0F943C47AC8195
:10339000BD810F94B444E4E7F0E10F942D4D0F94F8
:1033A0003C475A924A9281E0D2018C9381E00F947B
:1033B0002D47AE81BF81BA93AA930E945E9B24964B
:1033C00081E00F94534400E010E020E030E0A2EDF3
:1033D000B4E00D931D932D933C93EEE4F1E0A2ED48
:1033E000B4E094E07BE70F94844DA6EDB4E0E0E612
:1033F000FCE90F94654B0F94E44AE2E5F1E0A6ED99
:10340000B4E094E07BE70F94844D0F943C47A2ED29
:10341000B4E0BA93AA93A6EDB4E0BA93AA93ADEC44
:10342000B4E0BA93AA930E94FFF12696E6E5F1E094
:10343000AAEDB4E092E00F94A04DACEDB4E0E0E66C
:10344000FCE90F94654B0F94E44AA0EBB4E0E0E68E
:10345000FCE90F94654B0F94E44A00E010E020E093
:1034600030E0A0E0B5E00D931D932D933C9380E0F8
:1034700090E0A4E0B5E08D939C93E8E5F1E0A0EE48
:10348000B4E091E00F94A04DE9E5F1E0A5EEB4E0E1
:1034900091E00F94A04DEAE5F1E0A6EEB4E094E0EF
:1034A0000F94A04DEEE5F1E0AAEEB4E094E00F94A5
:1034B000A04D80E0AA89BB898C9347E359E861E479
:1034C00070E0A6EEB4E00D911D912D913C91041792
:1034D00015072607370718F011F00C94711A0C9491
:1034E000761AAA89BB898C918F5F8C930F943C4785
:1034F000EAEEF4E00F945E478578AC89BD898C9341
:10350000AC89BD890C91003080E010F009F081E0B9
:103510008F93EAEEF4E00F94F348ECE5FCE90F94A6
:10352000654B0F94074A0F94714780E010F009F043
:1035300081E09F91892B882311F40C94A41AAA8905
:10354000BB898C918F5F8C93AA89BB890C910030C9
:1035500018F011F00C94AE1A0C94101BAC81BD81C4
:10356000EAE7FFE90F94654B0F9424480F943C471A
:10357000AC81BD810F94B444E6EEF4E00F942D4D80
:10358000AC81BD810F94B444E8E7FFE90F94654B2B
:103590000F942448EAEEF4E0A4E7B0E10F94754DEF
:1035A0000F943C47AC81BD810F94B444E4E7F0E153
:1035B0000F942D4D0F943C475A924A9281E0D201CC
:1035C0008C9381E00F942D47AE81BF81BA93AA936B
:1035D0000E945E9B249681E00F94534400E010E02B
:1035E00020E030E0A6EEB4E00D931D932D933C93C4
:1035F000EAE5F1E0A6EEB4E094E07BE70F94844DB9
:10360000AAEEB4E0E0E6FCE90F94654B0F94E44ABF
:10361000EEE5F1E0AAEEB4E094E07BE70F94844D90
:103620000F943C47A6EEB4E0BA93AA93AAEEB4E096
:10363000BA93AA93A1EEB4E0BA93AA930E94FFF1C1
:103640002696E2E6F1E0AEEEB4E092E00F94A04DF3
:10365000A0EFB4E0E0E6FCE90F94654B0F94E44A78
:10366000E4E6F1E0A3E1B5E091E00F94A04DE5E6DA
:10367000F1E0A4E1B5E091E00F94A04DE6E6F1E0C1
:10368000A5E1B5E094E00F94A04DEAE6F1E0A9E1F0
:10369000B5E092E00F94A04D7091D6027D7F7093BB
:1036A000D60280E090E0ABE1B5E08D939C9380E0A2
:1036B00090E0ADE1B5E08D939C93E5ECF0E0AC8952
:1036C000BD8991E00F94A04DAC89BD898C91ADEA84
:1036D000B4E08D9388278C9300E010E020E030E088
:1036E000ADEFBFE00D931D932D933C93EFE9F1E017
:1036F000A6EFB3E094E00F94A04DE3EAF1E0AAEF67
:10370000B3E094E00F94A04DA6EFB3E00D911D91AE
:103710002D913C91AEEEB3E00D931D932D933C9310
:10372000AAEFB3E00D911D912D913C91A2EFB3E072
:103730000D931D932D933C937091D6027F7E7093D1
:10374000D602E7EAF1E0ADEBB4E091E00F94A04DD2
:103750000091BD04013011F00C94B41B81E48093FE
:10376000A60481E48093A704EEE8F1E0A8EFB4E0BA
:1037700091E00F94A04DEAE8F1E0A4EFB4E092E00C
:103780000F94A04DECE8F1E0A6EFB4E092E00F94C6
:10379000A04DEFE8F1E0ACEFB4E091E00F94A04D64
:1037A000E0E9F1E0A9EFB4E091E00F94A04DE1E988
:1037B000F1E0AAEFB4E092E00F94A04D80E0809396
:1037C000FD0480E090E0AEEFB4E08D939C9380E048
:1037D0008093BC0400E010E020E030E0AEE5B2E011
:1037E0000D931D932D933C9300E010E020E030E01A
:1037F000A2E6B2E00D931D932D933C93ECE0F1E033
:10380000A6E6B2E094E00F94A04DE0E1F1E0AAE674
:10381000B2E094E00F94A04D0F943C470E94C82161
:103820007091D40E7F7B7093D40E80E0809346100D
:1038300080E080931F057091D6027E7F7093D60240
:1038400080E090E0AAE2B5E08D939C93EFE7F1E091
:10385000A1E6BFE092E00F94A04D80E080932C059C
:1038600080E080932D0580E080932E0500E010E03D
:1038700020E030E0ADEEBFE00D931D932D933C931F
:10388000E894A9E6BFE08C9180F98C9380E090E009
:10389000A0ECB0E18D939C9380E090E0A2ECB0E1CD
:1038A0008D939C9380E08093ED0380E08093CB0D1B
:1038B00080E08093120E80E08093130E80E080936E
:1038C000160E00E010E020E030E0A1ECBFE00D9328
:1038D0001D932D933C9380E090E0ABEDB2E08D938F
:1038E0009C9383E68093C80D00E010E020E030E078
:1038F000A9EBBFE00D931D932D933C93E3E2F1E020
:10390000A3E9BAE091E00F94A04DE4E2F1E0A4E96C
:10391000BAE091E00F94A04DE7E2F1E0ADE8BAE043
:1039200092E00F94A04DEDE2F1E0AFE8BAE094E050
:103930000F94A04DE1E3F1E0ADECBAE094E00F9418
:10394000A04DE5E3F1E0A5EDBAE094E00F94A04DC1
:10395000EDE3F1E0A1EDBAE094E00F94A04DE1E4D5
:10396000F1E0A9EDBAE094E00F94A04DE9E3F1E0B5
:10397000A5ECBAE094E00F94A04DE5E4F1E0A9ECE9
:10398000BAE094E00F94A04DE9E2F1E0A9EEBAE0CC
:1039900092E00F94A04DEBE2F1E0ABEEBAE092E0E2
:1039A0000F94A04DADE9BAE0E0E6FCE90F94654B59
:1039B0000F94E44AA1EABAE0E0E6FCE90F94654B13
:1039C0000F94E44AADEDBAE0E0E6FCE90F94654BF4
:1039D0000F94E44AA1EEBAE0E0E6FCE90F94654BEF
:1039E0000F94E44AEBE4F1E0A5EEBAE092E00F9424
:1039F000A04DE9E4F1E0A7EEBAE092E00F94A04D0B
:103A0000AAE6BFE07C9170627C93AAE6BFE07C915D
:103A100070647C9380E080938B0A80E080938C0AB2
:103A2000E4E1F1E0A1E7BAE091E00F94A04DE5E117
:103A3000F1E0A2E7BAE091E00F94A04DE6E1F1E0F9
:103A4000A7E7BAE094E00F94A04DEAE1F1E0ABE71C
:103A5000BAE094E00F94A04D80E0AA89BB898C93D2
:103A600047E359E861E470E0A7E7BAE00D911D91E2
:103A70002D913C91041715072607370718F011F010
:103A80000C94441D0C94491DAA89BB898C918F5FAD
:103A90008C930F943C47EBE7FAE00F945E478578F0
:103AA000AC89BD898C93AC89BD890C91003080E0D4
:103AB00010F009F081E08F93EBE7FAE00F94F34800
:103AC000ECE5FCE90F94654B0F94074A0F9471479E
:103AD00080E010F009F081E09F91892B882311F498
:103AE0000C94771DAA89BB898C918F5F8C93AA89CE
:103AF000BB890C91003018F011F00C94811D0C94CE
:103B0000E31DAC81BD81E6E8FFE90F94654B0F949E
:103B100024480F943C47AC81BD810F94B444E7E73F
:103B2000FAE00F942D4DAC81BD810F94B444E8E7C9
:103B3000FFE90F94654B0F942448EBE7FAE0A4E704
:103B4000B0E10F94754D0F943C47AC81BD810F944B
:103B5000B444E4E7F0E10F942D4D0F943C475A92A2
:103B60004A9281E0D2018C9381E00F942D47AE817F
:103B7000BF81BA93AA930E945E9B249681E00F9422
:103B8000534400E010E020E030E0A7E7BAE00D93F6
:103B90001D932D933C93E6E1F1E0A7E7BAE094E0B2
:103BA0007BE70F94844DABE7BAE0E0E6FCE90F94C5
:103BB000654B0F94E44AEAE1F1E0ABE7BAE094E048
:103BC0007BE70F94844D0F943C47A7E7BAE0BA9384
:103BD000AA93ABE7BAE0BA93AA93A3E7BAE0BA9381
:103BE000AA930E94FFF12696EEE1F1E0A7E8BAE081
:103BF00094E00F94A04D80E090E0A1EABBE08D93AB
:103C00009C9380E090E0A3EABBE08D939C9380E0DE
:103C100090E0A5EABBE08D939C9380E090E0A7EA5A
:103C2000BBE08D939C9380E090E0A9EABBE08D938C
:103C30009C93E2E8F1E0A3E6BFE091E00F94A04D91
:103C40000F943C470E94C72181E0AC89BD898C93C9
:103C5000AC89BD890C91003118F011F00C94421E12
:103C600080E0AC89BD89AD90BB24AEE3B3E0AA0D82
:103C7000BB1D8C93AC89BD898C918F5F8C9310F4A4
:103C80000C94281E81E0AC89BD898C93AC89BD89D8
:103C90000C91003118F011F00C94681EEC89FD892C
:103CA000A190BB24E9E5F4E0EA0DFB1DAC89BD89D8
:103CB000AD90BB24AEEEB2E0AA0DBB1D0F949D4D9E
:103CC000AC89BD898C918F5F8C9310F40C94461E47
:103CD00081E0AC89BD898C93AC89BD890C9100349D
:103CE00018F011F00C948E1EEC89FD89A190BB2474
:103CF000E9E6F4E0EA0DFB1DAC89BD89AD90BB247B
:103D0000AEEFB2E0AA0DBB1D0F949D4DAC89BD89ED
:103D10008C918F5F8C9310F40C946C1EE9EBF0E0A7
:103D2000AFEDB2E092E00F94A04DE894A0EEB2E0C7
:103D30008C9183F98C93E894A0EEB2E08C9180F999
:103D40008C9380E090E0A8E7B2E08D939C93E2EB47
:103D5000F0E0A3EEB2E092E00F94A04DA3EEB2E04B
:103D60000D911C91AC89BD894D91552704271527CC
:103D7000A3EEB2E00D931C93E7EBF0E0ADEDB2E003
:103D800092E00F94A04D8FEF9FE0A9EEB2E08D93EB
:103D90009C9380E08093EB0280E08093EC0281E0D2
:103DA000AC89BD898C93AC89BD890C910C3018F01D
:103DB00011F00C94161F8FEFAC89BD89AD90BB2418
:103DC000ADEBB2E0AA0DBB1D8C93EC89FD89A190EF
:103DD000BB24EDE4F4E0EA0DFB1DAC89BD89AD9098
:103DE000BB24A1EBB2E0AA0DBB1D0F949D4DAC8985
:103DF000BD89AD90BB24A1EBB2E0AA0DBB1D0C9117
:103E00000F3F11F00C940E1F80E0AC89BD89AD907E
:103E1000BB24A1EBB2E0AA0DBB1D8C93AC89BD897C
:103E20008C918F5F8C9310F40C94D31E0F943C47AD
:103E30000E949F2B0F943C470E94642C0F943C4798
:103E40000E94C9210F943C470E94892FA6E7B2E047
:103E50008D919C91ACE7B2E08D939C9380917E0212
:103E600080937F02ACE7B2E08D919C91A0E8B2E034
:103E70008D939C9394E0A0E8B2E00F943F48A0E8B3
:103E8000B2E00D911C9140EC5FEF04231523A0E8F4
:103E9000B2E00D931C93A0E8B2E00D911C91AFE746
:103EA000B2E04D915527042B152BA0E8B2E00D93FD
:103EB0001C93A6E7B2E08D919C91ADEEB2E08D939C
:103EC0009C93A8E6BFE07C917F7D7C93A8E6BFE051
:103ED0007C917D7F7C9380E38093300680E38093A8
:103EE000310680E08093C90D00E010E020E030E072
:103EF000AFE7BFE00D931D932D933C9300E010E0DE
:103F000020E030E0A3E8BFE00D931D932D933C9398
:103F100000E010E020E030E0A7E8BFE00D931D9343
:103F20002D933C9300E010E020E030E0ABE8BFE0F0
:103F30000D931D932D933C9300E010E020E030E0C2
:103F4000AFE8BFE00D931D932D933C9300E010E08C
:103F500020E030E0A3E9BFE00D931D932D933C9347
:103F600080E08093320600E010E020E030E0A9EF2E
:103F7000BFE00D931D932D933C9300E010E020E0F3
:103F800030E0A9ECBFE00D931D932D933C9300E02E
:103F900010E020E030E0ADECBFE00D931D932D93D9
:103FA0003C9386E58093A60400E010E020E030E03A
:103FB000A8EAB4E00D931D932D933C9300E010E02C
:103FC00020E030E0A1EDBFE00D931D932D933C93D5
:103FD00000E010E020E030E0A5EDBFE00D931D9380
:103FE0002D933C9300E010E020E030E0A9EDBFE02D
:103FF0000D931D932D933C9300E010E020E030E002
:10400000ADEDBFE00D931D932D933C9300E010E0C8
:1040100020E030E0A1EEBFE00D931D932D933C9383
:1040200000E010E020E030E0AFEBB4E00D931D9332
:104030002D933C9300E010E020E030E0A3ECB4E0EE
:104040000D931D932D933C9300E010E020E030E0B1
:10405000A9ECB4E00D931D932D933C937091020154
:10406000777F70930201709102017F7E709302014D
:104070007798ADE7B2E08C9183FBA6EDB2E08C912E
:1040800087F98C93AEE7B3E088278C93E3E8F1E0FF
:10409000AEE3B6E091E00F94A04D80E0809340063F
:1040A00080E080933F06EEEAF1E0AFE4B3E094E015
:1040B0000F94A04DE4E6FCE90F94654B0F94074A7A
:1040C000EFE4F3E00F94F3480F94A049EDE0F0E043
:1040D000A3E5B3E00F94754D80E080933310E6E9DB
:1040E000F1E0A5EFBEE091E00F94A04DE7E9F1E02B
:1040F000A6EFBEE091E00F94A04DE2EBF1E0AC89B9
:10410000BD8991E00F94A04DAC89BD890C9101301F
:1041100011F00C949220AFE6BFE07C9170687C9324
:104120000C949720AFE6BFE07C917F777C93EDEB1A
:10413000F1E0A7EFBEE091E00F94A04D00E010E0A9
:1041400020E030E0ADEFBEE00D931D932D933C9346
:10415000E2ECF1E0ACEFBEE091E00F94A04D0091F5
:10416000FC0E013011F00C94BA2087E08093F90E18
:104170000C94BD2080E08093F90EAFE6BFE00C9177
:1041800007FB16F00C94CA208DE08093F90E80E0B6
:104190008093100FE5ECF1E0AFE0BFE091E00F9409
:1041A000A04DE1ECF1E0ADE0BFE091E00F94A04D57
:1041B00080E080930E0F80E08093FB0EE1EBF0E057
:1041C000A8EFBEE091E00F94A04DE4EBF0E0A1EE8B
:1041D000B2E092E00F94A04DACE7B2E00D911C91DB
:1041E000A1EEB2E04D915C9104231523A1E0BFE064
:1041F0000D931C93E0ECF0E0A5EEB2E092E00F949A
:10420000A04D80E090E0A7EEB2E08D939C9380E01B
:1042100090E0A9E0BFE08D939C9380E090E0A7E060
:10422000BFE08D939C9380E090E0A5E0BFE08D938C
:104230009C9380E090E0A3E0BFE08D939C9380E0AE
:1042400080930F0580E080930E0500E010E020E0F1
:1042500030E0A6E0B5E00D931D932D933C9300E074
:1042600010E020E030E0AAE0B5E00D931D932D931F
:104270003C9382E08093120500913D06003081E07E
:1042800009F080E08F9300912F05003081E009F064
:1042900080E09F918923882311F40C94542170911C
:1042A00048107061709348100F943C470F94AA0611
:1042B000709148107F7E709348100F943C470F9484
:1042C000B106709133067F7B70933306709133068D
:1042D0007F7D70933306709148107E7F70934810F5
:1042E000AA81BB810C91003011F40C94832180E0F1
:1042F000AA81BB818C93EEE9F1E0AA81BB8191E0B8
:104300007BE70F94844DA881B9810C91013011F0A5
:104310000C948E210F943C470E94E4D286E3481A05
:1043200080E0580A6696089581E00F94274780E060
:104330008093481000913D06013011F00C94A521A6
:1043400080E080932F050C94C121E7E7F1E0AFE214
:10435000B5E091E00F94A04D00912F05013011F0D0
:104360000C94BC2180E08093300570913306706816
:10437000709333060C94C12170914810746070934F
:10438000481081E0481A80E0580A2296089508955E
:10439000089581E00F94274781E00F942747E7ECC9
:1043A000F0E0A9EDB2E092E00F94A04DE9ECF0E06E
:1043B000A7EDB2E092E00F94A04D80E0AA81BB810E
:1043C0008C93AA81BB810C910B3018F011F00C94E6
:1043D0000922AA81BB810C9141E0040FA881B98117
:1043E0000C93A9EDB2E08D919C91A881B981AD901B
:1043F000BB24A0E8B2E0AA0CBB1CAA0DBB1D8D9388
:104400009C93AA81BB818C918F5F8C9310F40C9448
:10441000E12180E0AA81BB818C93AA81BB810C91B0
:10442000053018F011F00C943022AA81BB810C9158
:1044300041E0040FA881B9810C938091D902A88131
:10444000B981AD90BB24A9ECB2E0AA0DBB1D8C9341
:10445000AA81BB818C918F5F8C9310F40C940D22F8
:104460008CE0AA81BB818C93A7EDB2E08D919C91E9
:10447000AA81BB81AD90BB24A0E8B2E0AA0CBB1C12
:10448000AA0DBB1D8D939C9385E0AA81BB818C9363
:1044900082E090E0AA81BB81AD90BB24A0E8B2E0AD
:1044A000AA0CBB1CAA0DBB1D8D939C9384E0AA8112
:1044B000BB818C9382E090E0AA81BB81AD90BB244C
:1044C000A0E8B2E0AA0CBB1CAA0DBB1D8D939C9367
:1044D00083E0AA81BB818C9382E090E0AA81BB81BA
:1044E000AD90BB24A0E8B2E0AA0CBB1CAA0DBB1D7A
:1044F0008D939C9380E0AA81BB818C93AA81BB8120
:104500000C910B3018F011F00C94CF22AA81BB81D2
:104510000C9141E0040FA881B9810C93AA81BB8161
:104520008C91ACE7B2E00F940F4B0F94054B0C90BD
:104530000822689409F4E89416F00C94B922A88132
:10454000B981AD90BB24A0E8B2E0AA0CBB1CAA0DB7
:10455000BB1D8D919C91A881B981AD90BB24A8E928
:10456000B2E0AA0CBB1CAA0DBB1D8D939C930C94AE
:10457000C72280E090E0A881B981AD90BB24A8E972
:10458000B2E0AA0CBB1CAA0DBB1D8D939C93AA8103
:10459000BB818C918F5F8C9310F40C947E2280E011
:1045A000AA81BB818C93AA81BB810C91053018F044
:1045B00011F00C941A23AA81BB810C9141E0040FE5
:1045C000A881B9810C93AA81BB818C91AFE7B2E03D
:1045D0000F940F4B0F94054B0C900822689409F42C
:1045E000E89416F00C940823A881B981AD90BB24FF
:1045F000A9ECB2E0AA0DBB1D8C91A881B981AD9048
:10460000BB24AFECB2E0AA0DBB1D8C930C9412231B
:1046100080E0A881B981AD90BB24AFECB2E0AA0DD7
:10462000BB1D8C93AA81BB818C918F5F8C9310F4FE
:104630000C94D32281E0A881B9818C93A7EDB2E0DC
:104640008D919C91A881B981AD90BB24A8E5B3E080
:10465000AA0CBB1CAA0DBB1D8D939C9382E0A88164
:10466000B9818C9384E690E0A881B981AD90BB2498
:10467000A8E5B3E0AA0CBB1CAA0DBB1D8D939C93AF
:1046800083E0A881B9818C9388E290E0A881B98108
:10469000AD90BB24A8E5B3E0AA0CBB1CAA0DBB1DC2
:1046A0008D939C9384E0A881B9818C9384E690E0FB
:1046B000A881B981AD90BB24A8E5B3E0AA0CBB1CCE
:1046C000AA0DBB1D8D939C9385E0A881B9818C9325
:1046D0008CE390E0A881B981AD90BB24A8E5B3E05C
:1046E000AA0CBB1CAA0DBB1D8D939C9386E0A881D0
:1046F000B9818C9384E690E0A881B981AD90BB2408
:10470000A8E5B3E0AA0CBB1CAA0DBB1D8D939C931E
:1047100082E0481A80E0580A2496089581E00F94B8
:10472000274781E00F94274781E00F94274781E0D6
:104730000F94274785E10F94274783E00F9427477D
:1047400080E0AC81BD818C93AC81BD818C918F5F09
:104750008C930F943C470E94C2D2AA81BB81E4E9AA
:10476000FFE90F94654B0F9424480F943C47AA81AE
:10477000BB81BA93AA930E9439D922960F943C47E1
:104780000F943C47AA85BB85BA93AA93AC81BD819F
:10479000BA93AA930E9474D02496AA85BB850C91E3
:1047A000003011F00C948F24A8E4B0E10C9100FBD0
:1047B00016F00C94E123AA81BB810F945D450F9400
:1047C0006A450F943C47AA81BB810F94DD47AE81B7
:1047D000BF818C93AE81BF810C910F3011F00C948E
:1047E0006D2481E0AA85BB858C93AA85BB850C913D
:1047F0000F3018F011F00C9439240F943C47AA851F
:10480000BB858D919927EA81FB8101E010E00A9335
:104810001A93AA81BB810F94E4470F943C47AA8165
:10482000BB818C91A885B9858C93A885B9850C919D
:10483000003381E008F080E08F93A885B9850C9162
:10484000093380E010F009F081E09F91892B8823E3
:1048500011F40C943124AA81BB8188278C930C9489
:104860003924AA85BB858C918F5F8C9310F40C94AE
:10487000F523AA81BB818C91803011F40C946D24B6
:10488000EA81FB81A8EBBDE00F94704DE8E4F0E015
:10489000A8EBBDE090E17BE70F94924D81E0AA8503
:1048A000BB858C93E8E5F0E0AA85BB8591E07BE7CA
:1048B0000F94844DA8E4B0E10C9102FB16F00C9427
:1048C0006924ECE9FFE90F94654B0F9463450F945D
:1048D0006A4583E0AC81BD818C930F943C470F9473
:1048E0003C47AA85BB85BA93AA935A924A9282E022
:1048F000D2018C9381E00F942D475A924A92D201B3
:10490000E2E2FDE90F94654B0F94244883E00F9495
:104910002D470E9403EF269684E00F945344AC8108
:10492000BD810C91033008F40FCF8CE1481A80E070
:10493000580A2C9608958091C9148093760F80911F
:10494000CA148093750F8091CB148093740F80915B
:10495000CC148093770F8091CD148093780F809141
:10496000CE148093790F089581E00F94274784E057
:104970000F94274781E00F94274784E00F9427473F
:1049800084E00F942747ABE8BFE00D911D912D9176
:104990003C91A881B9810D931D932D933C93AA85D9
:1049A000BB850D911C912227332742E350E060E044
:1049B00070E00F94A345AE81BF814D935D936D93DD
:1049C0007D9301E010E020E030E0AA81BB810D93EF
:1049D0001D932D933C9349E355E16AE070E0AA8171
:1049E000BB810D911D912D913C9104171507260750
:1049F000370718F011F00C946D250F943C470F9475
:104A00003C47AC81BD81BA93AA935A924A92AA8537
:104A1000BB850D911D912D913C91D2010D931D935C
:104A20002D933C9384E00F942D475A924A92AE8185
:104A3000BF810D911D912D913C91D2010D931D933C
:104A40002D933C9384E00F942D470E9481F4269689
:104A500088E00F945344AC81BD810C91013011F07A
:104A60000C9436250C946D250C9466250F943C47C8
:104A70000E94A4A0A9E6BFE00C9100FB16F00C94E4
:104A800066250F943C470F943C47A885B985BA9397
:104A9000AA93A6E9B8E1BA93AA930E9474D0249687
:104AA000A885B9850C91003011F00C9466250F94FF
:104AB0003C470F943C47A885B985BA93AA93A6E9C9
:104AC000B8E1BA93AA930E940F382496AA81BB81B9
:104AD0000F945B4410F40C94EB248EE0481A80E0B1
:104AE000580A2A96089581E00F94274781E20F948F
:104AF000274785E00F94274782E00F94274781E0FE
:104B00000F94274785E10F942747A8E4B0E10C9163
:104B100002FB16F00C949425ECEAFFE90F94654B28
:104B20000F9463450F946A4580E08093160EADE6BE
:104B3000BFE07C9170687C93A885B985EAEBFFE9BA
:104B40000F94654B0F9424480F943C47A885B98572
:104B5000BA93AA930E9439D922960F943C470F9496
:104B60003C47AA85BB85BA93AA935A924A9282E09F
:104B7000D2018C9381E00F942D475A924A92D20130
:104B8000E2EDFFE90F94654B0F94244886E00F9403
:104B90002D470E9403EF269687E00F945344AA8581
:104BA000BB850C91003018F011F00C94D9250C94B1
:104BB00068270F943C47A6E9B8E1E2EDFFE90F94BE
:104BC000654B2FEF91E00F948448AA85BB850C9329
:104BD000AA85BB858C91895F8C93A885B985882728
:104BE0008C930F943C47AA85BB858D919927E6E964
:104BF000F8E101E010E00A931A93A885B9850F94B3
:104C0000E447AE81BF81E8EDFFE90F94654B0F9457
:104C1000B14D11F40C942B26EE81FF81A885B98546
:104C20000F94B4440F94704DAA85BB858C918F5F0F
:104C30008C930F943C47AA85BB858D919927E6E913
:104C4000F8E101E010E00A931A93A885B9850F9462
:104C5000E4470C9401260F943C47A885B9850F942E
:104C6000FA4CAC81BD810D931C93A8E4B0E10C918A
:104C700000FB16F00C944E26EAEDFFE90F94654B0D
:104C80000F9463450F943C47A0EBBEE1EC81FD819E
:104C90000F949C4C0F945B450F946A45AE81BF8185
:104CA000E0EEFFE90F94654B0F9424480F943C47C6
:104CB0000F943C47AA85BB85BA93AA93A6E9B8E1AD
:104CC000BA93AA935A924A9284E0D2018C9381E0DB
:104CD0000F942D475A924A92EE85FF85D2010F9488
:104CE000704D85E00F942D47A885B985BA93AA9396
:104CF0005A924A9284E1D2018C9381E00F942D471D
:104D00000E94ADF22C9687E00F945344AA85BB8590
:104D10000C91003011F40C949126A881B981882758
:104D20008C93A8E4B0E10C9100FB16F00C94A4263F
:104D3000E2EEFFE90F94654B0F946345A881B981BA
:104D40000F945D450F946A4580E0AA81BB818C93E6
:104D5000E9E8F0E0A885B98591E20F94A04DE881DB
:104D6000F981A885B9850F94B34D11F40C94DB2615
:104D7000ECE9F0E0A885B98591E20F94A04DE881B7
:104D8000F981A885B9850F94B34D11F40C94DB26F5
:104D900081E0AA81BB818C93A8E4B0E10C9100FB77
:104DA00016F00C94DB26EAEEFFE90F94654B0F94A6
:104DB00063450F946A450F943C470F943C47AA857E
:104DC000BB85BA93AA93A6E9B8E1BA93AA930E94C5
:104DD00074D02496AA85BB850C91003011F00C94F8
:104DE0001527A8E4B0E10C9100FB16F00C94042701
:104DF000EAEFFFE90F94654B0F946345A6E9B8E12C
:104E00000F945D450F946A45A881B9818C918030DB
:104E100011F40C9415270F943C47E6E9F8E100EAF9
:104E200010E0A7E1BEE00F94EC4780E08093160EFF
:104E30000F943C470F943C47AA85BB85BA93AA932D
:104E40005A924A9282E0D2018C9381E00F942D47CE
:104E50005A924A92D201E2E2FDE90F94654B0F9417
:104E6000244883E00F942D470E9403EF269684E0A8
:104E70000F945344ADE6BFE07C917F777C93AC8187
:104E8000BD818C91AA85BB858C930F943C470F9470
:104E90003C47AA85BB85BA93AA935A924A92AE859B
:104EA000BF858C91D2018C9381E00F942D470E9495
:104EB000F029249681E00F9453440F943C47AA8133
:104EC000BB81BA93AA930E94522A22960C94762709
:104ED000A6E9B8E1EEE2FEE90F94654B0F94B14DFF
:104EE00011F00C94762780E08093160EADE6BFE0BB
:104EF0007C917F777C93A8E4B0E10C9100FB16F0E5
:104F00000C949427E2E0F0EA0F94654B0F9463450C
:104F10000F943C47A0EBBEE1E6E1FEE00F94B04CFD
:104F20000F945B450F946A458FE3481A80E0580A56
:104F30002C96089581E00F94274782E00F9427472D
:104F400081E20F94274781E10F94274781E00F9476
:104F500027478FEFA881B9818C93AA85BB850C91D7
:104F6000013011F00C94BD27E3E6F0E0AA81BB818B
:104F700091E10F94A04D0C94D527AA85BB850C9187
:104F8000023011F00C94CD27E6E7F0E0AA81BB8156
:104F900091E10F94A04D0C94D527A881B9818C91F3
:104FA000AE85BF858C930C94D428AA81BB81E0E1A7
:104FB000F0EA0F94654B0F94B14D81E009F080E069
:104FC0008F93AA81BB818C91803081E009F080E0D1
:104FD0009F91892B882311F40C94F627A881B9811D
:104FE0008C91AE85BF858C930C94D428AC81BD8107
:104FF000E2E1F0EA0F94654B0F9424480F943C478C
:10500000AC81BD810F94B444EC85FD850F94B04C08
:10501000AC81BD810F94B444ECE1F0EA0F94654B90
:105020000F942448EA81FB81AC81BD810F94B44484
:105030000F94704DAC81BD810F94B444E0EEFFE954
:105040000F94654B0F9424480F943C47AC81BD816D
:10505000BA93AA930E9439D922960F943C470F9491
:105060003C47A885B985BA93AA935A924A9284E19B
:10507000D2018C9381E00F942D475A924A92D2012B
:10508000E0E2F0EA0F94654B0F94244886E00F9419
:105090002D470E9403EF269687E00F945344A8857E
:1050A000B9850C91003018F011F00C9459280C942B
:1050B000CE280F943C470F943C47A885B985BA93F6
:1050C000AA93A6E9B8E1BA93AA935A924A9282E0C7
:1050D000D2018C9381E00F942D475A924A92D201CB
:1050E000E6E2F0EA0F94654B0F94244882E00F94B7
:1050F0002D47AC85BD85BA93AA935A924A9283E014
:10510000D2018C9381E00F942D470E94ADF22C9632
:1051100084E00F945344A885B9850C91013011F4B3
:105120000C94AC280F943C47AC81BD810F94FA4C91
:10513000AE81BF810D931C93AE81BF810D911C91F7
:10514000003051E0150710F00C94AC28AE81BF81FF
:105150008C91A881B9818C930F943C470F943C4764
:10516000A885B985BA93AA935A924A9283E0D2014C
:105170008C9381E00F942D475A924A92D201E2E239
:10518000FDE90F94654B0F94244883E00F942D475D
:105190000E9403EF269684E00F945344A881B981BE
:1051A0008C91AE85BF858C9386E3481A80E0580ABF
:1051B0002A96089581E00F94274781E00F942747AE
:1051C0008BE00F94274782E00F94274781E00F94EC
:1051D00027478FEFA881B9818C93AC81BD81E8E22C
:1051E000F0EA0F94654B0F9424480F943C47AC8130
:1051F000BD81BA93AA930E9439D922960F943C4755
:105200000F943C47A885B985BA93AA935A924A92BB
:1052100087E0D2018C9381E00F942D475A924A92F5
:10522000D201E0E3F0EA0F94654B0F94244883E049
:105230000F942D470E94DBED269684E00F94534493
:10524000A885B9850C91003018F011F00C942A292A
:105250000C94E129A7E1BEE00F94EC448AE10F949D
:10526000F544A8E4B0E10C9103FB16F00C943E2940
:10527000A7E1BEE00F945D450F946A450F943C474B
:105280000F943C47A885B985BA93AA935A924A923B
:1052900087E0D2018C9381E00F942D475A924A9275
:1052A000D201E4E3F0EA0F94654B0F94244886E0C2
:1052B0000F942D470E9403EF269687E00F945344E6
:1052C000A885B9850C91003018F011F00C946A296A
:1052D0000C94BD290F943C470F943C47A885B98591
:1052E000BA93AA93A6E9B8E1BA93AA935A924A92BA
:1052F00082E0D2018C9381E00F942D475A924A921A
:10530000D201E6E2F0EA0F94654B0F94244882E064
:105310000F942D47AC85BD85BA93AA935A924A92B1
:1053200083E0D2018C9381E00F942D470E94ADF26F
:105330002C9684E00F945344A885B9850C910030D5
:1053400011F00C94BD290F943C47AC81BD810F94A2
:10535000FA4CAA81BB810D931C93AA81BB810D914C
:105360001C910F3F50E0150710F00C94BD29AA8145
:10537000BB818C91A881B9818C930F943C470F9489
:105380003C47A885B985BA93AA935A924A9283E07A
:10539000D2018C9381E00F942D475A924A92D20108
:1053A000E2E2FDE90F94654B0F94244883E00F94EB
:1053B0002D470E9403EF269684E00F9453440C94EB
:1053C000E4298BE10F94F544A881B9818C91AA85D9
:1053D000BB858C9380E1481A80E0580A2A9608958C
:1053E00081E00F94274781E00F94274781E10F94D4
:1053F0002747AE81BF818C91AA81BB818C93A88104
:10540000B981EAE3F0EA0F94654B0F9424480F94B6
:105410003C47A881B9810F94B444EE81FF810F9479
:10542000B04CA881B9810F94B444E4E4F0EA0F943D
:10543000654B0F9424480F943C47A881B981BA93D7
:10544000AA930E9439D922960F943C470F943C4767
:10545000AC81BD81BA93AA935A924A9284E0D20158
:105460008C9381E00F942D475A924A92D201E2E246
:10547000FDE90F94654B0F94244883E00F942D476A
:105480000E9403EF269684E00F945344AA81BB81C7
:105490008C91A885B9858C9383E1481A80E0580ADD
:1054A0002696089581E00F94274782E00F942747BE
:1054B00089E00F94274782E00F9427470F943C47D9
:1054C000E7E1FEE001E010E0A881B9810F94EC472C
:1054D000A881B981E8E4F0EA0F94654B0F94B14DCF
:1054E00011F40C94752A0C94992B0F943C47A7E166
:1054F000BEE00F94DD47AE81BF818C93AE81BF814A
:105500000C91013018F011F00C94882A0C94A32A05
:10551000AE81BF810F9457440F943C47A7E1BEE092
:105520000F94DD47EA2FFB2FAE81BF810D9111272C
:105530003197E01BF10B0FEF1FEFA7E1BEE00F94D7
:10554000EC470C94A52A0C94992B0F943C470F948C
:105550003C47AE81BF81BA93AA93A7E1BEE0BA935C
:10556000AA935A924A9281E0D2018C9381E00F94DF
:105570002D475A924A92D201E8E7FFE90F94654B12
:105580000F94244882E00F942D47AA85BB85BA93D7
:10559000AA935A924A9286E0D2018C9381E00F94AA
:1055A0002D470E94ADF22C9684E00F945344AE81B7
:1055B000BF810C91003011F00C94762B0F943C4776
:1055C000AA81BB810F94DD47AE81BF818C93AE81F0
:1055D000BF810C91043011F00C94762BE4E9F1E0DA
:1055E000AC81BD8192E00F94A04D81E00F942747DC
:1055F0000F943C47A881B981EE81FF810F942B4D18
:10560000E881F981AC81BD810F94B34D0FB681E083
:10561000481A80E0580A22960FBE11F00C94762B9F
:105620000F943C47A7E1BEE00F94DD47AE81BF81F8
:105630008C93AE81BF818C9185508C930F943C47A5
:10564000A7E1BEE00F94DD47EA2FFB2FAE81BF81BB
:105650000D9111273197E01BF10B0FEF1FEFA7E121
:10566000BEE00F94EC47A8E4B0E10C9100FB16F00B
:105670000C94482BEAE4F0EA0F94654B0F946345D1
:10568000E2E2FDE90F94654B0F9463450F946A4580
:105690000F943C470F943C47AE81BF81BA93AA93C5
:1056A000A7E1BEE0BA93AA935A924A9285E0D2014A
:1056B0008C9381E00F942D470E949C3B269681E0BD
:1056C0000F945344AE81BF810C91013011F00C94C2
:1056D000742BEBEAFBE0A7E1BEE00F94704DAAE665
:1056E000BFE07C9171607C930C94992BA885B9855F
:1056F0000C91003011F40C947F2B0C94992B0F9487
:105700003C470F943C47AE81BF81BA93AA93A7E16F
:10571000BEE0BA93AA935A924A9284E0D2018C9343
:1057200081E00F942D470E949C3B269681E00F94C8
:1057300053448EE0481A80E0580A2896089581E084
:105740000F94274781E00F942747A6E7B2E08D9199
:105750009C91AAE7B2E08D939C9380E090E0A6E74D
:10576000B2E08D939C93A6E0B1E08C9186FBA6E716
:10577000B2E08C9184F98C93A6E0B1E08C9184FB2B
:10578000A6E7B2E08C9183F98C93A6E0B1E08C910E
:1057900082FBA6E7B2E08C9182F98C9380E0AA812B
:1057A000BB818C93AA81BB810C910B3018F011F056
:1057B0000C945E2CAA81BB810C9141E0040FA8815E
:1057C000B9810C93AA81BB818C91A6E7B2E00F94BA
:1057D0000F4B0F94054B0C900822689409F4E89441
:1057E00016F00C94FF2B80E0A881B981AD90BB240A
:1057F000ADEBB2E0AA0DBB1D8C930C942C2CA881B0
:10580000B981AD90BB24A1EBB2E0AA0DBB1D4C91B8
:10581000A881B981AD90BB24ADEBB2E0AA0DBB1D50
:105820000C91041710F00C942C2CA881B981AD9028
:10583000BB24ADEBB2E0AA0DBB1D8C918F5F8C93A6
:10584000AA81BB818C91A6E7B2E00F940F4B0F9415
:10585000054B9C91982B9C93AA81BB810C9141E0B4
:10586000040FA881B9810C93A881B9818C918050D3
:105870008C93AA81BB818C91A6E7B2E00F940F4B69
:105880000F94054B0C900822689409F4E894A881C1
:10589000B9818C91AFE3B3E00F940F4B0F94054B9C
:1058A0000C9016F0092201C0082A0C92AA81BB8133
:1058B0008C918F5F8C9310F40C94D22B82E0481A59
:1058C00080E0580A2496089581E00F94274781E0EC
:1058D0000F94274781E00F94274781E00F942747D3
:1058E00081E00F94274784E00F94274784E00F94CA
:1058F000274781E10F94274781E00F94274781E0F4
:105900000F94274781E00F94274781E00F942747A2
:1059100082E00F942747A8E7B2E08D919C91A8817F
:10592000B9818D939C9380E090E0A8E7B2E08D93DD
:105930009C93E3E5F2E0D080EE24FF2400270F944F
:1059400005490F942E49EFE4F2E00F94F3480F94C9
:105950004949EDE0F0E0AC85BD850F94754DEC85CF
:10596000FD850F94F348EFE4F3E00F94F8480F94AB
:10597000714718F011F00C94BF2C0C94C72C68944C
:10598000A9E4B3E08C9185F98C930C94DA2CEC8526
:10599000FD850F94F348E3E5F3E00F94F8480F9486
:1059A000714710F00C94DA2CE894A9E4B3E08C91E0
:1059B00085F98C9385E5AC89BD898C93A6EDB2E021
:1059C0008C9187FB81E00EF080E08F93AC89BD89DC
:1059D0008C91AFE3B3E00F940F4B0F94054B0C90F9
:1059E0000822689409F4E89481E00EF080E09F9129
:1059F0008923882311F40C94052D6894A9E4B3E05D
:105A00008C9182F98C930C940B2DE894A9E4B3E06B
:105A10008C9182F98C930091A604013411F00C94BE
:105A2000672DE4EBF4E00F94F348E8E6FCE90F940B
:105A3000654B0F94074A0F94714718F011F00C94BE
:105A4000232D0C942B2D6894A9E4B3E08C9186F956
:105A50008C930C94312DE894A9E4B3E08C9186F9F1
:105A60008C93E4EBF4E00F94F348ECE6FCE90F943C
:105A7000654B0F94074A0F94714718F011F00C947E
:105A8000432D0C944B2D6894A9E4B3E08C9183F9D9
:105A90008C930C94512DE894A9E4B3E08C9183F994
:105AA0008C930091FD04013011F00C945F2D6894EB
:105AB000A9E4B3E08C9184F98C930C94652DE8945F
:105AC000A9E4B3E08C9184F98C930C94792DE8943B
:105AD000A9E4B3E08C9183F98C93E894A9E4B3E052
