:020000023000CC
:10E000000D9472F00D9493F00D9493F00D9493F0A1
:10E010000D9493F00D9493F00D9493F00D9493F070
:10E020000D9493F00D9493F00D9493F00D9493F060
:10E030000D9493F00D9493F00D9493F00D9493F050
:10E040000D9493F00D9493F00D9493F00D9493F040
:10E050000D9493F00D9493F00D9493F00D9493F030
:10E060000D9493F00D9493F00D9493F00D9493F020
:10E070000D9493F00D9493F00D9493F00D9493F010
:10E080000D9493F00D9493F00D9493F00D9493F000
:10E090000D9493F00D9493F00D9493F00D9493F0F0
:10E0A0000D9493F00D9493F00D9493F00D9493F0E0
:10E0B0000D9493F00D9493F00D9493F00D9493F0D0
:10E0C0000D9493F00D9493F00D9493F00D9493F0C0
:10E0D0000D9493F00D9493F00D9493F00D9493F0B0
:10E0E0000D9493F011241FBECFEFD1E2DEBFCDBF60
:10E0F00001E00CBF13E0A0E0B2E0E8ECFDEF03E0CC
:10E100000BBF02C007900D92AE3EB107D9F715E0E4
:10E11000AEEEB3E001C01D92A030B107E1F70F945D
:10E1200095F00D94E2FE0D9400F02F923F924F92E5
:10E130005F926F927F928F929F92AF92BF92CF9297
:10E14000DF92EF92FF920F931F93DF93CF93CDB7A0
:10E15000DEB7C752D4400FB6F894DEBF0FBECDBFB6
:10E160000F9405F42E9A0F945CF20F94DAF2109249
:10E17000F6041092F5041092F7048AEC93E0909361
:10E18000FB048093FA0480E791E00197F1F780EEB9
:10E190009EE00F94D3FD8F3F11F010E062C080919C
:10E1A0000B01806480930B0100D000D0EDB7FEB767
:10E1B000319680E092E0ADB7BEB712969C938E93F5
:10E1C000119780EA90E0938382838BE292E09583BB
:10E1D00084830F9476FB0F900F900F900F9085E340
:10E1E00092E0EDB7FEB7928381830F9476FB0F9098
:10E1F0000F906E010894C11CD11C61E0E62E63E013
:10E20000F62EEC0EFD1E19C0C60160E071E00F9401
:10E2100093F280910B01806280930B01C601B701DC
:10E220000F944DF4C7010F9406F7182F80910B013E
:10E230008F7D80930B01112329F48091F7048823AB
:10E2400019F305C087E592E00F9488FB05C086E6C8
:10E2500092E00F9488FB10E080910B018F7B8093FC
:10E260000B0180910B018F7D80930B0180910B013D
:10E27000806880930B0180910B018F7B80930B0151
:10E2800080910B018F7E80930B0180910B01877F22
:10E2900080930B0180EE9EE00F94D3FD843019F043
:10E2A000112309F401C18E010F5F1D4FC80160E009
:10E2B0007FE040E051E00F94C3FD85EF9EE00F94B6
:10E2C000DBFDCC5DDB4F99838883C452D44087EF5C
:10E2D0009EE00F94DBFDCE5DDB4F99838883C252B5
:10E2E000D4405801C05EDB4F19821882C052D4401E
:10E2F000212C50E1352E44245524CA5DDB4F19836F
:10E300000883C652D440C05EDB4FF881C052D4406F
:10E31000F4FF04C080910B018F7703C080910B0143
:10E32000806880930B016201310188249924D50112
:10E330008C9190E083709070009709F074C0B0EEFB
:10E34000CB16B3E0DB06A0F5CC5DDB4FE881F981AD
:10E35000C452D440CE16DF0608F070C0760100E04B
:10E3600010E020E03CE140E050E0E20EF31E041F2C
:10E37000151F902F8F2D7E2D662720E034EE4FEF56
:10E380005FEFE20EF31E041F151F40E051E09E01F7
:10E390002F5F3E4F0F94CAF3102F0F2DFE2CEE244B
:10E3A000C801B701AE014F5F5E4F0F94F0F246C057
:10E3B00030EFC31633E0D30608F440C0B60180E066
:10E3C00090E06050744E8F4F9F4F982F872F762F7D
:10E3D000662740E051E09E012F5F3E4F0F94CAF345
:10E3E00081E0E82EF82EEC0EFD1E8301CE5DDB4FA2
:10E3F00048815981C252D4400417150728F4C80136
:10E40000D7016C910F94EBFD0F5F1F4F0894E11C37
:10E41000F11CCA5DDB4FE881F981C652D440EE168B
:10E42000FF0621F70BC0039749F08091F504909106
:10E43000F60401969093F6048093F504D5018C912F
:10E44000869586958C930894811C911C0894C11C18
:10E45000D11CE0E0F1E06E0E7F1EF4E08F16910417
:10E4600009F065CFC05EDB4F28813981C052D440AE
:10E470002F5F3F4FC05EDB4F39832883C052D440AB
:10E480000894A11CB11C40E054E0240E351E84E029
:10E4900090E0480E591E2050314009F034CF80EEF4
:10E4A0009EE060E00F94EBFD80910B018F778093ED
:10E4B0000B010C940000FFCFE2E0F1E0808180646A
:10E4C0008083209A1CBC8CB58F778CBD8CB58F7DDA
:10E4D0008CBD8CB580618CBD8CB588608CBD8CB5D5
:10E4E00084608CBD8CB582608CBD8CB58E7F8CBDFC
:10E4F0008CB580648CBD08958EBD0DB407FEFDCF34
:10E500008EB508951F93182F8A3019F48DE00F945B
:10E5100082F28091300185FFFCCF1093360180E0BC
:10E5200090E01F9108950F931F93CF93DF938C0179
:10E53000A0E0B0E091E0EB01219729C0213082EC0E
:10E5400038078BEE48078BE0580719F49093F704CF
:10E5500008C02F5F3F4F4F4F5F4F8091300187FFC3
:10E56000EDCF80910B01806880930B018091360183
:10E570008D3029F08A3019F0AC17BD0709F480E01E
:10E58000F801EA0FFB1F80831196882341F0A6173C
:10E59000B70729F020E030E040E050E0DECF809186
:10E5A0000B018F7780930B01CD01DF91CF911F91EC
:10E5B0000F910895E1E3F1E08081806180838081A3
:10E5C00088608083E2E3F1E08081826080838081E3
:10E5D000846080831092350187E080933401089530
:10E5E000AF92BF92CF92DF92EF92FF920F931F9361
:10E5F000CF93DF935B016C01EA01F999FECF07B677
:10E6000000FCFDCFF999FECF83E0F501C0925B00DD
:10E6100080935700E89507B600FCFDCFEE24FF2459
:10E62000870161E098818981229607B600FCFDCFC1
:10E63000F999FECFA80197012A0D3B1D4C1D5D1DC8
:10E64000B82FA0E0FD01E90FF11DCF010C01F90188
:10E6500040935B0060935700E895112422E030E07E
:10E6600040E050E0E20EF31E041F151F30E0E316F9
:10E6700031E0F30630E0030730E0130799F607B600
:10E6800000FCFDCFF999FECF85E0F501C0925B005B
:10E6900080935700E89507B600FCFDCF81E1809399
:10E6A0005700E895DF91CF911F910F91FF90EF9068
:10E6B000DF90CF90BF90AF9008952E9885E00F9493
:10E6C0007CF280E00F947CF22E9A80FDF6CF0895C4
:10E6D0000F945DF32E9886E00F947CF22E9A0895A5
:10E6E000AF92BF92CF92DF92EF92FF920F931F9360
:10E6F000CF93DF937B018C016A0159010F9468F37A
:10E700002E9882E00F947CF2C801AA27BB270F94B1
:10E710007CF2BB27A12F902F8F2D0F947CF28E2D92
:10E720000F947CF2C0E0D0E006C0F60181916F0149
:10E730000F947CF22196CA15DB05B8F32E9ADF916F
:10E74000CF911F910F91FF90EF90DF90CF90BF90EE
:10E75000AF900895EF92FF920F931F937B018C016E
:10E760000F9468F32E9880E20F947CF2C801AA27D8
:10E77000BB270F947CF2BB27A12F902F8F2D0F94D6
:10E780007CF28E2D0F947CF22E9A1F910F91FF90A8
:10E79000EF900895AF92BF92CF92DF92EF92FF92E7
:10E7A0000F931F93CF93DF937B018C015A01690173
:10E7B0000F945DF32E9883E00F947CF2C801AA2792
:10E7C000BB270F947CF2BB27A12F902F8F2D0F9486
:10E7D0007CF28E2D0F947CF2C0E0D0E007C080E088
:10E7E0000F947CF2F60181936F012196CA15DB0527
:10E7F000B0F32E9ADF91CF911F910F91FF90EF9080
:10E80000DF90CF90BF90AF90089584E081B987ECFE
:10E8100084B917B888E18AB98AE88DB910BA13BAF1
:10E8200080E48093010182E5809304018AEA809369
:10E83000070188EF80930A012F9AE2E0F1E08081DE
:10E84000806480830895DC0140E050E020E030E007
:10E850001FC0FD01E20FF31F80815827052E02948F
:10E86000802D8F708527952F9025990F907E892771
:10E87000902D9527907F9695052E000C991F569503
:10E88000569556955F7159275427482F2F5F3F4F54
:10E8900026173707F0F2CA0108952F923F924F9240
:10E8A0005F926F927F928F929F92AF92BF92CF9220
:10E8B000DF92EF92FF920F931F93DF93CF93CDB729
:10E8C000DEB76A970FB6F894DEBF0FBECDBF4C011E
:10E8D0005B018E010B5E1F4FC801B40146E050E0A2
:10E8E0000F9440FBC80160E772E00F9454FB00975F
:10E8F00009F44AC0F501119211928F0170E1E72EDF
:10E90000F12CEC0EFD1EB4016B5F7F4FC70145E09B
:10E9100050E00F9440FBC7010F940AFBB401665FFF
:10E920007F4FE82EFF24A70145505040C8010F94A7
:10E9300040FBB7016B5F7F4F680D791D8E010F5F44
:10E940001F4FC80145E050E00F9440FBC80160E054
:10E9500070E040E150E00F94DBF927E131E0A20ED6
:10E96000B31EF501619371935F01D4010D900020F6
:10E97000E9F7A819B9091A97F501AE15BF0509F409
:10E9800024C282E090E027C2C80166E772E00F94DB
:10E9900054FB009719F081E090E00FC2C8016CE7CA
:10E9A00072E00F9454FB009741F4C80162E872E0F2
:10E9B0000F9454FB009709F479C1F40187858053C3
:10E9C000F501868BCE0145966CE772E00F9454FBFF
:10E9D000009719F082E090E002C083E090E0F5013A
:10E9E00091838083F50186896BE0C62ED12CCC0EF5
:10E9F000DD1E51E1652E712C680C791C882309F409
:10EA0000E0C0B4016E567F4FC60145E050E00F9460
:10EA100040FBC60160E070E040E150E00F94DBF99C
:10EA20001B012C016301EE24FF2440E1642E712CB4
:10EA30006C0E7D1EC301B60143E050E00F9440FB15
:10EA4000F5018689082F10E00150104036E0000FD4
:10EA5000111F3A95E1F70E0D1F1DC30160E070E034
:10EA600040E150E00F94DBF90A0D1B1DF801678BA4
:10EA70000894E11CF11C22E030E0C20ED31E30E409
:10EA8000E316F104B9F685E090E0880E991E7E0148
:10EA90000894E11CF11CC701B40145E050E00F945B
:10EAA00040FB8E010A5F1F4FE5E0F0E08E0E9F1ED7
:10EAB000C801B40145E050E00F9440FBC8010F9439
:10EAC0000AFBF501958B848BCE010B9660E070E01C
:10EAD00040E150E00F94DBF927E131E0A20EB31ED4
:10EAE000F5017183608329EE3EEFA20EB31E85010E
:10EAF000075E1E4FF80111821082C70168E872E0BC
:10EB00000F9430FB009729F082E090E0F8019183A8
:10EB10008083F5018689853068F029E131E0A20E15
:10EB2000B31E83E090E0F5019183808327EE3EEFF2
:10EB3000A20EB31EF50184899589805E934068F02A
:10EB400029E131E0A20EB31E84E090E0F50191834B
:10EB5000808327EE3EEFA20EB31ECE01459662E8FB
:10EB600072E00F9454FB009791F0F5018489958928
:10EB7000409768F029E131E0A20EB31E84E090E0F6
:10EB8000F5019183808327EE3EEFA20EB31EF501BF
:10EB9000868990E026E0880F991F2A95E1F78997EA
:10EBA0008A0D9B1D60E470E00F9423F48215930599
:10EBB00009F413C129E131E0A20EB31E81E090E017
:10EBC00009C125E030E0820E931EC601B40145E084
:10EBD00050E00F9440FB96E0E92EF12CEC0EFD1E68
:10EBE00085E090E0880E991EC701B40145E050E031
:10EBF0000F9440FB8E010F5F1F4FC801B30145E02A
:10EC000050E00F9440FBC7010F940AFBF501958B70
:10EC1000848BC80160E070E040E150E00F94DBF9C4
:10EC200027E131E0A20EB31EF5017183608329EE66
:10EC30003EEFA20EB31E8501075E1E4FF801118242
:10EC40001082C6016DE872E00F9430FB009729F046
:10EC500082E090E0F80191838083F50184899589B1
:10EC6000805E934068F029E131E0A20EB31E84E09B
:10EC700090E0F5019183808327EE3EEFA20EB31E54
:10EC8000CE01459662E872E00F9454FB009709F4B8
:10EC9000A4C0F50184899589409708F49EC029E1B4
:10ECA00031E0A20EB31E84E090E094C0C80162E996
:10ECB00072E00F9454FB009709F476C084E090E072
:10ECC000F50191838083B4016B5F7F4F6E010894DF
:10ECD000C11CD11CC60145E050E00F9440FB8E01E1
:10ECE0000A5F1F4FB401665F7F4FC80145E050E0E7
:10ECF0000F9440FB8BE0E82EF12CEC0EFD1EB401CE
:10ED0000615F7F4FC70145E050E00F9440FBB401C5
:10ED10006C5E7F4FCE01409645E050E00F9440FB83
:10ED2000C80160E070E040E150E00F94DBF92BE1B6
:10ED300031E0A20EB31EF501619371935F01C7012B
:10ED400060E070E040E150E00F94DBF9F501718381
:10ED5000608323EE3EEFA20EB31E8501075E1E4FB9
:10ED6000F80111821082C6010F940AFBF401019090
:10ED70000020E9F7E819F9093A978E179F0729F05B
:10ED800082E090E0F80191838083CE01409668E9AB
:10ED900072E00F9430FB009701F129E131E0A20EFF
:10EDA000B31E85E090E016C0C8016DE972E00F94D3
:10EDB00054FB009769F085E090E0F5019183808332
:10EDC00029E131E0A20EB31EF5011182108205C0C7
:10EDD00086E090E0F501918380836A960FB6F894FF
:10EDE000DEBF0FBECDBFCF91DF911F910F91FF907E
:10EDF000EF90DF90CF90BF90AF909F908F907F90DB
:10EE00006F905F904F903F902F900895EF92FF92F8
:10EE10000F931F93CF93DF93EC01FC01E75EFE4F4E
:10EE200080819181892B09F01DC24881598144302C
:10EE3000510560F44230510508F08BC04115510571
:10EE400071F04130510509F0AEC26BC0443051053C
:10EE500009F467C14530510509F0A5C273C1229676
:10EE600088ED93E0BE010F9439FBCB5EDE4F8881C5
:10EE700099819093EF048093EE04EEEEF3E08FEF30
:10EE8000819324E0EE3EF207D9F7E12C7CE1F72EE6
:10EE9000012D112D902F8F2D7E2D66270F94AAF313
:10EEA00080E190E0A0E0B0E0E80EF91E0A1F1B1F11
:10EEB00090E0E91690E2F90690E0090790E0190762
:10EEC00049F71092F20428ED33E0F9010190002097
:10EED000E9F7ADB7BEB718970FB6F894BEBF0FBE2F
:10EEE000ADBF119683EA92E0CDB7DEB79A838983EE
:10EEF000E35DF3401396FC93EE93129715963C93C3
:10EF00002E9314978091EE049091EF0417969C93A2
:10EF10008E9316970F9476FB80E0EDB7FEB7389688
:10EF20003CC2EEEEF3E08FEF819324E0EE3EF20779
:10EF3000D9F70F920F9287EB92E0ADB7BEB712965A
:10EF40009C938E9311970F9476FB80E00F900F9017
:10EF50002BC22E893091F204222309F042C03323C0
:10EF600089F581E08093F2042C893D893093F40483
:10EF70002093F304C95EDE4F888199819093F10458
:10EF80008093F0044230510519F0E0EFF3E002C045
:10EF9000E0E0F0E0E20FF31FF695E795F695E795D0
:10EFA000E251FC4F23703070220F331F81E090E05C
:10EFB00002C0880F991F2A95E2F7809520812823A7
:10EFC0002083F1C18091F5049091F604019690930D
:10EFD000F6048093F50488819981029709F096C11F
:10EFE0007AC181E090E002C0880F991F2A95E2F76C
:10EFF000432F482B4093F2042091F3043091F40402
:10F000008C899D892817390749F08091F5049091E2
:10F01000F60401969093F6048093F5044F3109F0BD
:10F02000C2C18E01095E1F4FC80160E071E00F94FC
:10F0300023F42091F0043091F1048217930709F032
:10F0400059C0888199812091F3043091F40402978A
:10F0500071F4A90160E070E04050544E6F4F7F4F53
:10F060003093EB032093EA03E0E0F0E00DC0A90148
:10F0700060E070E04051504E6F4F7F4F3093ED0392
:10F080002093EC03E0EFF3E08091F3049091F4041B
:10F09000E80FF91FF695E795F695E795E251FC4FD5
:10F0A00083709070880F991F019621E030E002C0B4
:10F0B000220F331F8A95E2F7209580818223808377
:10F0C000962F852F742F6627A80120E031E00F943A
:10F0D00070F300D00F9286EE92E0EDB7FEB7928308
:10F0E00081838C899D89948383830F9476FB10920E
:10F0F000F20406C18091F5049091F6040196909374
:10F10000F6048093F50488819981029729F400D050
:10F110000F928AEF92E0D2C000D00F9281E193E08B
:10F12000E5C0C55EDE4F6991799185EF9EE00F9451
:10F13000F9FD6881798187EF9EE00F94F9FD88E2FF
:10F1400093E0B1C08EEE93E060E071E00F9423F4A1
:10F150007C012091EE043091EF040091EA031091BC
:10F16000EB030F5F1F4FC55EDE4F88819981CB5146
:10F17000D1408017910711F080E005C080E0E216D1
:10F18000F30609F481E06091EC037091ED036F5F89
:10F190007F4FC35EDE4F498150E046175707F1F5B8
:10F1A0008823E1F128ED33E0D9010D900020E9F743
:10F1B0008DB79EB70C970FB6F8949EBF0FBE8DBF4C
:10F1C000EDB7FEB7319685E393E0CDB7DEB79A830E
:10F1D0008983A15CB340B383A28335832483F78200
:10F1E000E68211870087538742870F9476FBEDB73D
:10F1F000FEB73C960FB6F894FEBF0FBEEDBF8EEE85
:10F2000093E060E07FE040E051E00F94E1FD80EEAC
:10F210009EE063E00F94EBFD81E0C6C028ED33E093
:10F22000D9010D900020E9F78DB79EB70C970FB666
:10F23000F8949EBF0FBE8DBFEDB7FEB731968BE53C
:10F2400093E0CDB7DEB79A838983A15CB340B383E3
:10F25000A28335832483F782E68211870087738730
:10F26000628795C08091F5049091F6040196909381
:10F27000F6048093F504888199818330910571F1BA
:10F280008430910530F4009761F0029709F08BC04B
:10F290000DC08430910509F43CC0059709F083C086
:10F2A0003BC08EE793E00F9488FB7DC08081918105
:10F2B000019789F400D00F928FE893E0ADB7BEB705
:10F2C00012969C938E9311978C899D8914969C938A
:10F2D0008E93139713C084EC92E0E5CF80819181E7
:10F2E0000197A1F400D00F9284EA93E0EDB7FEB746
:10F2F000928381838C899D89948383830F9476FB89
:10F3000080E00F900F900F900F904EC085ED92E02F
:10F31000CACF89EB93E0C7CF28ED33E0F901019024
:10F320000020E9F78DB79EB70C970FB6F8949EBFF3
:10F330000FBE8DBFADB7BEB711968BE593E0CDB7CD
:10F34000DEB79A838983E15CF3401396FC93EE93D6
:10F35000129715963C932E9314978091EE049091FA
:10F36000EF0417969C938E9316978091EA039091E1
:10F37000EB03019619969C938E9318978091EC035A
:10F380009091ED0301961B969C938E931A970F9480
:10F3900076FB80E0EDB7FEB73C960FB6F894FEBF63
:10F3A0000FBEEDBF01C080E0DF91CF911F910F91A3
:10F3B000FF90EF9008952F923F925F926F927F920D
:10F3C0008F929F92AF92BF92CF92DF92EF92FF9275
:10F3D0000F931F93CF93DF938C011B01EA016115FB
:10F3E000710519F0FB0191838083209749F0CE01CC
:10F3F0000297839728F020E030E040E050E0F6C02C
:10F40000F801A1908F018A2D90E00F9428FB892BA1
:10F41000B9F7FDE2AF1631F4F801A1908F01552440
:10F42000539407C0FBE2AF1619F4F801A1908F01C5
:10F430005524209719F0C031D105C1F4F0E3AF167F
:10F4400079F4F8018081883711F0883549F4F801A2
:10F45000A1800E5F1F4FF2E05F2AC0E1D0E006C03E
:10F46000209721F480E3A816E9F427C0C830D1051D
:10F4700031F1C930D10524F4C230D10531F50CC0C9
:10F48000CA30D10589F0C031D105F9F4C12CD12C95
:10F49000E12CB8E0FB2E28C0C12CD12CE12CA0E43B
:10F4A000FA2E22C0CAE0D0E0FCECCF2EFCECDF2E1E
:10F4B000FCECEF2EFCE0FF2E17C0C8E0D0E0C12C22
:10F4C000D12CE12CE0E1FE2E0FC09E01442737FD38
:10F4D0004095542F60E070E080E090E80F94C0FE0B
:10F4E000C901DA016C017D0120E030E040E050E02C
:10F4F00060E03E01882477FC8094982C70EDB72E54
:10F50000BA0CE9E0EB1570F48A2D81548A3118F4B5
:10F5100099ECB92E06C08A2D81568A3150F589EAB8
:10F52000B82EBA0C8B2D90E08C179D0714F56F3F09
:10F53000E1F0C216D306E406F506B0F0CA01B9013F
:10F54000A40193010F94A1FE9B01AC012B0D311D71
:10F55000411D511D2130F0E03F07F0E04F07F0E87A
:10F560005F0710F461E001C06FEFF801A1908F0117
:10F57000C5CF2114310481F0662331F001501040D1
:10F58000F1011183008308C051FE1AC002501040DF
:10F59000F1011183008314C067FF12C050FC05C045
:10F5A0002FEF3FEF4FEF5FE704C020E030E040E097
:10F5B00050E882E290E09093FF048093FE0416C02E
:10F5C00050FE08C050954095309521953F4F4F4FC4
:10F5D0005F4F0CC057FF0AC082E290E09093FF0497
:10F5E0008093FE042FEF3FEF4FEF5FE7B901CA01B1
:10F5F000DF91CF911F910F91FF90EF90DF90CF900F
:10F60000BF90AF909F908F907F906F905F903F9052
:10F610002F900895FC0188279927E89421912032A2
:10F62000E9F3293010F02E30C8F32B3241F02D329F
:10F6300039F4689404C00F946EFB820F911D2191E0
:10F6400020532A30C0F31EF4909581959F4F089562
:10F650009111D4C2803219F089508550D0F70895A5
:10F66000FB01DC018D91019080190110D9F3990BF8
:10F670000895FB01DC0101900D920020E1F708954F
:10F68000DC01FB014150504058F049F001900D92CF
:10F690000020C1F7E61BF70B3197CF0108951C92AC
:10F6A00001900020E9F7F6CFFB0151915523A9F015
:10F6B000BF01DC014D9145174111E1F759F4CD012E
:10F6C0000190002049F04D9140154111C9F3FB0113
:10F6D0004111EFCF81E090E0019708957AE0979F84
:10F6E000902D879F802D910D11240895DF93CF9346
:10F6F000CDB7DEB7FE013696619171918091FA0423
:10F700009091FB04AF010F94BDFBCF91DF91089561
:10F710000F931F93CF93DF938C01E091FA04F09144
:10F72000FB04838181FF21C0C0E0D0E00DC0E091E7
:10F73000FA04F091FB0420853185BF01F901199588
:10F74000892B11F0CFEFDFEFF80181918F01882332
:10F7500071F7E091FA04F091FB04208531858AE08D
:10F76000BF01F9011995892B11F0CFEFDFEFCE0121
:10F77000DF91CF911F910F9108952F923F924F9259
:10F780005F926F927F928F929F92AF92BF92CF9231
:10F79000DF92EF92FF920F931F93DF93CF93CDB73A
:10F7A000DEB72B970FB6F894DEBF0FBECDBF3C017E
:10F7B0002B015A01FC0117821682838181FD03C04F
:10F7C0006FEF7FEFC6C19AE0892E1E010894211CBD
:10F7D000311CF3012381F20123FD859123FF8191E7
:10F7E0002F01882309F4B2C1853239F423FD8591B4
:10F7F00023FF81912F01853229F490E0B3010F940A
:10F8000017FEE7CF982FFF24EE249924FFE1FF1580
:10F81000D0F09B3269F09C3228F4903259F0933248
:10F8200091F40EC09D3249F0903369F441E024C058
:10F8300052E0F52A84E0F82A28C098E0F92A25C089
:10F84000E0E1FE2A22C0F7FC29C0892F80538A30CC
:10F8500070F4F6FE05C0989C902C1124980E15C0EB
:10F86000E89CE02C1124E80EF0E2FF2A0EC09E3244
:10F8700029F4F6FC6BC140E4F42A07C09C3619F465
:10F8800050E8F52A02C0983649F4F20123FD95911B
:10F8900023FF91912F01992309F0B8CF892F855427
:10F8A000833018F08052833038F444E050E0A40EE6
:10F8B000B51E5FE359830FC0933631F0933779F06B
:10F8C000933509F056C020C0F5018081898342E05C
:10F8D00050E0A40EB51E610101E010E012C0F50178
:10F8E000C080D180F6FC03C06FEF7FEF02C0692DAE
:10F8F00070E042E050E0A40EB51EC6010F940CFE6D
:10F900008C015FE7F52214C0F501C080D180F6FCC0
:10F9100003C06FEF7FEF02C0692D70E042E050E05E
:10F92000A40EB51EC6010F9401FE8C0150E8F52A05
:10F93000F3FE07C01AC080E290E0B3010F9417FEF7
:10F94000EA948E2D90E008171907A8F30EC0F6016F
:10F95000F7FC8591F7FE81916F0190E0B3010F9460
:10F9600017FEE110EA94015010400115110579F7D6
:10F97000EAC0943611F0993669F5F7FE08C0F50132
:10F98000208131814281538184E090E00AC0F501F9
:10F99000808191819C01442737FD4095542F82E05E
:10F9A00090E0A80EB91E9FE6F92257FF09C05095B6
:10F9B0004095309521953F4F4F4F5F4FE0E8FE2A2D
:10F9C000CA01B901A1012AE030E00F9443FED82E0C
:10F9D000D21840C0953729F41F2D1F7E2AE030E051
:10F9E0001DC01F2D197F9F3661F0903720F4983588
:10F9F00009F0ACC00FC0903739F0983709F0A6C0B5
:10FA000004C028E030E00AC0106114FD146020E159
:10FA100030E004C014FD166020E132E017FF08C09A
:10FA2000F501608171818281938144E050E008C0DA
:10FA3000F50180819181BC0180E090E042E050E0DE
:10FA4000A40EB51EA1010F9443FED82ED2188FE745
:10FA5000F82EF122F6FE0BC05EEFF522D91438F431
:10FA6000F4FE07C0F2FC05C08FEEF82202C01D2D87
:10FA700001C0192DF4FE0DC0FE01ED0DF11D8081B8
:10FA8000803319F499EEF92208C01F5FF2FE05C019
:10FA900003C08F2D867809F01F5F0F2DF3FC14C073
:10FAA000F0FE0FC01E1510F09D2C0BC09D2C9E0C5F
:10FAB000911A1E2D06C080E290E0B3010F9417FE4C
:10FAC0001F5F1E15C0F304C01E1510F4E11A01C01B
:10FAD000EE2404FF0FC080E390E0B3010F9417FE03
:10FAE00002FF1DC001FD03C088E790E00EC088E55D
:10FAF00090E00BC0802F867891F001FF02C08BE26E
:10FB000001C080E2F7FC8DE290E0B3010F9417FE94
:10FB100006C080E390E0B3010F9417FE9A94D914C5
:10FB2000C0F3DA94F101ED0DF11D808190E0B30195
:10FB30000F9417FEDD20A9F706C080E290E0B30124
:10FB40000F9417FEEA94EE20C1F743CEF3016681CD
:10FB50007781CB012B960FB6F894DEBF0FBECDBFD9
:10FB6000CF91DF911F910F91FF90EF90DF90CF9099
:10FB7000BF90AF909F908F907F906F905F904F90CD
:10FB80003F902F900895DC01CB01FC01F999FECF45
:10FB900006C0F2BDE1BDF89A319600B40D92415015
:10FBA0005040B8F70895F999FECF92BD81BDF89AFB
:10FBB000992780B50895A8E1B0E042E050E00D94A7
:10FBC000C5FDDC01CB0103C02D910F94ECFD41502C
:10FBD0005040D0F70895262FF999FECF1FBA92BD55
:10FBE00081BD20BD0FB6F894FA9AF99A0FBE01961E
:10FBF00008950F94EBFD272F0D94ECFD992788278E
:10FC00000895FC010590615070400110D8F780956F
:10FC100090958E0F9F1F0895FC01615070400190D8
:10FC20000110D8F7809590958E0F9F1F08950F9320
:10FC30001F93CF93DF938C01EB018B8181FF1BC05E
:10FC400082FF0DC02E813F818C819D81281739074D
:10FC500064F4E881F9810193F983E88306C0E885BB
:10FC6000F985802F1995892B31F48E819F8101961A
:10FC70009F838E8302C00FEF1FEFC801DF91CF91EA
:10FC80001F910F910895FA01AA27283051F12031D0
:10FC900081F1E8946F936E7F6E5F7F4F8F4F9F4F20
:10FCA000AF4FB1E03ED0B4E03CD0670F781F891F62
:10FCB0009A1FA11D680F791F8A1F911DA11D6A0F30
:10FCC000711D811D911DA11D20D009F468943F91E3
:10FCD0002AE0269F11243019305D3193DEF6CF01E2
:10FCE0000895462F4770405D4193B3E00FD0C9F7A8
:10FCF000F6CF462F4F70405D4A3318F0495D31FD15
:10FD00004052419302D0A9F7EACFB4E0A695979567
:10FD1000879577956795BA95C9F70097610571053D
:10FD200008959B01AC010A2E069457954795379587
:10FD30002795BA95C9F7620F731F841F951FA01DE1
:10FD40000895629FD001739FF001829FE00DF11D25
:10FD5000649FE00DF11D929FF00D839FF00D749F45
:10FD6000F00D659FF00D9927729FB00DE11DF91FF1
:10FD7000639FB00DE11DF91FBD01CF01112408954E
:10FD8000A1E21A2EAA1BBB1BFD010DC0AA1FBB1F9F
:10FD9000EE1FFF1FA217B307E407F50720F0A21B11
:10FDA000B30BE40BF50B661F771F881F991F1A947E
:10FDB00069F760957095809590959B01AC01BD01A8
:08FDC000CF010895F894FFCF74
:10FDC8000D0A0D0A202323204A61726B6F6E2D4F96
:10FDD800425520426F6F742076312D622564204091
:10FDE8002025732023230D0A0D0A004A61726B6FC8
:10FDF8006E2D544200456D70747920426F78202D25
:10FE08002077616974696E6720666F7220426F7827
:10FE180055702E2E2E20000D0A466C617368696E8F
:10FE2800672E2E2E0D0054696D656F7574210D00B7
:10FE380026564552530026434C52540026504147FB
:10FE480045002645455047003031343100303031C7
:10FE580032002650524F540030303030002643488C
:10FE68004B53002656455253253034647C25737C09
:10FE7800253034580D0A0026434C52543030303364
:10FE88007C4F4B002650414745303030367C455238
:10FE9800524F520D002645455047303030367C458C
:10FEA80052524F520D002650414745303030387C71
:10FEB800253034647C4F4B0D0A00265041474530AD
:10FEC8003031317C253034647C4552524F520D0A12
:10FED800002645455047303031317C253034647C2C
:10FEE8004552524F520D0A0050524F543030303361
:10FEF8007C4F4B0D002643484B53253034647C25FA
:10FF0800737C253034587C253034587C253034585F
:10FF18007C303030307C4F4B0D0A002643484B5321
:10FF2800253034647C25737C253034587C25303466
:10FF3800587C253034587C303030300D0A00265635
:10FF4800455253303030367C4552524F520D0026C0
:10FF580050414745303031317C253034647C45523E
:10FF6800524F52002645455047303031317C2530BC
:10FF780034647C4552524F52002650524F54303010
:10FF880030367C4552524F520D00000000020000EE
:10FF9800000082F2000000000000000000000000E5
:0EFFA80000000000000000000000FFFFFFFF4F
:040000033000E000E9
:00000001FF
