:1000000019C033C032C031C030C02FC02EC063C34E
:10001000E2C32FC12AC029C028C027C026C025C0DE
:1000200024C023C03AC421C020C01FC01EC01DC0B0
:100030001CC01BC011241FBECFEFD4E0DEBFCDBF5C
:1000400012E0A0E0B1E0EAE5FCE102C005900D920B
:10005000A232B107D9F722E0A2E2B2E001C01D92BC
:10006000AA3EB207E1F7CBD5F6CDCACF0895982FB7
:1000700091509D3030F4E82FF0E0E35FFE4F808137
:10008000089580E00895982F91509D3030F4E82F26
:10009000F0E0E65EFE4F8081089580E00895982F9D
:1000A00091509D3030F4E82FF0E0E95DFE4F808103
:1000B000089580E00895982F91509D3030F4E82FF6
:1000C000F0E0EC5CFE4F8081089580E00895982F69
:1000D00091509D3030F4E82FF0E0EF5BFE4F8081CF
:1000E000089580E00895982F987728B1207F28B947
:1000F00028B1969596959695922B98B995B1987F3B
:1001000095B995B18770892B85B9862F887797B176
:10011000907F97B997B1869586958695892B87B9F3
:1001200084B1887F84B984B16770682B64B90895FD
:10013000FF920F931F93CF93DF931F92CDB7DEB73C
:10014000182F01E0F12C802FAADF682F802F698300
:100150008EDF6981C8DF88E18A95F1F700C096B12A
:100160009F7009F4F02E98B1907F98B997B19F6075
:1001700097B90F5F0D3039F7909122029F5F9D3044
:1001800018F49093220203C081E08093220211238D
:1001900061F000912202802F8EDF682F802F69830B
:1001A00072DF6981A0DF1093B300FF2019F08F2D5B
:1001B0008E300CF08DE00F90DF91CF911F910F9159
:1001C000FF9085CFE0EBF0E080818083E1EBF0E011
:1001D00080818360808384E68093B3008AEF80937C
:1001E000B400E0E7F0E080818160808380818260FC
:1001F00080838081846080831092B2000895E2DF62
:10020000109225021092240210922E0210922F02B8
:100210001092AE0280E28093340210923B02109260
:100220003A02109236021092350210923002109269
:100230003102109232021092330210922602109272
:10024000270210922802109229021092390210926D
:10025000380210923D0210923C0284E18093B40275
:1002600084EF91E090932B0280932A021092370240
:1002700008951F920F920FB60F9211242F933F9360
:100280004F935F936F937F938F939F93AF93BF939E
:10029000EF93FF938091DD0281FF08C08091780287
:1002A00086FD5D988AEF8093370217C05D9A809132
:1002B000760283FF04C086EE809337020EC082FF71
:1002C00004C08EE68093370208C081FF04C082E339
:1002D0008093370202C0109237023091370220918A
:1002E00037028FEF90E0831B91090090E10202C07A
:1002F000959587950A94E2F7280F2093B400809192
:10030000370216DF809323029091770291FD1092BD
:100310002302809123028823C9F080912302803236
:10032000A9F080913402803289F480912302809375
:1003300042028091DD0281608093DD0210923002E2
:1003400010923102109232021092330280912302F5
:10035000803219F09260909377028091770281FF4A
:100360000DC090912E02943620F49F5F90932E0240
:1003700005C08D7F8093770210922E028091230218
:10038000809334028091DD0282FF08C08B7F8A60F7
:100390008093DD0210922502109224029091770240
:1003A00090FF18C08091780284FD14C08091DD0216
:1003B000857F8093DD021092250210922402967FA1
:1003C0009093770210922602109227021092280230
:1003D000109229024091DD0243FF1EC08091240249
:1003E0009091250220912A0230912B0282179307C7
:1003F00071F441FF04C04D7F4093DD0203C04260B1
:100400004093DD02109225021092240205C001964D
:1004100090932502809324022091780223FF2AC022
:100420008091350290913602009731F420917B0241
:10043000206120937B0219C084369105B1F4277F97
:100440002093780281E090E00090B00202C0880F13
:10045000991F0A94E2F790917B02982B90937B026C
:10046000109236021092350205C001969093360222
:10047000809335022091780224FF3BC080913A029C
:1004800090913B02009771F43091430220917B02DE
:1004900033FD04C0206120937B0226C0216020939D
:1004A0007B0222C0883E33E09307F1F42F7E209335
:1004B00078028091430220917B0283FD0DC081E090
:1004C00090E00090B00202C0880F991F0A94E2F7F2
:1004D000822B80937B0203C0216020937B021092C9
:1004E0003B0210923A0205C0019690933B02809322
:1004F0003A022091780222FF45C080913802909103
:1005000039023091DD02009751F434603093DD02FE
:1005100026E930E030932B0220932A022EC0853842
:1005200043E0940750F180917702317F3093DD02F0
:100530001092250210922402867F816080937702B8
:100540002B7F2093780284EF91E090932B0280938D
:100550002A0281E090E00090B00202C0880F991F4B
:100560000A94E2F790917B02982B90937B02109271
:100570003902109238020FD305C0019690933902C8
:10058000809338028091770284FF0BC0109226027C
:100590001092270210922802109229028F7E8093D7
:1005A00077028091260290912702A0912802B091B3
:1005B000290287359942A440B10588F08091DD0277
:1005C00083FF0DC08091770288608093770210923C
:1005D000260210922702109228021092290280917E
:1005E000300290913102A0913202B09133028839E9
:1005F0009A43A105B10568F08091770284608093E9
:100600007702109230021092310210923202109250
:1006100033028091300290913102A0913202B09168
:1006200033020196A11DB11D8093300290933102D7
:10063000A0933202B09333028091DD0283FF13C096
:100640008091260290912702A0912802B091290260
:100650000196A11DB11D8093260290932702A093BD
:100660002802B09329028091770287FF0CC08F7710
:100670008093770210923D0210923C0280913E02DC
:10068000816080933E0220913E0220FF13C0809142
:100690003C0290913D0280384EE3940730F401967D
:1006A00090933D0280933C0205C0822F8E7F826032
:1006B00080933E02FF91EF91BF91AF919F918F91F7
:1006C0007F916F915F914F913F912F910F900FBE4E
:1006D0000F901F9018951F920F920FB60F92112432
:1006E0001F932F933F934F935F936F937F938F93BA
:1006F0009F93AF93BF93CF93DF93EF93FF9380913B
:100700002C0290912D020196833C21E0920728F45F
:1007100090932D0280932C020EC010922D02109205
:100720002C028091B202811104C081E08093B20258
:1007300002C01092B2028091AF0281112BC0909141
:10074000B2028091E202911102C0C82F04C0C09190
:10075000B302C095C823C0FF07C085E094DCD82F42
:1007600085E0A9DC182F02C010E0D0E0C1FF06C070
:1007700089E089DCD82B89E09EDC182BC2FF06C0FB
:1007800081E081DCD82B81E096DC182B81E080931E
:10079000AF020AC08091790276DCD82F809179026D
:1007A0008ADC182F1092AF02612F8D2F9CDCFF91F5
:1007B000EF91DF91CF91BF91AF919F918F917F91F9
:1007C0006F915F914F913F912F911F910F900FBEAD
:1007D0000F901F9018951F920F920FB60F92112431
:1007E0002F933F934F935F936F937F938F939F9339
:1007F000AF93BF93EF93FF9360E080E074DCFF91D1
:10080000EF91BF91AF919F918F917F916F915F9188
:100810004F913F912F910F900FBE0F901F90189501
:10082000CF93C82F8A3011F48DE0FADF5A9A809165
:10083000C00085FFFCCFC093C6008091C00086FF3A
:10084000FCCF8091C00080648093C0005A9880E003
:1008500090E0CF910895CF93BC018091C00087FFB5
:10086000FCCFC091C6008C2FDBDF8C2F90E0CF91A6
:10087000089580E091E09093E7028093E602109261
:10088000C50087E18093C40086E08093C20088E9B8
:100890008093C100529A5A9808951F920F920FB6F2
:1008A0000F9211242F933F934F938F939F93AF9366
:1008B000BF93EF93FF938091DF0290E02091C600F9
:1008C000FC01EC5BFD4F20832A30E9F40AC0F901FA
:1008D000E458FD4FD901AC5BBD4F2C9120834F5F95
:1008E00001C040E0242F30E08217930784F7FC0119
:1008F000E458FD4F11828091DD0280618093DD021A
:1009000081E38093DF028091DF02813319F410923A
:10091000DF0203C08F5F8093DF02FF91EF91BF91F1
:10092000AF919F918F914F913F912F910F900FBE5B
:100930000F901F901895809143028160809343022D
:100940000895F89410927A0280E090E0FC01EB5454
:10095000FD4F1082019688329105C1F7809178028F
:100960008F7D80937802809177028F7D80937702CC
:10097000789408958F929F92AF92BF92CF92DF9218
:10098000EF92FF920F931F93CF93DF931F92CDB7F8
:10099000DEB7A0907A02812C912C84E1B82E34C06D
:1009A00090914102F801EB54FD4F891306C09081EC
:1009B0008091410298130FC00FC09091DE028913FD
:1009C00006C090818091DE02981305C005C0908119
:1009D00089170CF001C041E0D3940D2D10E0C8013F
:1009E0008E0D9F1D80509040498348D849818111C8
:1009F000D7CF411102C0DA1491F08FEF881A980A0C
:100A0000E8E08E16910449F0C82C40E0D12CB89C47
:100A10007001B99CF00C1124E0CFCC24CA948C2D29
:100A20000F90DF91CF911F910F91FF90EF90DF908A
:100A3000CF90BF90AF909F908F900895CF93C82F85
:100A400024E1429FC0011124860F911D80509040E7
:100A500015D89091410289130AC0409141026C2F30
:100A600070E0552747FD50956417750741F1909147
:100A7000DE0289130AC04091DE026C2F70E0552718
:100A800047FD509564177507D1F02C2F30E099275A
:100A900087FD90958217930714F48FEF11C0809112
:100AA0004102992787FD909528173907B1F3809166
:100AB000DE02992787FD90952817390771F380E0AA
:100AC000CF9108950F931F93CF93DF93082F10E0DA
:100AD000C82FD0E0CB54DD4F8881412F602FAEDF8F
:100AE000882329F01F5F1830B9F78FEF01C080E02D
:100AF000DF91CF911F910F910895109243028230A0
:100B000099F028F4882349F0813029F507C0843012
:100B1000B9F080F08530F9F419C00DCF809143020F
:100B200082608093430208958091430284608093A1
:100B300043020895809143028860809343020895A0
:100B40008091430280618093430208958091430223
:100B50008062809343020895F4DE809178028E7F54
:100B60008093780280917B02806480937B028091E5
:100B70007802806880937802809178028F7B8093DE
:100B8000780280917B02816080937B0282E0B5DFF6
:100B90001092E3020895D5DE809178028F778093DA
:100BA00078028091780280648093780220917B02A1
:100BB0003091B00281E090E001C0880F3A95EAF7E9
:100BC000282B20937B0210924302B5DE809177029E
:100BD0008F77809377021092E3020895BDDF83E060
:100BE0008CDF1092E302089580538F3130F4E82FA8
:100BF000F0E0EE5FFD4F808108958FEF089536DAC3
:100C000015B818B814B88FE087B986E68AB9559A2E
:100C10005D9A2FDEF4DA569A1092DD021092770276
:100C20001092780210927B02109276021092430288
:100C300010927A021092DF0282EA90E01FD780932E
:100C4000DE0281EA90E01AD78093410280EA90E0C8
:100C500015D7809340028FEF8093E00229E288E16C
:100C600090E00FB6F894A895809360000FBE209393
:100C7000600083EA90E002D78093B00284EA90E0BB
:100C8000FDD68093B10220917B023091B00281E0C9
:100C900090E0032E01C0880F0A94EAF7282B2093D6
:100CA0007B02809178028064809378021092E30244
:100CB0001092E2021092B302109279021092AF02E7
:100CC00078949BEF292E91E0392E24EB622E21E0BF
:100CD000722EEE24E394F12C08E611E044E1942E08
:100CE00054E1452E64E6C62E61E0D62E88248A940F
:100CF0008091DD0284FF94C28091DD028F7E80931B
:100D0000DD0280917C02813909F08AC2A89542E017
:100D100050E06FE471E08DE792E090D4009709F520
:100D200082E990E0AAD482E591E0ACD480917B0284
:100D3000806280937B02809178028F7D809378021D
:100D400080917802816080937802FBDD24DF8091BE
:100D500077028F7E809377028092E00281E0CDDE81
:100D60005FC242E050E068E571E08DE792E066D452
:100D70000097E1F482E990E080D48BE591E082D4A1
:100D800080917B02806480937B02809178028E7FC9
:100D900080937802D6DD809177028061809377021C
:100DA0008092E00210924302C6DD3AC242E050E077
:100DB00061E671E08DE792E041D40097E9F580911A
:100DC000780285FF2DC282E990E057D4DF92CF925E
:100DD00043D42091E002822F992787FD90959F931D
:100DE0002F931F930F9338D40F900F900F900F9065
:100DF0000F900F90C0E012C0908180914102981333
:100E000007C080914002992787FD909536D405C090
:100E10008081992787FD909530D4CF5FEC2FF0E04B
:100E2000EB54FD4F90818091DE029813E5CF86E66A
:100E300091E028D486DDF4C142E050E06CE671E038
:100E40008DE792E0FBD3009769F482E990E015D436
:100E50008FE691E017D480917802846080937802C5
:100E600070DDDEC142E050E065E771E08DE792E0C1
:100E7000E5D3009769F482E990E0FFD388E791E039
:100E800001D4809178028061809378025ADDC8C1D4
:100E900043E050E06EE771E08DE792E0CFD300973A
:100EA00009F082C082E990E0E8D35090800220ED02
:100EB000520E47E0451508F473C0809181028C37CB
:100EC00009F06EC020C040812091DE0250E033273F
:100ED00027FD309542175307A1F040812091410230
:100EE00050E0332727FD30954217530751F02081FA
:100EF000203318F020812A3320F082E891E0C2D319
:100F000024C0019602C086E090E0682F6650FC0184
:100F1000E458FD4F40812091400250E0332727FDE7
:100F200030954217530721F08A31910561F602C0CE
:100F3000643159F4209195028091DE0230E09927C6
:100F400087FD90952817390759F58BE891E09AD3DA
:100F5000C0E0D0E0959C5001112406C060818A0D4C
:100F60009B1D8050904092D5CE01FE01EE57FD4F63
:100F700040812091400250E0332727FD30954217F1
:100F8000530749F4959C800D911D112460E0805019
:100F900090407CD545C12196C531D105F9F6F2CFF7
:100FA00082E891E06FD33CC143E050E061E971E039
:100FB0008DE792E043D30097F1F582E990E05DD3AD
:100FC0008091800290E0C89794F5809181028C37DF
:100FD00071F5C091800281E991E09F938F933CD39A
:100FE0008C2F8053A82EB12C1F928F931F930F9399
:100FF00033D30F900F900F900F900F900F90512CB4
:101000009A9CE0019B9CD00D112405C0992787FD77
:10101000909533D35394CE01850D911D805090400F
:101020002DD58111F3CF86E691E02CD3F9C085E967
:1010300091E028D3F5C043E050E06EE971E08DE720
:1010400092E0FCD2009759F582E990E016D38091A6
:10105000800290E0C497FCF4809181028C37D9F42F
:101060008091800280538093B00220917B02809116
:10107000B002A70102C0440F551F8A95E2F7242B46
:1010800020937B026091B00283EA90E0FFD482EA71
:1010900091E0F8D2C5C088EA91E0F4D2C1C042E044
:1010A00050E061EB71E08DE792E0C8D2009779F4EF
:1010B00082E990E0E2D28091B0021F928F937F92FA
:1010C0006F92CAD20F900F900F900F90A9C043E07B
:1010D00050E06CEB71E08DE792E0B0D20097B9F58B
:1010E00082E990E0CAD2809181028C3761F58091CB
:1010F00083028C3741F5809185028C3721F58091F0
:1011000087028C3701F5D0918002D053C0918202C2
:10111000C0538091840268DD909186029053D8304C
:1011200090F4C83080F4933070F48F3F61F0D09326
:10113000E202C093B302809379029093E10280ECC3
:1011400091E0A0D26DC086EC91E09CD269C042E0F3
:1011500050E06FEC71E08DE792E070D2009741F4BF
:1011600082E990E08AD282ED91E08CD2F5DC58C021
:1011700042E050E068ED71E08DE792E05FD20097C9
:1011800041F482E990E079D28BED91E07BD203DDEE
:1011900047C042E050E061EE71E08DE792E04ED250
:1011A000009741F482E990E068D284EE91E06AD23F
:1011B00015DD36C042E050E06AEE71E08DE792E066
:1011C0003DD2009791F482E990E057D28DEE91E004
:1011D00059D22CE088E190E00FB6F894A89580935E
:1011E00060000FBE20936000FFCF42E050E064EF4C
:1011F00071E08DE792E022D2009791F482E990E0CD
:101200003CD287EF91E09F938F9326D23F922F920B
:1012100023D28AE090E031D20F900F900F900F9080
:101220008091DD0280FF46C08091430282FF0BC0A7
:10123000B2DC8091770280688093770280914302CC
:10124000806880934302E0917A02F0E0809142024C
:10125000EB54FD4F808380917A0234DC882331F097
:10126000809178028061809378020DC0809177022E
:1012700085FD09C08091780287FD05C080917802C4
:101280008860809378028091780284FD0DC08091FF
:101290007A02873230F480917A028F5F80937A02EB
:1012A00004C010927A0201C04CDB8091DD028E7F77
:1012B0008093DD028091780280FF10C080917A02D5
:1012C000882361F0809178028E7F809378028091EC
:1012D0007B02806480937B0285E00FDC80917B023F
:1012E00082FF29C080917B028B7F80937B0280915B
:1012F000760284608093760280917602877F809365
:101300007602809176028E7F8093760280917602BB
:101310008D7F80937602809176028F77809376021C
:101320008091DD028D7F8093DD0283E58093AE02A4
:101330004092B402BFC080917B0287FF24C080919D
:101340007B028F7780937B02809176028068809306
:10135000760280917602877F809376028091760272
:101360008E7F80937602809176028D7F80937602C5
:10137000809176028B7F809376028091DD028D7F53
:101380008093DD0297C080917B0281FF29C080910C
:101390007B028D7F80937B028091760282608093B6
:1013A000760280917602877F809376028091760222
:1013B0008E7F80937602809176028B7F8093760277
:1013C000809176028F77809376028091DD028D7F07
:1013D0008093DD0281E08093B4028093AE026AC004
:1013E00080917B0280FF26C080917B028E7F80935C
:1013F0007B028091760281608093760280917602F2
:10140000877F80937602809176028D7F809376022B
:10141000809176028B7F80937602809176028F771F
:10142000809376028091DD028D7F8093DD021092A1
:10143000AE0240C080917B0283FF29C080917B0275
:10144000877F80937B02809176028860809376020A
:10145000809176028E7F80937602809176028D7FD6
:1014600080937602809176028B7F809376028091C2
:1014700076028F77809376028091DD028D7F809354
:10148000DD024AEF4093AE024092B40213C0809155
:101490007B0284FF0FC080917B028F7E80937B0252
:1014A000809176028061809376028091DD02826075
:1014B0008093DD0280917B0285FF15C080917B02C5
:1014C0008F7D80937B02809176028062809376028A
:1014D000809176028F7B809376028091DD0284601A
:1014E0008093DD0218C080917B0286FF14C080913A
:1014F0007B028F7B80937B02809176028064809355
:101500007602809176028F7D8093760280917702B9
:1015100081608093770280917A02882361F1E09163
:101520007A02F0E0EC54FD4F90818091DE02981336
:1015300022C08091780284FD1EC08091780285FDD2
:101540001AC018DA8093E0028091E0028F3F99F090
:101550008091E00288307CF48091780280628093F0
:10156000780280917B02816080937B028091770278
:101570008062809377028091770282FF3DC08091E4
:10158000780285FD39C08091430285FD1CC0D9D900
:10159000809177028B7F809377028091780287FD1C
:1015A0002BC08091DD0283FD27C020917B028091BA
:1015B000B002A70102C0440F551F8A95E2F7242B01
:1015C00020937B0219C080917B02806280937B0212
:1015D000809178028F7D809378028091780281607B
:1015E00080937802AED9809177028F7E80937702C4
:1015F0008092E00281E081DA8091770283FF13C05C
:10160000809178028E7F8093780280917B02806443
:1016100080937B0280917702877F8093770291D9B4
:101620001092430288D980913E0281FF61CB809164
:101630003E028D7F80933E028FDA5ACBFB01DC01A4
:101640004150504030F08D910190801919F40020E4
:10165000B9F7881B990B0895A0E0B0E0E1E3FBE047
:10166000D3C2FE01359661917191AF018091E6027E
:101670009091E70236D0E2E0E3C26091E602709119
:10168000E70228C20F931F93CF93DF938C01E09161
:10169000E602F091E702838181FF1BC0C0E0D0E049
:1016A00005C00995892B11F0CFEFDFEFF80181918B
:1016B0008F016091E6027091E702DB011896ED91CF
:1016C000FC9119978111EDCF8AE00995892B09F4D6
:1016D00002C0CFEFDFEFCE01DF91CF911F910F91CD
:1016E0000895ACE0B0E0E6E7FBE07EC27C016B0170
:1016F0008A01FC0117821682838181FFB9C1882487
:101700008394912C8C0E9D1EF7019381F60193FD1D
:10171000859193FF81916F01882309F4A5C18532DA
:1017200039F493FD859193FF81916F01853221F406
:10173000B70190E0CFD1E8CF512C312C20E02032FE
:10174000A8F48B3261F028F4803251F0833271F4C6
:101750000BC08D3239F0803349F4216028C02260FB
:10176000246025C0286023C0206121C027FD27C038
:10177000382F30533A3078F426FF06C0FAE05F9EE7
:10178000300D1124532E13C08AE0389E300D1124E1
:10179000332E20620CC08E3221F426FD65C12064F8
:1017A00006C08C3611F4206802C0883641F4F60178
:1017B00093FD859193FF81916F018111C0CF982F87
:1017C0009554933018F09052933028F40C5F1F4FCB
:1017D000FFE3F9830DC0833631F0833771F0833531
:1017E00009F05AC022C0F801808189830E5F1F4F23
:1017F00044244394512C540114C03801F2E06F0E7C
:10180000711CF801A080B18026FF03C0652D70E037
:1018100002C06FEF7FEFC5012C8751D12C018301EE
:101820002C856FE7262E222217C03801F2E06F0EBA
:10183000711CF801A080B18026FF03C0652D70E007
:1018400002C06FEF7FEFC5012C872ED12C012C85B4
:1018500050E8252E222A830123FC1AC005C0B701B7
:1018600080E290E037D13A94832D90E048165906F3
:10187000B0F30EC0F50127FC859127FE81915F0131
:10188000B70190E027D131103A94F1E04F1A510896
:101890004114510479F7E5C0843611F0893639F5E1
:1018A000F80127FF07C060817181828193810C5FFD
:1018B0001F4F08C060817181882777FD8095982F20
:1018C0000E5F1F4F4FE6B42EB22297FF09C09095CE
:1018D0008095709561957F4F8F4F9F4FF0E8BF2A9D
:1018E0002AE030E0A40122D1A82EA81842C08537F2
:1018F00031F43FEEB32EB2222AE030E024C099EF5B
:10190000B92EB2228F36B9F020F4883509F0ACC078
:101910000DC0803721F0883709F0A6C002C020E151
:10192000B22AB4FE0BC084E0B82A08C024FF09C064
:10193000E6E0BE2A06C028E030E005C020E130E045
:1019400002C020E132E0F801B7FE07C0608171817A
:10195000828193810C5F1F4F06C06081718180E09E
:1019600090E00E5F1F4FA401E1D0A82EA818FFE75A
:10197000BF22B6FE0BC02B2D2E7FA51450F4B4FE53
:101980000AC0B2FC08C02B2D2E7E05C07A2C2B2D50
:1019900003C07A2C01C0752C24FF0DC0FE01EA0D96
:1019A000F11D8081803311F4297E09C022FF06C019
:1019B0007394739404C0822F867809F0739423FD86
:1019C00013C020FF0EC05A2C731458F4530C571830
:1019D000732C07C0B70180E290E02C877BD0739412
:1019E0002C857314B8F304C0731410F4371801C0B5
:1019F000312C24FF11C0B70180E390E02C876AD01E
:101A00002C8522FF1CC021FF03C088E590E002C0A6
:101A100088E790E0B7010CC0822F867881F021FD25
:101A200002C080E201C08BE227FD8DE2B70190E0A9
:101A300051D005C0B70180E390E04CD05A94A51472
:101A4000C8F3AA94F401EA0DF11DB701808190E07A
:101A500041D0A110F6CF05C0B70180E290E03AD0A6
:101A60003A943110F9CF50CEF7012681378102C068
:101A70002FEF3FEFC9012C96E2E1D2C0F999FECFDA
:101A800092BD81BDF89A992780B50895262FF999BE
:101A9000FECF1FBA92BD81BD20BD0FB6F894FA9A51
:101AA000F99A0FBE01960895FC01059061507040AF
:101AB0000110D8F7809590958E0F9F1F0895FC0117
:101AC0006150704001900110D8F7809590958E0F6D
:101AD0009F1F08950F931F93CF93DF938C01EB010A
:101AE0008B8181FD03C00FEF1FEF1AC082FF0DC075
:101AF0002E813F818C819D812817390764F4E8810C
:101B0000F9810193F983E88306C0E885F985802F80
:101B10000995892B41F78E819F8101969F838E8342
:101B2000C801DF91CF911F910F910895FA01AA2763
:101B3000283051F1203181F1E8946F936E7F6E5F10
:101B40007F4F8F4F9F4FAF4FB1E03ED0B4E03CD0BE
:101B5000670F781F891F9A1FA11D680F791F8A1FA1
:101B6000911DA11D6A0F711D811D911DA11D20D008
:101B700009F468943F912AE0269F11243019305DC2
:101B80003193DEF6CF010895462F4770405D4193B3
:101B9000B3E00FD0C9F7F6CF462F4F70405D4A3300
:101BA00018F0495D31FD4052419302D0A9F7EACFC8
:101BB000B4E0A6959795879577956795BA95C9F7F7
:101BC00000976105710508959B01AC010A2E0694EA
:101BD0005795479537952795BA95C9F7620F731FA3
:101BE000841F951FA01D08952F923F924F925F92E0
:101BF0006F927F928F929F92AF92BF92CF92DF921D
:101C0000EF92FF920F931F93CF93DF93CDB7DEB781
:101C1000CA1BDB0B0FB6F894DEBF0FBECDBF099415
:101C20002A88398848885F846E847D848C849B846C
:101C3000AA84B984C884DF80EE80FD800C811B817A
:101C4000AA81B981CE0FD11D0FB6F894DEBF0FBEA9
:0A1C5000CDBFED010895F894FFCF19
:101C5A00000000030000000010042B04000008101C
:101C6A002040081020400810204000040404040109
:101C7A000101010202020200010101010202020243
:101C8A0004040404004424140C41211109422212C0
:101C9A000A003134372A3235383033363923204274
:101CAA004F00424F7C4F4B0042440042447C4F4B12
:101CBA000047430047437C0025647C00434F0043B0
:101CCA004F7C4F4B0043450043457C4F4B005346E6
:101CDA007C0053467C4552524F520053467C4F4B30
:101CEA000047467C0047467C4552524F5200534CAF
:101CFA007C00534C7C4F4B00534C7C4552524F5204
:101D0A0000474C00474C7C25647C0A0053537C00F6
:101D1A0053537C4F4B0053537C4552524F520054FD
:101D2A00490054497C4F4B0054410054417C4F4B6D
:101D3A000054540054547C4F4B0052530052537C6D
:101D4A004F4B7C0056530056537C0076332E312E6F
:101D5A00310009080C04070B03060A02FFFFFFFF04
:101D6A00FFFFFF05FFFFFFFFFFFF01FFFFFFFFFF71
:021D7A00000067
:00000001FF
