:100000000C947200189500001895000018950000D7
:10001000189500001895000018950000189500002C
:10002000189500001895000018950000189500001C
:10003000189500001895000018950000189500000C
:1000400018950000189500001895000018950000FC
:1000500018950000189500001895000018950000EC
:10006000189500000D948CDB189500001895000081
:1000700018950000189500001895000018950000CC
:100080001895000018950000189500000C94DE10DB
:100090000D94BADB18950000189500001895000023
:1000A000189500001895000018950000189500009C
:1000B000189500001895000018950000189500008C
:1000C0001895000018950000189500000D94E8DBC5
:1000D00018950000189500000D9416DC0D9444DC72
:1000E000189500008FEF8DBFC0EBE8E24E2E81E245
:1000F0008EBFD1E2FEE15F2EA89584B7082E877FE0
:1001000084BF88E199278093600090936000EEEFB0
:10011000FFE1A0E0B2E088278D933197E9F78FE502
:100120008093C40080E08093C50088E18093C10083
:1001300066248FEF9FEFA0EBB9E18D939C9380E055
:1001400090E0A2EBB9E18D939C938FEF9FEFA4EB2E
:10015000B9E18D939C9370E07093740070E070939C
:10016000750072E072B973E071B970ED75B977ED31
:1001700074B970E078B970E077B978E07BB971E86C
:100180007AB973E07EB972E37DB970E471BB70EE49
:1001900070BB70E074BB70E073BB72E470930201DB
:1001A0007AE57093010172E0709305017AE770932C
:1001B000040170E1709308017FE97093070170E01A
:1001C00070930B0170EF70930A0180E08093C00F71
:1001D00080E080939D0F80E080939E0F80E080936D
:1001E0009F0F80E090E0A0EABFE08D939C9380E0B9
:1001F0008093900083E08093910080E09CE4909352
:1002000095008093940070917100716070937100FB
:10021000789483E08093910080E08093800087E071
:100220008093810080E08093A00087E08093A1000C
:1002300076E07093810076E07093A10080E090E01A
:10024000909385008093840080E090E09093A500D7
:100250008093A40000E010E020E030E0A6E6B2E0E9
:100260000D931D932D933C9300E010E020E030E0CF
:10027000AAE6B2E00D931D932D933C930F9454D7AF
:100280000F945A5A87E08093C40080E08093C500A1
:1002900088E18093C10086E08093C2008FE2809362
:1002A000D40080E08093D50086E08093D2008091D6
:1002B000D100807E88618093D100E2EAF1E0ACE079
:1002C000B2E094E00F94EFDD40E855E260E070E0CA
:1002D000ACE0B2E00D911D912D913C910F94D8DCD2
:1002E00011F00C9481018FE58093CC0080E0809325
:1002F000CD0086E08093CA0088E18093C9000C9409
:1003000090018FEB8093CC0080E08093CD0086E05D
:100310008093CA008091C900807E88618093C90063
:1003200087E08093340180E08093350186E08093FC
:10033000320180913101807E88618093310170911A
:10034000C10070687093C1007091C90070687093AB
:10035000C9007091D10070687093D1007091310123
:100360007068709331017FE170937E0070E070934C
:100370007D0070EC70937C0087E880937A0080ECBD
:1003800080937C0070917A00706870937A000F946B
:1003900054D70E942E13E8E5F0E0A4E0B2E091E02B
:1003A0000F94EFDD00910402013011F00C94F20182
:1003B000E8E4F0E0ABEDBDE090E10F94EFDDA2E604
:1003C000B0E10C9102FB16F00C94F201ECE2FFEBB1
:1003D0000F9489DB0F9462D5ABEDBDE00F945CD533
:1003E0000F9470D50F9454D70E9461B0ABE8BFE072
:1003F0007C917E7F7C9380E08093360EAFE8BFE0F7
:100400007C917F7E7C93AFE8BFE07C917F777C938B
:10041000AFE8BFE07C917F7B7C9383E68093EB0D1C
:10042000A2E6B0E10C9102FB16F00C941F02E8E387
:10043000FFEB0F9489DB0F9462D50F9470D5709108
:1004400071007E7F70937100AAEABFE00D911D914B
:100450002D913C91AAEDBEE00D931D932D933C93FD
:100460007091710071607093710080E08093EE0D67
:1004700080E08093EF0D80E08093370EAFE8BFE01F
:100480000C9101FB16F00C944602589AAFE8BFE0BD
:100490000C9100FB16F40C948402A2E6B0E10C91DE
:1004A00002FB16F00C945C02E0E4FFEB0F9489DB96
:1004B0000F9462D50F9470D50F9454D75A924A92E4
:1004C00080E197E2D2018D939C9382E00F9445D70F
:1004D0000E945627229682E00F941AD4AFE8BFE01C
:1004E0000C9100FB16F00C944D02A2E6B0E10C91C9
:1004F00002FB16F00C948402EEE4FFEB0F9489DB10
:100500000F9462D50F9470D50F9454D75A924A9293
:1005100084EF91E0D2018D939C9382E00F9445D7B4
:100520000E945627229682E00F941AD40F9454D733
:100530000E94F9FC709108017068709308010F9493
:1005400054D75A924A9288EE93E0D2018D939C93AD
:1005500082E00F9445D70E945627229682E00F949E
:100560001AD40F9454D70E94E83EAEEEBDE08C91B1
:100570008F5F8C93AFE8BFE00C9100FB16F40C94F6
:10058000C3020C94F601A1EBB8E1EAE5FFEB0F948E
:1005900089DB0F9400DE81E009F080E08F93009109
:1005A000EE0D053080E010F009F081E09F91892B7D
:1005B000882311F40C94B1020091EE0D053018F06F
:1005C00011F00C94E5020C941503A3E9BFE00C9123
:1005D00002FB16F40C940D03A3E9BFE07C91746058
:1005E0007C93A0E1B2E0EEE5FFEB0F9489DB0F9482
:1005F0003CD80F9454D75A924A9281E0D2018C93FE
:1006000081E00F9445D7A0E1B2E0BA93AA930E948B
:1006100062AC249681E00F941AD40F9454D70E94B0
:10062000843E0C94F6010C941F03ABE8BFE07C9170
:100630007E7F7C93A3E9BFE07C917B7F7C93E8E5A0
:10064000F0E0A4E0B2E091E00F94EFDD009104024D
:10065000013011F40C9441030F9454D70E942526C5
:10066000E8E5F0E0A4E0B2E091E00F94EFDD009166
:100670000402013011F40C9441030F9454D70E94EA
:10068000D2FD0F9454D75A924A9284E690E0D20158
:100690008D939C9382E00F9445D70E945627229613
:1006A00082E00F941AD4A0E1B2E0EEE6FFEB0F94E3
:1006B00089DB0F943CD80F9454D7A0E1B2E0BA93F1
:1006C000AA930F94A22822960F9454D70F9454D72C
:1006D000A4E0B2E0BA93AA935A924A9288E2D20175
:1006E0008C9381E00F9445D75A924A92D201EAE561
:1006F000FFEB0F9489DB0F943CD883E00F9445D730
:100700000F94E23D269684E00F941AD4A0E1B2E063
:10071000E8E7FFEB0F9489DB0F943CD80F9454D794
:10072000A0E1B2E0BA93AA930F94A22822960F9464
:1007300054D70F9454D7A4E0B2E0BA93AA935A9234
:100740004A9288E2D2018C9381E00F9445D75A9265
:100750004A92D201EAE5FFEB0F9489DB0F943CD873
:1007600083E00F9445D70F94E23D269684E00F94E2
:100770001AD4A0E1B2E0E8E8FFEB0F9489DB0F9414
:100780003CD80F9454D7A0E1B2E0BA93AA930F9447
:10079000A22822960F9454D70F9454D7A4E0B2E025
:1007A000BA93AA935A924A9288E2D2018C9381E03A
:1007B0000F9445D75A924A92D201EAE5FFEB0F9483
:1007C00089DB0F943CD883E00F9445D70F94E23D2A
:1007D000269684E00F941AD4A0E1B2E0E6E9FFEB9C
:1007E0000F9489DB0F943CD80F9454D7A0E1B2E06A
:1007F000BA93AA930F94A22822960F9454D70F94D9
:1008000054D7A4E0B2E0BA93AA935A924A9284E6EB
:10081000D2018C9381E00F9445D75A924A92D2012B
:10082000EAE5FFEB0F9489DB0F943CD883E00F944B
:1008300045D70F94E23D269684E00F941AD4ACE39A
:10084000BBE08C9186FB16F40C9456040F9454D79D
:100850000F9454D7A4E0B2E0BA93AA935A924A9262
:100860008FE0D2018C9381E00F9445D75A924A923F
:10087000D201E2EAFFEB0F9489DB0F943CD88BE0C6
:100880000F9445D70F94E23D26968CE00F941AD42E
:1008900000910402003018F011F00C9451040C94F3
:1008A000560470913C0B706470933C0BA0E1B2E075
:1008B000EEEAFFEB0F9489DB0F943CD80F9454D7EA
:1008C000A0E1B2E0BA93AA930F94A22822960F94C3
:1008D00054D70F9454D7A4E0B2E0BA93AA935A9293
:1008E0004A9285E0D2018C9381E00F9445D75A92C9
:1008F0004A92D201EAE5FFEB0F9489DB0F943CD8D2
:1009000083E00F9445D70F94E23D269684E00F9440
:100910001AD480E08093ED0D80E08093340EA6EB36
:10092000BFE00D911D912D913C91A0EEBFE00D9384
:100930001D932D933C930F9454D75A924A9284EF6F
:1009400091E0D2018D939C9382E00F9445D70E9451
:100950005627229682E00F941AD4AFE8BFE00C919C
:1009600000FB16F40C94BB04ABE8BFE07C91716013
:100970007C930C94C004ABE8BFE07C917E7F7C93B9
:10098000A2E6B0E10C9102FB16F00C94CF04ECEB64
:10099000FFEB0F9489DB0F9462D50F9470D5ABE811
:1009A000BFE00C9100FB16F40C94A4100F9454D7E4
:1009B0000F9454D7A4E0B2E0BA93AA935A924A9201
:1009C0000AE010E020E030E0D2010D931D932D935A
:1009D0003C9384E00F9445D7ACEDBFE0BA93AA9363
:1009E0000F94A943269684E00F941AD40091040230
:1009F000013081E009F080E08F930091360E0030E5
:100A000081E009F080E09F918923882311F40C9400
:100A10003E060F9454D7A4E0B2E0BA93AA930F9481
:100A2000B6282296A2E6B0E10C9102FB16F00C94D7
:100A30003B05EAECFFEB0F9489DB0F9462D50F9432
:100A400054D7A0E1BEE1EBEEFDE00F94FFDC0F9484
:100A50005AD5E0EDFFEB0F9489DB0F9462D50F942C
:100A600054D7A0E1BEE1ECEEFDE00F94FFDC0F9463
:100A70005AD50F9470D5A0E9BFE00C9105FB81E039
:100A80000EF080E08F93A0E9BFE00C9101FB81E0C4
:100A90000EF080E09F918923882311F40C947B054C
:100AA0000F9454D70F9454D7A5E0B2E0BA93AA9309
:100AB0005A924A9208E512E020E030E0D2010D930C
:100AC0001D932D933C9384E00F9445D7A0EEBFE097
:100AD000BA93AA930F94A943269684E00F941AD44C
:100AE00000910502013011F00C947B05ACE8BFE0E9
:100AF0007C9178607C93AFE8BFE00C9103FB16F02B
:100B00000C949005A6EBBFE00D911D912D913C91A9
:100B1000A0EEBFE00D931D932D933C930C94FB0529
:100B200000910402003081E009F080E08F93ACE88E
:100B3000BFE00C9103FB81E00EF080E09F91892BD8
:100B40008F93ACE8BFE00C9104FB81E00EF080E0F5
:100B50009F91892B882311F40C94FB05ACE8BFE02E
:100B60000C9103FB16F00C94C405ACE8BFE07C913B
:100B7000777F7C93ACE8BFE07C917F7E7C9382E0C2
:100B8000809304020C94D805ACE8BFE00C9104FB00
:100B900016F00C94D505ACE8BFE07C917F7E7C9389
:100BA00081E0809304020C94D80580E080930402D5
:100BB0000F9454D70F9454D7A4E0B2E0BA93AA93F9
:100BC0005A924A9280910402D2018C9381E00F9450
:100BD00045D70F94BF2C249681E00F941AD4A6EB2E
:100BE000BFE00D911D912D913C91A0EEBFE00D93C2
:100BF0001D932D933C930F9454D70E94E6E5AFE8E4
:100C0000BFE00C9104FB81E00EF480E08F93AFE82D
:100C1000BFE00C9103FB81E00EF480E09F918923FB
:100C2000882311F40C943206AEEEBDE08C918F5FF8
:100C30008C93A2E6B0E10C9100FB16F00C94320606
:100C4000E2EDFFEB0F9489DB0F9462D50F9454D73C
:100C5000A0E1BEE1EEEEFDE00F94FFDC0F945AD56B
:100C60000F9470D5A6EBBFE00D911D912D913C9195
:100C7000ACEDBFE00D931D932D933C930F9454D78F
:100C80000F9454D7A4E0B2E0BA93AA935A924A922E
:100C900008E611E020E030E0D2010D931D932D9382
:100CA0003C9384E00F9445D7A8EEBFE0BA93AA9393
:100CB0000F94A943269684E00F941AD4009104025D
:100CC000013081E009F080E08F930091F70D013051
:100CD00081E009F080E09F918923882311F40C942E
:100CE0003A070091970F0F3080E010F009F081E093
:100CF0008F930091970F0D3281E008F080E09F9173
:100D00008923882311F40C943A07A0E1B2E0ECEDBA
:100D1000FFEB0F9489DB0F943CD80F9454D7A0E1DC
:100D2000B2E0BA93AA930F94A22822960F9454D7B4
:100D30000F9454D7A4E0B2E0BA93AA935A924A927D
:100D400083E0D2018C9381E00F9445D75A924A9266
:100D5000D201E6EEFFEB0F9489DB0F943CD886E0DE
:100D60000F9445D70F94E23D269687E00F941AD44E
:100D700000910402003018F011F00C94C1060C949C
:100D80001807A6EBBFE00D911D912D913C91A8EEA7
:100D9000BFE00D931D932D933C930F9454D70F9464
:100DA00054D7A4E0B2E0BA93AA93A1EBB8E1BA9306
:100DB000AA935A924A9284E0D2018C9381E00F94D4
:100DC00045D75A924A92D201ECEEFFEB0F9489DBA1
:100DD0000F943CD882E00F9445D7AAE2B2E0BA93D0
:100DE000AA935A924A9288E0D2018C9381E00F94A0
:100DF00045D70F946D422C9684E00F941AD400913D
:100E00000402003011F00C9418070F9454D7EAE252
:100E1000F2E002E010E0AAE2B2E00F9404D80F94EE
:100E200054D7AAE2B2E00F9449DDA7E9BFE00C93E2
:100E30000F9454D70F9454D7A4E0B2E0BA93AA9376
:100E40005A924A9283E0D2018C9381E00F9445D765
:100E50005A924A92D201EAE5FFEB0F9489DB0F9494
:100E60003CD883E00F9445D70F94E23D269684E06A
:100E70000F941AD40F9454D70F9454D7A4E0B2E02F
:100E8000BA93AA935A924A9208EC10E020E030E01C
:100E9000D2010D931D932D933C9384E00F9445D77D
:100EA000A4EEBFE0BA93AA930F94A943269684E0D8
:100EB0000F941AD400910402013081E009F080E01F
:100EC0008F93ACE8BFE00C9107FB81E00EF080E06F
:100ED0009F91892B882311F40C941E08A6EBBFE088
:100EE0000D911D912D913C91A4EEBFE00D931D93AA
:100EF0002D933C930F9454D70E9414280091380EE0
:100F0000003011F00C948B07ACE8BFE07C917F7748
:100F10007C930C949007ACE8BFE07C9170687C9364
:100F200081E08093040200910402083010F00C94D8
:100F3000B207A4E0B2E0AD90BB24A5EEBEE0AA0DDE
:100F4000BB1D0C91003018F011F00C94A9070C9403
:100F5000AB070C94B207A4E0B2E08C918F5F8C9346
:100F60000C94930700910402083010F40C941E08AE
:100F7000A0E1B2E0EEEEFFEB0F9489DB0F943CD8DA
:100F80000F9454D7A0E1B2E0BA93AA930F94A22889
:100F900022960F9454D70F9454D7A4E0B2E0BA939A
:100FA000AA935A924A9283E0D2018C9381E00F94E3
:100FB00045D75A924A92D201EAE5FFEB0F9489DBBA
:100FC0000F943CD883E00F9445D70F94E23D2696CA
:100FD00084E00F941AD4A0E1B2E0E2E0F0EC0F94C8
:100FE00089DB0F943CD80F9454D7A0E1B2E0BA93B8
:100FF000AA930F94A22822960F9454D70F9454D7F3
:10100000A4E0B2E0BA93AA935A924A9283E0D20142
:101010008C9381E00F9445D75A924A92D201EAE527
:10102000FFEB0F9489DB0F943CD883E00F9445D7F6
:101030000F94E23D269684E00F941AD4ADE8BFE009
:101040000C9100FB16F00C947E08ADE8BFE07C919B
:101050007E7F7C9381E0809304020091040208303B
:1010600018F011F00C944A08A4E0B2E0AD90BB2453
:10107000A5EEBEE0AA0DBB1D0C91003011F00C9442
:1010800043080C944A08A4E0B2E08C918F5F8C93E3
:101090000C942D0800910402083018F011F00C9403
:1010A00053080C94560881E0809304020F9454D79F
:1010B000A4E0B2E0AD90BB24A5EEBEE0AA0DBB1D3E
:1010C000BA93AA930E94862B229680E0A4E0B2E015
:1010D000AD90BB24ADEEBEE0AA0DBB1D8C9380E0AD
:1010E000A4E0B2E0AD90BB24ADEDBEE0AA0DBB1D07
:1010F0008C93ACE8BFE07C9170647C93ACE8BFE07B
:101100000C9106FB16F00C94650981E080930402B3
:1011100000910402083018F011F00C94D708A4E0F4
:10112000B2E0AD90BB24A5EEBEE0AA0DBB1D0C91B4
:10113000003018F011F00C949F080C94D008A4E033
:10114000B2E0AD90BB24ADEEBEE0AA0DBB1D0C918C
:10115000003011F00C94BE08A4E0B2E0AD90BB24C6
:10116000ADEEBEE0AA0DBB1D8C918F5F8C9381E02C
:10117000809305020C94D7080C94D008A4E0B2E048
:10118000AD90BB24ADEEBEE0AA0DBB1D0C910C339F
:1011900011F00C94D00882E0809305020C94D708DB
:1011A000A4E0B2E08C918F5F8C930C94880800913E
:1011B0000402083018F011F00C946509A2E6B0E1C1
:1011C0000C9102FB16F00C94F708E8E1F0EC0F9498
:1011D00089DB0F9462D50F9454D7A0E1BEE1E4E01F
:1011E000F2E00F94FFDC0F945AD50F9470D50F9452
:1011F00054D70F9454D7A4E0B2E0AD90BB24ADED2A
:10120000BEE0AA0DBB1DBA93AA935A924A92A4E0DB
:10121000B2E0AD90BB24A5EEBEE0AA0DBB1D8C9143
:10122000D2018C9381E00F9445D75A924A928091D3
:101230000502D2018C9381E00F9445D70E94462A83
:10124000269682E00F941AD4A2E6B0E10C9102FB3C
:1012500016F00C944309E8E2F0EC0F9489DB0F944C
:1012600062D50F9454D7A0E1BEE1E4E0F2E0A19092
:10127000BB24EDEDFEE0EA0DFB1D0F94FFDC0F94A7
:101280005AD50F9470D50F9454D75A924A9288EC3D
:1012900090E0D2018D939C9382E00F9445D70E94F9
:1012A0005627229682E00F941AD40091050202304C
:1012B00011F00C9465098DE3A4E0B2E0AD90BB247D
:1012C000ADEEBEE0AA0DBB1D8C9381E080930402BD
:1012D00000910402083018F011F00C949A09A4E06F
:1012E000B2E0AD90BB24A5EEBEE0AA0DBB1D0C91F3
:1012F000003080E010F009F081E08F93A4E0B2E0CC
:10130000AD90BB24ADEEBEE0AA0DBB1D0C910D331C
:1013100081E009F080E09F918923882311F40C94E7
:1013200093090C949A09A4E0B2E08C918F5F8C939E
:101330000C94680900910402083018F011F00C9424
:10134000F609A2E6B0E10C9102FB16F00C94BA0982
:10135000E4E3F0EC0F9489DB0F9462D50F9454D73B
:10136000A0E1BEE1E4E0F2E00F94FFDC0F945AD577
:101370000F9470D50F9454D70F9454D7A5E0B2E0D2
:10138000BA93AA935A924A92A4E0B2E0AD90BB24D9
:10139000A5EEBEE0AA0DBB1D8C91D2018C9381E01D
:1013A0000F9445D70E949C2C249681E00F941AD468
:1013B00080E0A4E0B2E0AD90BB24ADEDBEE0AA0DAC
:1013C000BB1D8C9380E0A4E0B2E0AD90BB24A5EE01
:1013D000BEE0AA0DBB1D8C9380E0A4E0B2E0AD900E
:1013E000BB24ADEEBEE0AA0DBB1D8C9381E08093C3
:1013F000040200910402083018F011F00C94190A4C
:10140000A4E0B2E0AD90BB24A5EEBEE0AA0DBB1DEA
:101410000C91003018F011F00C94100A0C94120A80
:101420000C94190AA4E0B2E08C918F5F8C930C9419
:10143000F90900910402083018F011F00C94220A06
:101440000C94270AACE8BFE07C917F7B7C93ACE8EE
:10145000BFE00C9100FB16F40C94430AAAE2B2E040
:10146000E4E4F0EC0F9489DB0F943CD80F9454D74C
:10147000AAE2B2E08C91AFEDB0E10F9426DEA8E0D5
:10148000B2E00D931C9381E080930402ACE8BFE0CE
:101490000C9100FB81E00EF080E08F93A8E0B2E0B9
:1014A0000D911C91003050E0150780E010F009F01C
:1014B00081E09F91892B882311F40C94790A0F9471
:1014C00054D70F9454D7A4E0B2E0BA93AA93A2EBF6
:1014D000B7E1BA93AA935A924A928EEFD2018C93B3
:1014E00081E00F9445D70E947EFA269681E00F9402
:1014F0001AD400910402003011F00C948E0A0F945B
:1015000054D70F9454D7A4E0B2E0BA93AA93A2EBB5
:10151000B7E1BA93AA930E94A34024960091360E95
:10152000003011F00C94EC0AABE8BFE00C9104FB26
:1015300081E00EF080E08F93AFE8BFE00C9104FBF8
:1015400081E00EF080E09F918923882311F40C94B0
:10155000EC0AA2E6B0E10C9102FB16F00C94B80A7A
:10156000E6E4F0EC0F9489DB0F9462D50F9470D50C
:10157000ABE8BFE07C917F7E7C930F9454D7ADECB9
:10158000BCE00F94F5D7A4E0B2E08C930F9454D74D
:101590000F9454D7A4E0B2E0BA93AA93ADECBCE0A8
:1015A000BA93AA935A924A9280910402D2018C93E0
:1015B00081E00F9445D70F94A232269681E00F94D4
:1015C0001AD400910402003011F00C94EC0AABE83C
:1015D000BFE07C9170617C9300916805013081E0EF
:1015E00009F080E08F9300916705013081E009F0F8
:1015F00080E09F9189238F930091360E003081E027
:1016000009F080E09F918923882311F40C94970BB3
:10161000A2E6B0E10C9102FB16F00C94170BE4E586
:10162000F0EC0F9489DB0F9462D50F9470D50F9472
:1016300054D7A9E6B5E00F94F5D7A4E0B2E08C93B7
:101640000F9454D70F9454D7A4E0B2E0BA93AA935E
:10165000A9E6B5E0BA93AA935A924A9280910402FD
:10166000D2018C9381E00F9445D70F94A232269635
:1016700081E00F941AD400910402003018F011F0A8
:101680000C94440B0C94490B80E0809368050C94F7
:10169000970B80E091E00F943AD70F9454D786E0EF
:1016A00090E0E9E6F5E005E010E00A931A93AA81DC
:1016B000BB810F94FCD7A881B981E2E6F0EC0F94CE
:1016C00089DB0F9400DE0FB680E0481A81E0580AEB
:1016D00022960FBE11F00C94830B0F9454D7E9E6B9
:1016E000F5E00BE010E0A0E1BEE10F9404D80F9408
:1016F0005AD5E8E6F0EC0F9489DB0F9462D50F948D
:1017000070D50C94970B0F9454D7E9E6F5E005E0FB
:1017100010E0A0E1BEE10F9404D80F945AD5E8E69A
:10172000F0EC0F9489DB0F9462D50F9470D50F9471
:1017300054D70E9454B3ABE8BFE00C9107FB81E0A3
:101740000EF080E08F930091360E003081E009F0BA
:1017500080E09F918923882311F40C94A30CA2E6C6
:10176000B0E10C9102FB16F00C94BE0BE0E7F0EC3C
:101770000F9489DB0F9462D50F9470D5ABE8BFE06E
:101780007C917F777C9381E0809304020091040236
:10179000003218F011F00C94A30C009161104091EC
:1017A0000402040FA5E0B2E00C9380910502815081
:1017B00080930502A5E0B2E08C918F718C93A5E037
:1017C000B2E08C918F5F8C93A5E0B2E0AD90BB242A
:1017D000A5EFBEE0AA0DBB1D0C91003018F011F072
:1017E0000C94F40B0C949B0CA2E6B0E10C9100FB62
:1017F00016F00C940D0CE8E7F0EC0F9489DB0F94D5
:1018000062D50F9454D7A0E1BEE1E5E0F2E00F9479
:10181000FFDC0F945AD50F9470D5A5E0B2E00D917E
:10182000112740ED5AE7040F151FAAE0B2E00D930F
:101830001C93AAE0B2E00F9436D40F9454D70F94BF
:1018400054D7A8E0B2E0BA93AA935A924A92AAE077
:10185000B2E08D919C91D2018D939C9382E00F9484
:1018600045D70F94AC4D249682E00F941AD4A8E08B
:10187000B2E00D911C91013050E0150780E010F0AE
:1018800009F081E08F93A8E0B2E00D911C910F3F29
:1018900050E0150781E008F080E09F9189238823BC
:1018A00011F40C94990C80910802809305020F9416
:1018B00054D70F9454D7A5E0B2E0BA93AA93AAEEF6
:1018C000B5E1BA93AA935A924A9280910502D20145
:1018D0008C9381E00F9445D70F94A232269681E035
:1018E0000F941AD400910502013011F00C94990C58
:1018F0000091611040910402040FA5E0B2E00C9346
:1019000080910502815080930502A5E0B2E08C91A0
:101910008F718C93A5E0B2E08C918F5F8C9380E007
:10192000A5E0B2E0AD90BB24A5EFBEE0AA0DBB1DC3
:101930008C930C94A30CA4E0B2E08C918F5F8C93F9
:1019400010F40C94C60BABE8BFE00C9103FB81E0F4
:101950000EF080E08F930091360E003081E009F0A8
:1019600080E09F918923882311F40C94EF0CA2E668
:10197000B0E10C9102FB16F00C94C60CEEE7F0EC13
:101980000F9489DB0F9462D50F9470D5ABE8BFE05C
:101990007C91777F7C938091EA15809304028091FB
:1019A00004028150809304020F9454D70F9454D7AB
:1019B000A4E0B2E0BA93AA93ABEEB5E1BA93AA93CE
:1019C0005A924A9280910402D2018C9381E00F9442
:1019D00045D70F94A232269681E00F941AD4ACE832
:1019E000BFE00C9102FB81E00EF080E08F93ABE84A
:1019F000BFE00C9100FB81E00EF480E09F91892311
:101A0000882311F40C942F0DACE8BFE07C917B7F10
:101A10007C930091F00D003081E009F080E08F931D
:101A20000091EC0D053081E009F080E09F91892361
:101A3000882311F40C942F0DA2E6B0E10C9102FB67
:101A400016F00C942B0DE8E8F0EC0F9489DB0F9462
:101A500062D50F9470D50F9454D70F94A737ABE885
:101A6000BFE00C9106FB81E00EF080E08F930091C7
:101A7000360E003081E009F080E09F9189238823B1
:101A800011F40C94660FA2E6B0E10C9102FB16F083
:101A90000C946C0DE8E9F0EC0F9489DB0F9462D59F
:101AA0000F9454D7A0E1BEE1E6ECFFE00F94EBDC2D
:101AB0000F945AD5E8EAF0EC0F9489DB0F9462D5C5
:101AC0000F9454D7A0E1BEE1E8ECFFE00F94EBDC0B
:101AD0000F945AD50F9470D5A8ECBFE08D919C91CE
:101AE000AAECBFE08D939C93A8ECBFE04D915C9174
:101AF000A6ECBFE00D911C910417150711F40C948E
:101B0000EC0E0F9454D70F9454D7A8E0B2E0BA93D8
:101B1000AA935A924A92A8ECBFE08D919C91D2016F
:101B20008D939C9382E00F9445D70F94AC4D2496EF
:101B300082E00F941AD4A8E0B2E00D911C9101301C
:101B400050E0150780E010F009F081E08F93A8E0E5
:101B5000B2E00D911C910F3F50E0150781E008F0B5
:101B600080E09F9189238F930091EF15003080E0F2
:101B700010F009F081E09F9189238F930091EF1578
:101B80000F3F81E008F080E09F918923882311F4C2
:101B90000C94AB0E8091EA1580930502009105022A
:101BA00044E00423A4E0B2E00C930091040200306E
:101BB00011F00C94E00DAAEEB5E18C9184608C9349
:101BC00080910802809304020F9454D70F9454D745
:101BD000A4E0B2E0BA93AA93AAEEB5E1BA93AA93AD
:101BE0005A924A9280910402D2018C9381E00F9420
:101BF00045D70F94A232269681E00F941AD4009113
:101C00000402013011F00C94A40E0091EA15053580
:101C100011F00C94440EAAEBBFE00D911D912D9193
:101C20003C91A7EDB4E00D931D932D933C93ACE351
:101C3000BBE08C9185FB16F00C94440E70913C0B2C
:101C40007F7D70933C0BEEE8F1E0A8ECBFE092E002
:101C50007BE70F94D3DDA2E6B0E10C9100FB16F018
:101C60000C94440EECEAF0EC0F9489DB0F9462D5EF
:101C70000F9454D7A0E1BEE1E8ECFFE00F94EBDC59
:101C80000F945AD50F9470D50091050244E00423B7
:101C9000A4E0B2E00C9300910402003018F011F0BF
:101CA0000C94540E0C94990E84E080930402A4E0EA
:101CB000B2E08C9180958C930091EA1540910402DA
:101CC0000423ABEEB5E10C938091080280930402EB
:101CD000A4E0B2E08C918F5F8C938091040280939A
:101CE000EA150F9454D70F9454D7A4E0B2E0BA93F6
:101CF000AA935A924A92A8ECBFE08D919C91D2018E
:101D00008D939C9382E00F9445D7AAEEB5E1BA93E8
:101D1000AA935A924A9282E090E0D2018D939C93CA
:101D200082E00F9445D70F94754E289684E00F9467
:101D30001AD40F9454D7A8ECBFE0BA93AA930F9487
:101D4000134D22960C94A90EABE8BFE07C917F7BEB
:101D50007C930C94C30EA2E6B0E10C9100FB16F04C
:101D60000C94BA0EEAEBF0EC0F9489DB0F9462D579
:101D70000F9470D50F9454D7A8ECBFE0BA93AA93F0
:101D80000F94134D2296A2E6B0E10C9100FB16F0E1
:101D90000C94EC0EE6ECF0EC0F9489DB0F9462D51A
:101DA0000F9454D7A0E1BEE1E6ECFFE00F94EBDC2A
:101DB0000F945AD5ECECF0EC0F9489DB0F9462D5BC
:101DC0000F9454D7A0E1BEE1E8ECFFE00F94EBDC08
:101DD0000F945AD50F9470D5AAECBFE04D915C9149
:101DE000A8ECBFE00D911C910417150711F40C9499
:101DF000660FAFE1B5E00D911C910F3F5FEF150746
:101E000081E009F480E08F93AAECBFE04D915C91F2
:101E1000AFE1B5E00D911C910417150781E009F0C1
:101E200080E09F918923882311F40C943B0F8FEF5E
:101E30009FEFAFE1B5E08D939C93A0E9BFE07C916B
:101E40007F7E7C93A2E6B0E10C9100FB16F00C942F
:101E50003B0FE6EDF0EC0F9489DB0F9462D50F9405
:101E600054D7A0E1BEE1EFE1F5E00F94EBDC0F9475
:101E70005AD50F9470D50F9454D70E94E6E5A6EC7E
:101E8000BFE04D915C91A8ECBFE00D911C9104174F
:101E9000150711F00C94660FABE8BFE07C917F7BD7
:101EA0007C93709163107F7770936310AEE8BFE00E
:101EB0000C9101FB16F00C94660FAEE8BFE07C912C
:101EC0007D7F7C930F9454D70E941BFDACE8BFE04C
:101ED0000C9101FB81E00EF080E08F93ABE8BFE056
:101EE0000C9100FB81E00EF480E09F918923882310
:101EF00011F40C94E50FACE8BFE07C917D7F7C93FE
:101F000080E08093340EAFE8BFE00C9104FB16F044
:101F10000C94E50F80E08093EE0D0091F00D013000
:101F200081E009F080E08F930091EC0D013081E0B9
:101F300009F080E09F91892B882311F40C94A70F5E
:101F4000AFE8BFE07C9170627C930C94C70F009166
:101F5000F10D013081E009F080E08F93A0E9BFE04E
:101F60000C9104FB81E00EF080E09F91892388238F
:101F700011F40C94C20FAFE8BFE07C9170627C93C7
:101F80000C94C70FAFE8BFE07C917F7D7C93AFE8F6
:101F9000BFE00C9105FB16F00C94E50F81E08093F7
:101FA000360EAFE8BFE07C917F777C93A2E6B0E18C
:101FB0000C9102FB16F00C94E50FE4EEF0EC0F949C
:101FC00089DB0F9462D50F9470D50091360E0030E6
:101FD00018F011F00C94EE0F0C9466100F9454D777
:101FE0000F94D5330091360E003011F00C9466102A
:101FF000AFE8BFE00C9107FB16F00C940C10709149
:102000003C0B706270933C0B80E08093370E80E055
:102010008093EF0D0C943A10A7E3BEE08C918F5F94
:102020008C930091370E043018F011F00C941A10B4
:102030000C943A1080E08093370E0091F00D01303F
:1020400081E009F080E08F930091F10D013081E093
:1020500009F080E09F91892B882311F40C943510AE
:10206000ACE8BFE07C9170617C93AFEEBDE08C91F9
:102070008F5F8C93A2E6B0E10C9100FB16F00C94FC
:102080006310EEEEF0EC0F9489DB0F9462D50F94A1
:1020900054D7A0E1BEE1E7E3FEE00F94FFDC0F942C
:1020A0005AD5E0EDFFEB0F9489DB0F9462D50F94C6
:1020B00054D7A0E1BEE1EFEEFDE00F94FFDC0F94FA
:1020C0005AD50F9470D580E08093340E0091EE0DB8
:1020D000033080E010F009F081E08F930091EF0D64
:1020E000033080E010F009F081E09F91892B8F93FD
:1020F000AFE8BFE00C9100FB81E00EF480E09F911F
:10210000892B882311F40C948A10ABE8BFE07C91F2
:1021100071607C93AEE8BFE00C9102FB16F00C946A
:102120009610ABE8BFE07C9171607C93AEE8BFE0B5
:102130000C9100FB16F00C94A210ABE8BFE07C9170
:1021400071607C930C94CF0470910B017068709354
:102150000B0170910B01706470930B0170910B0176
:10216000706270930B0170910B01706170930B01A1
:10217000AEE8BFE00C9102FB16F00C94DC10AEE868
:10218000BFE07C917B7F7C93ABE8BFE07C917E7F5E
:102190007C93A2E6B0E10C9102FB16F00C94D810EF
:1021A000E8EFF0EC0F9489DB0F9462D50F9470D5B3
:1021B0000F9454D70E94D9FD0C94F6010F921F92F0
:1021C0002F923F924F925F927F92AF92BF920F9366
:1021D0001F932F933F934F935F936F937F938F93AF
:1021E0009F93AF93BF93CF93DF93EF93FF938FB7FB
:1021F0008F938BB78F9388278BBF80E093ED90935D
:10220000950080939400ADE9BFE08C918F5F8C9333
:10221000A2EABFE00F9422D400919D0F033018F082
:1022200011F00C9415110C940F1280E080939D0F07
:10223000AEE9BFE08C918F5F8C93A4EAB0E08D9102
:102240009C91A4E6B2E08D939C9380E090E0909303
:10225000A5008093A400A6E6B2E00D911D912D91FA
:102260003C91A4E6B2E04D915C91662777270F94EC
:10227000CEDCA6E6B2E00D931D932D933D93A4E82A
:10228000B0E08D919C91A4E6B2E08D939C9380E0A8
:1022900090E09093850080938400AAE6B2E00D91CF
:1022A0001D912D913C91A4E6B2E04D915C91662781
:1022B00077270F94CEDCAAE6B2E00D931D932D9301
:1022C0003D9300919E0F053011F00C940F1280E0A9
:1022D00080939E0FAFE9BFE08C918F5F8C93A6E651
:1022E000B2E00D911D912D913C91AEE6B2E00D93BF
:1022F0001D932D933C93AAE6B2E00D911D912D9173
:102300003C91A2E7B2E00D931D932D933C9300E026
:1023100010E020E030E0A6E6B2E00D931D932D938F
:102320003C9300E010E020E030E0AAE6B2E00D933C
:102330001D932D933C9300919F0F0B3318F011F0D8
:102340000C94A4110C940F1280E080939F0FA0EACC
:10235000BFE00F942FD4079B0C940F12A0EABFE0AC
:102360000D911C91003A55E0150718F011F00C94EE
:10237000BB110C94D411A2E6B0E10C9102FB16F053
:102380000C94CA11E8E0F1EC0F9489DB0F9462D54C
:102390000F9470D50F9454D70E941BFD80E090E0FD
:1023A000A0EABFE08D939C9340E054E260E971EEB7
:1023B000A2EABFE00D911D912D913C9104171507E4
:1023C0002607370718F011F00C94E8110C940F123F
:1023D000A2E6B0E10C9102FB16F00C94F711EAE1D1
:1023E000F1EC0F9489DB0F9462D50F9470D5E6E77A
:1023F000F1E0A3E0B2E091E00F94EFDD0091030281
:10240000013011F00C940512109A8D9A8AE090E038
:102410000F9432D68D980F9454D70E94D2FDA0EC21
:10242000BFE08C918F5F8C930091C00F0F3918F033
:1024300011F00C941D120C943412A2E6B0E10C9130
:1024400000FB16F00C942C12E0E3F1EC0F9489DB06
:102450000F9462D50F9470D58EE190E00F9432D630
:102460000F9454D70E94D2FD8F918BBF8F918FBF55
:10247000FF91EF91DF91CF91BF91AF919F918F919C
:102480007F916F915F914F913F912F911F910F918C
:10249000BF90AF907F905F904F903F902F901F9094
:1024A0000F901895F894FFCFA15AA35AA55A7950C6
:1024B00082508C50F16EF36EF56E616D6A6DD95974
:1024C000DA59DB59F95CFA5C0C5D725B775B865B11
:1024D000895BA25BE160E260E360555F5E5FAB5FDA
:1024E00041514A515451E94EED4EF24EB44FB84F5E
:1024F000C04FC44F416A436A9165926593657D60A0
:102500007E60816019601A601B607969C569DB694A
:10251000996CAD6C59665A665B665F66B956C25671
:102520001057B168B368B66849584B585258995318
:102530009B539F53C15DC85DD85D3D5A3E5A425A78
:102540009C729D72BA728D558E559655096B0A6BA9
:102550003E734173895E8A5E8D5E1159125913591B
:10256000D26B47C52AEB09CFBA6FA654D26BA15ADA
:10257000A35A47C5795082508C502B55F16EF56E99
:10258000616DDA59DB59D959F95C0C5D165DDDFFD7
:102590008A90775B2AEBE260E1606564555F535F88
:1025A0005C5FAB5F54519851E967ED4EF14EF24ECE
:1025B000E94E2C6EB84FBA4FB44F5EB19655D59DCB
:1025C000DB9DE49DEE9DEB9DFE9DE3A8416A426A82
:1025D000096B29B24076B1B3B6B39D72916592652D
:1025E00093657D608160417319601A607969C5697E
:1025F000DB69DB72A65425C4996C7A822D6505745B
:102600000674087430FB5A665B6659668A5EC25669
:102610001057AA610B62A961DA618D6EB168B36867
:10262000B668F38049584B584EF799539B539E53C5
:10263000A15356A111591259C85DC15DF5553D5AB6
:102640003E5A9C729D7255AA32CBBA6FB96F55EC47
:102650009D63A263417950795C7997B081E00F94D2
:102660003FD781E00F943FD781E00F943FD782E0BE
:102670000F943FD782E00F943FD782E00F943FD76B
:1026800084E00F943FD784E00F943FD784E00F9409
:102690003FD781E20F943FD781E00F943FD781E08D
:1026A0000F943FD7E8E9F1E0AA81BB8191E00F9454
:1026B000EFDD80E0A881B9818C9300E010E020E09C
:1026C00030E0ABE8BFE00D931D932D933C9300E009
:1026D00010E020E030E0AFE8BFE00D931D932D93B4
:1026E0003C9300E010E020E030E0A3E9BFE00D9370
:1026F0001D932D933C930F9454D70E943422009144
:102700006210003018F011F00C9488130C948D13A3
:10271000709162107160709362100F9454D70F948F
:1027200054D7A889B989BA93AA935A924A9281E058
:10273000D2018C9381E00F9445D70F94BE4C249620
:1027400081E00F941AD4A889B9890D911C910B3698
:1027500050E0150710F00C94C21374B7777F74BF64
:1027600089E38093600081E2809360008091600043
:1027700088608093600073B7707F756073BF8895C1
:102780000C94D113A889B9890D911C91053750E09B
:10279000150710F40C94D113AFE8BFE07C91716081
:1027A0007C938BE080936302E0EEFEE0AE89BF890C
:1027B0000F94ECDDAE89BF890C91003011F00C94C0
:1027C000E7130F9454D70F94359A0C94F713AE89EE
:1027D000BF890C910F3F11F00C94F713E0EEFEE06F
:1027E000A0E1BB2781E08C937BE70F94D0DDA2E6CC
:1027F000B0E10C9102FB16F00C941214ECE3F1EC36
:102800000F9489DB0F9462D5EEE4F1EC0F9489DB31
:102810000F9462D5E2E6F1EC0F9489DB0F9462D558
:102820000F9470D5A2E6B0E10C9102FB16F00C9467
:102830002114E6E6F1EC0F9489DB0F9462D50F9436
:1028400070D581E0AE89BF898C93AE89BF890C9128
:10285000053018F011F00C948C14EE89FF89A190CA
:10286000BB24E6EAF4E0AA0CBB1CAA0CBB1CEA0DD4
:10287000FB1DAE89BF89AD90BB24A5E3BFE0AA0CC8
:10288000BB1CAA0CBB1CAA0DBB1D94E00F94EFDD72
:10289000EE89FF89A190BB24ECEBF4E0AA0CBB1CF1
:1028A000EA0DFB1DAE89BF89AD90BB24ABE4BFE050
:1028B000AA0CBB1CAA0DBB1D0F94EEDDAE89BF890F
:1028C000AD90BB24ABE4BFE0AA0CBB1CAA0DBB1DA2
:1028D0000D911C9140E150E0042B152BAE89BF896E
:1028E000AD90BB24ABE4BFE0AA0CBB1CAA0DBB1D82
:1028F0000D931C9380E0AE89BF89AD90BB24A6E503
:10290000BFE0AA0DBB1D8C93AE89BF898C918F5FF0
:102910008C9310F40C9425148FE080935C0F8FE05F
:1029200080935D0F8FE080935E0F8FE080935F0F49
:102930008FE18093600FEDE8F1E0AE89BF8991E00F
:102940000F94EFDDAE89BF890C91003011F00C942B
:10295000AE14AEE8BFE07C9171607C9380E0809320
:10296000C10FEEE7F1E0AE89BF8991E00F94EFDD92
:10297000AE89BF898C918093970FEFE7F1E0AE8924
:10298000BF8991E00F94EFDDAE89BF898C91809370
:10299000980FE0E8F1E0AE89BF8991E00F94EFDD98
:1029A000AE89BF898C918093990FE1E8F1E0AE89FF
:1029B000BF8991E00F94EFDDAE89BF898C91809340
:1029C0009A0FE2E8F1E0AE89BF8991E00F94EFDD64
:1029D000AE89BF898C9180939B0FE3E8F1E0AE89CB
:1029E000BF8991E00F94EFDDAE89BF898C91809310
:1029F0009C0FA2E6B0E10C9100FB16F00C942015A0
:102A00000F9454D7AC81BD81BA93AA935A924A923B
:102A100080E0D2018C9381E00F9445D70E94E8EECC
:102A2000249681E00F941AD4E2E7F1EC0F9489DB4D
:102A30000F9462D5AC81BD810F945CD50F9470D595
:102A400080E08093F70DE2E9F1E0A6ECBFE092E0D0
:102A50000F94EFDDE4E9F1E0A8ECBFE092E00F9421
:102A6000EFDDA6ECBFE00D911C91003050E01507A2
:102A700011F00C944F150F9454D75A924A92A6EC29
:102A8000BFE08D919C91D2018D939C9382E00F9435
:102A900045D70F94E34D229682E00F941AD4A6EC0A
:102AA000BFE00F9436D480E090E0A889B9898D9377
:102AB0009C9380E08093C00F0F9454D7A6ECBFE0A6
:102AC000BA93AA930F94134D22960F9454D70F9450
:102AD00054D7AE85BF85BA93AA935A924A92A6EC70
:102AE000BFE08D919C91D2018D939C9382E00F94D5
:102AF00045D70F94AC4D249682E00F941AD4AE853E
:102B0000BF850D911C910E3F50E0150710F00C94FD
:102B100095150091EF15003011F00C9495158EEF7E
:102B200090E0AE85BF858D939C93A889B9890F9459
:102B30002FD4AE85BF850D911C910E3F50E0150737
:102B400081E009F080E08F93A889B9890D911C91EB
:102B50000F3C5AE7150781E009F080E09F91892B2F
:102B6000882311F40C945915A889B9898D919C91E9
:102B7000AA85BB858D939D9388278D938C93A8EC14
:102B8000BFE00F9436D480E090E0A889B9898D9396
:102B90009C9380E08093C00F0F9454D7A8ECBFE0C3
:102BA000BA93AA930F94134D2296A6ECBFE04D91D1
:102BB0005C91A8ECBFE00D911C910417150711F072
:102BC0000C94EA1581E090E0AE85BF858D939C93CF
:102BD0000C9410160F9454D70F9454D7AE85BF851C
:102BE000BA93AA935A924A92A8ECBFE08D919C9115
:102BF000D2018D939C9382E00F9445D70F94AC4DF6
:102C0000249682E00F941AD4AAEEB5E10D91112713
:102C100044E050E004231523AE85BF850D931C933B
:102C2000A889B9890F942FD4AE85BF850D911C91C9
:102C3000003050E0150780E010F009F081E08F933C
:102C4000A889B9890D911C910F3C5AE7150781E0BD
:102C500009F080E09F91892B882311F40C94C91509
:102C6000AA85BB850D911D912D913C91A889B989AB
:102C70004D915C91662777270F94CEDCAA85BB85A2
:102C80000D931D932D933D93A2E6B0E10C9100FBB3
:102C900016F00C946D16EAE7F1EC0F9489DB0F94B3
:102CA00062D50F9454D7A0E1BEE1E6ECFFE00F94AB
:102CB000EBDC0F945AD5E0E8F1EC0F9489DB0F942C
:102CC00062D50F9454D7A0E1BEE1E8ECFFE00F9489
:102CD000EBDC0F945AD50F9470D500916110003041
:102CE00011F00C9485160F9454D75A924A9280EDA5
:102CF0009AE7D2018D939C9382E00F9445D70F946D
:102D0000E34D229682E00F941AD4E2E9F1E0A8891B
:102D1000B98992E00F94EFDDA6ECBFE04D915C9194
:102D2000A889B9890D911C910417150781E009F450
:102D300080E08F93A6ECBFE00D911C91003050E035
:102D4000150781E009F480E09F918923882311F41D
:102D50000C94A217A6ECBFE00D911C9141E050E04D
:102D6000041B150BA889B9890D931C930F9454D794
:102D70000F9454D7A889B989BA93AA935A924A92C0
:102D8000AC89BD898D919C91D2018D939C9382E0F9
:102D90000F9445D70F94AC4D249682E00F941AD42B
:102DA00080E090E0A889B9898D939C93AAEEB5E163
:102DB0008C9184608C930091EA15053511F00C9488
:102DC000181781E0AC89BD898C9382E0AE89BF89F8
:102DD0008C93AE89BF890C91073018F011F00C94D8
:102DE0001017AE89BF89AD90BB24A9EEB5E1AA0D3D
:102DF000BB1D8C91AC89BD89AD90BB24A3EEB4E121
:102E0000AA0DBB1D8C93AC89BD898C918F5F8C936F
:102E1000AE89BF898C918F5F8C9310F40C94E91666
:102E200081E090E0A889B9898D939C930C949017C8
:102E30000091EA15063211F00C94901781E0AC89EC
:102E4000BD898C938FE0AE89BF898C93AE89BF8991
:102E50000C91093118F011F00C948A17AE89BF89D2
:102E6000AD90BB24A9EEB5E1AA0DBB1D0C9140E3CA
:102E7000041BAC89BD89AD90BB24A3EEB4E1AA0DBF
:102E8000BB1D0C93AC89BD89AD90BB24A3EEB4E10E
:102E9000AA0DBB1D0C914AE0049F0C92AE89BF891C
:102EA0000C9141E0040FAA89BB890C93AC89BD89C0
:102EB000AD90BB24A3EEB4E1AA0DBB1D0C91AA8971
:102EC000BB89AD90BB24A9EEB5E1AA0DBB1D4C9109
:102ED000040FAC89BD89AD90BB24A3EEB4E1AA0D6B
:102EE000BB1D0C93AC89BD89AD90BB24A3EEB4E1AE
:102EF000AA0DBB1D8C9180538C93AC89BD898C919C
:102F00008F5F8C93AE89BF898C918E5F8C9310F408
:102F10000C94261781E090E0A889B9898D939C9341
:102F2000A889B9890D911C91013050E0150711F065
:102F30000C94A2170F9454D70E943D270F9454D796
:102F40000E942AEE40E250E060E070E0AA85BB8576
:102F50000D911D912D913C910F94D8DC1CF011F036
:102F60000C94B4170C94B81781E0A881B9818C93A4
:102F7000AC81BD81E8E8F1EC0F9489DB0F943CD87B
:102F80000F9454D7AC81BD810F947BD4E6ECFFE065
:102F90000F947ADD0F9454D75A924A9280E0D2016E
:102FA0008C9381E00F9445D7AE81BF81BA93AA93E9
:102FB0000E9462AC249681E00F941AD4E1EBF1E018
:102FC000A1E5B0E191E00F94EFDDE2EBF1E0A8893B
:102FD000B98992E00F94EFDDA889B9898D919C9110
:102FE000A885B9858D939D9388278D938C93A8850B
:102FF000B9850D911D912D913C9140EB54E060E01D
:1030000070E00F9419D8A2E5B0E10D931D932D93B4
:103010003D93E5EAF0E0A0EFBDE091E00F94EFDD35
:10302000E6EAF0E0A1EFBDE091E00F94EFDDE7E923
:10303000F1E0AFEBBFE091E00F94EFDD0091BF0F47
:10304000003011F00C942A1880E08093BE0F8E9807
:103050000C942E1881E08093BE0F8E9A00E010E051
:1030600020E030E0ACE0B0E10D931D932D933C9354
:10307000E6EAF1E0ACECBFE092E00F94EFDD80E037
:1030800080935010E4E6F1E0ABE8BAE091E00F94F1
:10309000EFDDE5E6F1E0ACE8BAE091E00F94EFDDBA
:1030A0008FEF80938D0A80E08093950A70918D0A4E
:1030B000746070938D0A70918D0A726070938D0A9E
:1030C000E6E6F1E0AEE8BAE091E00F94EFDDE7E686
:1030D000F1E0AFE8BAE094E00F94EFDDEBE6F1E069
:1030E000A3E9BAE091E00F94EFDDECE6F1E0A4E9AA
:1030F000BAE091E00F94EFDDA7E9BAE088278C935E
:10310000EDE6F1E0A6E9BAE091E00F94EFDD709111
:1031100074067B7F70937406EFEFF0E0A2EABAE0EA
:1031200091E00F94EFDDE0E0F1E0A3EABAE091E096
:103130000F94EFDDE8EBF0E0AC81BD8191E20F94FC
:10314000EFDD0F9454D7EC81FD8101E010E0AC81FC
:10315000BD810F9404D8AC81BD81E0E9F1EC0F94FE
:1031600089DB0F9400DE11F00C94BE1880E29CE124
:10317000A5EDB4E08D939C930C94F718E2E9F1EC83
:103180000F9489DB0F9400DE11F00C94CF1880E2CD
:103190009CE1A5EDB4E08D939C930C94F718E4E9C1
:1031A000F1EC0F9489DB0F9400DE11F00C94E01821
:1031B0008CE390E0A5EDB4E08D939C930C94F7180C
:1031C000E6E9F1EC0F9489DB0F9400DE11F00C942A
:1031D000F1188CE291E0A5EDB4E08D939C930C94F2
:1031E000F7188CE291E0A5EDB4E08D939C93E5E4B3
:1031F000F1E0AFEDB4E091E00F94EFDDE6E4F1E053
:10320000A0EEB4E094E00F94EFDDEAE4F1E0A4EE88
:10321000B4E094E00F94EFDD80E0AC89BD898C933D
:1032200047E359E861E470E0A0EEB4E00D911D9130
:103230002D913C91041715072607370718F011F058
:103240000C9424190C942919AC89BD898C918F5F39
:103250008C930F9454D7E4EEF4E00F9476D78578EE
:10326000AE89BF898C93AE89BF890C91003080E014
:1032700010F009F081E08F93E4EEF4E00F940BD9A5
:10328000E0E5FEEB0F9489DB0F9428DA0F9489D7E1
:1032900080E010F009F081E09F91892B882311F4E0
:1032A0000C945719AC89BD898C918F5F8C93AC8934
:1032B000BD890C91003018F011F00C9461190C9438
:1032C000C319AC81BD81E8E9F1EC0F9489DB0F945F
:1032D0003CD80F9454D7AC81BD810F947BD4E0EEE1
:1032E000F4E00F947CDDAC81BD810F947BD4E4EAE3
:1032F000F1EC0F9489DB0F943CD8E4EEF4E0AFE8F6
:10330000B0E10F94C4DD0F9454D7AC81BD810F940C
:103310007BD4EFE8F0E10F947CDD0F9454D75A9200
:103320004A9281E0D2018C9381E00F9445D7AE811F
:10333000BF81BA93AA930E9462AC249681E00F9455
:103340001AD400E010E020E030E0A0EEB4E00D93ED
:103350001D932D933C93E6E4F1E0A0EEB4E094E0FD
:103360007BE70F94D3DDA4EEB4E0E4E5FEEB0F942D
:1033700089DB0F9405DBEAE4F1E0A4EEB4E094E02D
:103380007BE70F94D3DD0F9454D7A0EEB4E0BA934B
:10339000AA93A4EEB4E0BA93AA93ABEDB4E0BA93C7
:1033A000AA930F94BE402696EEE4F1E0A8EEB4E0B6
:1033B00092E00F94EFDDAAEEB4E0E4E5FEEB0F94AB
:1033C00089DB0F9405DBAFEBB4E0E4E5FEEB0F9493
:1033D00089DB0F9405DB00E010E020E030E0AEE098
:1033E000B5E00D931D932D933C9380E090E0A2E116
:1033F000B5E08D939C93E0E5F1E0AEEEB4E091E0B2
:103400000F94EFDDE1E5F1E0A3EFB4E091E00F947C
:10341000EFDDE2E5F1E0A4EFB4E094E00F94EFDD3E
:10342000E6E5F1E0A8EFB4E094E00F94EFDD80E092
:10343000AC89BD898C9347E359E861E470E0A4EF5F
:10344000B4E00D911D912D913C91041715072607AD
:10345000370718F011F00C942F1A0C94341AAC8919
:10346000BD898C918F5F8C930F9454D7E8EFF4E073
:103470000F9476D78578AE89BF898C93AE89BF8942
:103480000C91003080E010F009F081E08F93E8EFBC
:10349000F4E00F940BD9E0E5FEEB0F9489DB0F9479
:1034A00028DA0F9489D780E010F009F081E09F912D
:1034B000892B882311F40C94621AAC89BD898C91F4
:1034C0008F5F8C93AC89BD890C91003018F011F09E
:1034D0000C946C1A0C94CE1AAC81BD81E6EAF1EC26
:1034E0000F9489DB0F943CD80F9454D7AC81BD81E5
:1034F0000F947BD4E4EFF4E00F947CDDAC81BD81CC
:103500000F947BD4E4EAF1EC0F9489DB0F943CD860
:10351000E8EFF4E0AFE8B0E10F94C4DD0F9454D7C6
:10352000AC81BD810F947BD4EFE8F0E10F947CDD9A
:103530000F9454D75A924A9281E0D2018C9381E041
:103540000F9445D7AE81BF81BA93AA930E9462AC13
:10355000249681E00F941AD400E010E020E030E0DF
:10356000A4EFB4E00D931D932D933C93E2E5F1E0BD
:10357000A4EFB4E094E07BE70F94D3DDA8EFB4E0D0
:10358000E4E5FEEB0F9489DB0F9405DBE6E5F1E063
:10359000A8EFB4E094E07BE70F94D3DD0F9454D709
:1035A000A4EFB4E0BA93AA93A8EFB4E0BA93AA93B5
:1035B000AFEEB4E0BA93AA930F94BE402696EAE524
:1035C000F1E0ACEFB4E092E00F94EFDDAEEFB4E0E9
:1035D000E4E5FEEB0F9489DB0F9405DBECE5F1E00D
:1035E000A2E2B5E091E00F94EFDDEDE5F1E0A3E2BA
:1035F000B5E091E00F94EFDDEEE5F1E0A4E2B5E097
:1036000094E00F94EFDDE2E6F1E0A8E2B5E092E0AD
:103610000F94EFDD7091EE027E7F7093EE0280E0FA
:1036200090E0AAE2B5E08D939C9380E090E0ACE25C
:10363000B5E08D939C93EBEBF0E0AE89BF8991E010
:103640000F94EFDDAE89BF898C91ACEBB4E08D9324
:1036500088278C9300E010E020E030E0A0E2B0E1A9
:103660000D931D932D933C93E9E9F1E0A5E0B4E0BF
:1036700094E00F94EFDDEDE9F1E0A9E0B4E094E02F
:103680000F94EFDDA5E0B4E00D911D912D913C91DB
:10369000ADEFB3E00D931D932D933C93A9E0B4E0FF
:1036A0000D911D912D913C91A1E0B4E00D931D93DE
:1036B0002D933C937091EE027F7E7093EE02E1EACF
:1036C000F1E0ACECB4E091E00F94EFDD0091CC04BC
:1036D000013011F00C94721B81E48093B50481E4F5
:1036E0008093B604E8E8F1E0A6E0B5E091E00F943D
:1036F000EFDDE4E8F1E0A2E0B5E092E00F94EFDD69
:10370000E6E8F1E0A4E0B5E092E00F94EFDDE9E84F
:10371000F1E0AAE0B5E091E00F94EFDDEAE8F1E036
:10372000A7E0B5E091E00F94EFDDEBE8F1E0A8E071
:10373000B5E092E00F94EFDD80E080930B0580E030
:1037400090E0ACE0B5E08D939C9380E08093CB0457
:1037500000E010E020E030E0AEE6B2E00D931D9313
:103760002D933C9300E010E020E030E0A2E7B2E0CF
:103770000D931D932D933C93E3E0F1E0A6E7B2E0B7
:1037800094E00F94EFDDE7E0F1E0AAE7B2E094E027
:103790000F94EFDD0F9454D70E94B22270913C0B2E
:1037A0007F7E70933C0B80E090E0AFE5B0E18D93BD
:1037B0009C9380E080933005A1E9BFE07C917D7F00
:1037C0007C9380E090E0A5E4B5E08D939C93E1E7E5
:1037D000F1E0AEE2B5E091E00F94EFDDE0E7F1E07B
:1037E000AFE2B5E091E00F94EFDDE6E7F1E0A7E4AA
:1037F000B5E091E00F94EFDDE7E7F1E0A8E4B5E094
:1038000091E00F94EFDDE8E7F1E0A4E8BFE092E09B
:103810000F94EFDDEAE7F1E0A9E4B5E091E00F9461
:10382000EFDDEBE7F1E0AAE4B5E091E00F94EFDD26
:1038300080E090E0ABE4B5E08D939C9380E08093D2
:103840004D0580E080934E0580E080934F0500E0B9
:1038500010E020E030E0A0E1B0E10D931D932D9346
:103860003C93A0E5B5E088278C93ABE5B5E08827CD
:103870008C93E894ACE8BFE08C9180F98C9380E065
:1038800090E0ABEDB0E18D939C9380E090E0ADEDE6
:10389000B0E18D939C9380E08093FC0380E0809363
:1038A000EE0D80E08093350E80E08093360E80E050
:1038B0008093380E00E010E020E030E0A4EEBFE09E
:1038C0000D931D932D933C9383E68093EB0D00E0C5
:1038D00010E020E030E0ACEDBFE00D931D932D93A0
:1038E0003C93ABE4B2E0E4E5FEEB0F9489DB0F948C
:1038F00005DBAFE4B2E0E4E5FEEB0F9489DB0F9467
:1039000005DB80E090E0A7E5B2E08D939C9380E03A
:1039100090E0A9E5B2E08D939C93E9E1F1E0A1ECA0
:10392000BAE091E00F94EFDDEAE1F1E0ADECBAE04E
:1039300091E00F94EFDDEBE1F1E0AEECBAE091E065
:103940000F94EFDDEEE1F1E0A8ECBAE091E00F9426
:10395000EFDDEFE1F1E0A6ECBAE092E00F94EFDDED
:10396000E5E2F1E0A9ECBAE094E00F94EFDDE9E2E2
:10397000F1E0A7E0BBE094E00F94EFDDEDE2F1E0D1
:10398000AFE0BBE094E00F94EFDDE5E3F1E0ABE006
:10399000BBE094E00F94EFDDE9E3F1E0A3E1BBE0ED
:1039A00094E00F94EFDDE1E3F1E0AFEFBAE094E0F3
:1039B0000F94EFDDEDE3F1E0A3E0BBE094E00F94C2
:1039C000EFDDE1E2F1E0A3E2BBE092E00F94EFDD96
:1039D000E3E2F1E0A5E2BBE092E00F94EFDDA7EDBA
:1039E000BAE0E4E5FEEB0F9489DB0F9405DBABED69
:1039F000BAE0E4E5FEEB0F9489DB0F9405DBA7E169
:103A0000BBE0E8E5FEEB0F9489DB0F9405DBABE14F
:103A1000BBE0E8E5FEEB0F9489DB0F9405DBE3E404
:103A2000F1E0AFE1BBE092E00F94EFDDE1E4F1E023
:103A3000A1E2BBE092E00F94EFDDADE8BFE07C9146
:103A400070627C93ADE8BFE07C9170647C9383E00E
:103A50008093C20A83E08093C30A83E08093C40A00
:103A600083E08093C50AEBE0F1E0A7EABAE091E0D9
:103A70000F94EFDDECE0F1E0A8EABAE091E00F94FA
:103A8000EFDDEDE0F1E0ADEABAE094E00F94EFDDB8
:103A9000E1E1F1E0A1EBBAE094E00F94EFDD80E02A
:103AA000AC89BD898C9347E359E861E470E0ADEAE5
:103AB000BAE00D911D912D913C9104171507260731
:103AC000370718F011F00C94671D0C946C1DAC892D
:103AD000BD898C918F5F8C930F9454D7E1EBFAE002
:103AE0000F9476D78578AE89BF898C93AE89BF89CC
:103AF0000C91003080E010F009F081E08F93E1EB51
:103B0000FAE00F940BD9E0E5FEEB0F9489DB0F94FC
:103B100028DA0F9489D780E010F009F081E09F91B6
:103B2000892B882311F40C949A1DAC89BD898C9142
:103B30008F5F8C93AC89BD890C91003018F011F027
:103B40000C94A41D0C94061EAC81BD81E2EBF1EC3B
:103B50000F9489DB0F943CD80F9454D7AC81BD816E
:103B60000F947BD4EDEAFAE00F947CDDAC81BD814B
:103B70000F947BD4E4EAF1EC0F9489DB0F943CD8EA
:103B8000E1EBFAE0AFE8B0E10F94C4DD0F9454D755
:103B9000AC81BD810F947BD4EFE8F0E10F947CDD24
:103BA0000F9454D75A924A9281E0D2018C9381E0CB
:103BB0000F9445D7AE81BF81BA93AA930E9462AC9D
:103BC000249681E00F941AD400E010E020E030E069
:103BD000ADEABAE00D931D932D933C93EDE0F1E037
:103BE000ADEABAE094E07BE70F94D3DDA1EBBAE055
:103BF000E4E5FEEB0F9489DB0F9405DBE1E1F1E0F6
:103C0000A1EBBAE094E07BE70F94D3DD0F9454D797
:103C1000ADEABAE0BA93AA93A1EBBAE0BA93AA9339
:103C2000A9EABAE0BA93AA930F94BE402696E5E1BA
:103C3000F1E0ADEBBAE094E00F94EFDD80E090E0CE
:103C4000A4ECBBE08D939C9380E090E0A6ECBBE0FD
:103C50008D939C9380E090E0A8ECBBE08D939C93C7
:103C600080E090E0AAECBBE08D939C9380E090E034
:103C7000ACECBBE08D939C93E7ECF0E0A3E6B3E003
:103C800091E00F94EFDDECE7F1E0A6E8BFE091E012
:103C90000F94EFDD0F9454D70E945C2281E0AE892F
:103CA000BF898C93AE89BF890C91003118F011F057
:103CB0000C946C1E80E0AE89BF89AD90BB24AAE451
:103CC000B3E0AA0DBB1D8C93AE89BF898C918F5F29
:103CD0008C9310F40C94521E81E0AE89BF898C93B2
:103CE000AE89BF890C91003118F011F00C94921E2E
:103CF000EE89FF89A190BB24E9E5F4E0EA0DFB1D04
:103D0000AE89BF89AD90BB24AAEFB2E0AA0DBB1D5E
:103D10000F94ECDDAE89BF898C918F5F8C9310F48A
:103D20000C94701E81E0AE89BF898C93AE89BF89E7
:103D30000C91003418F011F00C94B81EEE89FF8934
:103D4000A190BB24E9E6F4E0EA0DFB1DAE89BF8932
:103D5000AD90BB24AAE0B3E0AA0DBB1D0F94ECDD2F
:103D6000AE89BF898C918F5F8C9310F40C94961E52
:103D7000EFEAF0E0AAEEB2E092E00F94EFDDE89413
:103D8000ABEEB2E08C9180F98C9380E090E0A8E8F3
:103D9000B2E08D939C93ECEAF0E0AE89BF8991E0AC
:103DA0000F94EFDDAE89BF898C9184FBA5E0B1E073
:103DB0008C9183F98C93AE89BF898C9183FBA5E0AC
:103DC000B1E08C9184F98C93E8EAF0E0AFEEB2E0D8
:103DD00092E00F94EFDDAFEEB2E00D911C91AE8951
:103DE000BF894D91552704271527AFEEB2E00D93FB
:103DF0001C93EDEAF0E0A8EEB2E092E00F94EFDD64
:103E00008FEF9FE0A5EFB2E08D939C9380E08093CD
:103E1000F70280E08093F80281E0AE89BF898C933D
:103E2000AE89BF890C910C3018F011F00C94531F1F
:103E30008FEFAE89BF89AD90BB24ADECB2E0AA0D87
:103E4000BB1D8C93EE89FF89A190BB24EDE4F4E0C7
:103E5000EA0DFB1DAE89BF89AD90BB24A1ECB2E099
:103E6000AA0DBB1D0F94ECDDAE89BF89AD90BB24BC
:103E7000A1ECB2E0AA0DBB1D0C910F3F11F00C9408
:103E80004B1F80E0AE89BF89AD90BB24A1ECB2E0AE
:103E9000AA0DBB1D8C93AE89BF898C918F5F8C93CB
:103EA00010F40C94101F0F9454D70E944F2E0F94AF
:103EB00054D70E94812F0F9454D70E949E230F94B1
:103EC00054D70E944734A6E8B2E08D919C91ACE8AB
:103ED000B2E08D939C9380918E0280938F02ACE828
:103EE000B2E08D919C91A0E9B2E08D939C9394E017
:103EF000A0E9B2E00F9457D8A0E9B2E00D911C916F
:103F000040EC5FEF04231523A0E9B2E00D931C936E
:103F1000A0E9B2E00D911C91AFE8B2E04D915527B8
:103F2000042B152BA0E9B2E00D931C93A6E8B2E098
:103F30008D919C91A9EFB2E08D939C93ABE8BFE08B
:103F40007C917F7D7C93ABE8BFE07C917D7F7C930F
:103F500080E38093710680E38093720680E0809313
:103F6000EC0D00E010E020E030E0A2EABFE00D93AD
:103F70001D932D933C9300E010E020E030E0A6EA92
:103F8000BFE00D931D932D933C9300E010E020E0E3
:103F900030E0AAEABFE00D931D932D933C9300E01F
:103FA00010E020E030E0AEEABFE00D931D932D93CA
:103FB0003C9300E010E020E030E0A2EBBFE00D9386
:103FC0001D932D933C9300E010E020E030E0A6EB41
:103FD000BFE00D931D932D933C9380E08093730677
:103FE00000E010E020E030E0ACE1B0E10D931D9383
:103FF0002D933C9300E010E020E030E0ACEEBFE019
:104000000D931D932D933C9300E010E020E030E0F1
:10401000A0EFBFE00D931D932D933C9386E5809315
:10402000B50400E010E020E030E0A7EBB4E00D9331
:104030001D932D933C9300E010E020E030E0A4EFCE
:10404000BFE00D931D932D933C9300E010E020E022
:1040500030E0A8EFBFE00D931D932D933C9300E05B
:1040600010E020E030E0ACEFBFE00D931D932D9306
:104070003C9300E010E020E030E0A0E0B0E10D93E0
:104080001D932D933C9300E010E020E030E0A4E08D
:10409000B0E10D931D932D933C9300E010E020E0E0
:1040A00030E0ADECB4E00D931D932D933C9300E014
:1040B00010E020E030E0A1EDB4E00D931D932D93CE
:1040C0003C9300E010E020E030E0A7EDB4E00D9379
:1040D0001D932D933C9370910201777F70930201A1
:1040E000709102017F7E709302015898ADE8B2E0B2
:1040F0008C9183FBAEEEB2E08C9186F98C93ADE8A7
:10410000B3E088278C93EDE7F1E0AFE7B6E091E00C
:104110000F94EFDD80E08093810680E0809380063D
:10412000E8EAF1E0ABE5B3E094E00F94EFDDECE515
:10413000FEEB0F9489DB0F9428DAEBE5F3E00F94A4
:104140000BD90F94B8D9EDE0F0E0AFE5B3E00F94F0
:10415000C4DD80E080935610E0E9F1E0A6E1BFE025
:1041600091E00F94EFDDE1E9F1E0A7E1BFE091E03C
:104170000F94EFDDAA81BB810C91013011F00C94FA
:104180000821A1E4BBE00C9100FB16F00C94E9209F
:10419000709162107E7F70936210AC81BD81E0EC03
:1041A000F1EC0F9489DB0F943CD80F9454D75A92BA
:1041B0004A9281E9D2018C9381E00F9445D7AE8178
:1041C000BF81BA93AA930F945A28249681E00F9442
:1041D0001AD4AEEEB2E08C9186FB16F00C94082156
:1041E00000912E05013081E009F080E08F9300916D
:1041F0002F05013081E009F080E09F91892B882311
:1042000011F40C94082170913005716070933005A1
:10421000ECEAF1E0AE89BF8991E00F94EFDDAE8961
:10422000BF890C91013011F00C941D21A2E9BFE06F
:104230007C9170687C930C942221A2E9BFE07C9170
:104240007F777C93E7EBF1E0A8E1BFE091E00F948A
:10425000EFDD00E010E020E030E0AEE1BFE00D93E4
:104260001D932D933C93EEEBF1E0ADE1BFE091E0C7
:104270000F94EFDD00911D0F013011F00C944521DA
:1042800087E080931A0F0C94482180E080931A0FE6
:10429000A2E9BFE00C9107FB16F00C9455218DE0CC
:1042A00080931A0F80E08093330FE1ECF1E0A2E3FA
:1042B000BFE091E00F94EFDDEBEBF1E0AEE2BFE0A9
:1042C00091E00F94EFDDECEBF1E0AFE2BFE091E0C5
:1042D0000F94EFDDEDEBF1E0A0E3BFE091E00F9490
:1042E000EFDD80E08093310F80E080931C0FE7EAE0
:1042F000F0E0A9E1BFE091E00F94EFDDEAEAF0E041
:10430000ACEEB2E092E00F94EFDDACE8B2E00D91DC
:104310001C91ACEEB2E04D915C9104231523A2E216
:10432000BFE00D931C93E6EBF0E0A1EFB2E092E06A
:104330000F94EFDD80E090E0A3EFB2E08D939C93CB
:1043400080E090E0AAE2BFE08D939C9380E090E053
:10435000A8E2BFE08D939C9380E090E0A6E2BFE0EE
:104360008D939C9380E090E0A4E2BFE08D939C93BA
:1043700080E080931D0580E080931C0500E010E044
:1043800020E030E0A4E1B5E00D931D932D933C9324
:1043900000E010E020E030E0A8E1B5E00D931D93CF
:1043A0002D933C93E8ECF1E0AEE1B5E091E00F94A1
:1043B000EFDD82E08093210500917E06003081E0F0
:1043C00009F080E08F9300916705003081E009F0EB
:1043D00080E09F918923882311F40C94F42170913B
:1043E00062107061709362100F9454D70F94635AE7
:1043F000709162107F7E709362100F9454D70F9467
:104400006B6C709174067F7D709374067091740666
:104410007F7E70937406709162107E7F709362103D
:10442000AA81BB810C91003011F40C94232280E00E
:10443000AA81BB818C93E8E9F1E0AA81BB8191E07C
:104440007BE70F94D3DDA881B9810C91013011F085
:104450000C942E220F9454D70E941BFD88E3481A17
:1044600080E0580A6896089581E00F943FD780E075
:1044700080936210EFE6F1E0A7E6B5E091E00F94DB
:10448000EFDD00916705013011F00C94512280E0BE
:1044900080936805709174067068709374060C942C
:1044A00056227091621074607093621081E0481A15
:1044B00080E0580A2296089581E00F943FD7E5ECFA
:1044C000F1E0A881B98191E00F94EFDDA881B98175
:1044D0000C91053011F00C947022119A0C947122F9
:1044E0001198E4ECF1E0AAE8B3E091E00F94EFDD7D
:1044F00000918A03003011F00C948522709108011C
:104500007B7F709308010C94A222013011F00C946F
:104510009022709108017460709308010C94A2229B
:10452000EAEBF4E0A9E4BFE094E00F94EFDDA5E549
:10453000BFE08D919C91A5E5BFE08D939C9380E0B9
:1045400080935B0FE7ECF1E0ABE8B3E091E00F9410
:10455000EFDD80E080938C0381E0481A80E0580A08
:104560002296089581E00F943FD781E00F943FD7C2
:1045700081E090E0AFE3BBE08D939C9380E090E01E
:10458000A1E4BBE08D939C93ECEBF1E0AA81BB81AD
:1045900091E00F94EFDDEBEBF1E0A881B98191E0C0
:1045A0000F94EFDDAA81BB810C91023081E009F00C
:1045B00080E08F93A881B9810C91013081E009F0EE
:1045C00080E09F91892B882311F40C94EC22A1E4C4
:1045D000BBE07C9171607C93E1E7F1E0AA81BB8153
:1045E00091E00F94EFDDE5E6F1E0A881B98191E07B
:1045F0000F94EFDDAA81BB810C91013081E009F0BD
:1046000080E08F93A881B9810C91013081E009F09D
:1046100080E09F91892B882311F40C941423A1E44A
:10462000BBE07C9171607C93E1EDF0E0AA81BB81FD
:1046300091E00F94EFDDAA81BB810C91013011F064
:104640000C942723A1E4BBE07C9178607C93E6ED99
:10465000F0E0AA81BB8191E00F94EFDDAA81BB81DC
:104660000C91013011F00C943A23A1E4BBE07C9151
:1046700078607C93EDEFF0E0AA81BB8191E00F942C
:10468000EFDDAA81BB810C91013011F00C944D2318
:10469000A1E4BBE07C9172607C93EEEFF0E0AA8134
:1046A000BB8191E00F94EFDDAA81BB810C910130B9
:1046B00011F00C946023A1E4BBE07C9174607C93C6
:1046C000EDE6F1E0AA81BB8191E00F94EFDDAA81D4
:1046D000BB810C91013011F00C947323A1E4BBE079
:1046E0007C9170647C93EDE7F1E0AA81BB8191E05D
:1046F0000F94EFDDAA81BB810C91013011F00C9475
:104700008623A1E4BBE07C9170687C93A2E4BBE0CB
:104710007C9171607C93709174067E7F70937406B7
:1047200070913C0B7F7770933C0B81E08093C30BBF
:1047300082E0481A80E0580A2496089581E00F9498
:104740003FD781E00F943FD7EDEBF0E0A6EEB2E06B
:1047500092E00F94EFDDEFEBF0E0A4E6B3E092E03F
:104760000F94EFDD80E0AA81BB818C93AA81BB818D
:104770000C910B3018F011F00C94DE23AA81BB8150
:104780000C9141E0040FA881B9810C93A6EEB2E030
:104790008D919C91A881B981AD90BB24A0E9B2E034
:1047A000AA0CBB1CAA0DBB1D8D939C93AA81BB8137
:1047B0008C918F5F8C9310F40C94B62380E0AA81C7
:1047C000BB818C93AA81BB810C91053018F011F04C
:1047D0000C940524AA81BB810C9141E0040FA881AF
:1047E000B9810C938091E602A881B981AD90BB2478
:1047F000A9EDB2E0AA0DBB1D8C93AA81BB818C915F
:104800008F5F8C9310F40C94E2238CE0AA81BB811F
:104810008C93A4E6B3E08D919C91AA81BB81AD906D
:10482000BB24A0E9B2E0AA0CBB1CAA0DBB1D8D9352
:104830009C93E8EBF1E0A881B98191E00F94EFDD62
:1048400082E0AA81BB818C93A881B9818C91AA81D5
:10485000BB81AD90BB24A0E9B2E0AA0CBB1CAA0DA1
:10486000BB1D8D9388278C9381E0AA81BB818C939B
:10487000A881B9818C91AA81BB81AD90BB24A0E9AC
:10488000B2E0AA0CBB1CAA0DBB1D8D9388278C938C
:10489000ECEBF1E0AFE2BFE091E00F94EFDD0091CF
:1048A000300F013081E009F080E08F9300912F0FED
:1048B000003081E009F480E09F918923882311F47E
:1048C0000C946B24E1EBF0E0A5E3BFE091E00F94E2
:1048D000EFDD0C946E248FEF8093350F00912F0F36
:1048E000013011F00C947D24E2EBF0E0A4E3BFE092
:1048F00091E00F94EFDD0C9480248FEF8093340FC0
:104900000091340F0F3F11F40C949B240091340F4D
:1049100041E0040FAA81BB810C9381E090E0AA8161
:10492000BB81AD90BB24A0E9B2E0AA0CBB1CAA0DD0
:10493000BB1D8D939C93E3EBF0E0A6E3BFE091E019
:104940000F94EFDD0091360F0F3F11F40C94BD244E
:104950000091360F41E0040FAA81BB810C9381E0E6
:1049600090E0AA81BB81AD90BB24A0E9B2E0AA0C83
:10497000BB1CAA0DBB1D8D939C93EBE7F1E0AAE451
:10498000B5E091E00F94EFDD00914A050F3F11F47F
:104990000C94DF2400914A0541E0040FAA81BB81F9
:1049A0000C9381E090E0AA81BB81AD90BB24A0E98B
:1049B000B2E0AA0CBB1CAA0DBB1D8D939C93E4EB2B
:1049C000F0E0A7E3BFE091E00F94EFDD0091370F37
:1049D0000F3F11F40C940A250091370F41E0040FAA
:1049E000AA81BB810C93E8EBF1E0A881B98191E049
:1049F0000F94EFDDA881B9818C91AA81BB81AD9024
:104A0000BB24A0E9B2E0AA0CBB1CAA0DBB1D8D9370
:104A100088278C93E5EBF0E0A8E3BFE091E00F94EA
:104A2000EFDD80E0AA81BB818C93AA81BB810C91D0
:104A30000B3018F011F00C946625AA81BB810C9103
:104A400041E0040FA881B9810C93AA81BB818C91AC
:104A5000ACE8B2E00F9430DB0F9426DB0C90082218
:104A6000689409F4E89416F00C945025A881B98153
:104A7000AD90BB24A0E9B2E0AA0CBB1CAA0DBB1DE3
:104A80008D919C91A881B981AD90BB24A8EAB2E038
:104A9000AA0CBB1CAA0DBB1D8D939C930C945E2588
:104AA00080E090E0A881B981AD90BB24A8EAB2E093
:104AB000AA0CBB1CAA0DBB1D8D939C93AA81BB8124
:104AC0008C918F5F8C9310F40C94152580E0AA8153
:104AD000BB818C93AA81BB810C91053018F011F039
:104AE0000C94B125AA81BB810C9141E0040FA881EF
:104AF000B9810C93AA81BB818C91AFE8B2E00F948D
:104B000030DB0F9426DB0C900822689409F4E894BB
:104B100016F00C949F25A881B981AD90BB24A9ED16
:104B2000B2E0AA0DBB1D8C91A881B981AD90BB24C8
:104B3000AFEDB2E0AA0DBB1D8C930C94A92580E0CB
:104B4000A881B981AD90BB24AFEDB2E0AA0DBB1D29
:104B50008C93AA81BB818C918F5F8C9310F40C9401
:104B60006A2581E0A881B9818C93A4E6B3E08D9198
:104B70009C91A881B981AD90BB24A7E6B3E0AA0CB3
:104B8000BB1CAA0DBB1D8D939C9382E0A881B981AB
:104B90008C9384E690E0A881B981AD90BB24A7E610
:104BA000B3E0AA0CBB1CAA0DBB1D8D939C9383E0A4
:104BB000A881B9818C9388E290E0A881B981AD90F9
:104BC000BB24A7E6B3E0AA0CBB1CAA0DBB1D8D93AA
:104BD0009C9384E0A881B9818C9384E690E0A881BD
:104BE000B981AD90BB24A7E6B3E0AA0CBB1CAA0D0B
:104BF000BB1D8D939C9385E0A881B9818C938CE338
:104C000090E0A881B981AD90BB24A7E6B3E0AA0CDF
:104C1000BB1CAA0DBB1D8D939C9386E0A881B98116
:104C20008C9384E690E0A881B981AD90BB24A7E67F
:104C3000B3E0AA0CBB1CAA0DBB1D8D939C9382E014
:104C4000481A80E0580A2496089581E00F943FD7CF
:104C500081E00F943FD781E00F943FD781E00F941C
:104C60003FD785E10F943FD783E00F943FD780E093
:104C7000AC81BD818C93AC81BD818C918F5F8C9315
:104C80000F9454D70E94F9FCAA81BB81E4ECF1ECAB
:104C90000F9489DB0F943CD80F9454D7AA81BB8121
:104CA000BA93AA930F94A22822960F9454D70F94E4
:104CB00054D7AA85BB85BA93AA93AC81BD81BA9318
:104CC000AA935A924A9284E1D2018C9381E00F9484
:104CD00045D70E947EFA269681E00F941AD4AA85C1
:104CE000BB850C91003011F00C943127A2E6B0E1A5
:104CF0000C9100FB16F00C948326AA81BB810F94C3
:104D00005CD50F9470D50F9454D7AA81BB810F94B2
:104D1000F5D7AE81BF818C93AE81BF810C910F30EE
:104D200011F00C940F2781E0AA85BB858C93AA858E
:104D3000BB850C910F3018F011F00C94DB260F940A
:104D400054D7AA85BB858D919927EA81FB8101E023
:104D500010E00A931A93AA81BB810F94FCD70F9499
:104D600054D7AA81BB818C91A885B9858C93A885DD
:104D7000B9850C91003381E008F080E08F93A8851D
:104D8000B9850C91093380E010F009F081E09F9122
:104D9000892B882311F40C94D326AA81BB81882700
:104DA0008C930C94DB26AA85BB858C918F5F8C93AA
:104DB00010F40C949726AA81BB818C91803011F459
:104DC0000C940F27EA81FB81ABEDBDE00F94BFDDB2
:104DD000E8E4F0E0ABEDBDE090E17BE70F94E1DDCE
:104DE00081E0AA85BB858C93E8E5F0E0AA85BB85C8
:104DF00091E07BE70F94D3DDA2E6B0E10C9102FBDA
:104E000016F00C940B27ECECF1EC0F9489DB0F946B
:104E100062D50F9470D583E0AC81BD818C930F94E3
:104E200054D70F9454D7AA85BB85BA93AA935A92A4
:104E30004A9282E0D2018C9381E00F9445D75A9236
:104E40004A92D201EAE5FFEB0F9489DB0F943CD83C
:104E500083E00F9445D70F94E23D269684E00F94AB
:104E60001AD4AC81BD810C91033008F404CF8CE1DD
:104E7000481A80E0580A2C9608958091E414809393
:104E8000990F8091E5148093980F8091E614809398
:104E9000970F8091E71480939A0F8091E814809384
:104EA0009B0F8091E91480939C0F089581E00F94EB
:104EB0003FD784E00F943FD781E00F943FD784E041
:104EC0000F943FD784E00F943FD7AEEABFE00D9137
:104ED0001D912D913C91A881B9810D931D932D9326
:104EE0003C93AA85BB850D911C912227332742E371
:104EF00050E060E070E00F94A9D5AE81BF814D9382
:104F00005D936D937D9301E010E020E030E0AA8195
:104F1000BB810D931D932D933C9349E355E16AE0CA
:104F200070E0AA81BB810D911D912D913C910417D8
:104F300015072607370718F011F00C940E280F9468
:104F400054D70F9454D7AC81BD81BA93AA935A9287
:104F50004A92AA85BB850D911D912D913C91D2015C
:104F60000D931D932D933C9384E00F9445D7AC8112
:104F7000BD81BA93AA930F94D943269684E00F94E7
:104F80001AD4AC81BD810C91013011F00C94CC2766
:104F90000C940E280C9407280F9454D70E9454B3F5
:104FA000ACE8BFE00C9100FB16F00C9407280F94BE
:104FB00054D70F9454D7A885B985BA93AA93A1EB77
:104FC000B8E1BA93AA935A924A928EEFD2018C9387
:104FD00081E00F9445D70E947EFA269681E00F94D7
:104FE0001AD4A885B9850C91003011F00C940728CB
:104FF0000F9454D70F9454D7A885B985BA93AA9320
:10500000A1EBB8E1BA93AA930E94A3402496AA8187
:10501000BB810F9422D410F40C948D278EE0481A93
:1050200080E0580A2A96089581E00F943FD781E2E4
:105030000F943FD785E00F943FD782E00F943FD77E
:1050400081E00F943FD785E10F943FD7A2E6B0E10E
:105050000C9102FB16F00C943528ECEDF1EC0F945A
:1050600089DB0F9462D50F9470D580E08093380E61
:10507000A0E9BFE07C9170687C93A885B985EAEED1
:10508000F1EC0F9489DB0F943CD80F9454D7A8858A
:10509000B985BA93AA930F94A22822960F9454D755
:1050A0000F9454D7AA85BB85BA93AA935A924A9271
:1050B00082E0D2018C9381E00F9445D75A924A92B4
:1050C000D201E2E0F2EC0F9489DB0F943CD886E049
:1050D0000F9445D70F94E23D269687E00F941AD49B
:1050E000AA85BB850C91003018F011F00C947A2839
:1050F0000C94142A0F9454D7A1EBB8E1E2E0F2EC3F
:105100000F9489DB2FEF91E00F949CD8AA85BB8583
:105110000C93AA85BB858C91895F8C93A885B985F2
:1051200088278C930F9454D7AA85BB858D91992796
:10513000E1EBF8E101E010E00A931A93A885B98544
:105140000F94FCD7AE81BF81E8E0F2EC0F9489DBCD
:105150000F9400DE11F40C94CC28EE81FF81A88519
:10516000B9850F947BD40F94BFDDAA85BB858C9144
:105170008F5F8C930F9454D7AA85BB858D91992707
:10518000E1EBF8E101E010E00A931A93A885B985F4
:105190000F94FCD70C94A2280F9454D7A885B985F6
:1051A0000F9449DDAC81BD810D931C93A2E6B0E163
:1051B0000C9100FB16F00C94EF28EAE0F2EC0F944F
:1051C00089DB0F9462D50F9454D7A0E1BEE1EC8146
:1051D000FD810F94EBDC0F945AD50F9470D5AE81FE
:1051E000BF81E0E1F2EC0F9489DB0F943CD80F947F
:1051F00054D70F9454D7AA85BB85BA93AA93A1EB31
:10520000B8E1BA93AA935A924A9284E0D2018C935D
:1052100081E00F9445D75A924A92EE85FF85D201DC
:105220000F94BFDD85E00F9445D7A885B985BA9363
:10523000AA935A924A9284E1D2018C9381E00F940E
:1052400045D70F946D422C9687E00F941AD4AA8507
:10525000BB850C91003011F40C943229A881B981DE
:1052600088278C93A2E6B0E10C9100FB16F00C9419
:105270004529E2E1F2EC0F9489DB0F9462D5A88115
:10528000B9810F945CD50F9470D580E0AA81BB8161
:105290008C93EFE7F0E0A885B98591E20F94EFDDFC
:1052A000E881F981A885B9850F9402DE11F40C9488
:1052B0007C29E2E9F0E0A885B98591E20F94EFDD61
:1052C000E881F981A885B9850F9402DE11F40C9468
:1052D0007C2981E0AA81BB818C93A2E6B0E10C918C
:1052E00000FB16F00C947C29EAE1F2EC0F9489DBC8
:1052F0000F9462D50F9470D50F9454D70F9454D750
:10530000AA85BB85BA93AA93A1EBB8E1BA93AA93F5
:105310005A924A928EEFD2018C9381E00F9445D736
:105320000E947EFA269681E00F941AD4AA85BB8546
:105330000C91003011F00C94C129A2E6B0E10C915F
:1053400000FB16F00C94B029EAE2F2EC0F9489DB32
:105350000F9462D5A1EBB8E10F945CD50F9470D592
:10536000A881B9818C91803011F40C94C1290F94DB
:1053700054D7E1EBF8E100EA10E0A9E3BEE00F94B6
:1053800004D880E08093380E0F9454D70F9454D7EC
:10539000AA85BB85BA93AA935A924A9282E0D20117
:1053A0008C9381E00F9445D75A924A92D201EAE554
:1053B000FFEB0F9489DB0F943CD883E00F9445D723
:1053C0000F94E23D269684E00F941AD4A0E9BFE042
:1053D0007C917F777C93AC81BD818C91AA85BB85C4
:1053E0008C930F9454D70F9454D7AA85BB85BA9346
:1053F000AA935A924A92AE85BF858C91D2018C9322
:1054000081E00F9445D70E949C2C249681E00F9454
:105410001AD40F9454D7AA81BB81BA93AA930E943D
:10542000FE2C22960C94222AA1EBB8E1E2E6F0ECE5
:105430000F9489DB0F9400DE11F00C94222A80E097
:105440008093380EA0E9BFE07C917F777C93A2E641
:10545000B0E10C9100FB16F00C94402AE2E3F2EC70
:105460000F9489DB0F9462D50F9454D7A0E1BEE16D
:10547000E8E3FEE00F94FFDC0F945AD50F9470D54B
:105480008FE3481A80E0580A2C96089581E00F9423
:105490003FD782E00F943FD781E20F943FD781E15D
:1054A0000F943FD781E00F943FD78FEFA881B98148
:1054B0008C93AA85BB850C91013011F00C94692A5C
:1054C000E9E5F0E0AA81BB8191E10F94EFDD0C9456
:1054D000812AAA85BB850C91023011F00C94792A9F
:1054E000ECE6F0E0AA81BB8191E10F94EFDD0C9432
:1054F000812AA881B9818C91AE85BF858C930C944B
:10550000802BAA81BB81E0E4F2EC0F9489DB0F943D
:1055100000DE81E009F080E08F93AA81BB818C914D
:10552000803081E009F080E09F91892B882311F47D
:105530000C94A22AA881B9818C91AE85BF858C93E9
:105540000C94802BAC81BD81E2E4F2EC0F9489DBFA
:105550000F943CD80F9454D7AC81BD810F947BD469
:10556000EC85FD850F94FFDCAC81BD810F947BD46D
:10557000ECE4F2EC0F9489DB0F943CD8EA81FB81D8
:10558000AC81BD810F947BD40F94BFDDAC81BD8114
:105590000F947BD4E0E1F2EC0F9489DB0F943CD8BC
:1055A0000F9454D7AC81BD81BA93AA930F94A228CB
:1055B00022960F9454D70F9454D7A885B985BA93DF
:1055C000AA935A924A9284E1D2018C9381E00F947B
:1055D00045D75A924A92D201E0E5F2EC0F9489DB6A
:1055E0000F943CD886E00F9445D70F94E23D269661
:1055F00087E00F941AD4A885B9850C91003018F073
:1056000011F00C94052B0C947A2B0F9454D70F9413
:1056100054D7A885B985BA93AA93A1EBB8E1BA93F8
:10562000AA935A924A9282E0D2018C9381E00F941D
:1056300045D75A924A92D201E6E5F2EC0F9489DB03
:105640000F943CD882E00F9445D7AC85BD85BA93C2
:10565000AA935A924A9283E0D2018C9381E00F94EC
:1056600045D70F946D422C9684E00F941AD4A885E8
:10567000B9850C91013011F40C94582B0F9454D728
:10568000AC81BD810F9449DDAE81BF810D931C9328
:10569000AE81BF810D911C91003051E0150710F0D3
:1056A0000C94582BAE81BF818C91A881B9818C93C9
:1056B0000F9454D70F9454D7A885B985BA93AA9359
:1056C0005A924A9283E0D2018C9381E00F9445D79D
:1056D0005A924A92D201EAE5FFEB0F9489DB0F94CC
:1056E0003CD883E00F9445D70F94E23D269684E0A2
:1056F0000F941AD4A881B9818C91AE85BF858C9303
:1057000086E3481A80E0580A2A96089581E00F94AB
:105710003FD781E00F943FD78BE00F943FD782E0D3
:105720000F943FD781E00F943FD78FEFA881B981C5
:105730008C93AC81BD81E8E5F2EC0F9489DB0F948A
:105740003CD80F9454D7AC81BD81BA93AA930F94DF
:10575000A22822960F9454D70F9454D7A885B985C0
:10576000BA93AA935A924A9287E0D2018C9381E02D
:105770000F9445D75A924A92D201E0E6F2EC0F9488
:1057800089DB0F943CD883E00F9445D70F94AF3C4E
:10579000269684E00F941AD4A885B9850C91003020
:1057A00018F011F00C94D62B0C948D2CA9E3BEE0CC
:1057B0000F94B3D48AE10F94BCD4A2E6B0E10C916B
:1057C00003FB16F00C94EA2BA9E3BEE00F945CD522
:1057D0000F9470D50F9454D70F9454D7A885B985DA
:1057E000BA93AA935A924A9287E0D2018C9381E0AD
:1057F0000F9445D75A924A92D201E4E6F2EC0F9404
:1058000089DB0F943CD886E00F9445D70F94E23D96
:10581000269687E00F941AD4A885B9850C9100309C
:1058200018F011F00C94162C0C94692C0F9454D78A
:105830000F9454D7A885B985BA93AA93A1EBB8E180
:10584000BA93AA935A924A9282E0D2018C9381E051
:105850000F9445D75A924A92D201E6E5F2EC0F94A2
:1058600089DB0F943CD882E00F9445D7AC85BD8589
:10587000BA93AA935A924A9283E0D2018C9381E020
:105880000F9445D70F946D422C9684E00F941AD450
:10589000A885B9850C91003011F00C94692C0F94F7
:1058A00054D7AC81BD810F9449DDAA81BB810D9392
:1058B0001C93AA81BB810D911C910F3F50E01507ED
:1058C00010F00C94692CAA81BB818C91A881B981BC
:1058D0008C930F9454D70F9454D7A885B985BA9355
:1058E000AA935A924A9283E0D2018C9381E00F945A
:1058F00045D75A924A92D201EAE5FFEB0F9489DB31
:105900000F943CD883E00F9445D70F94E23D269640
:1059100084E00F941AD40C94902C8BE10F94BCD497
:10592000A881B9818C91AA85BB858C9380E1481AA6
:1059300080E0580A2A96089581E00F943FD781E0CD
:105940000F943FD781E10F943FD7AE81BF818C91F7
:10595000AA81BB818C93A881B981EAE6F2EC0F940D
:1059600089DB0F943CD80F9454D7A881B9810F9448
:105970007BD4EE81FF810F94FFDCA881B9810F9465
:105980007BD4E4E7F2EC0F9489DB0F943CD80F94BE
:1059900054D7A881B981BA93AA930F94A2282296CA
:1059A0000F9454D70F9454D7AC81BD81BA93AA9366
:1059B0005A924A9284E0D2018C9381E00F9445D7A9
:1059C0005A924A92D201EAE5FFEB0F9489DB0F94D9
:1059D0003CD883E00F9445D70F94E23D269684E0AF
:1059E0000F941AD4AA81BB818C91A885B9858C9318
:1059F00083E1481A80E0580A2696089581E00F94C2
:105A00003FD782E00F943FD789E00F943FD782E0E1
:105A10000F943FD70F9454D7E9E3FEE001E010E084
:105A2000A881B9810F9404D8A881B981E8E7F2EC84
:105A30000F9489DB0F9400DE11F40C94212D0C944B
:105A4000492E0F9454D7A9E3BEE00F94F5D7AE8149
:105A5000BF818C93AE81BF810C91013018F011F0A1
:105A60000C94342D0C94562D0F9454D7A9E3BEE01A
:105A7000BA93AA935A924A9281E090E0D2018D9310
:105A80009C9382E00F9445D75A924A9280EA90E024
:105A9000D2018D939C9382E00F9445D70E9410FA17
:105AA000269684E00F941AD40C94582D0C94492E09
:105AB0000F9454D70F9454D7AE81BF81BA93AA9351
:105AC000A9E3BEE0BA93AA935A924A9281E0D20126
:105AD0008C9381E00F9445D75A924A92D201E4EA1E
