:020000023000CC
:10E000000D9472F00D9493F00D9493F00D9493F0A1
:10E010000D9493F00D9493F00D9493F00D9493F070
:10E020000D9493F00D9493F00D9493F00D9493F060
:10E030000D9493F00D9493F00D9493F00D9493F050
:10E040000D9493F00D9493F00D9493F00D9493F040
:10E050000D9493F00D9493F00D9493F00D9493F030
:10E060000D9493F00D9493F00D9493F00D9493F020
:10E070000D9493F00D9493F00D9493F00D9493F010
:10E080000D9493F00D9493F00D9493F00D9493F000
:10E090000D9493F00D9493F00D9493F00D9493F0F0
:10E0A0000D9493F00D9493F00D9493F00D9493F0E0
:10E0B0000D9493F00D9493F00D9493F00D9493F0D0
:10E0C0000D9493F00D9493F00D9493F00D9493F0C0
:10E0D0000D9493F00D9493F00D9493F00D9493F0B0
:10E0E0000D9493F011241FBECFEFD1E2DEBFCDBF60
:10E0F00001E00CBF13E0A0E0B2E0EEECFDEF03E0C6
:10E100000BBF02C007900D92AA3EB107D9F714E0E9
:10E11000AAEEB3E001C01D92AC3FB107E1F70F9446
:10E1200095F00D94E5FE0D9400F02F923F924F92E2
:10E130005F926F927F928F929F92AF92BF92CF9297
:10E14000DF92EF92FF920F931F93DF93CF93CDB7A0
:10E15000DEB7C752D4400FB6F894DEBF0FBECDBFB6
:10E160000F940DF40F9464F20F94E2F21092F20403
:10E170001092F1041092F30486EC93E09093F7046C
:10E180008093F60480E791E00197F1F780EE9EE03E
:10E190000F94D6FD8F3F11F010E062C080910B010B
:10E1A000806480930B0100D000D0EDB7FEB73196AC
:10E1B00080E092E0ADB7BEB712969C938E93119714
:10E1C00085E990E09383828387E292E0958384835C
:10E1D0000F9479FB0F900F900F900F9081E392E0D6
:10E1E000EDB7FEB7928381830F9479FB0F900F9068
:10E1F0006E010894C11CD11C61E0E62E63E0F62E8E
:10E20000EC0EFD1E19C0C60160E071E00F949BF298
:10E2100080910B01806280930B01C601B7010F94BE
:10E2200050F4C7010F9409F7182F80910B018F7DCF
:10E2300080930B01112329F48091F304882319F3AF
:10E2400005C083E592E00F948BFB05C082E692E067
:10E250000F948BFB10E080910B018F7B80930B015F
:10E2600080910B018F7D80930B0180910B018F7743
:10E2700080930B0180910B018F7B80930B01809128
:10E280000B018F7E80930B0180EE9EE00F94D6FDF4
:10E29000843019F0112309F400C18E010F5F1D4F66
:10E2A000C80160E07FE040E051E00F94C6FD85EFDB
:10E2B0009EE00F94DEFDCE5DDB4F99838883C252D2
:10E2C000D44087EF9EE00F94DEFDC05EDB4F998364
:10E2D0008883C052D4405801212C50E1352E44246B
:10E2E0005524CC5DDB4F19830883C452D4409E0172
:10E2F0002F5F3C4FCA5DDB4F39832883C652D44021
:10E30000C2C080910B01806180930B01D5018C917B
:10E3100090E083709070009709F07DC080910B01B0
:10E32000806880930B01B0EECB16B3E0DB06A0F55E
:10E33000CE5DDB4FE881F981C252D440CE16DF06B4
:10E3400008F063C0760100E010E020E03CE740E028
:10E3500050E0E20EF31E041F151F902F8F2D7E2D0F
:10E36000662720E034E84FEF5FEFE20EF31E041F54
:10E37000151F40E051E09E012F5F3E4F0F94D2F3F6
:10E38000102F0F2DFE2CEE24C801B701AE014F5FF8
:10E390005E4F0F94F8F239C030EFC31633E0D30666
:10E3A000A0F1B60180E090E0605074488F4F9F4F1D
:10E3B000982F872F762F662740E051E09E012F5F30
:10E3C0003E4F0F94D2F381E0E82EF82EEC0EFD1EA6
:10E3D0008301C05EDB4F48815981C052D44004178D
:10E3E000150728F4C801D7016C910F94EEFD0F5F5B
:10E3F0001F4F0894E11CF11CCC5DDB4FE881F981D3
:10E40000C452D440EE16FF0621F780910B018F779E
:10E4100080930B010BC0039749F08091F104909118
:10E42000F20401969093F2048093F104D5018C914B
:10E43000869586958C9380910B018F7E80930B013E
:10E440000894811C911C0894C11CD11CE0E0F1E0EF
:10E450006E0E7F1EF4E08F16910409F052CF0894DF
:10E46000A11CB11C20E034E0220E331E44E050E039
:10E47000440E551ECA5DDB4F88819981C652D44037
:10E48000A816B90629F0620131018824992439CFF0
:10E4900080EE9EE060E00F94EEFD80910B018F7D99
:10E4A00080930B0180910B018F7780930B018091FA
:10E4B0000B018F7B80930B0180910B018F7E8093EA
:10E4C0000B010C940000FFCFE2E0F1E0808180645A
:10E4D0008083209A1CBC8CB58F778CBD8CB58F7DCA
:10E4E0008CBD8CB580618CBD8CB5877F8CBD8CB5A7
:10E4F00084608CBD8CB582608CBD8CB58E7F8CBDEC
:10E500008CB580648CBD08958EBD0DB407FEFDCF23
:10E510008EB508951F93182F8A3019F48DE00F944B
:10E520008AF28091300185FFFCCF1093360180E0A4
:10E5300090E01F9108950F931F93CF93DF938C0169
:10E54000A0E0B0E091E0EB01219729C0213082ECFE
:10E5500038078BEE48078BE0580719F49093F304C3
:10E5600008C02F5F3F4F4F4F5F4F8091300187FFB3
:10E57000EDCF80910B01806880930B018091360173
:10E580008D3029F08A3019F0AC17BD0709F480E00E
:10E59000F801EA0FFB1F80831196882341F0A6172C
:10E5A000B70729F020E030E040E050E0DECF809176
:10E5B0000B018F7780930B01CD01DF91CF911F91DC
:10E5C0000F910895E1E3F1E0808180618083808193
:10E5D00088608083E2E3F1E08081826080838081D3
:10E5E000846080831092350187E080933401089520
:10E5F000AF92BF92CF92DF92EF92FF920F931F9351
:10E60000CF93DF935B016C01EA01F999FECF07B666
:10E6100000FCFDCFF999FECF83E0F501C0925B00CD
:10E6200080935700E89507B600FCFDCFEE24FF2449
:10E63000870161E098818981229607B600FCFDCFB1
:10E64000F999FECFA80197012A0D3B1D4C1D5D1DB8
:10E65000B82FA0E0FD01E90FF11DCF010C01F90178
:10E6600040935B0060935700E895112422E030E06E
:10E6700040E050E0E20EF31E041F151F30E0E316E9
:10E6800031E0F30630E0030730E0130799F607B6F0
:10E6900000FCFDCFF999FECF85E0F501C0925B004B
:10E6A00080935700E89507B600FCFDCF81E1809389
:10E6B0005700E895DF91CF911F910F91FF90EF9058
:10E6C000DF90CF90BF90AF9008952E9885E00F9483
:10E6D00084F280E00F9484F22E9A80FDF6CF0895A4
:10E6E0000F9465F32E9886E00F9484F22E9A089585
:10E6F000AF92BF92CF92DF92EF92FF920F931F9350
:10E70000CF93DF937B018C016A0159010F9470F361
:10E710002E9882E00F9484F2C801AA27BB270F9499
:10E7200084F2BB27A12F902F8F2D0F9484F28E2D72
:10E730000F9484F2C0E0D0E006C0F60181916F0131
:10E740000F9484F22196CA15DB05B8F32E9ADF9157
:10E75000CF911F910F91FF90EF90DF90CF90BF90DE
:10E76000AF900895EF92FF920F931F937B018C015E
:10E770000F9470F32E9880E20F9484F2C801AA27B8
:10E78000BB270F9484F2BB27A12F902F8F2D0F94BE
:10E7900084F28E2D0F9484F22E9A1F910F91FF9088
:10E7A000EF900895AF92BF92CF92DF92EF92FF92D7
:10E7B0000F931F93CF93DF937B018C015A01690163
:10E7C0000F9465F32E9883E00F9484F2C801AA2772
:10E7D000BB270F9484F2BB27A12F902F8F2D0F946E
:10E7E00084F28E2D0F9484F2C0E0D0E007C080E068
:10E7F0000F9484F2F60181936F012196CA15DB050F
:10E80000B0F32E9ADF91CF911F910F91FF90EF906F
:10E81000DF90CF90BF90AF90089583E081B987EDEE
:10E8200084B917B881E88AB982E38DB980EE80BBDC
:10E8300013BA8AE5809301018AE7809304018FE986
:10E840008093070180EF80930A010895DC0140E086
:10E8500050E020E030E01FC0FD01E20FF31F808197
:10E860005827052E0294802D8F708527952F90258F
:10E87000990F907E8927902D9527907F9695052E4C
:10E88000000C991F5695569556955F715927542738
:10E89000482F2F5F3F4F26173707F0F2CA01089520
:10E8A0002F923F924F925F926F927F928F929F92A0
:10E8B000AF92BF92CF92DF92EF92FF920F931F938E
:10E8C000DF93CF93CDB7DEB76A970FB6F894DEBF6C
:10E8D0000FBECDBF4C015B018E010B5E1F4FC80107
:10E8E000B40146E050E00F9443FBC8016CE672E0CF
:10E8F0000F9457FB009709F44AC0F5011192119249
:10E900008F0170E1E72EF12CEC0EFD1EB4016B5F60
:10E910007F4FC70145E050E00F9443FBC7010F94C0
:10E920000DFBB401665F7F4FE82EFF24A701455021
:10E930005040C8010F9443FBB7016B5F7F4F680DD8
:10E94000791D8E010F5F1F4FC80145E050E00F9405
:10E9500043FBC80160E070E040E150E00F94DEF955
:10E9600027E131E0A20EB31EF501619371935F01BF
:10E97000D4010D900020E9F7A819B9091A97F501FB
:10E98000AE15BF0509F424C282E090E027C2C80199
:10E9900062E772E00F9457FB009719F081E090E076
:10E9A0000FC2C80168E772E00F9457FB009741F46B
:10E9B000C8016EE772E00F9457FB009709F479C124
:10E9C000F40187858053F501868BCE01459668E773
:10E9D00072E00F9457FB009719F082E090E002C0BC
:10E9E00083E090E0F50191838083F50186896BE0F7
:10E9F000C62ED12CCC0EDD1E51E1652E712C680C7B
:10EA0000791C882309F4E0C0B4016E567F4FC6011B
:10EA100045E050E00F9443FBC60160E070E040E148
:10EA200050E00F94DEF91B012C016301EE24FF245A
:10EA300040E1642E712C6C0E7D1EC301B60143E0D3
:10EA400050E00F9443FBF5018689082F10E0015038
:10EA5000104036E0000F111F3A95E1F70E0D1F1D13
:10EA6000C30160E070E040E150E00F94DEF90A0D70
:10EA70001B1DF801678B0894E11CF11C22E030E0BB
:10EA8000C20ED31E30E4E316F104B9F685E090E03F
:10EA9000880E991E7E010894E11CF11CC701B40187
:10EAA00045E050E00F9443FB8E010A5F1F4FE5E005
:10EAB000F0E08E0E9F1EC801B40145E050E00F94B7
:10EAC00043FBC8010F940DFBF501958B848BCE01A0
:10EAD0000B9660E070E040E150E00F94DEF927E132
:10EAE00031E0A20EB31EF5017183608329EE3EEF83
:10EAF000A20EB31E8501075E1E4FF801118210821F
:10EB0000C70164E872E00F9433FB009729F082E0BC
:10EB100090E0F80191838083F5018689853068F063
:10EB200029E131E0A20EB31E83E090E0F50191836C
:10EB3000808327EE3EEFA20EB31EF50184899589EE
:10EB4000805E934068F029E131E0A20EB31E84E0BC
:10EB500090E0F5019183808327EE3EEFA20EB31E75
:10EB6000CE0145966EE772E00F9457FB009791F047
:10EB7000F50184899589409768F029E131E0A20E7A
:10EB8000B31E84E090E0F5019183808327EE3EEF91
:10EB9000A20EB31EF501868990E026E0880F991F2A
:10EBA0002A95E1F789978A0D9B1D60E470E00F9428
:10EBB00026F48215930509F413C129E131E0A20E70
:10EBC000B31E81E090E009C125E030E0820E931E83
:10EBD000C601B40145E050E00F9443FB96E0E92EF6
:10EBE000F12CEC0EFD1E85E090E0880E991EC70109
:10EBF000B40145E050E00F9443FB8E010F5F1F4FBF
:10EC0000C801B30145E050E00F9443FBC7010F94E6
:10EC10000DFBF501958B848BC80160E070E040E14D
:10EC200050E00F94DEF927E131E0A20EB31EF501AA
:10EC30007183608329EE3EEFA20EB31E8501075E4D
:10EC40001E4FF80111821082C60169E872E00F942C
:10EC500033FB009729F082E090E0F80191838083F4
:10EC6000F50184899589805E934068F029E131E05F
:10EC7000A20EB31E84E090E0F5019183808327EE1D
:10EC80003EEFA20EB31ECE0145966EE772E00F94E2
:10EC900057FB009709F4A4C0F50184899589409732
:10ECA00008F49EC029E131E0A20EB31E84E090E09A
:10ECB00094C0C8016EE872E00F9457FB009709F406
:10ECC00076C084E090E0F50191838083B4016B5FAE
:10ECD0007F4F6E010894C11CD11CC60145E050E075
:10ECE0000F9443FB8E010A5F1F4FB401665F7F4F95
:10ECF000C80145E050E00F9443FB8BE0E82EF12C77
:10ED0000EC0EFD1EB401615F7F4FC70145E050E08E
:10ED10000F9443FBB4016C5E7F4FCE01409645E0FB
:10ED200050E00F9443FBC80160E070E040E150E028
:10ED30000F94DEF92BE131E0A20EB31EF5016193D1
:10ED400071935F01C70160E070E040E150E00F9413
:10ED5000DEF9F5017183608323EE3EEFA20EB31E50
:10ED60008501075E1E4FF80111821082C6010F94C3
:10ED70000DFBF40101900020E9F7E819F9093A9731
:10ED80008E179F0729F082E090E0F801918380833D
:10ED9000CE01409664E972E00F9433FB009701F1D5
:10EDA00029E131E0A20EB31E85E090E016C0C80153
:10EDB00069E972E00F9457FB009769F085E090E0F5
:10EDC000F5019183808329E131E0A20EB31EF501A4
:10EDD0001182108205C086E090E0F5019183808366
:10EDE0006A960FB6F894DEBF0FBECDBFCF91DF910C
:10EDF0001F910F91FF90EF90DF90CF90BF90AF9059
:10EE00009F908F907F906F905F904F903F902F904A
:10EE10000895EF92FF920F931F93CF93DF93EC012E
:10EE2000FC01E75EFE4F80819181892B09F01DC2B4
:10EE3000488159814430510560F44230510508F051
:10EE40008BC04115510571F04130510509F0AEC23A
:10EE50006BC04430510509F467C14530510509F0D4
:10EE6000A5C273C1229684ED93E0BE010F943CFBD2
:10EE7000CB5EDE4F888199819093EB048093EA0406
:10EE8000EAEEF3E08FEF819324E0EA3EF207D9F750
:10EE9000E12C7CE7F72E012D112D902F8F2D7E2D4B
:10EEA00066270F94B2F380E190E0A0E0B0E0E80EB6
:10EEB000F91E0A1F1B1F90E0E91690E8F90690E082
:10EEC000090790E0190749F71092EE0424ED33E0AA
:10EED000F90101900020E9F7ADB7BEB718970FB65A
:10EEE000F894BEBF0FBEADBF11968FE992E0CDB7CB
:10EEF000DEB79A838983EF5CF3401396FC93EE931D
:10EF0000129715963C932E9314978091EA04909152
:10EF1000EB0417969C938E9316970F9479FB80E0E1
:10EF2000EDB7FEB738963CC2EAEEF3E08FEF81937F
:10EF300024E0EA3EF207D9F70F920F9283EB92E0BA
:10EF4000ADB7BEB712969C938E9311970F9479FB31
:10EF500080E00F900F902BC22E893091EE04222377
:10EF600009F042C0332389F581E08093EE042C89B7
:10EF70003D893093F0042093EF04C95EDE4F888111
:10EF800099819093ED048093EC044230510519F07F
:10EF9000E0EFF3E002C0E0E0F0E0E20FF31FF695EF
:10EFA000E795F695E795E651FC4F23703070220FF8
:10EFB000331F81E090E002C0880F991F2A95E2F785
:10EFC0008095208128232083F1C18091F1049091C4
:10EFD000F20401969093F2048093F1048881998160
:10EFE000029709F096C17AC181E090E002C0880FD3
:10EFF000991F2A95E2F7432F482B4093EE04209166
:10F00000EF043091F0048C899D892817390749F065
:10F010008091F1049091F20401969093F204809310
:10F02000F1044F3109F0C2C18E01095E1F4FC801C2
:10F0300060E071E00F9426F42091EC043091ED042F
:10F040008217930709F059C0888199812091EF04B4
:10F050003091F004029771F4A90160E070E0405033
:10F0600054486F4F7F4F3093E7032093E603E0E06F
:10F07000F0E00DC0A90160E070E0405150486F4FD2
:10F080007F4F3093E9032093E803E0EFF3E08091B2
:10F09000EF049091F004E80FF91FF695E795F695C7
:10F0A000E795E651FC4F83709070880F991F019689
:10F0B00021E030E002C0220F331F8A95E2F720954D
:10F0C000808182238083962F852F742F6627A80145
:10F0D00020E031E00F9478F300D00F9282EE92E0BE
:10F0E000EDB7FEB7928381838C899D899483838356
:10F0F0000F9479FB1092EE0406C18091F104909177
:10F10000F20401969093F2048093F104888199812E
:10F11000029729F400D00F9286EF92E0D2C000D07F
:10F120000F928DE093E0E5C0C55EDE4F6991799165
:10F1300085EF9EE00F94FCFD6881798187EF9EE06A
:10F140000F94FCFD84E293E0B1C08AEE93E060E0AE
:10F1500071E00F9426F47C012091EA043091EB04D5
:10F160000091E6031091E7030F5F1F4FC55EDE4F6E
:10F1700088819981CB51D1408017910711F080E0AF
:10F1800005C080E0E216F30609F481E06091E8032F
:10F190007091E9036F5F7F4FC35EDE4F498150E09E
:10F1A00046175707F1F58823E1F124ED33E0D90143
:10F1B0000D900020E9F78DB79EB70C970FB6F89425
:10F1C0009EBF0FBE8DBFEDB7FEB7319681E393E0D2
:10F1D000CDB7DEB79A838983AD5BB340B383A28397
:10F1E00035832483F782E68211870087538742871D
:10F1F0000F9479FBEDB7FEB73C960FB6F894FEBFBF
:10F200000FBEEDBF8AEE93E060E07FE040E051E0AA
:10F210000F94E4FD80EE9EE063E00F94EEFD81E04C
:10F22000C6C024ED33E0D9010D900020E9F78DB779
:10F230009EB70C970FB6F8949EBF0FBE8DBFEDB76B
:10F24000FEB7319687E593E0CDB7DEB79A83898321
:10F25000AD5BB340B383A28335832483F782E68218
:10F26000118700877387628795C08091F104909120
:10F27000F20401969093F2048093F10488819981BD
:10F280008330910571F18430910530F4009761F07D
:10F29000029709F08BC00DC08430910509F43CC081
:10F2A000059709F083C03BC08AE793E00F948BFB7E
:10F2B0007DC080819181019789F400D00F928BE805
:10F2C00093E0ADB7BEB712969C938E9311978C893D
:10F2D0009D8914969C938E93139713C080EC92E0B3
:10F2E000E5CF808191810197A1F400D00F9280EA4F
:10F2F00093E0EDB7FEB7928381838C899D899483D7
:10F3000083830F9479FB80E00F900F900F900F9004
:10F310004EC081ED92E0CACF85EB93E0C7CF24EDDC
:10F3200033E0F90101900020E9F78DB79EB70C9703
:10F330000FB6F8949EBF0FBE8DBFADB7BEB7119686
:10F3400087E593E0CDB7DEB79A838983ED5BF34021
:10F350001396FC93EE93129715963C932E93149765
:10F360008091EA049091EB0417969C938E931697E4
:10F370008091E6039091E703019619969C938E93F2
:10F3800018978091E8039091E90301961B969C934E
:10F390008E931A970F9479FB80E0EDB7FEB73C96F9
:10F3A0000FB6F894FEBF0FBEEDBF01C080E0DF9145
:10F3B000CF911F910F91FF90EF9008952F923F9260
:10F3C0005F926F927F928F929F92AF92BF92CF92F5
:10F3D000DF92EF92FF920F931F93CF93DF938C01F5
:10F3E0001B01EA016115710519F0FB01918380830E
:10F3F000209749F0CE010297839728F020E030E073
:10F4000040E050E0F6C0F801A1908F018A2D90E015
:10F410000F942BFB892BB9F7FDE2AF1631F4F801FD
:10F42000A1908F015524539407C0FBE2AF1619F445
:10F43000F801A1908F015524209719F0C031D10512
:10F44000C1F4F0E3AF1679F4F8018081883711F048
:10F45000883549F4F801A1800E5F1F4FF2E05F2A62
:10F46000C0E1D0E006C0209721F480E3A816E9F4BB
:10F4700027C0C830D10531F1C930D10524F4C230DC
:10F48000D10531F50CC0CA30D10589F0C031D105A4
:10F49000F9F4C12CD12CE12CB8E0FB2E28C0C12CF2
:10F4A000D12CE12CA0E4FA2E22C0CAE0D0E0FCEC82
:10F4B000CF2EFCECDF2EFCECEF2EFCE0FF2E17C075
:10F4C000C8E0D0E0C12CD12CE12CE0E1FE2E0FC031
:10F4D0009E01442737FD4095542F60E070E080E0A6
:10F4E00090E80F94C3FEC901DA016C017D0120E0B0
:10F4F00030E040E050E060E03E01882477FC8094FA
:10F50000982C70EDB72EBA0CE9E0EB1570F48A2D4B
:10F5100081548A3118F499ECB92E06C08A2D81568F
:10F520008A3150F589EAB82EBA0C8B2D90E08C17F1
:10F530009D0714F56F3FE1F0C216D306E406F50609
:10F54000B0F0CA01B901A40193010F94A4FE9B017C
:10F55000AC012B0D311D411D511D2130F0E03F0745
:10F56000F0E04F07F0E85F0710F461E001C06FEFD3
:10F57000F801A1908F01C5CF2114310481F06623D9
:10F5800031F001501040F1011183008308C051FE99
:10F590001AC002501040F1011183008314C067FFAC
:10F5A00012C050FC05C02FEF3FEF4FEF5FE704C0E4
:10F5B00020E030E040E050E882E290E09093FB04ED
:10F5C0008093FA0416C050FE08C0509540953095BF
:10F5D00021953F4F4F4F5F4F0CC057FF0AC082E24B
:10F5E00090E09093FB048093FA042FEF3FEF4FEFEE
:10F5F0005FE7B901CA01DF91CF911F910F91FF9091
:10F60000EF90DF90CF90BF90AF909F908F907F90C2
:10F610006F905F903F902F900895FC018827992765
:10F62000E89421912032E9F3293010F02E30C8F30C
:10F630002B3241F02D3239F4689404C00F9471FBE1
:10F64000820F911D219120532A30C0F31EF4909512
:10F6500081959F4F08959111D4C2803219F089503D
:10F660008550D0F70895FB01DC018D910190801940
:10F670000110D9F3990B0895FB01DC0101900D9263
:10F680000020E1F70895DC01FB014150504058F0A3
:10F6900049F001900D920020C1F7E61BF70B31975E
:10F6A000CF0108951C9201900020E9F7F6CFFB01ED
:10F6B00051915523A9F0BF01DC014D91451741112E
:10F6C000E1F759F4CD010190002049F04D9140152A
:10F6D0004111C9F3FB014111EFCF81E090E00197A7
:10F6E00008957AE0979F902D879F802D910D11248A
:10F6F0000895DF93CF93CDB7DEB7FE0136966191C3
:10F7000071918091F6049091F704AF010F94C0FBC2
:10F71000CF91DF9108950F931F93CF93DF938C01C7
:10F72000E091F604F091F704838181FF21C0C0E0ED
:10F73000D0E00DC0E091F604F091F704208531850A
:10F74000BF01F9011995892B11F0CFEFDFEFF80117
:10F7500081918F01882371F7E091F604F091F7040D
:10F76000208531858AE0BF01F9011995892B11F0B7
:10F77000CFEFDFEFCE01DF91CF911F910F91089571
:10F780002F923F924F925F926F927F928F929F92B1
:10F79000AF92BF92CF92DF92EF92FF920F931F939F
:10F7A000DF93CF93CDB7DEB72B970FB6F894DEBFBC
:10F7B0000FBECDBF3C012B015A01FC0117821682FE
:10F7C000838181FD03C06FEF7FEFC6C19AE0892E70
:10F7D0001E010894211C311CF3012381F20123FD39
:10F7E000859123FF81912F01882309F4B2C18532CD
:10F7F00039F423FD859123FF81912F01853229F46E
:10F8000090E0B3010F941AFEE7CF982FFF24EE2467
:10F810009924FFE1FF15D0F09B3269F09C3228F467
:10F82000903259F0933291F40EC09D3249F09033EA
:10F8300069F441E024C052E0F52A84E0F82A28C0A7
:10F8400098E0F92A25C0E0E1FE2A22C0F7FC29C091
:10F85000892F80538A3070F4F6FE05C0989C902C56
:10F860001124980E15C0E89CE02C1124E80EF0E25B
:10F87000FF2A0EC09E3229F4F6FC6BC140E4F42A44
:10F8800007C09C3619F450E8F52A02C0983649F4AE
:10F89000F20123FD959123FF91912F01992309F006
:10F8A000B8CF892F8554833018F08052833038F4D4
:10F8B00044E050E0A40EB51E5FE359830FC09336B9
:10F8C00031F0933779F0933509F056C020C0F50137
:10F8D0008081898342E050E0A40EB51E610101E001
:10F8E00010E012C0F501C080D180F6FC03C06FEFBC
:10F8F0007FEF02C0692D70E042E050E0A40EB51E1B
:10F90000C6010F940FFE8C015FE7F52214C0F501CC
:10F91000C080D180F6FC03C06FEF7FEF02C0692D7D
:10F9200070E042E050E0A40EB51EC6010F9404FE44
:10F930008C0150E8F52AF3FE07C01AC080E290E07F
:10F94000B3010F941AFEEA948E2D90E00817190760
:10F95000A8F30EC0F601F7FC8591F7FE81916F01C7
:10F9600090E0B3010F941AFEE110EA9401501040A8
:10F970000115110579F7EAC0943611F0993669F549
:10F98000F7FE08C0F501208131814281538184E076
:10F9900090E00AC0F501808191819C01442737FDE8
:10F9A0004095542F82E090E0A80EB91E9FE6F92200
:10F9B00057FF09C050954095309521953F4F4F4FC7
:10F9C0005F4FE0E8FE2ACA01B901A1012AE030E058
:10F9D0000F9446FED82ED21840C0953729F41F2D1B
:10F9E0001F7E2AE030E01DC01F2D197F9F3661F079
:10F9F000903720F4983509F0ACC00FC0903739F03B
:10FA0000983709F0A6C004C028E030E00AC01061B1
:10FA100014FD146020E130E004C014FD166020E104
:10FA200032E017FF08C0F501608171818281938106
:10FA300044E050E008C0F50180819181BC0180E084
:10FA400090E042E050E0A40EB51EA1010F9446FEE6
:10FA5000D82ED2188FE7F82EF122F6FE0BC05EEFFB
:10FA6000F522D91438F4F4FE07C0F2FC05C08FEE7D
:10FA7000F82202C01D2D01C0192DF4FE0DC0FE019B
:10FA8000ED0DF11D8081803319F499EEF92208C043
:10FA90001F5FF2FE05C003C08F2D867809F01F5F3F
:10FAA0000F2DF3FC14C0F0FE0FC01E1510F09D2C9E
:10FAB0000BC09D2C9E0C911A1E2D06C080E290E07A
:10FAC000B3010F941AFE1F5F1E15C0F304C01E156C
:10FAD00010F4E11A01C0EE2404FF0FC080E390E0AF
:10FAE000B3010F941AFE02FF1DC001FD03C088E799
:10FAF00090E00EC088E590E00BC0802F867891F0F2
:10FB000001FF02C08BE201C080E2F7FC8DE290E0D1
:10FB1000B3010F941AFE06C080E390E0B3010F9486
:10FB20001AFE9A94D914C0F3DA94F101ED0DF11D87
:10FB3000808190E0B3010F941AFEDD20A9F706C082
:10FB400080E290E0B3010F941AFEEA94EE20C1F730
:10FB500043CEF30166817781CB012B960FB6F894E3
:10FB6000DEBF0FBECDBFCF91DF911F910F91FF90F0
:10FB7000EF90DF90CF90BF90AF909F908F907F904D
:10FB80006F905F904F903F902F900895DC01CB01D4
:10FB9000FC01F999FECF06C0F2BDE1BDF89A31969D
:10FBA00000B40D9241505040B8F70895F999FECF36
:10FBB00092BD81BDF89A992780B50895A8E1B0E07B
:10FBC00042E050E00D94C8FDDC01CB0103C02D9153
:10FBD0000F94EFFD41505040D0F70895262FF9992A
:10FBE000FECF1FBA92BD81BD20BD0FB6F894FA9A20
:10FBF000F99A0FBE019608950F94EEFD272F0D94EC
:10FC0000EFFD992788270895FC0105906150704009
:10FC10000110D8F7809590958E0F9F1F0895FC01D5
:10FC20006150704001900110D8F7809590958E0F2B
:10FC30009F1F08950F931F93CF93DF938C01EB01C8
:10FC40008B8181FF1BC082FF0DC02E813F818C8183
:10FC50009D812817390764F4E881F9810193F983BC
:10FC6000E88306C0E885F985802F1995892B31F442
:10FC70008E819F8101969F838E8302C00FEF1FEFBD
:10FC8000C801DF91CF911F910F910895FA01AA2722
:10FC9000283051F1203181F1E8946F936E7F6E5FCF
:10FCA0007F4F8F4F9F4FAF4FB1E03ED0B4E03CD07D
:10FCB000670F781F891F9A1FA11D680F791F8A1F60
:10FCC000911DA11D6A0F711D811D911DA11D20D0C7
:10FCD00009F468943F912AE0269F11243019305D81
:10FCE0003193DEF6CF010895462F4770405D419372
:10FCF000B3E00FD0C9F7F6CF462F4F70405D4A33BF
:10FD000018F0495D31FD4052419302D0A9F7EACF86
:10FD1000B4E0A6959795879577956795BA95C9F7B5
:10FD200000976105710508959B01AC010A2E0694A8
:10FD30005795479537952795BA95C9F7620F731F61
:10FD4000841F951FA01D0895629FD001739FF0012D
:10FD5000829FE00DF11D649FE00DF11D929FF00D5B
:10FD6000839FF00D749FF00D659FF00D9927729F92
:10FD7000B00DE11DF91F639FB00DE11DF91FBD011D
:10FD8000CF0111240895A1E21A2EAA1BBB1BFD016D
:10FD90000DC0AA1FBB1FEE1FFF1FA217B307E4076A
:10FDA000F50720F0A21BB30BE40BF50B661F771FC2
:10FDB000881F991F1A9469F76095709580959095A2
:0EFDC0009B01AC01BD01CF010895F894FFCF67
:10FDCE000D0A0D0A202323204A61726B6F6E2D429D
:10FDDE006F6F742076312D622564204020257320AC
:10FDEE0023230D0A0D0A004A61726B6F6E2D544269
:10FDFE0000456D70747920426F78202D20776169EF
:10FE0E0074696E6720666F7220426F7855702E2E61
:10FE1E002E20000D0A466C617368696E672E2E2EB9
:10FE2E000D0054696D656F7574210D00265645528F
:10FE3E00530026434C525400265041474500264558
:10FE4E0045504700303134310030303132002650C9
:10FE5E00524F540030303030002643484B5300266A
:10FE6E0056455253253034647C25737C25303458E6
:10FE7E000D0A0026434C5254303030337C4F4B0029
:10FE8E002650414745303030367C4552524F520D48
:10FE9E00002645455047303030367C4552524F5241
:10FEAE000D002650414745303030387C25303464C3
:10FEBE007C4F4B0D0A002650414745303031317C86
:10FECE00253034647C4552524F520D0A002645456A
:10FEDE005047303031317C253034647C4552524F9E
:10FEEE00520D0A0050524F54303030337C4F4B0D70
:10FEFE00002643484B53253034647C25737C2530D3
:10FF0E0034587C253034587C253034587C30303091
:10FF1E00307C4F4B0D0A002643484B53253034643A
:10FF2E007C25737C253034587C253034587C253024
:10FF3E0034587C303030300D0A002656455253303E
:10FF4E003030367C4552524F520D002650414745B7
:10FF5E00303031317C253034647C4552524F520062
:10FF6E002645455047303031317C253034647C4550
:10FF7E0052524F52002650524F54303030367C453C
:10FF8E0052524F520D0000000002000000008AF293
:10FF9E000000000000000000000000000000000053
:0AFFAE00000000000000FFFFFFFF4D
:040000033000E000E9
:00000001FF
