:020000040040BA
:10000000484A0020F5194000F3194000F319400058
:10001000F3194000F3194000F319400000000000FC
:10002000000000000000000000000000310240005D
:10003000F319400000000000FD02400041034000B1
:10004000F3194000F3194000F3194000F319400080
:10005000F3194000F3194000F3194000F319400070
:10006000F3194000F319400000000000C91E4000D1
:10007000DD1E4000F11E4000F3194000F31940005E
:100080000000000000000000F3194000F3194000D8
:10009000F3194000F3194000F3194000F319400030
:1000A000F3194000F3194000F3194000F319400020
:1000B000F3194000F3194000F3194000F319400010
:1000C000F3194000F3194000F319400010B5054C36
:1000D000237833B9044B13B10448AFF300800123F4
:1000E000237010BD300400200000000014244000E4
:1000F00008B5064B1BB106480649AFF30080064819
:10010000036813B1054B03B1984708BD0000000018
:100110001424400034040020142440000000000097
:100120007047000070B54FF060510D4C0D4E0E4DF4
:100130001A20A0474FF060514320A0474320B0470A
:100140001A20A8474FF060514920A0474FF0605156
:100150004A20A0474A20B0474920A84770BD00BFA9
:10016000A11D40006D1D4000871D400000F10803E7
:1001700043604FF0FF32C36003610023826003607D
:10018000704700230361704743684B609A688A6038
:100190009A68516099600861036801330360704791
:1001A00030B50C68631C01D1036907E000F1080356
:1001B0005A681568A54201D81346F9E75A684A609B
:1001C00091608B605960086103680133036030BD42
:1001D00042688168036991608268416851605A6829
:1001E000824204BF82685A600022026118680138A6
:1001F0001860704706480068006880F3088862B697
:1002000061B6BFF34F8FBFF36F8F00DF00BF0000F9
:1002100008ED00E04FF0807300E90A00034B40F85E
:100220000C3C40F8202C4038704700BF7D02400055
:10023000074B19680868B0E8F00F80F30988BFF32E
:100240006F8F4FF0000080F311884EF00D0E704755
:1002500094180020044B4FF080521A60BFF34F8F68
:10026000BFF36F8F704700BF04ED00E0EFF3118024
:100270004FF0A00181F311887047002010B5044BA6
:10028000044C1B68013300D0A047A04710BD00BF3D
:10029000000000206D02400010B5094CA047094A3B
:1002A000136801331360BFF34F8FBFF36F8F012BC0
:1002B00005D1054B1B6813F0FF0F00D0A04710BD00
:1002C0006D0240000000002004ED00E080F3118882
:1002D0007047000038B5064B1C681D460CB9054B2D
:1002E0009847601E286008B9034B984738BD00BF87
:1002F000000000206D024000CD024000EFF30980B5
:10030000BFF36F8F0D4B1A6820E9F00F10602DE9D5
:1003100008404FF0A00080F3118800F077FF4FF005
:10032000000080F31188BDE8084019680868B0E84B
:10033000F00F80F30988BFF36F8F70479418002087
:1003400008B5064B9847064B984718B1054B4FF038
:1003500080521A600020044B984708BD6D0240008F
:10036000790F400004ED00E0CD024000064B1A6812
:100370004FF47A73B2FBF3F2044B013A1A6007228E
:1003800043F8042C704700BF0400002014E000E094
:1003900013B5204B1A78D2B20192FF221A701B7843
:1003A000DBB28DF803309DF803201B4B02F0A00256
:1003B0001A701A4A072313609DF80310090603F107
:1003C000FF3007D59DF803305B00DBB28DF80330BA
:1003D0000346F1E71B0203F4E0631360019A0D4B3F
:1003E000D2B21A70D3F8202942F47002C3F820293F
:1003F000D3F8202942F07042C3F82029084B9847CF
:10040000084B00241C60084B9847084B984720462F
:1004100002B010BD00E400E04C04002050040020B5
:100420006D03400000000020F50140007D02400007
:1004300008B5EFF305830F2B07D9094A9B5C094ADE
:1004400012789A4201D9084B9847084B1A68084B12
:100450001B6802F4E0629A4201D9034B984708BD39
:10046000F0E300E04C0400206D0240000CED00E0E1
:100470005004002010B5104B1A68824201D2134676
:10048000FAE759685C18844203D140680144596016
:10049000184641684418944208D1084C2468A24286
:1004A00004D05268114441601A68126883420260A5
:1004B00018BF186010BD00BF5C0400205804002065
:1004C0002DE9F843404B414F0646984740480368A2
:1004D000FBB9404B590705D007333F4A23F00703C8
:1004E000D21A01E041F288321A44083A22F0070297
:1004F0003A4C026000216160236051601160D11AA2
:100500001A605960364B1960364B19604FF0004342
:100510003B603B681E4249D1002E48D006F10805D9
:100520006A071CBF25F007050835002D3CD02D4B70
:100530001A689542994639D8284B1C686268AA42C5
:1005400003D30268944206D130E02268002AF8D032
:1005500023461446F2E722681E681A6063685B1B34
:10056000102B06F108060ED904EB050818F0070F4A
:1005700001D01D4B984763685B1BC8F804304046A8
:1005800065601A4B984716496268D9F800300868C8
:100590009B1A8342C9F8003038BF0B603B681A438E
:1005A00000236260236002E02E4600E00026104B2C
:1005B00098470EB90F4B9847730701D00A4B9847DD
:1005C0003046BDE8F88300BF5D0F4000EC17002007
:1005D0005804002064040020EC1700205C04002074
:1005E000F0170020540400206D0240007504400004
:1005F000A5104000D519400038B5044638B3144B57
:1006000050F8042C196811421D4601D1114B98472E
:1006100054F8083C0BB10F4B984754F8043C2A6837
:100620001A4214D054F8081C89B923EA020344F88A
:10063000043C094B9847094B54F8041C1A680A44B7
:100640001A60A4F10800064B9847064B984738BD3E
:10065000EC1700206D0240005D0F400054040020A4
:1006600075044000A510400038B51546026C0446DC
:100670003AB90568002D27D14068164B9847656048
:1006800023E0154B65B980689847A268236C134432
:100690006268A360934217D32368A360284614E0DE
:1006A000C0689847236CE26821685B421A448A421A
:1006B000E26002D262681344E360022D04D1A36BAE
:1006C00013B1A36B013BA3630020A36B0133A363AE
:1006D00038BD00BF711540000121400037B5C46C22
:1006E00001900D460CB9134B9847A26BE36B9A42ED
:1006F00001D3104B9847A26BE36B9A4216D22A465D
:100700000D4B204601A99847A36C0133054609D13A
:10071000636A63B104F12400084B9847002818BFAE
:10072000012504E0A36C0133A36400E00025284602
:1007300003B030BD6D02400069064000A1134000C7
:1007400038B5026C03465AB1C46845681444AC42DB
:10075000C46024BF0468C4600846D968014B984748
:1007600038BD00BF0121400070B51C4D0446A847AC
:100770002E46A36C002B16DDE36C43B1204600210E
:10078000174B984701280AD1164B984707E0636A30
:100790004BB104F12400144B98470028F4D1A36C0A
:1007A000013BA364E5E74FF0FF33A3640F4DA84777
:1007B000B047636C002B0CDD236953B104F11000CA
:1007C000094B984708B1074B9847636C013B63643A
:1007D000EFE74FF0FF336364A84770BD9902400014
:1007E000DD064000A9144000A1134000D5024000DE
:1007F00038B50D46044608B9154B9847154B984730
:10080000226CE06B2368A3605043821A19181344CA
:100810006160E36000214FF0FF33A1636364A36470
:1008200055B923697BB104F110000B4B984701289F
:1008300009D10A4B984706E004F11000084DA8477B
:1008400004F12400A847074B9847012038BD00BF9A
:100850006D02400099024000A11340005502400083
:100860006D014000D502400070B50D46064608B93E
:100870000F4B98471DB105FB06F0013000E02846FC
:1008800050300C4B9847044670B10DB9206002E01F
:1008900000F150030360084BE66325642046012104
:1008A00098470023E36401E0014B9847204670BD60
:1008B0006D024000C1044000F10740002DE9FF47F0
:1008C000884601921D46044608B9434B9847B8F143
:1008D000000F02D1236C002B72D1022D02D1E36BE9
:1008E000012B70D13D4B984710B9019B002B6DD166
:1008F00000273B4EB047A26BE36B9A42B146394E9C
:1009000001D3022D1BD1384B204641462A46984739
:10091000E36C43B120462946344B984701280BD15C
:10092000334B984708E0636A23B104F12400314B4C
:100930009847F3E70028F3D1B047012049E0DDF8FC
:1009400004A0BAF1000F01D1B04737E017B902A8EF
:10095000294B9847B047294B294F9847C847636CA4
:10096000013304BF00236364A36C013304BF00237D
:10097000A364B04702A801A9224B234E9847D0B9DF
:10098000C847D4F838A0D4F83C90164B9847CA45CD
:100990000DD104F1100001991C4B98472046B8472F
:1009A000B04708B10127A4E7114B9847FAE7204662
:1009B000B847B047F6E72046B847B047002008E000
:1009C000054B984789E7044B98478BE7024B9847BC
:1009D0008EE704B0BDE8F0876D024000B51440001A
:1009E00099024000D502400069064000DD06400043
:1009F00055024000A11340001D1440005D0F40004F
:100A00006907400041144000A5104000B5124000A5
:100A10002DE9F041884616461F460446234D00B98D
:100A2000A847B8F1000F02D1236C002B33D1022F5D
:100A300002D1E36B012B30D11D4B9847A847A26B25
:100A4000E36B9A42054601D3022F22D1194B20466F
:100A500041463A469847A36C013315D1E36C43B144
:100A600020463946144B9847012810D17EB130609A
:100A70000DE0636A5BB104F12400104B984730B17C
:100A80002EB1012434600AE0A36C0133A364012475
:100A900005E0002403E0A847C9E7A847CCE72846BB
:100AA000074B98472046BDE8F08100BF6D0240002B
:100AB0003104400069064000DD064000A1134000FB
:100AC000CD0240002DE9FF470F4601929A460446A9
:100AD00008B9464B984717B9236C002B7CD1444B7F
:100AE000984710B9019B002B79D10026414DA847AA
:100AF000A36BA946404D33B3204639463F4BE668C9
:100B00009847BAF1000F12D1A36B013BA36323688E
:100B100013B93B4B9847606023698BB104F1100017
:100B2000384B984701280BD1374B984708E0636A48
:100B3000E6602BB104F12400324B98470028F3D132
:100B4000A84701204EE0DDF80480B8F1000F01D184
:100B5000A8473FE016B902A82C4B9847A8472C4B52
:100B6000DFF894802B4E9847C847636C013304BF6D
:100B700000236364A36C013304BF0023A364A8476C
:100B800002A801A9244B254D984700BBC847D4F8BB
:100B90003890C047B9F1000F15D123682BB9154B18
:100BA000984760681E4B9847C04704F1240001999C
:100BB0001C4B98472046B047A84708B1012695E747
:100BC000114B9847FAE72046B047A847F6E720467A
:100BD000B047A847002005E0044B98477FE7034B48
:100BE000984782E704B0BDE8F08700BF6D0240007F
:100BF000B514400099024000D50240004107400072
:100C000005164000A1134000550240001D1440008D
:100C10005D0F40006907400041144000A5104000EE
:100C2000D5144000B512400030B50023064A52F8F2
:100C3000334002EBC3051CB942F83310686030BD85
:100C40000133142BF2D130BDA019002070B5044639
:100C50000D4B0E4615469847636C013304BF0023C5
:100C60006364A36C013304BF0023A364074B98475C
:100C7000A36B2BB904F1240031462A46044B984754
:100C80002046044B984770BD99024000D5024000B1
:100C90002D13400069074000064A13681968064B87
:100CA00011B94FF0FF3203E01268D268D26852687F
:100CB0001A607047F81700209818002010B50D4BE7
:100CC0001A6850600C4A1268904204460B4A05D2DA
:100CD0000B49086819680431904710BD0949086834
:100CE000196804319047084B1A68944238BF1C6059
:100CF00010BD00BF94180020A0180020A1014000E2
:100D0000A4180020F8170020981800202DE9F74FAC
:100D10000C9E0E9D894693469A46804608B95A4BCA
:100D20009847042E01D9584B9847584C35B94FEA8B
:100D30008B00A0470546002800F0A1805420A04762
:100D4000044678B14FEA8B0B05635A462846504B50
:100D5000A5219847236BABF1040B5B4423F00707F5
:100D6000002506E028464B4B984788E00135102DBA
:100D700008D0631919F8051083F8341019F80530F4
:100D8000002BF3D10025042E34BFB3464FF0040BE3
:100D9000414B84F8435004F10409C4F82CB0C4F862
:100DA00044B0A56448460193984704F11800019B9C
:100DB0009847CBF10503A361E564384B2461646275
:100DC00084F8505038464146524698470D9B206063
:100DD00003B11C60324B334FDFF800A19847324B10
:100DE0001A6801321A603A6812BB3C601B68012B1A
:100DF00026D190460AEB08002C4D08F11408A847AC
:100E0000B8F1640FF6D1DFF8D8B0DFF8D8805846D3
:100E1000A8474046A8472648A8472648A847264846
:100E2000A847264BC3F800B0254BC3F8008007E065
:100E3000244B1B6823B93B68DB6AB34298BF3C6014
:100E4000214B1A6801321A60204AE36A11680124B2
:100E500004FA03F001431420116000FB03A049468B
:100E60001B4B98471B4B9847164B1B682BB13B6895
:100E7000DB6AB34201D2184B9847204601E04FF09D
:100E8000FF3003B0BDE8F08F6D024000C1044000A8
:100E900035224000F9054000830140001502400062
:100EA0009902400094180020C01800206D014000F5
:100EB000A818002080180020D8180020F81700205B
:100EC000A4180020FC170020BC180020EC180020FB
:100ED00089014000D5024000550240001C18002046
:100EE00004180020C418002030B585B00024124D2D
:100EF0000094019402940394104811494FF4007235
:100F00002346A8470128054610D10E4B98470128D3
:100F100005460BD10C4B98470C4B4FF0FF321A6033
:100F20000B4B1D600B4B1C600B4B01E00DB9064BCE
:100F3000984705B030BD00BF0D0D40008511400041
:100F4000C0234000D91640006D02400098180020D0
:100F5000FC170020A018002091034000024B1A68E3
:100F600001321A60704700BF9C180020014B1868BE
:100F7000704700BFA01800202DE9F84F394B1B68BF
:100F8000002B3FD1384B1A6801321A601E6886B9AF
:100F9000364C23681B680BB1354B9847354B22689C
:100FA000196821601A60344B1A6801321A60334B99
:100FB0009847334FDFF8E0803B68DFF8E0909E42CF
:100FC0004FF000040DD3294B1A68126812B94FF084
:100FD000FF3305E01B68DB68DD686B689E4219D251
:100FE0003B60D9F80030DB6A1422534358F80330D1
:100FF000022B244B1B6828BF0124002B2AD1224B33
:10100000984727E01F4B1A6801321A601E4B984719
:1010100000241FE005F1040A5046DFF884B0D847E9
:10102000AB6A13B105F11800D847184AEB6A10688B
:101030000121994001431420116000FB03805146B7
:10104000134B9847D9F80030EA6ADB6A9A4228BF06
:101050000124B8E70F4B1B68002B18BF0124204662
:10106000BDE8F88F9C180020A0180020F817002079
:101070006D024000A4180020F4170020990C4000D5
:101080009818002018180020F1194000EC180020D2
:1010900089014000F01800201C180020941800203E
:1010A000D101400070B5284C23680BB9274B9847F5
:1010B000274B98472368013B236023680BB100242A
:1010C0003EE0244B1B68002BF9D0234B1A6802B377
:1010D000DB68224DDC68261D04F11800A847304665
:1010E000A8471F4AE36A1168012505FA03F0014386
:1010F00011601C4A142000FB032031461A4B98470C
:101100001A4BE26A1B68DB6A9A4224BF184B1D60C7
:10111000DBE7184C23687BB9154B1C68012CCED13A
:10112000154B98470CE0154B984710B1104B012216
:101130001A602368013B23602368002BF3D1EBE79F
:101140000F4B9847204670BD9C1800206D02400050
:1011500099024000C0180020A8180020D1014000CA
:10116000EC1800201C180020890140009418002071
:10117000F01800201818002055024000790F400098
:10118000D502400008B5154D2B68EBB1144C154B3A
:1011900098472668144B9847002EF4D0134B984775
:1011A000E368DC68124B201D9847124B1A68013A1D
:1011B0001A602B68013B2B600F4B104D9847206B3A
:1011C000A8472046A847DEE70D4B1B68012B01D935
:1011D0000C4B98470C4B9847D5E700BF00180020F0
:1011E000801800205D0F4000A510400099024000CB
:1011F000D1014000C0180020D5024000F905400090
:101200001C18002055024000E1194000F8B5204BA1
:101210001A68204B12B101221A60F8BD1E4C1A60E8
:101220002268236812681B6B9A4204D820682168E0
:101230001A4B3431984723681949186B194B164DCE
:101240001422984720B128682968144B34319847F4
:10125000154B1D68B5FA85F5EDB21422C5F11F05D1
:10126000124B02FB05F11E465958174609B9104B9F
:10127000984707FB056303F108015A6852685A60F2
:101280008A4204BF52685A605B68DB682360F8BD1D
:101290009C180020F018002094180020E519400048
:1012A000C523400099204000EC1800201C180020A5
:1012B0006D02400070B50D46064608B9124B9847BE
:1012C000124C134B21683046183198472068114B57
:1012D0000430984748B9104B19682268D26A012037
:1012E00000FA02F221EA02021A606B1C05D12168A1
:1012F0000A480B4B0431984770BD0A4B18680A4BDB
:101300002844984770BD00BF6D024000941800202B
:10131000A1014000D1014000EC180020D8180020A5
:1013200089014000A0180020BD0C4000F8B50E4611
:101330001746054608B9124B9847124C21682846B3
:101340001831114DA8472068104B0430984748B910
:101350000F4B19682268D26A012000FA02F221EAD2
:1013600002021A60012F04D121680A480431A847FB
:10137000F8BD094B1868094B30449847F8BD00BFC9
:101380006D0240009418002089014000D101400006
:10139000EC180020D8180020A0180020BD0C400038
:1013A000F8B5C368DC680CB9134B984704F118060C
:1013B0003046124F124DB847124B1B6873B9261DA9
:1013C0003046B847104AE36A10680121994001434A
:1013D00011600E4A142000FB032000E00C48314647
:1013E000A8470C4BE26A1B68DB6A9A4283BF0A4B30
:1013F000012018600020F8BD6D024000D1014000BE
:10140000890140009C180020EC1800201C180020C6
:10141000A818002094180020F018002010B50446E9
:1014200008B9044B9847044B1B682360034B1B68A7
:10143000636010BD6D024000F4170020A01800206A
:1014400038B50D46044608B9114B98470DB9104BF5
:101450009847104B9847104B1A682B68591C10D0AE
:101460000E49086821688842616801D08A420AD220
:10147000501A984207D28A1A13442B602046084B10
:101480009847002400E00124064B9847204638BDC9
:101490006D02400099024000A0180020F4170020BF
:1014A0001D144000D5024000014B01221A60704714
:1014B000F0180020054B1B6833B1054B1B68002B4F
:1014C00014BF00200220704701207047FC17002045
:1014D0009C1800202DE9F041044600283BD01F4D08
:1014E000C36A2A68D26A934235D28269002A04DB31
:1014F0002A68D26AC2F105028261194F62694FF00F
:10150000140808FB03739A4222D1261D154B30465E
:101510009847154B60B9E26A08FB02F857F80810C3
:1015200031B91968012000FA02F221EA02021A60B8
:101530002A681868D26AE2620121914001431420AE
:10154000196000FB02703146084B9847BDE8F081F6
:101550002B68DB6AE362BDE8F08100BF94180020CD
:101560001C180020D1014000EC1800208901400027
:1015700070B5044608B9002070BD1C4B1B6898422A
:1015800001D01B4B9847A36C0BB9194B9847A36C20
:10159000E16A626C013B9142A364ECD0002BEAD17A
:1015A000251D144B284698471349144B58B9E26A35
:1015B00014205043085830B91868012606FA02F280
:1015C00020EA02021A60626CE262C2F10500A061C8
:1015D0001868012404FA02F630431860142000FB56
:1015E0000210074B29469847204670BD94180020EA
:1015F0006D024000D10140001C180020EC180020B2
:1016000089014000044B1A681AB11A68916C0131C3
:1016100091641868704700BF941800202DE9F041CC
:10162000114C124B98472568CDB9114F114EDFF878
:1016300064803846C0473046C0470F4B1F600F4B91
:1016400005201E6010212A460D4B9847206008B9DE
:101650000C4B9847206810B10B490C4B98470C4B2A
:101660009847BDE8F08100BF24190020990240008E
:10167000F81800200C190020F41800202819002068
:10168000690840006D024000D9234000290C400049
:10169000D50240006D01400010B504469142416002
:1016A000206105D88169D21A8A420CD2074B04E026
:1016B0009A4201D2994206D2054B1868054B211D6A
:1016C0009847002010BD012010BD00BF2819002040
:1016D000F4180020A10140001FB50B4B98470B4B9D
:1016E0001B6863B1022300930023019302930393C9
:1016F00007480849084C4FF48062A04710B9074BCF
:101700009847002004B010BD1D1640002419002089
:10171000E9174000DE2340000D0D40006D0240003F
:1017200030B50F4C0546206885B0B8B105298DE865
:1017300026000EDC0B4B0C4D9847022818BF0022E8
:10174000206808BF089A69460CBF00231346A847C3
:1017500004E01A4669460023044CA04705B030BD9A
:1017600024190020B5144000BD084000110A4000B3
:10177000F7B5174E33681A681AB3DB68DC681D6862
:10178000144B271D38469847636A20469847E369FB
:10179000012BEED1A3692B44AB4206D963602461CF
:1017A00030680D4B39469847E3E700212046009109
:1017B0002A460B46094CA0470028DAD1084B984727
:1017C000D7E7084A11683160136003B0F0BD00BF6D
:1017D000F4180020D1014000A10140002117400071
:1017E0006D024000281900202DE9F04F87B0DFF886
:1017F000A0B1DBF800301E68D6F1010638BF002624
:1018000016B9DB681D6800E00025534B534F544C5C
:101810009847B847236898428246B946A04603D203
:10182000504B9847012300E00023C4F800A04E4F1E
:101830004E4C002B2FD11EBB554521D8A047DBF8BD
:101840000030DB68DC684A4B201D9847E369012BB8
:1018500013D1A169DFF82CC12046294452462B46FA
:10186000E047012809D12A460096204631463346F2
:10187000404DA84708B9404B9847636A204647E067
:1018800038683E4BCAEB050132469847A04768B915
:101890003B4B98470AE0A04708E0039BA1692A4612
:1018A00020461944374DA847012833D00022386814
:1018B000354C02A91346A047002898D0029B002B64
:1018C00003DA04980599039B9847029B002BEDDBF4
:1018D000049C636913B1201D254B9847C847D8F86D
:1018E00000309842054601D21E4B9847029BC8F82B
:1018F0000050092BDAD8012202FA03F313F404761C
:101900001CD113F0C70FC8D19B06CFD51F4B204663
:101910009847CBE7636A20469847E369012BC5D116
:10192000A269039B009620461A4431463346114C67
:10193000A0470028BAD1104B9847B7E7039BA36193
:101940000BB90D4B9847A169204629442A462B46DE
:101950000C4CA047AAE700BF5D0F40006D0F400090
:10196000201900207117400024190020A510400004
:10197000D1014000211740006D0240004D0C400095
:101980005502400099164000C50A4000F905400084
:10199000F418002008B50A4B98470A4AD36823F484
:1019A000E0631B041B0C43F0BF6343F40033D360BC
:1019B000054B9847054B9847054B9847002008BDB5
:1019C000351C400000ED00E02101400025014000F1
:1019D000E90E400008B5014B984708BD6D02400074
:1019E0007047000008B5014B984708BD6D024000E4
:1019F0007047704738B5184A184B9A421446194632
:101A00000BD90023164AC818904203D2E258CA5094
:101A10000433F7E700BF134B0EE0FBD21048043A43
:101A2000C31AD1180B469342C1F10004F2D004440A
:101A300053F804591D51F6E70B4A934203D2002292
:101A400043F8042BF8E7094B094A9A60094B984779
:101A5000094B9847FEE700BF142440000000002017
:101A60003004002030040020441A002000ED00E083
:101A700000004000492040009519400010B52D4A53
:101A8000136B03F00303012B2B4B0ED004D3116A0D
:101A9000CC011CD5294926E02949496908064CBFD3
:101AA0004FF400414FF4FA4130E0116AC90101D509
:101AB00022492BE023491960116A01F070011029B5
:101AC00003D0202923D1204920E020491EE01D49D0
:101AD0001960116A01F07001102903D0202903D187
:101AE000194900E019491960106B124900F0030010
:101AF00002280BBF8C6ACC6A886AC86A1968C4F36A
:101B00000A4404FB0111C0B2B1FBF0F11960126B81
:101B100002F07002702A04D11A680321B2FBF1F2BC
:101B200005E0044A116B1A68C1F30211CA401A6039
:101B300010BD00BF00040E40040000200024F4008B
:101B400010140E4000093D00001BB70000127A007F
:101B50000F4B104A9842104B02D84FF0806114E0AE
:101B60000E49884201D80E490FE00E49884201D83B
:101B70000D490AE00D49884201D80D4905E00D499B
:101B800088428CBF0C494FF00421116019607047E6
:101B9000FF2C3101000A0E40000C0E40FF5962027A
:101BA00000010004FF86930300020004FFB3C40495
:101BB00000030004FFE0F50500050004013808B546
:101BC000062818D8DFE800F00406090B0D111300F1
:101BD000002000E00120084B05E0002002E010207A
:101BE00000E02020054B984708BD002000E00120C0
:101BF0004021034B984708BD491F4000851F400006
:101C0000CD1F400010B50446072CFDD8DFE804F0D6
:101C10000D04040606060606044B00E0044B984734
:101C2000003018BF01200028EED010BD691F400011
:101C30001920400010B50D480D4CA04704200D4B55
:101C4000984704200C4B98470C4B98470C4B0D4A77
:101C50009A620D4B98470028FBD00C4B0020984708
:101C60000B4B98470B48A04710BD00BF000E27073D
:101C7000511B4000BD1B4000051C400029204000B6
:101C800000040E40013F032039204000051F4000A2
:101C90007D1A40000048E801B1F1C05F10B5426410
:101CA0002DD007D8B1F1006F15D0B1F1805F1DD0F4
:101CB00071BB10BDB1F1205F2BD005D8B1F1005F31
:101CC00026D1036F13431FE0B1F1405F21D0B1F182
:101CD000605F1ED01CE0016F046FD34321401940A8
:101CE0000167416F446F21400B4010E0036F1343C5
:101CF0000367436F416F0B4023EA020307E0036F62
:101D0000016F0B4023EA02030367436F13434367EA
:101D1000426010BDD30741644CBF4166016612F0BA
:101D20000A0F14BF01624162930702D5C0F8801008
:101D300003E0130748BFC0F8841041610160704799
:101D400010B5029C41640CB1416600E001660BB124
:101D5000016500E041650AB1016300E04163016192
:101D6000016010BDC06C7047806C7047430903F57B
:101D7000001303F207735B0200F01F00012202FA56
:101D800000F018637047430903F5001303F207736B
:101D90005B0200F01F00012202FA00F05863704756
:101DA000F7B544090D4604F5001401F0F04104F2C2
:101DB0000774B1F1005F4FEA44241ED009D8B1F195
:101DC000805F1AD0B1F1C05F17D0B1F1006F37D189
:101DD00013E0B1F1405F1FD0B1F1605F1CD0B1F1F1
:101DE000205F2DD100F01F010126204606FA01F1E7
:101DF0002A46154B9847304623E000F01F00012685
:101E000006FA00F73A462046104B9847EA0701D4F5
:101E10002766F0E76766EEE7012605F0605205EAFF
:101E200006030093B2F160535A4200F01F015A4179
:101E3000204606FA01F1C5F38003054CA047DAE716
:101E4000002003B0F0BD00BF151D4000991C4000EC
:101E5000411D40002DE9F041164B06460F469847BC
:101E6000154B054630469847054004D1134B1B6877
:101E7000CBB9BDE8F081124C04F1600854F80C3C79
:101E8000BB420AD154F8081C294206D023683846C0
:101E9000984754F8083C25EA03054445E6D0103439
:101EA000002DEBD1E2E7074B1B680BB1304698479A
:101EB000BDE8F081651D4000691D4000401A00200A
:101EC0003C1900202C19002008B50248024B0B21B8
:101ED000984708BD000E0E40551E400008B5024848
:101EE000024B0C21984708BD00100E40551E4000C3
:101EF00008B50248024B0D21984708BD00120E405C
:101F0000551E40000F4B1A6B22F0700210431863ED
:101F100040F60102986E0B49000703D4013AF9D14B
:101F2000012070470A6B22F0030242F002020A63AA
:101F300040F60102996E090702D4013AFAD1EFE79F
:101F40000020704700040E400128054B05D19A6817
:101F500042F0254242F480129A60024A1A607047A9
:101F600010140E40080000A5054B586910F08000C1
:101F700005D0A3F58053103B986EC0F3C010704796
:101F800010140E40104A116A41F45C1141F008012E
:101F90001162936E0C499B03FBD50B6A23F45C130F
:101FA00023F0700343F45C1303430B62936E064902
:101FB0009B03FBD50B6A23F09B7323F4803343F41C
:101FC0005C130B62704700BF00040E400F4B1A6A8F
:101FD00028B10F4911400F4A0A431A62704722F490
:101FE0005C1222F0030242F45C12090242F0010288
:101FF00089B20A431A62996E044AC907FBD5136A6B
:1020000043F09B7343F480331362704700040E4027
:10201000FCFFC8FE02003701024B986E00F48030CE
:10202000704700BF00040E40024B4FF000529A620E
:10203000704700BF00040E40024B986E00F0020093
:10204000704700BF00040E4070B50F4E0F4D761B59
:10205000B61007D0043D0024013455F8043F9847DA
:10206000A642F9D10A4E0B4D761B00F0C1F9B6100D
:1020700008D0043D0024013455F8043F9847A64297
:10208000F9D170BD70BD00BFFC234000FC234000AF
:1020900004244000FC234000032A70B428D940EAFD
:1020A00001039B0713D005780C78A54224D1013A8F
:1020B000002305E010F8015F11F8014FA5421BD184
:1020C000934203F10103F5D1002070BC70470C4628
:1020D000034625681E68AE422146184604F10404F2
:1020E00003F1040304D1043A032A18462146F0D828
:1020F000002AD8D11046E8E7281B70BC704700BF03
:10210000844641EA000313F003036DD1403A41D302
:1021100051F8043B40F8043B51F8043B40F8043BC1
:1021200051F8043B40F8043B51F8043B40F8043BB1
:1021300051F8043B40F8043B51F8043B40F8043BA1
:1021400051F8043B40F8043B51F8043B40F8043B91
:1021500051F8043B40F8043B51F8043B40F8043B81
:1021600051F8043B40F8043B51F8043B40F8043B71
:1021700051F8043B40F8043B51F8043B40F8043B61
:1021800051F8043B40F8043B51F8043B40F8043B51
:10219000403ABDD2303211D351F8043B40F8043BF1
:1021A00051F8043B40F8043B51F8043B40F8043B31
:1021B00051F8043B40F8043B103AEDD20C3205D301
:1021C00051F8043B40F8043B043AF9D2043208D0F9
:1021D000D2071CBF11F8013B00F8013B01D30B886B
:1021E00003806046704700BF082A13D38B078DD049
:1021F00010F003038AD0C3F10403D21ADB071CBF1B
:1022000011F8013B00F8013B80D331F8023B20F884
:10221000023B7BE7043AD9D3013A11F8013B00F8BD
:10222000013BF9D20B7803704B7843708B78837045
:1022300060467047F0B4840743D0541E002A3ED055
:10224000CDB2034603E0621E002C38D0144603F8DA
:10225000015B9A07F7D1032C2AD9CDB245EA0525AF
:102260000F2C45EA054515D9A4F110073F0903F1E4
:10227000100606EB07161A46156055609560D56086
:102280001032B242F8D104F00F040137032C03EBF3
:1022900007130DD91E462246043A032A46F8045B6A
:1022A000FAD8221F22F003020432134404F003047C
:1022B0002CB1C9B21C4403F8011BA342FBD1F0BCF2
:1022C000704714460346C6E7024B13B1024800F0BC
:1022D00005B8704700000000E922400001460020D8
:1022E0000246034600F018B838B5094D094C641B86
:1022F000A41018BF05EB840505D0013C55F8043D3A
:102300009847002CF9D1BDE8384000F07BB800BFF9
:102310001024400014244000F0B5274C2668D6F85D
:10232000484185B00746002C41D065681F2D1EDD51
:10233000224818B94FF0FF3005B0F0BD4FF4C87017
:10234000039102920193AFF300800399029A019BDB
:1023500004460028EED0D6F8485125600020606081
:102360000546C6F84841C4F88801C4F88C013FB955
:10237000AB1C00200135656044F8231005B0F0BDAA
:1023800004EB85004FF0010CC0F88820D4F8886178
:102390000CFA05F21643022FC4F88861C0F8083120
:1023A000E6D1D4F88C311A43C4F88C21E0E706F565
:1023B000A674C6F84841B8E7EC23400000000000CE
:1023C00049444C4500A5A5A5A5A5A5A5A5A5A5A5D8
:1023D000A5A5A5A5A5A5A5A5A5546D725100546DEB
:1023E00072205376630000004300000008000020C4
:1023F000F8B500BFF8BC08BC9E467047C922400033
:10240000F1004000F8B500BFF8BC08BC9E4670471C
:04241000CD004000BB
:10241400AAAAAAAA00093D0000000000F4020020B4
:102424005C030020C4030020000000000000000042
:102434000000000000000000000000000000000098
:10244400000000000000000000000000E82340003D
:102454000000000000000000000000000000000078
:102464000000000000000000000000000000000068
:102474000000000000000000000000000000000058
:102484000000000000000000000000000000000048
:102494000000000000000000000000000000000038
:1024A4000000000000000000000000000000000028
:1024B4000000000000000000000000000000000018
:1024C40001000000000000000E33CDAB34126DE6B5
:1024D400ECDE05000B00000000000000000000001E
:1024E40000000000000000000000000000000000E8
:1024F40000000000000000000000000000000000D8
:1025040000000000000000000000000000000000C7
:1025140000000000000000000000000000000000B7
:04000005004019F5A9
:00000001FF
