:020000040040BA
:1000000010370220D1834100A1844100A184410026
:10001000A1844100A1844100A184410000000000AE
:10002000000000000000000000000000CD4D410075
:10003000A1844100000000009D4F4100E14F4100BC
:10004000A1844100A1844100A1844100A184410018
:10005000A1844100A1844100A1844100A184410008
:100060003531410005EA400000000000F9924100EE
:100070001193410029934100114B4100D90F4100D8
:100080000000000000000000A1844100A1844100A4
:10009000A184410059C64000A1844100A1844100CF
:1000A000A1844100A1844100A1844100A1844100B8
:1000B000A184410011134100A1844100A1844100A9
:1000C000A1844100A1844100A184410010B5054CE8
:1000D000237833B9044B13B10448AFF300800123F4
:1000E000237010BD04060020000000003C454200C3
:1000F00008B5064B1BB106480649AFF30080064819
:10010000036813B1054B03B1984708BD0000000018
:100110003C454200080600203C454200000000002B
:1001200080B400AFBD465DF8047B704780B584B0F5
:1001300000AF786039607B681B6823F47063FB60F4
:100140003B681B0203F47062FB681343786819462E
:10015000024B98471037BD4680BD00BF49000020C4
:1001600080B483B000AF78607B681B6803F4706371
:100170001B0A18460C37BD465DF8047B704700BF6C
:1001800080B483B000AF78607B68DB6818460C37BA
:10019000BD465DF8047B704780B485B000AFF86061
:1001A000B9607A60BB68002B07D0BB681A68FB682F
:1001B0009A60BB685A68FB68DA607B68002B07D0DE
:1001C0007B681A68FB689A617B685A68FB68DA6129
:1001D0001437BD465DF8047B704700BF80B485B01E
:1001E00000AFF860B9607A60BB68002B07D0BB68CD
:1001F0001A68FB681A60BB685A68FB685A607B68BB
:10020000002B07D07B681A68FB681A617B685A6804
:10021000FB685A611437BD465DF8047B704700BF28
:1002200080B483B000AF786039603A6840F201135F
:1002300013407A6813620C37BD465DF8047B704743
:1002400080B483B000AF786039603A6840F202232E
:1002500013407A6813620C37BD465DF8047B704723
:1002600080B483B000AF78607B68DB6818460C37D9
:10027000BD465DF8047B704780B485B000AF786000
:100280007B689B6823F07F4323F40053FB60FB688B
:1002900043F025427B689A601437BD465DF8047BC5
:1002A000704700BF80B485B000AF78607B689B6802
:1002B00023F07F4323F48053FB60FB6843F0254326
:1002C00043F480537A6893601437BD465DF8047B2D
:1002D000704700BF80B483B000AF78607B685B6913
:1002E00018460C37BD465DF8047B704780B483B078
:1002F00000AF78607B684FF400425A600C37BD460F
:100300005DF8047B704700BF90B587B000AF03462F
:100310003960FB800023FB724FF4A000104B98471C
:10032000FB881B0203F5A0037B614FF480737B8283
:100330000123FB607B8A786939681A46FB68094C9F
:10034000A0470346002B02D10123FB7201E00023EA
:10035000FB72FB7ADBB218461C37BD4690BD00BF6E
:10036000219D4100699D410090B583B000AF786048
:10037000094B5B7DC3F3C013DBB2002B08D0074BE6
:100380001B68184679684FF47A720023044CA04722
:100390000C37BD4690BD00BF480602206006022013
:1003A000DD57410080B584B000AF78607B681A8962
:1003B0001A4B1A837B685A79184B83F81B217B6888
:1003C0002533FB601648F968164B98470346002B07
:1003D00005D0FB6805331846134B98471BE01348BC
:1003E000F968104B98470346002B05D0FB6804338F
:1003F00018460F4B98470EE00E48F968094B98478E
:100400000346002B07D0FB68063318460A4B984773
:100410000A480B4B98471037BD4680BD54D2012087
:100420005CDE41008D6340004504400064DE410015
:10043000710540006CDE4100A908400074DE4100F7
:100440006903400090B58FB002AF786007F11803E0
:10045000012200927C2201927868194614227C23A2
:10046000364CA0470346002B5FD007F1180318460F
:10047000334B9847034687F82F3007F1180297F857
:100480002F3010462F491A462F4B98470346002B12
:1004900004D02E482E492F4B98474BE007F1180205
:1004A00097F82F3010462C491A46274B9847034699
:1004B000002B04D025482949264B98473AE007F1FC
:1004C0001003022200927C220192786819461422BD
:1004D0007C231A4CA0470346002B26D00023FB6048
:1004E00007F10C0207F110031046194605221C4BB8
:1004F00098470346002B18D0FB68002B10DDFB68E3
:10050000B3F5805F0CDC0F4B0022DA82FB689AB2F5
:100510000C4B9A8207F118030A481946114B984769
:100520000A4811490B4B984704E008480F49094B0A
:10053000984700BF3437BD4690BD00BFCD6740002F
:10054000EDDB410054D20120456340005CDE4100F8
:1005500088DE410001094000743A420094DE410007
:1005600011604000E5634000B8DE4100BCDE4100A0
:100570002DE9F0419CB002AF786000233B66002378
:10058000FB65002387F86730002387F8663007F1A2
:100590005403012200927C220192786819460622B7
:1005A0007C239E4CA0470346002B24D007F1600219
:1005B00007F15403104619460522994B9847034604
:1005C000002B18D03B6E002B15DD3B6EB3F5805F22
:1005D00011DC944B9B8A1A463B6E9A420BDB914B83
:1005E000DB8A5A1C3B6E9A4205D1012387F867309B
:1005F0008D488E4B984797F86730002B2FD00023FB
:1006000087F8673007F11003022200927C220192E2
:100610007868194603227C23804CA0470346002BB0
:100620001DD007F15C0207F11003104619460222A3
:100630007B4B98470346002B11D0FB6D002B0EDD42
:10064000FB6D042B0BDC774B9B7E5A1CFB6D9A4297
:1006500005D1012387F867307548744B984797F8A0
:100660006730002B00F0C480002387F86730002338
:10067000FB730023BB73002387F86530002387F8E2
:10068000643007F10F03032200927C220192786804
:100690001946FF227C23674CA047034687F8653044
:1006A00007F10E03042200927C2201927868194619
:1006B00003227C235F4CA047034687F8643097F8F9
:1006C0006530802B40F0948097F86430022B40F026
:1006D0008F8000237B73FB7B7A681A4407F1140335
:1006E000104619468022544B98470346402B0FD1A1
:1006F000BB7B7A681A4407F10D03104619460222A3
:100700004D4B98470346012B02D1012387F86730F0
:1007100097F86730002B17D07B7B07F11402104647
:100720001946464B9847034687F8673097F8673075
:1007300083F00103DBB2002B06D041484149424B14
:100740009847012387F8663097F86730002B4FD021
:10075000FB6D013B9B0103F11802324B1344033341
:1007600007F114049C4604F14008654626460FCE66
:1007700028606960AA60EB6010340CF1100C4445ED
:10078000F3D1FB6D042B2DD13B6E1A4607F11403F8
:10079000104619462D4B9847034687F8673097F85F
:1007A0006730002B13D02A48204B9847244829490A
:1007B000254B98471B4BDB8A01339AB2194BDA82DF
:1007C000184B00229A76012387F8663010E0224801
:1007D000164B98471A4821491B4B9847012387F825
:1007E000663005E00F4B9B7E0133DAB20D4B9A76F3
:1007F00097F8673083F00103DBB21A4697F866304A
:1008000083F00103DBB21340002B03D00C481449E2
:100810000D4B98476837BD46BDE8F081CD67400075
:100820001160400054D20120C4DE41006903400041
:10083000D8DE4100E16840000162400065084000E8
:1008400064DE4100F0DE4100010940008108400003
:1008500004DF4100B8DE410020DF410040DF4100FD
:10086000BCDE410080B483B000AF78600B46FB7003
:10087000012318460C37BD465DF8047B704700BF66
:1008800080B582B000AF786039607B689BB2013B75
:100890009BB218463968034B9847034618460837F9
:1008A000BD4680BD0903400080B582B000AF7860CE
:1008B0000C4BDA8A0B4B9B8A9A420AD10A480B49A5
:1008C0000B4B984741F288300A4B98470A4B9847A0
:1008D000FEE705480949064B984700BF0837BD4663
:1008E00080BD00BF54D201206CDE4100B8DE410063
:1008F00001094000B568410099000020BCDE4100BC
:1009000090B593B002AF78603960002387F83F302C
:1009100097F83F3007F10C02134418467968274BCB
:10092000984703461A4697F83F30134487F83F30FC
:1009300097F83F3007F10C021344184639681F4BF3
:10094000984703461A4697F83F30134487F83F30DC
:1009500097F83F3007F10C02134418461849174B1B
:10096000984703461A4697F83F30134487F83F30BC
:10097000144B93F81B31212B0ED0262B12D1114B87
:100980001B8B1BB207F10C020092012003211A46B7
:1009900000230D4CA0470EE007F10C0318460B4B4B
:1009A000984708E00A48094B984707F10C03184696
:1009B000064B984700BF4437BD4690BDE5634000F5
:1009C00058DF410054D2012021FF4000690340005C
:1009D0005CDF410090B585B004AF022300930B4B60
:1009E00001930023029300230393094809494FF41C
:1009F000007241F23423084CA047044B1B68002BC3
:100A000001D1064B98470437BD4690BD600C0020CD
:100A1000210A400018E34100996641004933400033
:100A200090B583B000AF7860254B9847254B1B7E6F
:100A300083F00103DBB2002B1ED0224B5C68224BFB
:100A400093F88C301A46214B104698470246204BAB
:100A50002046114698470346002B0DD01D4B1B78AE
:100A600083F00103DBB2002B06D01A4B01221A706F
:100A700019481A4B98471EE0124B1B7E002B10D1D1
:100A8000104B5C68104B93F88C301A460F4B104695
:100A900098470246124B2046114698470346002BC2
:100AA00009D00C4B1B78002B05D00A4B00221A7082
:100AB0000C480A4B98474FF47A700B4B9847B3E7B2
:100AC000290B400070D3012094D30120E5D34100CD
:100AD00005D841002106002028E34100ED0A40002E
:100AE000DDD7410044E34100B568410090B583B0D3
:100AF00000AF7860094B5B7DC3F38013DBB2002B42
:100B000008D0074B1B68184679684FF47A720023A7
:100B1000044CA0470C37BD4690BD00BF48060220DC
:100B200060060220DD57410090B58BB002AF6A4BE2
:100B30001B783B77694B1B68BB61B869684B98476A
:100B40000346FB75674B1B78BB75674B1B787B7542
:100B5000664B1B683B61664B1B68FB60654B1B78F3
:100B6000FB72654B1B7EBB72634B93F820307B722C
:100B7000614B1B7A3B72604B5B7AFB715E4B5B7D1A
:100B8000FB775D4B9B7DBB715B4B1B7ABA7D9A42B9
:100B90001ED1594BDA69BB699A4219D1564B1B7E5B
:100BA0003A7F9A4214D1544BDA683B699A420FD18A
:100BB000514B1A69FB689A420AD14F4B1B7DFA7A56
:100BC0009A4205D14C4B5B7A7A7D9A4200D1B2E2CF
:100BD0000023BB7700237B777B7A012B12D1BB7A72
:100BE000002B0FD03B7F83F00103DBB2002B09D039
:100BF000BB7D012B06D17B7D032B03D10123BB776A
:100C000009237B77BB7A002B12D03B7F83F0010353
:100C1000DBB2002B0CD0BB7D022B09D17B7D052BD9
:100C200002D07B7D002B03D10123BB7707237B7789
:100C3000FB79032B09D17B7D012B06D1BB7D022BD8
:100C400003D10123BB7706237B77BB79062B0FD11A
:100C5000BB7D022B0CD17B7D012B05D07B7D052B31
:100C600002D07B7D002B03D10123BB7706237B774A
:100C70003B7F002B0CD0BB7D022B09D11E4B93F880
:100C80002130002B04D11C4B012283F8212045E0A8
:100C90003B7F002B0CD0BB7D012B09D1164B93F869
:100CA0002130012B04D1144B022283F8212035E09E
:100CB0003B7F002B22D0BB7D022B1FD10E4B93F824
:100CC0002130022B1AD10C4B032283F8212001235F
:100CD000BB7708237B7721E0240600202C06002028
:100CE00031594000F80B0020F90B0020FC0B0020CC
:100CF000000C0020040C002070D301203B7F83F007
:100D00000103DBB2002B09D0FB7F83F00103DBB2D0
:100D1000002B03D06E4B002283F82120BB7F83F091
:100D20000103DBB2002B18D03B7F002B15D0FB79E1
:100D3000002B02D0FB79052B0FD17B7D032B0CD12F
:100D4000BB7D012B09D1FB7F83F00103DBB2002BBC
:100D500003D00123BB7705237B77BB7F83F001039F
:100D6000DBB2002B79D0BB7F83F00103DBB2002B19
:100D700012D03B7F83F00103DBB2002B0CD0BB7D94
:100D8000022B09D1FB7F83F00103DBB2002B03D0E0
:100D90000123BB7701237B77BB7F83F00103DBB2A9
:100DA000002B18D03B7F002B15D0FB7D012B12D1DF
:100DB000BB7D022B0FD17B7D032B0CD03B7A012B0B
:100DC00005D0FB7F83F00103DBB2002B03D00123AE
:100DD000BB7704237B77BB7F83F00103DBB2002B5F
:100DE00018D03B7F002B15D0FB7D012B12D1BB7D92
:100DF000022B0FD17B7D052B02D07B7D002B09D1EF
:100E0000FB7F83F00103DBB2002B03D00123BB7710
:100E100002237B77BB7F83F00103DBB2002B1CD066
:100E20003B7F002B19D0FB7D012B16D1BB7D022B04
:100E300013D1FB7A83F00103DBB2002B03D13A69B3
:100E4000FB689A4209D9FB7F83F00103DBB2002BD8
:100E500003D00123BB7703237B771D4BDB7D002B66
:100E60000ED0BB7F83F00103DBB2002B08D0184B00
:100E70000022DA75164B00229A750020154B984710
:100E8000FB7F83F00103DBB2002B29D0BB7D022B5B
:100E900026D1BB7F83F00103DBB2002B20D03B7F48
:100EA000002B1DD0FB7D012B09D1FB7A002B03D138
:100EB0003A69FB689A4202D27B7D032B02D0FB7D0C
:100EC000022B0DD10123FB770348044B98472EE0FA
:100ED00070D301208912400060E34100ED0A400018
:100EE000FB7F002B23D0BB7D012B0BD0FB7D012B87
:100EF0001DD17B7D012B05D07B7D052B02D07B7D19
:100F0000002B14D10023FB778C488D4B98473B7FF7
:100F100083F00103DBB2002B09D08A4B1B7E83F0E8
:100F20000103DBB2002B02D0864B01221A76BB7F75
:100F3000002B0DD0BA797B7F9A4209D0814B0122D8
:100F4000DA75804B7A7F9A757B7F18467E4B98477F
:100F50007C4B1B7ABA7D9A4213D17A4B5B7A7A7DAD
:100F60009A420ED1774BDA69BB699A4209D1754B27
:100F70001B7E3A7F9A4204D1724B1B7DFA7A9A42C9
:100F80000CD0B97D7A7D3B7F38690090F86801907C
:100F9000084611461A46BB696C4CA047694BBA7D9E
:100FA0001A72684B3A69DA60664BFA681A61654BE7
:100FB0007A7D5A72634BFA7A1A75624BFA7F5A75C8
:100FC000634B1B78002B00F0AF80BB7F002B07D05A
:100FD000604B00221A70032003215F4B9847A3E067
:100FE0003B7F002B1CD0FB7D012B19D1BB7D022B3D
:100FF00016D07B7D052B0BD07B7D002B08D07B7D15
:10100000012B05D0FB7A83F00103DBB2002B07D064
:1010100001200221504B98474E4B00221A7083E06A
:101020003B7F002B10D0FB7D012B0DD1BB7D022B14
:101030000AD07B7D032B07D102200221464B984723
:10104000444B00221A706FE03B7F002B10D0FB7DD9
:10105000012B0DD1BB7D022B0AD17B7D032B07D148
:10106000022003213C4B98473A4B00221A705BE068
:101070003B7F002B0DD0FB7D022B0AD1BB7D022BC9
:1010800007D002200221344B9847324B00221A70BD
:101090004AE03B7F002B0DD0FB7D022B0AD1BB7DAC
:1010A000022B07D1022003212B4B9847294B00220A
:1010B0001A7039E03B7F002B0AD0FB7D032B07D150
:1010C00001200121244B9847224B01221A702BE06A
:1010D000BB7D002B07D1032003211F4B98471D4BDD
:1010E00000221A7020E03B7F83F00103DBB2002B6B
:1010F0000AD0BB7D012B07D101200121164B984757
:10110000144B01221A700FE03B7F83F00103DBB226
:10111000002B09D0BB7D012B06D0032003210E4BF1
:1011200098470C4B00221A703A7FFB7D1046B96934
:101130001A460A4B98472437BD4690BD94E34100B8
:10114000ED0A400070D3012089124000691640006A
:10115000B4010020CA0100209D6E400061114000D2
:1011600080B582B000AF396013460246FA71BB7198
:10117000394B1B7EFA799A4204D1374BDA693B68C6
:101180009A4266D0344BFA791A76334BBA7983F89F
:101190002020314B1B7E002B33D0304B1B78002B93
:1011A00009D02D4B5B7D83F00103DBB2002B02D015
:1011B00012202B4B9847284B3A68DA61294B0122C1
:1011C0001A70294B00221A70284B1B7883F00103F8
:1011D000DBB2002B3DD0204BDB691846244B9847EF
:1011E0000346032B06D1234B01221A702248234BBE
:1011F00098472EE01F4B00221A7021481F4B98473A
:1012000027E0164B1B78002B09D0134B5B7D83F036
:101210000103DBB2002B02D01320114B98470E4B79
:101220000022DA610C4B5B7D83F00103DBB2002B03
:101230000CD00C4B00221A700C4B1B7883F001036E
:10124000DBB2002B02D00B4B00221A700D480B4B67
:1012500098470837BD4680BD70D30120B5010020F6
:1012600089124000200600202106002023060020CD
:101270003159400022060020C8E34100ED0A400039
:10128000E0E34100F8E3410090B5A1B002AF0346AE
:10129000FB71412387F875307C2387F87430002375
:1012A00087F87730FB7918466A4B98470346002B3E
:1012B00004D16948694B98470023AFE197F877302C
:1012C0005A1C87F8772007F17802134497F87520A5
:1012D00003F8502C97F877305A1C87F8772007F1DD
:1012E0007802134497F8742003F8502C5C4B93F861
:1012F000C5301A4697F8773007F128010B4410469D
:1013000019460322574B984703461A4697F87730F9
:10131000134487F87730524B93F8C5300133DAB273
:101320004F4B83F8C52097F877305A1C87F8772001
:1013300007F1780213445F2203F8502C97F87730B6
:1013400007F12802D118FA79474813465B00134485
:101350009B0003445B6808461946444B9847034684
:101360001A4697F87730134487F8773097F8773034
:101370005A1C87F8772007F1780213445F2203F89C
:10138000502CFB79122B14D1394B1B683B6797F813
:10139000773007F128021344386F19460022314B89
:1013A000984703461A4697F87730134487F8773002
:1013B00027E0FB79132B14D12E4BDB69FB6697F8E2
:1013C000773007F128021344F86E19460022254BA6
:1013D000984703461A4697F87730134487F87730D2
:1013E0000FE097F8773007F1280213441846224996
:1013F0001E4B984703461A4697F87730134487F8F0
:10140000773097F877305A1C87F8772007F1780201
:1014100013445F2203F8502C07F108031846174BBA
:101420009847034683F00103DBB2002B0AD0002368
:101430003B734FF000033B614FF00003BB614FF083
:1014400000033B623B7B002B1AD0412387F87630A8
:1014500019E000BF4516400014E44100ED0A4000C9
:1014600094D30120015F4000D0E44100E5634000D7
:101470002C06002070D3012034E44100DDDD400063
:10148000562387F8763097F877305A1C87F87720FC
:1014900007F17802134497F8762003F8502C97F858
:1014A00077305A1C87F8772007F1780213445F22BF
:1014B00003F8502C3A6997F8773007F128010B446C
:1014C0001046194606220023564CA04703461A46EA
:1014D00097F87730134487F8773097F877305A1CAD
:1014E00087F8772007F1780213445F2203F8502C25
:1014F000BA6997F8773007F128010B44104619466E
:1015000006220023474CA04703461A4697F8773037
:10151000134487F8773097F877305A1C87F877208C
:1015200007F1780213445F2203F8502C3A6A97F8C7
:10153000773007F128010B44104619460122002399
:10154000384CA04703461A4697F87730134487F87B
:10155000773097F877305A1C87F8772007F17802B0
:1015600013445F2203F8502C2F4B1A6897F87730FA
:1015700007F128010B441046194602220023294C8A
:10158000A04703461A4697F87730134487F8773018
:1015900097F877305A1C87F8772007F178021344C0
:1015A0005F2203F8502C97F8773007F12802134494
:1015B0000020194600221D4B984703461A4697F80B
:1015C0007730134487F87730FA79194913465B006E
:1015D00013449B000B4408331B681846154B98476F
:1015E00007F128031846134B984797F87730422B9A
:1015F00002D911480F4B9847002387F86A300F4BE8
:1016000093F8C430002B08D007F128030093012081
:101610000221002201230A4CA047012318467C37EF
:10162000BD4690BDA9644000500B0020015F400002
:10163000D0E44100ED0A400048E4410094D3012089
:1016400021FF400080B483B000AF0346FB71FB79FB
:10165000132B01D8012300E0002318460C37BD46A8
:101660005DF8047B704700BF90B593B004AF3B605A
:101670000346FB710B46BB7113467B71002387F851
:10168000373097F8373007F10802D018F979BA796E
:101690007B79BC6C0094FC6C019402900846114666
:1016A0001A463B68134CA04703461A4697F8373052
:1016B000134487F8373097F8373007F1380213446E
:1016C000002203F8302C002387F8333007F1080399
:1016D0001846094B984707F108030093012005219C
:1016E00000220123054CA047012318463C37BD4684
:1016F00090BD00BF01174000ED0A400021FF4000EF
:1017000080B584B000AF3B600346FB710B46BB71F4
:1017100013467B710023FB73FB79042B4DD801A288
:1017200052F823F039174000531740006D1740005E
:1017300087174000A1174000FB7B3A6A1344184604
:101740009849994B984703461A46FB7B1344FB7311
:1017500040E0FB7B3A6A134418469449924B984701
:1017600003461A46FB7B1344FB7333E0FB7B3A6A68
:10177000134418468E498C4B984703461A46FB7B08
:101780001344FB7326E0FB7B3A6A134418468949ED
:10179000854B984703461A46FB7B1344FB7319E0BD
:1017A000FB7B3A6A1344184683497F4B98470346AC
:1017B0001A46FB7B1344FB730CE0FB7B3A6A134431
:1017C00018467D49784B984703461A46FB7B1344DD
:1017D000FB7300BFFB7B3A6A134418467749724B90
:1017E000984703461A46FB7B1344FB737B79002B17
:1017F0000CD0FB7B3A6A1344184671496A4B9847F0
:1018000003461A46FB7B1344FB7323E07B7983F08A
:101810000103DBB2002B11D06A4BD3F89030002BC0
:101820000CD0FB7B3A6A1344184667495E4B9847D5
:1018300003461A46FB7B1344FB730BE0FB7B3A6ABF
:10184000134418466149584B984703461A46FB7B98
:101850001344FB737B79002B00F06A81FB7B3A6AAF
:10186000134418465549504B984703461A46FB7B8C
:101870001344FB73FB7B3A6A1344184654494A4BA2
:10188000984703461A46FB7B1344FB733A68FB7B7D
:10189000396A0B441046194600224E4B98470346BE
:1018A0001A46FB7B1344FB73FB7B3A6A13441846CE
:1018B00042493D4B984703461A46FB7B1344FB7352
:1018C000BB79062B00F2968001A252F823F000BFEC
:1018D000ED184000211940003B1940005519400007
:1018E0006F1940000719400089194000FB7B3A6AD4
:1018F0001344184638492C4B984703461A46FB7B3D
:101900001344FB7383E0FB7B3A6A13441846334964
:10191000254B984703461A46FB7B1344FB7376E03E
:10192000FB7B3A6A134418462D491F4B98470346E0
:101930001A46FB7B1344FB7369E0FB7B3A6A134452
:1019400018462849184B984703461A46FB7B134410
:10195000FB735CE0FB7B3A6A134418462249124B46
:10196000984703461A46FB7B1344FB734FE0FB7B0F
:101970003A6A134418461D490B4B984703461A46CA
:10198000FB7B1344FB7342E0FB7B3A6A134418462B
:101990001749054B984703461A46FB7B1344FB73D4
:1019A00035E000BF70E44100E563400074E44100AD
:1019B00078E441007CE4410080E4410084E441009B
:1019C00088E4410094D301208CE4410090E441007C
:1019D00094E44100015F400098E441009CE4410030
:1019E000A0E44100A4E44100A8E44100ACE44100CB
:1019F000B0E44100FB7B3A6A134418465549564B04
:101A0000984703461A46FB7B1344FB7300BFBB7920
:101A1000052B00F08D80FB7B3A6A134418464F4932
:101A20004D4B984703461A46FB7B1344FB73BA6938
:101A3000FB699A420CD2FB7B3A6A13441846484928
:101A4000454B984703461A46FB7B1344FB730BE058
:101A5000FB7B3A6A1344184642493F4B984703467A
:101A60001A46FB7B1344FB73FB7B3A6A134418460C
:101A70003A49394B984703461A46FB7B1344FB739C
:101A8000FB7B3A6A134418463749334B9847034661
:101A90001A46FB7B1344FB73BA69FB7B396A0B4420
:101AA000104619460022314B984703461A46FB7BE5
:101AB0001344FB73FB7B3A6A134418462C49264BAC
:101AC000984703461A46FB7B1344FB73FB7B3A6A39
:101AD000134418462149204B984703461A46FB7B7E
:101AE0001344FB73FB7B3A6A1344184621491A4B93
:101AF000984703461A46FB7B1344FB73FA69FB7B4A
:101B0000396A0B44104619460022184B9847034681
:101B10001A46FB7B1344FB73FB7B3A6A134418465B
:101B200013490D4B984703461A46FB7B1344FB733E
:101B3000FB7B3A6A134418460F49074B9847034604
:101B40001A46FB7B1344FB73FB7B18461037BD46DC
:101B500080BD00BFB0E44100E563400084E4410083
:101B6000B4E44100B8E44100BCE44100015F40003E
:101B7000C4E44100C8E44100CCE4410080B485B035
:101B800000AF78607B689B68FB60FB6823F07F4355
:101B900023F00103FB60FB6843F02543FB607B6897
:101BA000FA689A601437BD465DF8047B704700BF41
:101BB00080B483B000AF78607B68034A1A600C374A
:101BC000BD465DF8047B7047050000A580B483B076
:101BD00000AF78607B685B6803F4E06318460C37FD
:101BE000BD465DF8047B704780B483B000AF786079
:101BF00039603B68002B06D07B685B6843F00102CC
:101C00007B685A6005E07B685B6823F001027B68B3
:101C10005A600C37BD465DF8047B704780B483B0D2
:101C200000AF786039607B683A685A620C37BD460D
:101C30005DF8047B704700BF80B483B000AF78606C
:101C400039607B683A68DA610C37BD465DF8047B21
:101C5000704700BF80B483B000AF786039603B68E4
:101C6000002B06D07B685B6843F002027B685A60F9
:101C700005E07B685B6823F002027B685A600C37E2
:101C8000BD465DF8047B704780B400AFBFF34F8F53
:101C9000054A054BDB6803F4E061044B0B43D3605A
:101CA000BFF34F8FFEE700BF00ED00E00400FA0530
:101CB00090B583B000AF7860094B5B7DC3F3000340
:101CC000DBB2002B08D0074B1B68184679684FF42D
:101CD0007A720023044CA0470C37BD4690BD00BF6C
:101CE0004806022060060220DD57410080B483B020
:101CF00000AF03463960FB80032318460C37BD460E
:101D00005DF8047B704700BF80B590B000AF03461C
:101D10003960FB802C482D4B98472D482B4B98471A
:101D2000002387F83F3042E07C233B7397F83F2045
:101D300007F10C030133104619460322254B98473F
:101D40007C233B7497F83F2023491346DB009B1A02
:101D50009B000B441B6807F10C0205321046194624
:101D60001E4B984707F10C0318461D4B9847034636
:101D700087F83E3097F83E305A1C87F83E2007F12E
:101D8000400213447C2203F8342C97F83E3007F1CC
:101D900040021344002203F8342C07F10C031846C8
:101DA0000A4B984797F83F30013387F83F30352387
:101DB00097F83F209A42B7D30548044B984703232E
:101DC00018464037BD4680BDE4EC4100B11C4000E0
:101DD0000CED4100015F4000E0F4410031DB4100C7
:101DE000EDDB410080B590B000AF03463960FB8069
:101DF0002A482B4B98472B48294B9847002387F8B4
:101E00003F303EE07C233B7397F83F2007F10C0303
:101E10000133104619460322234B98477C233B7419
:101E200097F83F20214B53F8323007F10C0205326E
:101E3000104619461E4B984707F10C0318461D4BD8
:101E40009847034687F83E3097F83E305A1C87F88B
:101E50003E2007F1400213447C2203F8342C97F80B
:101E60003E3007F140021344002203F8342C07F1FE
:101E70000C0318460A4B984797F83F30013387F810
:101E80003F301D2397F83F209A42BBD30548044BAF
:101E90009847032318464037BD4680BD24ED4100D6
:101EA000B11C40000CED4100015F4000ACFA410064
:101EB00031DB4100EDDB410090B585B002AF034658
:101EC0003960FB80B7F906300E4A009201200121EB
:101ED0001A4600230C4CA0470C480D4B98470D4B5D
:101EE00001221A70002003210B4B984741F28830E1
:101EF0000A4B98470A4B9847032318460C37BD46B0
:101F000090BD00BF4CED410021FF400058ED410065
:101F1000B11C4000180C00201D8C4100B568410028
:101F2000891C400080B584B000AF03463960FB8057
:101F30000023FB603B6801331B78312B02D1012366
:101F4000FB6009E03B6801331B78322B02D102238E
:101F5000FB6001E0022335E03B68033318461B4970
:101F600005221B4B98470346002B06D0FB68DBB2CB
:101F700018460221174B984723E03B680333184665
:101F800015490322124B98470346002B06D0FB68E5
:101F9000DBB2184603210F4B984712E03B6803332E
:101FA00018460E4903220A4B98470346002B06D0D9
:101FB000FB68DBB218460121064B984701E002237B
:101FC00000E0032318461037BD4680BD74ED410084
:101FD00045634000896D40007CED410080ED41008B
:101FE00080B588B000AF03463960FB80084B984746
:101FF00007F10C031846074B984707F10C030648F6
:102000001946064B9847042318462037BD4680BD25
:10201000896F4000296F400022F90120E5634000EC
:1020200090B5F3B002AF02463B461960BB1D1A8063
:102030003B461B68002B01D1022336E107F1300338
:1020400000221A6007F12C0300221A60002387F88F
:10205000BF31012387F8BE313A4607F12003012141
:1020600000917C210191106819460A227C23914C31
:10207000A0470346002B27D007F120038E481946BE
:102080008E4B98470346002B03D0032387F8BF31BC
:102090001FE007F120038A481946884B98470346FA
:1020A000002B03D0022387F8BF3112E007F1200391
:1020B00084481946814B98470346002B09D1824832
:1020C000824B98470223F0E08148804B98470223D7
:1020D000EBE03A4607F11403022100917C210191C3
:1020E0001068194609227C23724CA0470346002B36
:1020F00010D007F1300207F11403104619460822E8
:10210000744B98470346002B09D173486F4B98478F
:102110000223CAE071486D4B98470223C5E097F847
:10212000BF31032B26D13A4607F10C03032100915E
:102130007C2101911068194604227C235D4CA04744
:102140000346002B10D007F12C0207F10C031046B8
:1021500019460022624B98470346002B09D161487B
:102160005A4B98470223A0E05F48584B98470223F8
:102170009BE045E097F8BF31022B3CD107F10B0300
:1021800000221A703A4607F10B03032100917C21CB
:1021900001911068194681227C23544CA0470346C4
:1021A00087F8BD3197F8BD31002B1ED007F10B0326
:1021B0001B783A461268D11897F8BD3107F59A7224
:1021C0000732084611461A46494B984703461A46B5
:1021D00007F12C031A6007F12C031B68002B09DCA4
:1021E00044483A4B984702235FE04348374B9847AF
:1021F00002235AE004E04148344B9847022354E05C
:1022000007F130031B68B3F5000F04D33C482F4B94
:102210009847022349E007F12C031B68002B04DDDB
:1022200007F12C031B68802B04DD3648274B9847A9
:1022300002233AE007F130031A6807F12C031B6808
:102240001344B3F5000F04D32F48204B98470223C3
:102250002BE007F13003196807F12C031B68DAB291
:1022600007F59A7097F8BF3197F8BE410094274C54
:10227000A0470346002B14D007F12C031B68DBB2E8
:1022800007F59A72D11D07F13402084611461A4625
:102290001F4B984707F1340318460C4B984703230C
:1022A00003E01C48094B98470123184607F5E277DD
:1022B000BD4690BDCD67400084ED41008D63400078
:1022C0008CED410094ED41009CED4100B11C4000BB
:1022D000C4ED4100F9604000ECED410018EE410012
:1022E0001160400050EE41007CEE4100E16840008A
:1022F00001624000B4EE4100DCEE410014EF410009
:1023000068EF410098EF4100E4EF410015CD400037
:10231000F96A400028F0410090B5B5B002AF03461D
:102320003960FB803B68002B01D10223A9E1002327
:102330007B6300233B63002387F8C730012387F8C2
:10234000C63007F12403012200927C2201923868F2
:1023500019460A227C236D4CA0470346002B27D048
:1023600007F124036A4819466A4B98470346002B35
:1023700003D0032387F8C7301FE007F12403664822
:102380001946644B98470346002B03D0012387F876
:10239000C73012E007F12403604819465D4B9847A7
:1023A0000346002B09D15E485E4B9847022368E143
:1023B0005D485C4B9847022363E107F11803022252
:1023C00000927C2201923868194609227C234F4CE6
:1023D000A0470346002B10D007F1340207F1180381
:1023E000104619460822514B98470346002B09D145
:1023F0004F484C4B9847022343E14E48494B98477E
:1024000002233EE197F8C730032B25D107F11003D3
:10241000032200927C2201923868194604227C2310
:102420003A4CA0470346002B10D007F1300207F1C9
:1024300010031046194600223F4B98470346002BD5
:1024400009D13E48374B984702231AE13C48354BA7
:102450009847022315E13AE097F8C730012B31D1B4
:102460000023FB7307F10F03032200927C220192E9
:102470003868194620227C23324CA047034687F84F
:10248000C53097F8C530002B16D0FB7B3A68D118C1
:1024900097F8C53007F19C020732084611461A46E4
:1024A000294B984703463B633B6B002B09DC2748CD
:1024B0001C4B98470223E4E025481A4B9847022317
:1024C000DFE004E02348174B98470223D9E07B6BF9
:1024D000B3F5005F04D92048124B98470223D0E09F
:1024E0003B6B002B02DD3B6B202B04DD1B480D4BAF
:1024F00098470223C5E07A6B3B6B1344B3F5005F4A
:1025000030D91748074B98470223BAE0CD674000FF
:1025100084ED41008D6340008CED410094ED41005D
:102520009CED4100B11C4000C4ED4100F960400049
:1025300060F0410094F041001160400050EE410015
:102540007CEE4100E168400001624000B4EE4100D1
:10255000DCEE410014EF4100C0F04100ECF041001E
:1025600018F14100796B3B6BDAB207F19C0097F8E8
:10257000C73097F8C6400094444CA0470346002B50
:102580007BD0002387F8C43097F8C43007F13802B5
:10259000134418463E493F4B984703461A4697F85E
:1025A000C430134487F8C4307A6B97F8C43007F10D
:1025B00038010B44104619460422374B984703460E
:1025C0001A4697F8C430134487F8C43097F8C430DB
:1025D00007F138021344184630492E4B98470346FA
:1025E0001A4697F8C430134487F8C4303A6B97F80A
:1025F000C43007F138010B44104619460022284B1D
:10260000984703461A4697F8C430134487F8C430F5
:1026100007F138031846234B9847002387F8C43046
:1026200097F8C43007F13802134418461E49194B75
:10263000984703461A4697F8C430134487F8C430C5
:1026400097F8C43007F138021A443B6BDBB207F14C
:102650009C010731084611461A46144B9847034619
:10266000DAB297F8C430134487F8C43007F138035E
:1026700018460C4B9847032303E00D48094B984735
:1026800001231846CC37BD4690BD00BF71C3400042
:1026900058F14100E56340006D6B400070F141006E
:1026A000015F4000B11C400080F14100F96A400028
:1026B00028F0410080B590B000AF03463960FB8040
:1026C000344B9847F863002387F83B3097F83B304A
:1026D00007F10802134418462F49304B9847034628
:1026E0001A4697F83B30134487F83B30FA6B97F85B
:1026F0003B3007F108010B44104619460022284BD5
:10270000984703461A4697F83B30134487F83B3006
:1027100097F83B3007F108021344184621491F4B34
:10272000984703461A4697F83B30134487F83B30E6
:10273000FB6B002B01DA03F2FF339B121A4697F86A
:102740003B3007F108010B44104619460022144B98
:10275000984703461A4697F83B30134487F83B30B6
:1027600097F83B3007F10802134418460E490B4B0B
:10277000984703461A4697F83B30134487F83B3096
:1027800007F108031846094B9847032318464037BA
:10279000BD4680BD095341008CF14100E563400016
:1027A000015F4000A0F14100ACF14100B11C4000CC
:1027B00080B582B000AF03463960FB80034B984779
:1027C000032318460837BD4680BD00BF3150400086
:1027D00080B582B000AF03463960FB800448042115
:1027E000044B9847032318460837BD4680BD00BFF9
:1027F00024D40120F9C1400080B596B000AF034653
:102800003960FB8007F108031846064B984707F12B
:10281000080305481946054B9847042318465837BE
:10282000BD4680BDE154400022F90120E56340002F
:1028300080B582B000AF03463960FB80084B9847F3
:102840000346002B04D00748074B9847032303E0B7
:102850000648054B9847012318460837BD4680BDFA
:10286000AD4C4000B8F14100B11C4000E4F1410022
:1028700090B5B1B002AF03463960FB800023FB6026
:1028800007F1A803012200927C22019238681946C0
:102890000A227C231D4CA0470346002B31D007F1B0
:1028A0000C0207F1A803104619460022184B98475E
:1028B0000346002B23D00023C7F8B430FB6818462A
:1028C000144B9847C7F8B400D7F8B430002B0DD09C
:1028D00007F11003D7F8B40019460F4B984707F1DA
:1028E00010030E4819460E4B984706E00D480E4B54
:1028F00098470A480D490A4B9847042302E00223EF
:1029000000E002231846BC37BD4690BDCD674000AD
:1029100011604000FD5D4000AD4E400022F90120F5
:10292000E56340000CF24100B11C400028F2410078
:1029300080B582B000AF03463960FB803B6801334D
:1029400013481946134B98470346002B07D0012024
:10295000114B98471148124B9847032314E03B68EA
:102960000133104819460B4B98470346002B07D0FC
:102970000020094B98470948094B9847032303E077
:102980000948074B9847022318460837BD4680BDC3
:1029900044F241008D634000ED3841004CF24100AB
:1029A000B11C400068F2410070F2410090B585B062
:1029B00002AF03463960FB80B7F90630094A00923E
:1029C000012001211A460023074CA0474FF4FA606A
:1029D000064B9847064B01221A70032318460C3702
:1029E000BD4690BD98F2410021FF4000B56841000E
:1029F000190C002080B592B000AF03463960FB800F
:102A0000002387F84730234B5B7B87F84030214B0E
:102A10009B7B87F841301F4BDB7B87F842301D4B97
:102A20001B7C87F843301B4B5B7C87F8443097F85E
:102A3000473007F10C02134418461749174B9847C3
:102A400003461A4697F84730134487F8473097F8FB
:102A5000473007F10C02134407F1400210461946B3
:102A600005220F4B98470346DAB297F847301344D4
:102A700087F8473007F10C0318460A4B984707F1CF
:102A80000C0309481946054B984704231846483754
:102A9000BD4680BD10060220ACF24100E563400057
:102AA000F96A4000B11C400022F9012080B483B0D3
:102AB00000AF03463960FB80054A137E43F00803EC
:102AC0001376032318460C37BD465DF8047B704728
:102AD0002C06022080B582B000AF03463960FB802F
:102AE0003B68013313481946134B98470346002BA4
:102AF00007D0124B01221A701148124B984703233A
:102B000014E03B680133104819460B4B98470346C5
:102B1000002B07D0094B01221A700948094B98472E
:102B2000032303E00948074B984702231846083758
:102B3000BD4680BDB8F241008D6340000C0C002002
:102B4000C0F24100B11C4000E4F24100E8F2410053
:102B500080B483B000AF03463960FB80054A137E22
:102B600043F020031376032318460C37BD465DF867
:102B7000047B70472C06022090B585B000AF034659
:102B80003960FB80144B1B681846002144F6206214
:102B90000023124CA0470346012B14D10023FB73E2
:102BA0000F4B98470346FB730B4B1B6818460021DD
:102BB000002200230B4CA047FB7B002B01D00323FA
:102BC00005E0012303E00848084B98470123184615
:102BD0001437BD4690BD00BF54070020515E410030
:102BE0001D054100DD5741000CF34100B11C4000C0
:102BF00090B585B000AF03463960FB80144B1B686D
:102C0000184600214FF47A720023124CA047034665
:102C1000012B14D10023FB730F4B98470346FB7322
:102C20000B4B1B6818460021002200230B4CA047C9
:102C3000FB7B002B01D0032305E0012303E00848C0
:102C4000084B9847012318461437BD4690BD00BF76
:102C500054070020515E4100BD044100DD57410092
:102C60000CF34100B11C400090B593B002AF034695
:102C70003960FB80002387F83F3007F10C03012205
:102C800000927C2201923868194632227C232B4C18
:102C9000A0470346002B28D007F10C031846284B09
:102CA00098470346DAB297F83F30134487F83F302D
:102CB00097F83F3007F10C02134418462149224B84
:102CC000984703461A4697F83F30134487F83F3039
:102CD0001E4B1B681846002144F6206200231C4C42
:102CE000A0470346012B20D104E01A481A4B98470D
:102CF00002231EE007F10C031846184B98474FF4C7
:102D0000FA70174B9847114B1B6818460021002298
:102D10000023144CA04714480F4B984707F10C03AD
:102D200018460D4B9847032303E010480A4B984779
:102D3000012318464437BD4690BD00BFCD67400013
:102D4000EDDB410030F34100E56340005407002013
:102D5000515E410034F34100B11C4000290F410095
:102D6000B5684100DD57410058F341000CF34100C4
:102D700090B59FB002AF03463960FB803868784B4E
:102D800098470346012B40F29D803B68013375480C
:102D90001946754B98470346002B00F08E804FF084
:102DA0000003FB644FF00003BB64002387F86F301F
:102DB00007F15003022200927C22019238681946E2
:102DC0001C227C23694CA0470346002B70D007F1DE
:102DD000500367481946644B98470346002B0FD0B1
:102DE000644B00221A70644B4FF000021A60634B70
:102DF0004FF000021A606248624B98470323ABE031
:102E000007F150031846564B9847034687F86F3032
:102E100097F86F3007F14C0107F150020846114650
:102E20001A46594B98470346002B3CD007F15003F4
:102E3000032200927C220192386819461C227C23CE
:102E40004A4CA0470346002B28D007F150031846F0
:102E5000434B9847034687F86F3097F86F3007F178
:102E6000480107F15002084611461A46464B98475A
:102E70000346002B0DD03F4B01221A70FA6C3E4BDB
:102E80001A60BA6C3D4B1A6040483E4B984703238A
:102E900062E03F483B4B984702235DE03D48394B99
:102EA0009847022358E03C48364B9847022353E0AA
:102EB0003A48344B984702234EE03948314B984703
:102EC000022349E007F108031846364B98470023D0
:102ED00087F86E303A6997F86E3007F128010B4495
:102EE00010461946062200232F4CA04703461A46D7
:102EF00097F86E30134487F86E3097F86E3007F10C
:102F00002802134418462949294B984703461A4674
:102F100097F86E30134487F86E30BA6997F86E30C0
:102F200007F128010B4410461946062200231E4CC7
:102F3000A04703461A4697F86E30134487F86E3060
:102F400007F128031B481946194B984707F1280336
:102F500018460C4B9847042318467437BD4690BD5D
:102F6000EDDB41007CF341008D634000CD67400004
:102F700080ED410030070020340700203807002092
:102F800088F34100B11C4000A1654000B4F341004A
:102F9000DCF3410014F441004CF4410084F441009E
:102FA000E8F24100DDDD4000A9644000BCF44100CE
:102FB000E563400022F9012080B582B000AF0346EE
:102FC0003960FB803B6801330E4819460E4B984729
:102FD0000346002B03D00D4B984703230DE03B68BD
:102FE00001330B481946084B98470346002B03D082
:102FF000084B9847032300E0022318460837BD46D4
:1030000080BD00BFC0F441008D6340008D3B410096
:10301000C8F44100A53B410090B59BB002AF034608
:103020003960FB80002387F85F3007F10C03012231
:1030300000927C2201923868194650227C23184C59
:10304000A0470346002B22D007F10C031846154B6E
:1030500098470346DAB297F85F30134487F85F3039
:1030600097F85F3007F10C02134418460E490F4BD6
:10307000984703461A4697F85F30134487F85F3045
:1030800007F10C0318460A4B9847032303E009484D
:10309000094B9847022318466437BD4690BD00BFD0
:1030A000CD674000EDDB410030F34100E5634000B7
:1030B000F1DC400034F34100B11C400090B589B010
:1030C00002AF03463960FB800023BB600023FB7521
:1030D00007F10C03012200927C2201923868194604
:1030E0000A227C23154CA0470346002B15D007F17C
:1030F0000C031846124B98470346FB75FB7D07F1FE
:10310000080107F10C02084611461A460D4B984774
:103110000346002B03D102230BE0022309E0BB6826
:103120001846094B98470346002B01D0032300E0C3
:10313000012318461C37BD4690BD00BFCD67400037
:10314000EDDB41001160400045CE400090B5B1B0CC
:1031500000AF03463960FB80002387F8BF3007F1DA
:1031600028031846504B984703461A4697F8BF3035
:10317000134487F8BF3007F1080318464B4B9847B4
:1031800097F8BF3007F12802134418464849494BC5
:10319000984703461A4697F8BF30134487F8BF3064
:1031A0003A6997F8BF3007F128010B4410461946D9
:1031B00006220023404CA04703461A4697F8BF302A
:1031C000134487F8BF3097F8BF3007F12802134443
:1031D00018463A49374B984703461A4697F8BF3086
:1031E000134487F8BF30BA6997F8BF3007F1280158
:1031F0000B4410461946062200232F4CA0470346D5
:103200001A4697F8BF30134487F8BF3097F8BF309D
:1032100007F12802134418462949264B98470346CC
:103220001A4697F8BF30134487F8BF30254B1A6809
:1032300097F8BF3007F128010B44104619460222C7
:1032400000231D4CA04703461A4697F8BF3013448D
:1032500087F8BF3097F8BF3007F1280213441846AB
:103260001949144B984703461A4697F8BF30134440
:1032700087F8BF3097F8BF3007F12802134418468B
:10328000124B984703461A4697F8BF30134487F805
:10329000BF3007F128030E481946064B9847042310
:1032A0001846C437BD4690BDE1544000DDDD400006
:1032B00030F34100E5634000A9644000D0F44100D0
:1032C000D4F44100500B0020DCF44100296F400091
:1032D00022F90120F0B5ADB004AF03463960FB80A0
:1032E000002387F89F30144B187A134B597A124BEE
:1032F0001A7E114BDB69104CE6680F4C256997F874
:103300009F4007F1080E74440096019502940B4CFF
:10331000A04703461A4697F89F30134487F89F301A
:1033200007F1080306481946064B98470423184638
:10333000A437BD46F0BD00BF70D301200117400087
:1033400022F90120E563400080B582B000AF002083
:103350000121134B984700BE05237B6017E0032033
:103360000321104B9847104B3B6000BF3B685A1E2F
:103370003A60002BFAD1012001210A4B98470A4BF1
:103380003B6000BF3B685A1E3A60002BFAD17B6855
:103390005A1E7A60002BE2D10448054B9847FEE79D
:1033A0001D8C41009D6E40008096980000140E40D8
:1033B000B11B400080B58CB000AF78607B681B68A3
:1033C000FB627B685B68BB627B689B687B627B6837
:1033D000DB683B627B681B69FB617B685B69BB6187
:1033E0007B689B697B617B68DB693B610F4B9B6AF8
:1033F000FB60002002210E4B98473B6901201946D3
:103400000B4B9847FB6802201946094B9847BB694C
:1034100003201946064B98477B6904201946044B44
:10342000984700BE0348044B9847FEE700ED00E0D4
:103430001D8C410000140E40B11B400080B500AF50
:10344000384B01221A70374B00225A7036483749E0
:10345000374B9847374B1A68324B9A613648374991
:10346000334B984736483749314B984736483749A8
:103470002F4B9847364835492D4B984735483649A4
:103480002B4B984735483649294B9847254B002206
:10349000C3F88820234B052283F88C20214B00227F
:1034A000C3F890201F4B2F4AC3F894201D4B2E4A7F
:1034B000C3F898201B4B2C4AC3F89C20194B4FF49F
:1034C0009672A3F8A020174B4FF49672A3F8A2208F
:1034D000144B3C22A3F8A420124B0022C3F8A820CE
:1034E000104B0022C3F8AC200E4B0322C3F8B020CF
:1034F0000C4B1E22C3F8B4200A4B0722C3F8B82095
:10350000084B5A22C3F8BC20064B4FF47A72C3F81A
:10351000C020044B012283F8C420024B002283F810
:10352000C52080BD94D3012096D30120743A420077
:10353000E5634000843A4200B0D3012098FB41008B
:10354000C4D30120A4FB4100D8D30120ACFB41002F
:10355000ECD3012000D40120B0FB410014D40120A1
:10356000BCFB41000000E0400000C04080B483B0DC
:1035700000AF78607B681B681A467B685B68D31A6B
:1035800018460C37BD465DF8047B704780B483B0A5
:1035900000AF78607B68202B08D07B68092B05D0B2
:1035A0007B680D2B02D07B680A2B01D1012300E040
:1035B000002318460C37BD465DF8047B704700BFFA
:1035C00080B582B000AF786004E07B685B685A1C0D
:1035D0007B685A607B685A687B681B689A4208D28D
:1035E0007B685B681B781846034B98470346002BA3
:1035F000EBD10837BD4680BD8D35400080B582B027
:1036000000AF78607868094B98477B685A687B6898
:103610001B689A4203D27B685B681B7801E04FF01D
:10362000FF3318460837BD4680BD00BFC135400096
:1036300080B584B000AF7860396078680D4B9847EA
:10364000F860FA683B689A4206D17B685B685A1C4E
:103650007B685A60002308E0FB68B3F1FF3F02D1AA
:103660006FF0010301E04FF0FF3318461037BD46FD
:1036700080BD00BFFD35400080B483B000AF7860EE
:103680007B68602B02DD7B687A2B05DD7B68402B35
:1036900004DD7B685A2B01DC012300E0002318467F
:1036A0000C37BD465DF8047B704700BF80B483B023
:1036B00000AF78607B682F2B04DD7B68392B01DC41
:1036C000012300E0002318460C37BD465DF8047B5B
:1036D000704700BF80B582B000AF786078680C4B4F
:1036E00098470346002B0BD17B68602B02DD7B687B
:1036F000662B05DD7B68402B04DD7B68462B01DCF7
:10370000012300E0002318460837BD4680BD00BFF6
:10371000AD36400080B582B000AF786039607B681C
:103720001B78223B532B00F2E28001A252F823F0D7
:10373000DF384000EF384000EF384000EF384000FD
:10374000EF384000EF384000EF384000EF384000DD
:10375000EF384000EF384000EF384000EF384000CD
:10376000EF384000DF384000EF384000EF384000CD
:10377000EF384000EF384000EF384000EF384000AD
:10378000EF384000EF384000EF384000EF3840009D
:10379000EF384000EF384000EF384000EF3840008D
:1037A000EF384000EF384000EF384000EF3840007D
:1037B000EF384000EF384000EF384000EF3840006D
:1037C000EF384000EF384000EF384000EF3840005D
:1037D000EF384000EF384000EF384000EF3840004D
:1037E000EF384000EF384000EF384000EF3840003D
:1037F000EF384000EF384000EF384000EF3840002D
:10380000EF384000EF384000EF384000EF3840001C
:10381000EF384000EF384000DF384000EF3840001C
:10382000EF384000EF384000EF384000EF384000FC
:10383000DF384000EF384000EF384000EF384000FC
:10384000DF384000EF384000EF384000EF384000EC
:10385000EF384000EF384000EF384000EF384000CC
:10386000DF384000EF384000EF384000EF384000CC
:10387000DF384000EF384000DF384000813840003A
:103880003B68052B28DD7B6801331B7818461B4BF2
:1038900098470346002B1CD07B6802331B781846E0
:1038A000164B98470346002B13D07B6803331B78D5
:1038B0001846124B98470346002B0AD07B68043306
:1038C0001B7818460D4B98470346002B01D0052363
:1038D00001E04FF0FF3301E06FF0010309E03B68C6
:1038E000012B02DC6FF0010300E0012301E04FF047
:1038F000FF3318460837BD4680BD00BFD5364000AF
:1039000080B586B000AFF860B9601346FB71FB6804
:103910005B69002B21D0FB681A69FB68DB689A425F
:103920001BDBFB68DB68002B03D0FB68DB685B00FC
:1039300000E064237B617B691B0118461D4B98479F
:1039400038613B69002B02D16FF002032EE0FB6867
:103950007A69DA60FB683A699A60FB689B68002BB9
:1039600003D0FB68DB68002B01D100231EE0FB685D
:103970001A69FB68DB689A4202DB6FF0020315E00C
:10398000FB689A68FB681B691B011344BA681A60DC
:10399000FB689A68FB681B691B011344FA791A7368
:1039A000FB681B695A1CFB681A610023184618370C
:1039B000BD4680BDAD50410080B485B000AFF86019
:1039C000B9607A60FB689B68002B03D0FB68DB68FA
:1039D000002B01D1002324E0BB68002B04DBFB6833
:1039E000DA68BB689A4202DC4FF0FF3319E0FB68EB
:1039F0009A68BB681B0113447968FA689068BA68D2
:103A00001201024412688A1A5A60FB689A68BB68FD
:103A10001B011344FA681269511EBA688A1A9A6027
:103A2000002318461437BD465DF8047B704700BF7D
:103A300080B584B000AF78607868254B984703461E
:103A40001846244B98470346002B02D14FF0FF3312
:103A50003AE07B685B687868194601221E4B9847FC
:103A6000F860FB68002B01DAFB682DE004E07B685E
:103A70005B685A1C7B685A607B685A687B681B6865
:103A80009A4216D27B685B681B785F2BEFD07B680D
:103A90005B681B7818460F4B98470346002BE6D10E
:103AA0007B685B681B7818460C4B98470346002BD5
:103AB000DDD17B681B695A1E7B685B68786811469C
:103AC0001A46074B9847002318461037BD4680BD5D
:103AD000FD3540007936400001394000AD364000E8
:103AE000B939400080B483B000AF0346FB71FB7965
:103AF0005BB2002B01DB01230BE0FB7903F0F00349
:103B0000E02B03D0F02B03D1042302E0032300E0D9
:103B1000022318460C37BD465DF8047B704700BF92
:103B200090B589B000AF78600023FB610023BB61D2
:103B3000786822213A4B984778617B69002B01DA3B
:103B40007B6969E07B685B68786819460122354BC0
:103B5000984738613B69002B01DA3B695CE04EE035
:103B60007B685B681B78FB61FB69DBB218462E4BF8
:103B70009847B861FB691F2B02DDBB69002B02DC93
:103B80004FF0FF3348E07868284B98470246BB69FE
:103B90009A4202DC6FF001033EE0FB695C2B15D119
:103BA0007B685B685C1C7868204B9847034620461E
:103BB00019461F4B9847F860FB68002B01DCFB6837
:103BC0002AE0BA69FB681344BB6112E0FB69222B4F
:103BD0000FD17B681B695A1E7B685B687868114649
:103BE0001A46144B98477B685B685A1C7B685A607E
:103BF0000BE07B685A68BB691A447B685A607B6833
:103C00005A687B681B689A42AAD3FB69222B01D1B0
:103C1000002301E06FF0010318462437BD4690BD34
:103C20003136400001394000E53A40006D35400032
:103C300015374000B939400080B584B000AF7860D6
:103C40007868714B9847F8607B685B6878681946BC
:103C500002226E4B9847B860BB68002B01DABB6844
:103C6000CDE0FB682D2B04D17B685B685A1C7B6818
:103C70005A607B685A687B681B689A4202D36FF06F
:103C80000103BCE07B685B681B781846604B984773
:103C90000346002B02D14FF0FF33B0E004E07B6815
:103CA0005B685A1C7B685A607B685A687B681B6833
:103CB0009A4208D27B685B681B781846544B984739
:103CC0000346002BEBD17B685A687B681B689A42DD
:103CD00033D27B685B681B782E2B2ED17B685B68A8
:103CE0005A1C7B685A607B685A687B681B689A42DA
:103CF00002D36FF0010382E07B685B681B78184693
:103D0000434B98470346002B02D14FF0FF3376E038
:103D100004E07B685B685A1C7B685A607B685A6861
:103D20007B681B689A4208D27B685B681B781846E0
:103D3000374B98470346002BEBD17B685A687B686A
:103D40001B689A4250D27B685B681B78652B04D055
:103D50007B685B681B78452B46D17B685B685A1C87
:103D60007B685A607B685A687B681B689A4202D3FA
:103D70006FF0010343E07B685B681B782B2B04D05A
:103D80007B685B681B782D2B04D17B685B685A1CB1
:103D90007B685A607B685A687B681B689A4202D3CA
:103DA0006FF001032BE07B685B681B781846184BAB
:103DB00098470346002B02D14FF0FF331FE004E089
:103DC0007B685B685A1C7B685A607B685A687B68B2
:103DD0001B689A4208D27B685B681B7818460C4BBC
:103DE00098470346002BEBD17B681B695A1E7B6802
:103DF0005B68786811461A46064B984700231846B8
:103E00001037BD4680BD00BFFD3540000139400080
:103E1000AD364000B939400080B588B000AF786059
:103E200078685B21254B9847F861FB69002B01DA24
:103E3000FB693EE07B685B68013B786819460722B6
:103E40001F4B9847B861BB69002B01DABB6930E0B2
:103E50007B681B69013B7B6113E07868194B9847CD
:103E600038613B69002B01DA3B6922E07868164B28
:103E7000984703462C2B04D17B685B685A1C7B68EF
:103E80005A607868104B984703465D2BE5D17868F7
:103E90005D210A4B9847F860FB68002B01DAFB684C
:103EA00007E07B685B68786879691A46074B984732
:103EB000002318462037BD4680BD00BF3136400084
:103EC00001394000213F4000FD354000B939400034
:103ED00080B487B000AFF860B9607A6000237B617E
:103EE00002E07B6901337B617A697B689A4209DA77
:103EF0007B69FA6813441A787B69B9680B441B78AC
:103F00009A42EED07A697B689A4214BF002301235B
:103F1000DBB218461C37BD465DF8047B704700BF16
:103F200080B58AB000AF78607868764B9847786241
:103F30007B6A222B09D17868734B984738623B6AB9
:103F4000002B01DA3B6AD9E0D7E07B6A7B2B09D1F1
:103F500078686E4B9847F861FB69002B01DAFB69C2
:103F6000CCE0CAE07B6A5B2B09D17868684B984744
:103F7000B861BB69002B01DABB69BFE0BDE07B6AB9
:103F80006E2B2CD17868634B98470346042B26DDB3
:103F90007B685B68184660490422604B984703467B
:103FA000002B1CD07B685B687868194606225C4B46
:103FB000984778617B69002B01DA7B699EE07B681A
:103FC0005B681A1D7B685A607B681B695A1E7B6898
:103FD0005B68786811461A46524B98478DE07B6AB9
:103FE000742B2CD178684B4B98470346042B26DD65
:103FF0007B685B6818464C490422484B9847034647
:10400000002B1CD07B685B68786819460422444BFF
:10401000984738613B69002B01DA3B696EE07B68A9
:104020005B681A1D7B685A607B681B695A1E7B6837
:104030005B68786811461A463A4B98475DE07B6AA0
:10404000662B2CD17868334B98470346052B26DD29
:104050007B685B68184635490522304B9847034614
:10406000002B1CD07B685B687868194605222C4BB6
:104070009847F860FB68002B01DAFB683EE07B683C
:104080005B685A1D7B685A607B681B695A1E7B6897
:104090005B68786811461A46224B98472DE0786A8B
:1040A000234B98470346002B13D17B6A2D2B1AD143
:1040B0007B685B685A1C7B681B689A4213D27B68DA
:1040C0005B6801331B781846194B98470346002B51
:1040D00009D07868174B9847B860BB68002B01DAA5
:1040E000BB680BE009E07B6AB3F1FF3F02D16FF0E0
:1040F000010301E04FF0FF3300E0002318462837AA
:10410000BD4680BDFD354000213B400009424000D6
:10411000193E40006D354000C4FB4100D13E4000D7
:1041200001394000B9394000CCFB4100D4FB4100CB
:10413000AD364000393C400080B586B000AF7860B5
:104140007868174B984778617869164B984703460B
:10415000002B09D07868144B984738613B69002BD5
:1041600001DA3B6918E016E07B69222B09D17868F7
:104170000E4B9847F860FB68002B01DAFB680BE0F8
:1041800009E07B69B3F1FF3F02D16FF0010301E069
:104190004FF0FF3300E0002318461837BD4680BDBE
:1041A000FD35400079364000313A4000213B400067
:1041B00080B586B000AF78607868104B984778611A
:1041C0007B69002B01DA7B6913E078683A210C4B9C
:1041D000984738613B69002B01DA3B6909E0786850
:1041E000084B9847F860FB68002B01DAFB6800E099
:1041F000002318461837BD4680BD00BF3941400036
:1042000031364000213F400080B588B000AF786073
:1042100078687B21254B9847F861FB69002B01DA10
:10422000FB693EE07B685B68013B786819460322C6
:104230001F4B9847B861BB69002B01DABB6930E0BE
:104240007B681B69013B7B6113E07868194B9847D9
:1042500038613B69002B01DA3B6922E07868164B34
:10426000984703462C2B04D17B685B685A1C7B68FB
:104270005A607868104B984703467D2BE5D17868E3
:104280007D210A4B9847F860FB68002B01DAFB6838
:1042900007E07B685B68786879691A46074B98473E
:1042A000002318462037BD4680BD00BF3136400090
:1042B00001394000B1414000FD354000B9394000AE
:1042C00080B584B000AF78607B685B68002B05D058
:1042D0007B681A687B685B689A4202D24FF0FF33B2
:1042E00028E07B681A687B685B689A4202D16FF0AD
:1042F00001031FE07868114B9847F860FB68002BBA
:1043000001DAFB6816E07B685B6878681946002272
:104310000B4B9847B860BB68002B01DABB6809E01B
:104320007B681A697B685B68786811461A46054B9A
:104330009847002318461037BD4680BD094240000B
:1043400001394000B939400080B58CB000AFF86049
:10435000B9607A603B60BB68FA6813447B61FB68B4
:10436000BB617B68FB613B683B6200237B6200238F
:10437000BB6207F114031846074B9847F862FB6AC3
:10438000002B01DAFB6A03E0BB691A46FB68D31A0B
:1043900018463037BD4680BDC142400080B485B06C
:1043A00000AF78600023FB6002E0FB680133FB6034
:1043B000FB687A6813441B78002B0BD0FB687A6883
:1043C00013441B785B2B05D0FB687A6813441B7879
:1043D0002E2BEAD1FB6818461437BD465DF8047BE6
:1043E000704700BF80B588B000AF78603960E1E009
:1043F0000023BB614FF0FF337B6102233B613868D0
:10440000734B9847F8603B681B785B2B49D17B68FE
:104410001B7B072B08D13B6801331B7818466D4B7B
:1044200098470346002B01D10023CCE000237B6199
:104430000123FB601CE0FB683A6813441B781846B4
:10444000644B98470346002B01D10023BBE07A69F7
:1044500013469B0013445B007B61FB683A6813447E
:104460001B78303B7A6913447B61FB680133FB6046
:10447000FB683A6813441B785D2B05D0FB683A68EB
:1044800013441B78002BD6D1FB685A1CFA603A689B
:1044900013441B785D2B01D0002394E001233B6182
:1044A00005E07B681B7B032B01D000238BE07B683E
:1044B00010337B600023FB6155E07B69B3F1FF3F64
:1044C00008D1FB691B017A6813441B7B012B01D0C7
:1044D000002378E0BA697B699A4218D07B69B3F10E
:1044E000FF3F1AD1FB691B017A6813445A68FB68C5
:1044F0009A4212D1FB691B017A6813441B68386821
:104500001946FA68344B98470346002B05D03B699F
:10451000013BFA691344FB612BE0FB695A1E3B69BE
:1045200013441B017A6813441B7B072B09D0FB69DA
:104530005A1E3B6913441B017A6813441B7B032BEF
:104540000AD1FB695A1E3B6913441B017A68134464
:104550009B68FA691344FB61FA693B691344FB6188
:10456000BB690133BB617B68103B9A68FB699A4267
:10457000A3DC7B68103B9A68FB699A4201D1002357
:1045800021E0FB683A6813443B603B681B782E2BA4
:1045900002D13B6801333B603B681B78002B04D1A0
:1045A000FB691B017A6813440DE0FB691B017A6803
:1045B00013447B603B68002B04D03B681B78002BC6
:1045C0007FF416AF002318462037BD4680BD00BFDC
:1045D0009D434000AD364000D13E400090B58DB0C7
:1045E00002AF0A237B6206E04FF47A70434B984790
:1045F0007B6A013B7B62424B1B78012B02D07B6ABA
:10460000002BF1D13E4B1B78012B5DD13C4BD3F8F5
:104610009030002B4DD03A4BD3F8902064239A422F
:104620003CD8374BD3F890301846364B9847034662
:10463000002B05D0324BD3F89020334B5A6002E068
:10464000314B00225A60002387F8233097F823303B
:104650003A1D134418462D492D4B984703461A46D8
:1046600097F82330134487F82330254BD3F8903044
:104670001A4697F82330391D0B441046194600227C
:10468000244B984703461A4697F82330134487F87B
:1046900023303B1D1846204B98471FE0184B002243
:1046A000C3F89020184B00225A601C481A4B9847B8
:1046B00014E0134B0022C3F89020134B00225A60E1
:1046C0001748154B984709E00D4B0022C3F890207E
:1046D0000D4B00225A6013480F4B9847084BD3F8F4
:1046E0009030002B07D1104B0093012002210022B3
:1046F00001230E4CA0472C37BD4690BDB568410044
:1047000094D30120B14D400048060220E8FB41004F
:10471000E5634000015F4000C55E400000FC4100D1
:1047200034FC410088FC4100B0FC410021FF400006
:1047300080B5AAB000AFF8607A603B600B46FB72B0
:104740007B68002B01D100238CE07868474B9847A9
:1047500003460F2B01D9002384E0454BD3F890206A
:1047600064239A427DD2424BD3F8902041491346AC
:10477000DB0013449B000B4401221A703C4BD3F81E
:1047800090203C491346DB0013449B000B44FA681D
:104790005A60374BD3F8902036491346DB00134458
:1047A0009B000B44FA7A5A70314BD3F89020134691
:1047B000DB0013449B0003F108022E4B1344184600
:1047C00079682D4B98472A4BD3F8902029491346F6
:1047D000DB0013449B000B4418333A681A60244BE7
:1047E000D3F8902023491346DB0013449B000B446D
:1047F0001833D7F8B0205A601D4BD3F890201D49CC
:104800001346DB0013449B000B442033D7F8B4203D
:104810001A60174BD3F89010154BD3F8902013461D
:10482000DB0013449B00134A134408461946134BFC
:1048300098470F4BD3F890201346DB0013449B009E
:104840000C4A1A4407F11003104619460C4B9847BE
:10485000074BD3F890305A1C054BC3F89020012326
:1048600000E000231846A837BD4680BDEDDB4100BF
:1048700094D3012068D40120E5634000154D400029
:10488000AD4E400080B5AAB000AFF860B9607A6064
:10489000FB70D7F8B030002B01D100232FE0D7F800
:1048A000B000194B984703460F2B01D9002326E08F
:1048B000BB6801221A70BB687A685A60BB68FA78D4
:1048C0005A70BB6808331846D7F8B0100F4B98479A
:1048D000BB68D7F8B4209A61BB68D7F8B820DA6112
:1048E000BB68D7F8BC201A62F868B968084B9847CB
:1048F00007F11003B8681946064B9847012318467C
:10490000A837BD4680BD00BFEDDB4100E563400038
:10491000154D4000AD4E400080B584B000AF7860CA
:1049200039600023FB73FB7B5A1CFA733A6813440B
:104930007A6812781A70FB7B5A1CFA733A6813442F
:104940007A6852781A70FB7B5A1CFA733A681344DF
:104950007A685268120ED2B21A70FB7B5A1CFA7334
:104960003A6813447A685268120CD2B21A70FB7B10
:104970005A1CFA733A6813447A685268120AD2B21F
:104980001A70FB7B5A1CFA733A6813447A685268AF
:10499000D2B21A70FB7B3A681A447B68083310461F
:1049A00019461022424B9847FB7B1033FB737B6800
:1049B0001833BB60FB7B5A1CFA733A681344BA681D
:1049C0001268120ED2B21A70FB7B5A1CFA733A6844
:1049D0001344BA681268120CD2B21A70FB7B5A1CCC
:1049E000FA733A681344BA681268120AD2B21A709B
:1049F000FB7B5A1CFA733A681344BA681268D2B245
:104A00001A707B681C33BB60FB7B5A1CFA733A68D4
:104A10001344BA681268120ED2B21A70FB7B5A1C89
:104A2000FA733A681344BA681268120CD2B21A7058
:104A3000FB7B5A1CFA733A681344BA681268120A6C
:104A4000D2B21A70FB7B5A1CFA733A681344BA68E4
:104A50001268D2B21A707B682033BB60FB7B5A1C91
:104A6000FA733A681344BA681268120ED2B21A7016
:104A7000FB7B5A1CFA733A681344BA681268120C2A
:104A8000D2B21A70FB7B5A1CFA733A681344BA68A4
:104A90001268120AD2B21A70FB7B5A1CFA733A6877
:104AA0001344BA681268D2B21A701037BD4680BD7E
:104AB0005164400080B584B000AF78603960002355
:104AC000FB73FB7B5A1CFA733A6813441A787B68B1
:104AD0001A70FB7B5A1CFA733A6813441A787B6885
:104AE0005A707B6800225A607B685A68FB7B591CAD
:104AF000F97339680B441B781B061A437B685A60AC
:104B00007B685A68FB7B591CF97339680B441B7826
:104B10001B041A437B685A607B685A68FB7B591CEC
:104B2000F97339680B441B781B021A437B685A607F
:104B30007B685A68FB7B591CF97339680B441B78F6
:104B40001A437B685A607B6803F10802FB7B396873
:104B50000B44104619461022534B9847FB7B1033E9
:104B6000FB737B681833BB60BB6800221A60BB68AC
:104B70001A68FB7B591CF97339680B441B781B06B8
:104B80001A43BB681A60BB681A68FB7B591CF9732F
:104B900039680B441B781B041A43BB681A60BB6856
:104BA0001A68FB7B591CF97339680B441B781B028C
:104BB0001A43BB681A60BB681A68FB7B591CF973FF
:104BC00039680B441B781A43BB681A607B681C3336
:104BD000BB60BB6800221A60BB681A68FB7B591C6B
:104BE000F97339680B441B781B061A43BB681A60BB
:104BF000BB681A68FB7B591CF97339680B441B7836
:104C00001B041A43BB681A60BB681A68FB7B591CFB
:104C1000F97339680B441B781B021A43BB681A608E
:104C2000BB681A68FB7B591CF97339680B441B7805
:104C30001A43BB681A607B682033BB60BB680022E4
:104C40001A60BB681A68FB7B591CF97339680B44FE
:104C50001B781B061A43BB681A60BB681A68FB7B8B
:104C6000591CF97339680B441B781B041A43BB6841
:104C70001A60BB681A68FB7B591CF97339680B44CE
:104C80001B781B021A43BB681A60BB681A68FB7B5F
:104C9000591CF97339680B441B781A43BB681A60B6
:104CA0001037BD4680BD00BF5164400080B582B062
:104CB00000AF0023FB7119E0F979FA791346DB00A4
:104CC00013449B000F4A1344084619460E4B98475D
:104CD000034683F00103DBB2002B01D000230CE07C
:104CE00064200A4B9847FB790133FB71FA79084B32
:104CF000D3F890309A42DFD3012318460837BD46D7
:104D000080BD00BF68D40120154D4000B56841004A
:104D100094D3012090B5A9B002AF786039607B6868
:104D200003F580339B01C7F89430402387F8933014
:104D3000042387F89230012387F8913007F10801A6
:104D400097F8932097F8913097F8920000900846D2
:104D5000D7F89410104CA04707F1080307333868C0
:104D600019460E4B98470E4B1A6807F10803104678
:104D700019464FF47A7200230A4CA0470346012BD0
:104D800001D1012303E00848084B98470023184647
:104D90009C37BD4690BD00BF21CC40001949400062
:104DA00014070020DD574100CCFC4100C55E4000E7
:104DB00080B586B000AF78600023FB750523FB73D8
:104DC00000233B6117E038690F4B98470346002BDF
:104DD00005D1FB7D0133FB750C480D4B9847FA7DDF
:104DE000FB7B9A4204D90B48094B9847002307E004
:104DF0003B6901333B613A697B689A42E3D3012303
:104E000018461837BD4680BD194E40000CFD4100C4
:104E1000C55E40002CFD410090B5A9B002AF78609E
:104E20000023C7F89430402387F89330042387F891
:104E30009230032387F891307B6803F580339B0120
:104E4000C7F8943007F1080197F8932097F891304C
:104E500097F8920000900846D7F894100E4CA0479F
:104E60000346002B0FD07A681346DB0013449B00E7
:104E70000A4A1A4407F10803073310461946084B3B
:104E80009847012303E00748074B9847002318463B
:104E90009C37BD4690BD00BF15CD400068D40120B1
:104EA000B54A400060FD4100C55E400090B585B048
:104EB00000AF786039600023FB737B68002B02D061
:104EC0003B68002B01D1002399E0FB7B3A68134437
:104ED00018464D494D4B984703461A46FB7B1344F1
:104EE000FB73FB7B3A68134418464949474B984784
:104EF00003461A46FB7B1344FB737B685B681A46C8
:104F0000FB7B39680B44104619460422414B9847F5
:104F100003461A46FB7B1344FB73FB7B3A6813443E
:104F200018463D49394B984703461A46FB7B1344C4
:104F3000FB73FB7B3A681A447B68083310461946BA
:104F4000324B984703461A46FB7B1344FB73FB7BAB
:104F50003A681344184631492C4B984703461A4681
:104F6000FB7B1344FB737B689A69FB7B39680B44BA
:104F70001046194606220023294CA04703461A462C
:104F8000FB7B1344FB73FB7B3A68134418462549AB
:104F90001E4B984703461A46FB7B1344FB737B6802
:104FA000DA69FB7B39680B44104619460622002358
:104FB0001B4CA04703461A46FB7B1344FB73FB7B49
:104FC0003A68134418461849104B984703461A4646
:104FD000FB7B1344FB737B681A6AFB7B39680B44C9
:104FE00010461946022200230D4CA04703461A46DC
:104FF000FB7B1344FB7338680C4B9847012318461E
:105000001437BD4690BD00BF8CFD4100E5634000F4
:1050100094FD4100015F40009CFD4100A8FD41005E
:10502000A9644000B4FD4100C0FD4100C55E4000E0
:1050300090B59BB000AF002387F8673097F86730D2
:105040003A4613441846AC49AC4B984703461A46B7
:1050500097F86730134487F86730A94BD3F890303E
:105060001A4697F8673039460B4410461946002215
:10507000A44B984703461A4697F86730134487F8BD
:10508000673097F867303A46134418469E499B4B61
:10509000984703461A4697F86730134487F86730F5
:1050A00064231A4697F8673039460B441046194670
:1050B0000022944B984703461A4697F867301344EA
:1050C00087F8673097F867303A46134418468F4997
:1050D0008A4B984703461A4697F86730134487F877
:1050E00067303B4618468A4B98470A20894B9847B9
:1050F000002387F8673097F867303A46134418461C
:1051000085497E4B984703461A4697F86730134403
:1051100087F8673097F867303A46134418467F4956
:10512000764B984703461A4697F86730134487F83A
:10513000673097F867303A461344184678496F4B02
:10514000984703461A4697F86730134487F8673044
:1051500097F867303A46134418467249674B9847A8
:1051600003461A4697F86730134487F8673097F874
:1051700067303A46134418466B49604B98470346DC
:105180001A4697F86730134487F8673097F8673006
:105190003A46134418466549584B984703461A4601
:1051A00097F86730134487F8673097F867303A46C6
:1051B000134418465E49514B984703461A4697F8E0
:1051C0006730134487F867303B461846504B984782
:1051D0000A20504B9847002387F8663065E100238A
:1051E00087F8673097F867303A46134418465149B4
:1051F000424B984703461A4697F86730134487F89E
:10520000673097F8662097F8673039460B441046A8
:10521000194602223B4B984703461A4697F86730D7
:10522000134487F8673097F867303A4613441846B6
:105230004149324B984703461A4697F86730134462
:1052400087F8673097F866203C491346DB00134423
:105250009B000B445B681A4697F8673039460B444D
:10526000104619460422274B984703461A4697F8DA
:105270006730134487F8673097F867303A4613442D
:1052800018462D491D4B984703461A4697F8673034
:10529000134487F8673097F867303A46D11897F883
:1052A00066201346DB0013449B0003F10802234BE6
:1052B000134408461946114B984703461A4697F877
:1052C0006730134487F8673097F866201346DB0091
:1052D00013449B0003F10802184B13441846184B63
:1052E00098470346DBB2C3F1100387F8643000230C
:1052F00087F865303AE000BFCCFD4100E56340002F
:1053000094D30120015F4000D8FD4100DCFD410045
:10531000C55E4000B56841008CFD4100E0FD4100E4
:10532000E8FD4100F4FD41000CFE41001CFE41007F
:105330002CFE410038FE41003CFE410068D40120B3
:10534000EDDB410097F867303A46134418465C4954
:105350005C4B984703461A4697F86730134487F822
:10536000673097F86530013387F8653097F8652026
:1053700097F864309A42E5D397F867303A46134479
:10538000184651494F4B984703461A4697F86730DD
:10539000134487F8673097F866204C491346DB00C2
:1053A00013449B000B4418331A6897F8673039464A
:1053B0000B441046194606220023454CA0470346DD
:1053C0001A4697F86730134487F8673097F86730C4
:1053D0003A46134418463C493A4B984703461A4606
:1053E00097F86730134487F8673097F86620374995
:1053F0001346DB0013449B000B4418335A6897F89C
:10540000673039460B441046194606220023304CBB
:10541000A04703461A4697F86730134487F8673069
:1054200097F867303A46134418462749254B984762
:1054300003461A4697F86730134487F8673097F8A1
:10544000662022491346DB0013449B000B442033A3
:105450001A6897F8673039460B44104619460222FD
:1054600004231B4CA04703461A4697F867301344A1
:1054700087F8673097F867303A4613441846124960
:10548000104B984703461A4697F86730134487F83D
:1054900067303B4618460F4B98470A200E4B9847FB
:1054A00097F86630013387F8663097F866200B4B23
:1054B000D3F890309A42FFF492AE6C37BD4690BD5F
:1054C00038FE4100E56340003CFE410068D4012005
:1054D000A9644000C55E4000B568410094D3012036
:1054E00080B584B000AF78607B68002B01D10023C9
:1054F00054E00023FB73FB7B7A6813441846294968
:10550000294B984703461A46FB7B1344FB73274BF2
:105510001B681A46FB7B79680B441046194600222B
:10552000234B984703461A46FB7B1344FB73FB7BD4
:105530007A68134418461F491B4B984703461A467E
:10554000FB7B1344FB73194B1B68002B16D0FB7BB2
:105550007A68D118184B1A681346DB0013449B0075
:1055600003F10802154B1344084619460E4B9847A1
:1055700003461A46FB7B1344FB730BE0FB7B7A6804
:10558000134418460E49084B984703461A46FB7BBE
:105590001344FB7378680B4B9847FB7B1846103716
:1055A000BD4680BD44FE4100E56340002C0600205E
:1055B000015F400050FE41002806002068D4012011
:1055C0005CFE4100C55E400080B584B000AF7860ED
:1055D0007B68002B01D1002333E00023FB7329E01B
:1055E000FA7B1A491346DB0013449B000B441B78DB
:1055F000002B1CD0FA7B1346DB0013449B00134A9C
:10560000134478681946124B98470346002B0ED076
:10561000FA7B104B1A60FA7B0C491346DB001344EB
:105620009B000B445A680C4B1A60012309E0FB7B7A
:105630000133FB73FA7B094BD3F890309A42CFD3F6
:10564000002318461037BD4680BD00BF68D4012036
:10565000D5564000280600202C06002094D30120B7
:1056600080B582B000AF78607B68002B01D1002349
:1056700023E0144BD3F89020134B1B689A421BD99C
:10568000114B1A6811491346DB0013449B000B446D
:105690001B78002B10D00C4B1A681346DB00134408
:1056A0009B000A4A134478681946094B98470346F9
:1056B000002B01D0012300E0002318460837BD4627
:1056C00080BD00BF94D301202806002068D40120AB
:1056D000D556400080B584B000AF786039607B68F3
:1056E000002B02D03B68002B01D1002312E03B6865
:1056F000183378681946094B9847F8603B681A6A6E
:10570000074B1046F96898470346002B01D0012348
:1057100000E0002318461037BD4680BD29574000E1
:1057200005D8410000000000F0B58DB000AF7860F2
:1057300039607B6859683B685A686D4B084611466A
:105740009847034619466B4A6B4B084611469847E3
:1057500003461A46694B1046984702460B46C7E96E
:105760000A237B6819683B681A68614B0846114632
:105770009847034619465F4A5F4B084611469847CB
:1057800003461A465D4B1046984702460B46C7E94A
:1057900008235B4CD7E908014FF000024FF080432B
:1057A000A04702460B4610461946564B98470246FC
:1057B0000B46104619464FF000024FF08043524C02
:1057C000A047C7E906017B6819684A4A4A4B084660
:1057D0001146984703461A46484B104698470246DA
:1057E0000B4610461946494B984704460D463B6800
:1057F0001968404A404B08461146984703461A46E6
:105800003E4B1046984702460B46104619463F4B02
:10581000984702460B463E4E20462946B047024670
:105820000B4614461D46364ED7E90A014FF00002DA
:105830004FF08043B04702460B4610461946314BA5
:10584000984702460B46104619464FF000024FF0AB
:1058500080432D4EB04702460B462D4E204629462A
:10586000B04702460B462B4CD7E90601A04702463B
:105870000B46C7E90623D7E90601274B984704469C
:105880000D46264E4FF000002549D7E90623B047C4
:1058900002460B46104619461F4B984702460B46D8
:1058A000204629461F4CA04702460B46194C10467D
:1058B0001946A04702460B46C7E904230AA3D3E9C9
:1058C0000023134C10461946D7E90423A04702468B
:1058D0000B46154C10461946A0470346FB60FB6873
:1058E00018463437BD46F0BD00000000C649584197
:1058F00079D2410035FA8E3C8DD4410065CB410010
:1059000061CE41009D9F410035A04100299F41008B
:105910000DCC4100A9C841002DA34100A5C84100FC
:105920000000F03F31A04100D1D14100AFF3008031
:1059300080B485B000AF78607B68002B06D07B68B0
:10594000B3F5805F02D20123FB730EE07B68B3F5F1
:10595000805F02D30223FB7307E07B68002B02D138
:105960000023FB7301E00023FB737A6841F201031B
:105970009A4201D10323FB73FB7B18461437BD46C3
:105980005DF8047B704700BFF0B5E7B004AF3B1D86
:105990001860012387F887310023C7F880313B1D49
:1059A0001868A94B984703461A46391D07F190031A
:1059B000086811461A460E23A44CA047C7F8800178
:1059C000D7F88031002B0DDBA148A24B984797F800
:1059D000873103F00103002B0CBF0023012387F85C
:1059E000873105E09C489B4B9847002387F8873117
:1059F00007F1900318469949994B9847C7F87C01DD
:105A0000D7F87C311B7B022B1AD19648914B9847D3
:105A1000D7F87C311A68D7F87C315B6807F18C01C4
:105A2000084611461A46904B984797F8873103F07D
:105A30000103002B0CBF0023012387F8873105E009
:105A40008A48844B9847002387F8873107F19003F1
:105A500018468749824B9847C7F87C01D7F87C31B4
:105A60001B7B012B22D183487A4B9847D7F87C3196
:105A70001A68D7F87C315B68DBB207F17801084619
:105A800011461A467C4B9847D7F87C315B6807F182
:105A900078020021D15497F8873103F00103002BDD
:105AA0000CBF0023012387F8873105E07348694B59
:105AB0009847002387F8873107F19003184670490B
:105AC000674B9847C7F87C01D7F87C311B7B032BC9
:105AD00040F08B806B485F4B98470023C7F87831C4
