:020000040040BA
:1000000080630020595B4000295C4000295C40006F
:10001000295C4000295C4000295C40000000000091
:10002000000000000000000000000000952A4000D1
:10003000295C400000000000652C4000A92C400015
:10004000295C4000295C4000295C4000295C40009C
:10005000295C4000295C4000295C4000295C40008C
:1000600019274000E9254000000000000D6840000D
:10007000256840003D684000D92740001526400013
:100080000000000000000000295C4000295C4000E6
:10009000295C4000AD254000295C4000295C4000FF
:1000A000295C4000295C4000295C4000295C40003C
:1000B000295C4000D1264000295C4000295C4000BA
:1000C000295C4000295C4000295C400010B5054CCB
:1000D000237833B9044B13B10448AFF300800123F4
:1000E000237010BD40040020000000003884400050
:1000F00008B5064B1BB106480649AFF30080064819
:10010000036813B1054B03B1984708BD0000000018
:10011000388440004404002038844000000000007F
:1001200080B400AFBD465DF8047B704780B485B0F5
:1001300000AF78607B689B6823F07F4323F4005313
:10014000FB60FB6843F025427B689A601437BD462C
:100150005DF8047B704700BF80B485B000AF786065
:100160007B689B6823F07F4323F48053FB60FB682C
:1001700043F0254343F480537A6893601437BD46B7
:100180005DF8047B704700BF80B483B000AF786037
:100190007B684FF400425A600C37BD465DF8047B23
:1001A000704700BF80B485B000AF78607B689B6803
:1001B000FB60FB6823F07F4323F00103FB60FB68D7
:1001C00043F02543FB607B68FA689A601437BD46AC
:1001D0005DF8047B704700BF80B483B000AF7860E7
:1001E0007B68034A1A600C37BD465DF8047B704794
:1001F000050000A580B582B000AF00200121134B9F
:10020000984700BE05237B6017E003200321104BB5
:100210009847104B3B6000BF3B685A1E3A60002B6A
:10022000FAD1012001210A4B98470A4B3B6000BFDD
:100230003B685A1E3A60002BFAD17B685A1E7A60DE
:10024000002BE2D10448054B9847FEE729624000A5
:100250004D0440008096980000140E40D9014000E3
:1002600080B58CB000AF78607B681B68FB627B68F0
:100270005B68BB627B689B687B627B68DB683B6218
:100280007B681B69FB617B685B69BB617B689B6901
:100290007B617B68DB693B610F4B9B6AFB600020E5
:1002A00002210E4B98473B69012019460B4B98479A
:1002B000FB6802201946094B9847BB690320194681
:1002C000064B98477B6904201946044B984700BEAB
:1002D0000348044B9847FEE700ED00E02962400028
:1002E00000140E40D901400080B500AF1A204FF035
:1002F00060510F4B984743204FF060510C4B98478B
:1003000043200C4B98471A200A4B984749204FF03E
:100310006051074B98474A204FF06051044B984773
:100320004A20044B98474920024B984780BD00BFA4
:1003300065654000E164400080B582B000AF0246D0
:100340000B46FA71BB71FB79012B39D1BB79062BB6
:1003500034D801A252F823F0BD03400075034000D9
:1003600091034000830340009F034000B503400019
:10037000AD0340004320324B98471A20304B98473A
:100380001DE01A202F4B984743202D4B984716E02D
:1003900043202C4B98471A20294B98470FE01A20EE
:1003A000294B98474320284B984708E01A20264BB2
:1003B000984704E04320244B984700E000BF3CE00E
:1003C000FB79022B39D1BB79062B35D801A252F823
:1003D00023F000BF39044000F10340000D04400049
:1003E000FF0340001B04400031044000290440008A
:1003F0004A20134B98474920114B98471DE049204C
:10040000104B98474A200E4B984716E04A200D4B58
:10041000984749200A4B98470FE049200A4B9847D4
:100420004A20094B984708E04920074B984704E0C9
:100430004A20054B984700E000BF0837BD4680BD05
:10044000E1644000B56440000D65400080B582B0B5
:1004500000AF02460B46FA71BB71FB7901201946C9
:10046000044B9847BB7902201946024B984708373E
:10047000BD4680BD3903400080B500AF014B9847B1
:1004800080BD00BF6505400080B586B000AF002389
:10049000FB75284B1B68002B04D12748274B984736
:1004A000002343E0264B1B68002B3CD1EFF3108365
:1004B000FB60FB683B610123BB60BB6883F3108872
:1004C000204B1B685A1C1F4B1A601A4B1B680122D9
:1004D0001A631D4B9847034618461C4B9847034622
:1004E000FB75FB7D002B10D10320194B9847034669
:1004F000FB75FB7D03201946164A174B9847FB7D79
:10050000032019460022154B9847FB7D1846144BD3
:1005100098470C4B1B685A1E0A4B1A603B697B605C
:100520007B6883F31088034B1B681B6B18461837D6
:10053000BD4680BD040500208C6F40006D0D40005D
:100540000C05002008050020412140002121400029
:10055000E9084000D86F4000F10B4000891E4000C0
:10056000AD1B400080B500AF7C4B1A687C4B1B680C
:100570001A447C4B1A607C4B7C4A1A607A4B1B688D
:10058000002B03D17A487B4B9847E5E0764B1B68FC
:10059000002B03D17848774B9847DDE0724B1B68FE
:1005A0001846002141F26C52744B98476E4B1B6801
:1005B00000221A706C4B1B6801225A706A4B1B6830
:1005C00002229A70684B1B680322DA70664B1B6824
:1005D00070221A71644B1B6871225A71624B1B683E
:1005E00072229A71604B1B687322DA715E4B1B6832
:1005F000F0221A725C4B1B68F1225A725A4B1B682C
:10060000F2229A72584B1B68F322DA72564B1B681F
:1006100041F6A1229A81544B1B6804229A73524BD3
:100620001B680022DA73504B1B6841F26C521A614E
:100630004D4B1B684FF47A729A614B4B1B684FF01D
:10064000F0325A65484B1B6800229A654C4B98471C
:10065000454B1B684FF0F132C3F8B024424B1B6886
:100660002022C3F8B424404B1B680122C3F8B824ED
:100670003D4B1B684FF07E52C3F85C253A4B1B681C
:100680004FF0F232C3F86425374B1B6803F5AD63B6
:1006900018463C4950223C4B9847334B1B684FF05F
:1006A000F332C3F8B825304B1B6803F5AB530A226D
:1006B0001A702D4B1B6803F5AB5301330B221A70D4
:1006C000294B1B6803F5AB5302330C221A70264BDF
:1006D0001B6803F5AB5303330D221A70224B1B68C2
:1006E00003F5AB53043371221A701F4B1B6803F5DB
:1006F000AB53053372221A701B4B1B6803F5AB53C7
:10070000063373221A70184B1B6803F5AB5307337B
:1007100074221A70144B1B6803F5AB530833F12293
:100720001A70114B1B6803F5AB530933F2221A7090
:100730000D4B1B6803F5AB530A33F3221A700A4BB7
:100740001B6803F5AB530B33F4221A700F4B984719
:100750000F4B98470F4B984780BD00BF041000E037
:100760001C050020D032002004050020641D00205C
:10077000407340006D0D400080734000E96C400004
:1007800055214000A8734000316E4000992240007E
:1007900099074000D113400080B582B000AF104BE4
:1007A0001B683B603B681B78002B13D100237B60E8
:1007B0000CE03A687B68134439687A680A44127816
:1007C0000132D2B21A707B6801337B607B680B2BDD
:1007D000EFD902E00348044B98470837BD4680BD77
:1007E00004050020BC7340006D0D400080B500AFD3
:1007F0000E4B1B681B6B002B01D1002314E00B4B2D
:100800001B68DB69B3F57A7F04D30948094B984725
:10081000002309E0054B1A68044B1B68DB699B0049
:1008200003F5B76313440433184680BD0405002064
:10083000E87340006D0D400080B582B000AF024605
:100840000B46FA71BB71BB79062B04D92148224BA8
:100850009847002339E0FB79002B08D01F4B1A681A
:10086000BB79134493F86430FA799A4204D91C484E
:10087000194B9847002328E0BB79062B21D8FB7938
:10088000002B1ED0154B1A68BB79134493F86430C3
:10089000FA799A4215D8114B1A68BB793C335B0040
:1008A00013449A880D4B1968BB790B4493F8743044
:1008B000F979013989B201FB03F39BB213449BB26E
:1008C00003E00848044B9847002318460837BD4604
:1008D00080BD00BF107440006D0D40000405002075
:1008E000507440009074400080B584B000AF03465F
:1008F000FB71FB79062B04D98E488F4B9847002358
:1009000013E1FA798D4B33F812301A468C4B1A608A
:100910008B4B1B68894A134493F83830002B13D152
:10092000874B1968864B1B68DAB2FB79834804331E
:100930005B000344DB88DBB2D31ADBB20133DAB2EB
:100940007E4B0B4483F838207D4B1B687B4A134455
:1009500093F83830FB73FA79784B33F81220FB792F
:1009600076490C335B000B449B889A420AD9FB7989
:100970001846744B9847034618466F4B9847002318
:10098000FB73D1E0FB796D4A32F81320013291B24A
:100990006A4A22F81310FA79684B33F812301A4673
:1009A000FB79664904335B000B44DB88D31ABB60D8
:1009B000FB79624A14335B0013445B881A46BB68B8
:1009C0009A4207DAFB79BA68D2B25C4914335B0009
:1009D0000B445A80FB79062B00F2A68001A252F844
:1009E00023F000BF010A4000310A4000610A4000C4
:1009F000930A4000290B4000C50A4000F70A400056
:100A0000FB7BDB08DBB2FA7BD208D2B24E498A5CB0
:100A1000D1B2FA7B02F00702012000FA02F2D2B250
:100A2000D243D2B20A40D2B2D1B2474AD1547AE0CC
:100A3000FB7B1033DB10FA7B1032D21042498A5C08
:100A4000D1B2FA7B02F00702012000FA02F2D2B220
:100A5000D243D2B20A40D2B2D1B23B4AD15462E0C0
:100A6000FB7B1B33DB10FA7B1B32D21036498A5CCE
:100A7000D1B2FA7B1B3202F00702012000FA02F227
:100A8000D2B2D243D2B20A40D2B2D1B22E4AD1545B
:100A900049E0FB7B2633DB10FA7B2632D2102A4951
:100AA0008A5CD1B2FA7B263202F00702012000FAFA
:100AB00002F2D2B2D243D2B20A40D2B2D1B2224A68
:100AC000D15430E0FB7B3933DB10FA7B3932D21062
:100AD0001D498A5CD1B2FA7B393202F0070201204B
:100AE00000FA02F2D2B2D243D2B20A40D2B2D1B2AA
:100AF000154AD15417E0FB7B3C33DB10FA7B3C32C8
:100B0000D21011498A5CD1B2FA7B3C3202F0070262
:100B1000012000FA02F2D2B2D243D2B20A40D2B2DB
:100B2000D1B2094AD15400BFFB7B18461037BD46ED
:100B300080BD00BFD07440006D0D40008C040020CB
:100B400028050020352340005C04002080B584B0D7
:100B500000AF02460B46FA71BB71FB79062B03D935
:100B60001D481E4B984734E0BB79002B08D01C4B26
:100B70001A68FB79134493F86430BA799A4203D91E
:100B80001848164B984724E0FA79174B33F812307F
:100B90005A1EFB79144904335B000B44DB889A42EC
:100BA00003DA12480D4B984713E0FB790E4A32F8EE
:100BB0001320013A91B20C4A22F81310FA790A4B29
:100BC00033F81230FB60084AFB6813443833BA79B3
:100BD0001A701037BD4680BD147540006D0D400081
:100BE00004050020587540008C04002098754000D2
:100BF00080B582B000AF0B463A600246FA71BB7115
:100C00003B68002B03D12348234B98473FE0FB79F7
:100C1000062B03D92148204B984738E0BB79002B9D
:100C200003D11F481C4B984731E01E4B1A68FB79D3
:100C3000134493F86430BA799A4208D9FB7918467C
:100C4000194B984703461846134B98471FE0BA794B
:100C5000FB7910461946154B984703461A46144B24
:100C60001A80144B1B68002B11D10E4B1A68104BC5
:100C70001B88883313441A1D0A4B1968FB790B44EF
:100C800093F86C30104639681A460B4B9847083772
:100C9000BD4680BDC87540006D0D4000F875400030
:100CA0002476400004050020352340003908400028
:100CB0002C0500200C050020316E400090B589B055
:100CC00000AF78600B467B800023FB720023BB7271
:100CD0007B68002B04D11F481F4B9847002335E049
:100CE00007F10A0207F10B03786811461A461B4BFD
:100CF0009847EFF310837B617B69BB6101233B6104
:100D00003B6983F31088164B1B685A1C144B1A60FE
:100D1000B97AFA7A7B887868124CA0470346FB833D
:100D2000FB8B002B07D1B97AFA7A7B8878680E4C56
:100D3000A0470346FB830A4B1B685A1E084B1A60E8
:100D4000BB69FB60FB6883F31088FB8B1846243774
:100D5000BD4690BD507640006D0D400041134000EF
:100D600008050020D1104000C911400080B582B0B4
:100D700000AF78607B68002B03D11548FFF7F6FFC2
:100D800022E0144B1B68002B03D11348FFF7EEFF42
:100D90001AE0104B1B6800221A63104B1B68002BD3
:100DA00012D10E4B7A681A600A4B1B6803F5AD62CC
:100DB0000A4B1B68104619465022094B9847054BB1
:100DC0001B680122C3F860250837BD4680BD00BFFF
:100DD0008076400004050020A87640000C05002025
:100DE000316E400080B586B000AF0346FB71002332
:100DF0007B6100233B61FB79002B03D13E483F4BD5
:100E0000984776E071E03E4B1B68DA697B691344D2
:100E10003B613B4B1A683B699B00134493F8BC351C
:100E2000982B2BD9364B1A683B699B00134493F8D7
:100E3000BC35A72B22D8324B1A683B699B00134460
:100E400093F8BC356833FB73FA7B3B691A442C4B2F
:100E50001B689B699A4210D2294B1A683B699B0018
:100E600003F5B76313441A1DFB7B01339B00104647
:100E700000211A46234B984734E033E0204B1A6890
:100E80003B699B00134493F8BC35012B2AD13B6985
:100E90005A1C1B4B1B689B699A420DD2184B1A684F
:100EA0003B699B0003F5B7631344043318460021E4
:100EB0000822144B984715E0114B1B6803F2BC53F2
:100EC0001846002104220F4B98470D4B1A683B69C6
:100ED0009B0003F5B7631344043318460021042232
:100EE000084B98477B6901337B61FA797B699A42A9
:100EF00089D81837BD4680BDDC7640006D0D4000B6
:100F000004050020E96C400080B500AF104B1B6861
:100F10001B6B002B00D11AE00D4B1B685A69013284
:100F20005A610B4B1B68DA690132DA61084B1B68A6
:100F3000DB69B3F57A7F07D3054B1B6801221A6280
:100F4000034B1B680022DA610120024B984780BDE9
:100F500004050020E50D400090B587B000AF0346C2
:100F6000FB8000237B6100233B610023FB60FB8847
:100F7000FF2B09D0FA884FF6FF739A4204D04C48F1
:100F80004C4B984700238FE007F10C0318464A4B5F
:100F90009847FA68494B1B68D31A3B61FA68474B7C
:100FA0001A60474B1B685B6A002B43D0444B1B689D
:100FB0005A6A3B699A421DD2414B1B68404A1268EB
:100FC000D16A3F4A1268526A3869B0FBF2F20A44A9
:100FD000DA623B4B19683A4B1B68986A384B1B68BE
:100FE0005A6A3B69B3FBF2F402FB04F29B1A034416
:100FF0008B6207E0324B1B68314A1268916A3A698A
:101000000A449A622E4B1B689A6A2D4B1B685B6AD6
:101010009A4213D32A4B1B68DA6A0132DA62284BF0
:101020001B68274A1268916A254A1268526A8A1A0E
:101030009A6203E0224B1B68FA689A62FA883B695D
:101040009A422CD21F4B984778617B69002B26D09F
:10105000FA884FF6FF739A420BD17B69A9221A7066
:101060003B691B0C9AB27B695A807B6900225A70DB
:1010700013E0FB88FF2B0DD17B69A8221A703B6916
:101080001B0A9AB27B695A803B691B0EDAB27B69F4
:101090005A7002E00C48074B98470C4B98473B6945
:1010A0009AB2FB8813409BB218461C37BD4690BDD0
:1010B000347740006D0D4000511440003005002091
:1010C00004050020ED07400074774000090F400040
:1010D00080B584B000AF7860F970BA703B80354B52
:1010E0001A68FB7803F51B735B0013449B88FB8134
:1010F0007B68002B04D13048304B9847002354E0E4
:10110000BB78002B04D12E482C4B984700234CE091
:1011100047E0284B1A68FB890233134493F8BC3428
:101120001A463B88DBB29A4229D1224B1A68FB89C6
:101130000333134493F8BC341A463B881B0A9BB212
:101140009A421CD11B4B1A68FB89191DBB780B44B2
:10115000134493F8BC34002B11D1164B1A68FB8949
:10116000043303F5976313441A1DBB78104679685E
:101170001A46144B98470346002B00D114E00D4B40
:101180001A68FB89134493F8BC341A46094B196852
:10119000FB8901330B4493F8BC341B029BB213440C
:1011A000FB81FB89002BB4D1FB8918461037BD4663
:1011B00080BD00BF04050020987740006D0D400001
:1011C000D47740007D6D400080B584B000AF78607A
:1011D000F970BA703B800023FB817B68002B04D13F
:1011E0005148524B9847002399E0BB78002B04D11B
:1011F0004F484E4B9847002391E04E4B1B68D3F865
:10120000B824BB78134404331F2B05D94A48474BF5
:1012100098470023FB8181E0464B1868454B1B68CB
:10122000D3F8B814434B1A68FB7803F51B735B00C3
:1012300013449B88DAB2431883F8BC243D4B1868EA
:101240003C4B1B68D3F8B834591C3A4B1A68FB78EE
:1012500003F51B735B0013449B881B0A9BB2DAB235
:10126000431883F8BC24334B1968324B1B68D3F8FE
:10127000B83402333A88D2B20B4483F8BC242D4BE5
:1012800019682C4B1B68D3F8B83403333A88120A18
:1012900092B2D2B20B4483F8BC24264B1A68254B79
:1012A0001B68D3F8B834043303F5976313441A1D4D
:1012B000BB78104679681A46204B98471D4B1A6830
:1012C0001C4B1B68D3F8B814BB780B44043313448D
:1012D000002283F8BC24174B1968FB78154A126862
:1012E000D2F8B82492B203F51B735B000B449A80CA
:1012F000104B1B680F4A1268D2F8B814BA780A4427
:101300000532C3F8B8240B4B1B68D3F8B8349AB233
:10131000BB789BB2D31A9BB2053BFB81FB89184675
:101320001037BD4680BD00BF0C7840006D0D4000F9
:10133000487840000405002080784000316E40006D
:1013400080B588B000AFF860B9607A600123FB61B6
:101350000023BB61FB68002B03D11948194B984748
:101360002BE0BB68002B03D11748164B984724E0AD
:101370007B68002B03D11548124B98471DE0FB6892
:10138000002B0FD006E0FB7DBA691344BB61FB69FB
:101390000133FB61FB685A1CFA601B78FB75FB7D0F
:1013A000002BF0D1BB69DBB203F03F03DAB2BB68BC
:1013B0001A70FB69DAB27B681A702037BD4680BDAF
:1013C000C07840006D0D4000F47840002479400062
:1013D00080B500AF164B164A126842F080721A6050
:1013E000134B1B68002B03D11248134B984712E094
:1013F000124B1B6803F00073002B03D010480E4BF8
:10140000984708E00F4B00221A600C4B0B4A1268F9
:1014100042F001021A600C4B1B685B6A002B05D17D
:10142000094B1B68094A126892085A6280BD00BFC6
:10143000FCED00E0587940006D0D4000001000E028
:1014400078794000041000E004050020100000201E
:1014500080B485B000AF78600023FB600023BB60E0
:10146000254B1B68012B08D17B68002B04D0234B34
:101470001A687B681A6039E038E0214B1A68214B02
:101480001B681344BB60204B1A68204B1B68D31A9F
:10149000013B002B03DB1C4B1B68FB6002E01B4B7A
:1014A0001B68FB60184B1B68FA689A4207D1184BFF
:1014B0001B68BA689A4202D2FB680133FB607B6802
:1014C000002B0DD07B6800221A607B681A68BB680D
:1014D0009B081A447B681A607B681A68074B1A607D
:1014E000094BFA681A600A4BBA681A601437BD468D
:1014F0005DF8047B704700BF100500201405002034
:10150000041000E01C050020340500201805002010
:101510003805002080B588B000AF0346FB71FB7929
:10152000002B00D15AE02F4B1B68002B00D155E057
:10153000FB79122B03D92C482C4B98474EE02C4BAF
:101540001B68002B03D02B48284B984746E0EFF34D
:1015500010833B613B69FB610123FB60FB6883F304
:101560001088234B1B685A1C214B1A60224B1B68A6
:101570001B6B002B28D0FB792633DB101F4AD35C72
:101580001A46FB79263303F0070342FA03F303F00C
:101590000103002B18D14FF6FF70194B98470346F3
:1015A0007B83FB797B76174B984778617B69002BAF
:1015B0000AD07B6902221A707B697A8B5A807B6918
:1015C0007A7E5A70104B9847094B1B685A1E084B7D
:1015D0001A60FB69BB60BB6883F310882037BD4687
:1015E00080BD00BF00000020A07940006D0D4000CC
:1015F00008050020E0794000040500205C0400207C
:10160000590F4000ED074000090F400080B58EB033
:1016100000AFF860B9607A60414B1B68002B00D1C5
:101620007BE07B68002B03DA7B685B427B6301E035
:101630007B687B63EFF31083FB61FB693B630123F2
:10164000BB61BB6983F31088364B1B685A1C354B52
:101650001A60354B1A687B681A44334B1A60304B5A
:101660001B681B6B002B4ED0304B1B78002B03D11B
:101670002F4B1B78002B46D1FF202E4B984703465B
:1016800087F82F304FF6FF70796B2B4B9847034646
:10169000BB852A4B9847B862BB6A002B33D0BB6A24
:1016A00097F82F205A70BB6A00221A70BB6ABA8D55
:1016B0005A80234B98474FF6FF70B9681E4B9847E6
:1016C0000346FB84002387F825301C4B984738627B
:1016D0003B6A002B17D03B6AFA8C5A803B6A97F81A
:1016E00025205A70FB68DBB20133DAB23B6A1A700C
:1016F000FB68DAB2BB6A1A70114B9847084B1B683B
:10170000094A12681A65074B1B685A1E054B1A6076
:101710003B6B7B617B6983F310883837BD4680BDA6
:1017200004050020080500202405002020050020D5
:1017300022050020590F4000111A4000ED0740001B
:10174000090F400080B58AB000AFF8600B467A60A0
:10175000FB72FB68FE2B03D94148424B98477BE064
:10176000FB7A062B03D940483E4B984774E03F4B29
:101770001A68FB7A134493F864301A467B689A42DD
:1017800003D23B48374B984766E03A4B1B68002B27
:1017900003D03948334B98475EE0384B1B78002B19
:1017A00000D159E0EFF31083BB61BB697B62012379
:1017B0007B617B6983F310882E4B1B685A1C2D4B71
:1017C0001A602A4B1B681B6B002B3BD02C4B1B78E1
:1017D000002B03D12B4B1B78002B33D17B68DBB262
:1017E000FA7A10461946284B98470346002B29D110
:1017F000FB68DB08254AD35C1A46FB6803F0070345
:1018000042FA03F303F00103002B1BD14FF6FF70E4
:101810001F4B984703467B847B6887F821301D4B1C
:101820009847F861FB69002B0CD0FB697A8C5A80D1
:10183000FB68DAB2FB691A70FB6997F821205A70CD
:10184000154B98470B4B1B685A1E0A4B1A607B6A54
:101850003B613B6983F310882837BD4680BD00BFDC
:10186000507A40006D0D4000847A4000040500204D
:10187000C87A4000080500200C7B400021050020AC
:101880002005002022050020B52340006804002028
:10189000590F4000ED074000090F400080B58AB0A5
:1018A00000AFF8607A603B600B46FB72FB68FE2B72
:1018B00003D94748474B984786E0FB7A062B03D964
:1018C0004548444B98477FE0444B1A68FB7A1344E1
:1018D00093F864301A467B689A4203D240483D4BE5
:1018E000984771E03F4B1B68002B03D03E48394BB3
:1018F000984769E0EFF31083BB61BB697B6201230A
:101900007B617B6983F31088364B1B685A1C354B0F
:101910001A60324B1B681B6B002B4BD0334B1B7870
:10192000002B47D0324B1B78002B03D0314B1B7858
:10193000002B3FD07B68DBB2FA7A104619462E4B5B
:1019400098470346002B35D1FB68DB082B4AD35C54
:101950001A46FB6803F0070342FA03F303F001039E
:10196000002B27D1FF20264B9847034687F82330CA
:10197000FF203968234B9847034687F822307B685D
:1019800087F82130204B9847F861FB69002B11D074
:10199000FB6997F82320DA70FB68DAB2FB691A70EA
:1019A000FB6997F821205A70FB6997F822209A70FA
:1019B000164B98470B4B1B685A1E0A4B1A607B6AE2
:1019C0003B613B6983F310882837BD4680BD00BF6B
:1019D000447B40006D0D40007C7B400004050020EE
:1019E000C87B400008050020187C4000210500202D
:1019F0002205002020050020B523400068040020B7
:101A0000590F4000111A4000ED074000090F400037
:101A100080B584B000AF786039607B68FF2B09D057
:101A20007A684FF6FF739A4204D01748174B9847CD
:101A30003B6825E03A687B689A4201D83B681FE022
:101A4000134B9847F860FB68002B16D0FB68012207
:101A50001A707B68DA433B68134003F47F431B0A28
:101A6000DAB2FB685A707B68DA433B6813401B0CA0
:101A70009AB2FB685A80074B98473A687B681340D4
:101A800018461037BD4680BD507C40006D0D4000AB
:101A9000ED074000090F400080B58AB000AF7860C4
:101AA00039600023FB847B68FE2B03D93248334B1B
:101AB00098475DE0324B1B68002B03D031482F4B19
:101AC000984755E0EFF310837B617B693B6201230C
:101AD0003B613B6983F31088294B1B685A1C284BD8
:101AE0001A60294B1B681B6B002B37D0274B1B78C8
:101AF000002B33D0264B1B78002B03D0254B1B78B3
:101B0000002B2BD07B68DB08234AD35C1A467B680A
:101B100003F0070342FA03F303F00103002B1DD186
:101B2000FF201E4B98470346FB774FF6FF7039683E
:101B30001B4B98470346FB841A4B9847B861BB6917
:101B4000002B0BD0BB69FA7F5A707B68DAB2BB6995
:101B50001A70BB69FA8C5A80134B9847084B1B6864
:101B60005A1E074B1A603B6AFB60FB6883F31088C0
:101B70002837BD4680BD00BF8C7C40006D0D400005
:101B800008050020E07C400004050020210500201D
:101B9000220500202005002068040020590F400085
:101BA000111A4000ED074000090F400080B58AB0CF
:101BB00000AF0346FB71002387F82730FB79122B17
:101BC00003D93F483F4B984777E0FB792633DB103A
:101BD0003D4AD35C1A46FB79263303F0070342FAE9
:101BE00003F303F00103002B06D0012387F827300D
:101BF000364B01221A7002E0344B00221A70EFF3C8
:101C000010837B617B693B6201233B613B6983F30A
:101C100010882F4B1B685A1C2D4B1A602D4B1B78BC
:101C2000FA799A4202D1012387F827302A4B1B68A0
:101C30001B6B002B02D1012387F8273097F927303F
:101C4000002B30D14FF6FF70244B98470346FB839F
:101C5000204BFA791A701F4B1B787B77204B9847E3
:101C6000B861BB69002B1ED01A4B1B7803201946A4
:101C70001C4B98470346012B03D1BB6907221A70FE
:101C800002E0BB6906221A70BB69FA8B5A80BB69F5
:101C90007A7F5A700F4B1B78032019460122124B92
:101CA0009847124B98470A4B1B685A1E084B1A60FC
:101CB0003B6AFB60FB6883F310882837BD4680BD14
:101CC000187D40006D0D40005C04002022050020BE
:101CD000080500202105002004050020590F4000C0
:101CE000ED07400009204000891F4000090F400017
:101CF00090B587B000AF02460B46FA71BB71BB7955
:101D0000062B03D92048214B984739E0204B1A680D
:101D1000BB79134493F86430FA799A4203D91D4889
:101D20001A4B98472CE01A4B1B681B6B002B27D0D3
:101D3000FB79FB75164B1C68FA79BB79104619467E
:101D4000154B984703468833234404333B61386975
:101D50000021124B98470346FB81114B9847B8600E
:101D6000BB68002B0CD0BB790833DAB2BB681A70A1
:101D7000BB68FA7D5A70BB68FA895A80094B98474C
:101D80001C37BD4690BD00BF5C7D40006D0D40001E
:101D900004050020AC7D400039084000BD0C400027
:101DA000ED074000090F400090B585B000AF024636
:101DB0000B46FA71BB71BB79062B03D92B482C4B10
:101DC00098474FE02B4B1A68BB79134493F8643063
:101DD000FA799A4203D92848254B984742E0254B87
:101DE0001B681B6B002B3DD0244B9847F860FB68A9
:101DF000002B37D0BB79032B17D11E4B1C68FA7907
:101E0000BB79104619461E4B984703461A46194B94
:101E10001968BB790B4493F86C30134401332344A5
:101E200093F88C20FB685A7015E0124B1C68FA7905
:101E3000BB7910461946124B984703461A460D4B7C
:101E40001968BB790B4493F86C301344234493F81E
:101E50008C20FB685A70BB791033DAB2FB681A70B9
:101E6000084B98471437BD4690BD00BFF87D400031
:101E70006D0D400004050020507E4000ED0740003D
:101E800039084000090F400090B583B000AF1346F9
:101E90000246FA710A46BA717B71FB79062B03D9A7
:101EA0001448154B984722E0144B1A68FB791344E9
:101EB00093F86430BA799A4203D911480E4B984787
:101EC00015E00E4B1C68BA79FB79104619460D4B8C
:101ED000984703461A46094B1968FB790B4493F857
:101EE0006C301344013323447A7983F88C200C3707
:101EF000BD4690BDA07E40006D0D40000405002051
:101F0000E87E40003908400090B583B000AF02463B
:101F10000B46FA71BB71FB79062B04D91548164B99
:101F20009847002322E0154B1A68FB79134493F875
:101F30006430BA799A4204D911480F4B984700236C
:101F400014E00E4B1C68BA79FB79104619460D4B0C
:101F5000984703461A46094B1968FB790B4493F8D6
:101F60006C3013440133234493F88C3018460C37FB
:101F7000BD4690BD287F40006D0D40000405002047
:101F8000847F40003908400090B583B000AF13460D
:101F90000246FA710A46BA717B71FB79062B03D9A6
:101FA0001448154B984721E0144B1A68FB791344E9
:101FB00093F86430BA799A4203D911480E4B984786
:101FC00014E00E4B1C68BA79FB79104619460D4B8C
:101FD000984703461A46094B1968FB790B4493F856
:101FE0006C30134423447A7983F88C200C37BD4637
:101FF00090BD00BF008040006D0D40000405002032
:10200000448040003908400090B583B000AF0246DC
:102010000B46FA71BB71FB79062B04D91548164B98
:102020009847002321E0154B1A68FB79134493F875
:102030006430BA799A4204D911480F4B984700236B
:1020400013E00E4B1C68BA79FB79104619460D4B0C
:10205000984703461A46094B1968FB790B4493F8D5
:102060006C301344234493F88C3018460C37BD462B
:1020700090BD00BF808040006D0D40000405002031
:10208000C48040003908400090B583B000AF0346DB
:10209000FB71104B1B6893F86730FA799A4203D9A9
:1020A0000D480E4B984711E00A4B1C68FB79184607
:1020B00003210B4B984703461A46064B1B6893F8BF
:1020C0006F3013442344002283F88C200C37BD4624
:1020D00090BD00BF04050020008140006D0D400050
:1020E0003908400080B582B000AF78607868044B52
:1020F00098470346DBB218460837BD4680BD00BF8F
:10210000613D400080B582B000AF78607868034BD5
:102110009847034618460837BD4680BD793D4000C4
:1021200080B582B000AF78607868044B984703466A
:10213000DBB218460837BD4680BD00BF954C400055
:1021400080B500AF024B98470346184680BD00BFDC
:10215000FD4F400080B400AF4E4B1B680722DA658C
:102160004C4B1B680F2283F864204A4B1B680A22E1
:1021700083F86520474B1B680A2283F86620454B8D
:102180001B68122283F86720424B1B68052283F8E4
:102190006820404B1B68022283F869203D4B1B6876
:1021A000022283F86A203B4B1B680F2283F86C20C5
:1021B000384B1B680F2283F86D20364B1B680F22AB
:1021C00083F86E20334B1B680F2283F86F20314B4E
:1021D0001B680F2283F870202E4B1B680F2283F898
:1021E00071202C4B1B680F2283F87220294B1B682F
:1021F000102283F87420274B1B68102283F8752067
:10220000244B1B68102283F87620224B1B68132274
:1022100083F877201F4B1B68112283F878201D4B11
:102220001B68102283F879201A4B1B68132283F84D
:102230007A20184B1B680022A3F87C20154B1B68E2
:10224000F022A3F87E20134B1B684FF4C872A3F84A
:102250008020104B1B684FF40C72A3F882200D4BAA
:102260001B6840F28632A3F884200A4B1B6840F2B8
:10227000DB32A3F88620074B1B6840F2FB32A3F841
:102280008820044B1B6840F221421A66BD465DF867
:10229000047B70470405002080B400AF244B00226B
:1022A000DA81234BDA89224B1A80214B0F221A82C2
:1022B0001F4B1A8A1E4B5A801D4B19225A821C4BE7
:1022C0005A8A1B4B9A801A4B23229A82184B9A8A5D
:1022D000174BDA80164B3522DA82154BDA8A144B0B
:1022E0001A81134B3A221A83114B1A8B104B5A81C5
:1022F0000F4B3C225A830E4B5A8B0D4B9A810C4B41
:102300000E229A830A4B1822DA83094B22221A845E
:10231000074B34225A84064B39229A84044B3B22C1
:10232000DA84034B3D221A85BD465DF8047B704775
:102330008C04002080B483B000AF0346FB71FB79AE
:10234000062B1FD801A252F823F000BF79234000CA
:102350007123400075234000692340006D23400035
:102360007D234000812340000A4B0CE00A4B0AE029
:102370000A4B08E00A4B06E00A4B04E00A4B02E075
:102380000A4B00E00A4B18460C37BD465DF8047B4B
:10239000704700BF4881400080814000B881400004
:1023A000FC8140003882400074824000B0824000CE
:1023B000F482400080B582B000AF02460B46FA714D
:1023C000BB71FB79062B04D94C484D4B9847012330
:1023D00090E04C4B1A68FB79134493F86430BA7957
:1023E0009A4204D94848464B9847012382E0FB793A
:1023F000062B7BD801A252F823F000BF83244000B3
:102400003D2440005F24400019244000ED2440009A
:10241000A5244000C9244000BB792633DB103B4A89
:10242000D35CDAB2BB79263303F00703012101FA4A
:1024300003F3DBB21340DBB2DBB25BE0BB791033FA
:10244000DB10324AD35CDAB2BB7903F00703012117
:1024500001FA03F3DBB21340DBB2DBB24AE0BB7933
:102460001B33DB10294AD35CDAB2BB791B3303F090
:102470000703012101FA03F3DBB21340DBB2DBB245
:1024800038E0BB79DB08DBB2204AD35CDAB2BB7937
:1024900003F00703012101FA03F3DBB21340DBB2BF
:1024A000DBB227E0BB793933DB10184AD35CDAB2F0
:1024B000BB79393303F00703012101FA03F3DBB2DF
:1024C0001340DBB2DBB215E0BB793C33DB100F4AC3
:1024D000D35CDAB2BB793C3303F00703012101FA84
:1024E00003F3DBB21340DBB2DBB203E00848044B7A
:1024F0009847012318460837BD4680BD2483400015
:102500006D0D4000040500206C8340005C04002039
:10251000AC83400080B483B000AF78607B685B69B7
:1025200018460C37BD465DF8047B704780B483B015
:1025300000AF786039607B685B6903F00103002BB2
:1025400001D1012305E07B689B69DAB23B681A7010
:10255000002318460C37BD465DF8047B704700BF6A
:1025600080B483B000AF0346FB71094B97F9072095
:102570005209F97901F01F01012000FA01F16032DE
:1025800043F822100C37BD465DF8047B704700BF4E
:1025900000E100E080B483B000AF78607B681B6925
:1025A00018460C37BD465DF8047B704780B582B095
:1025B00000AF0948094B984778601520084B9847A9
:1025C0007B6803F40073002B02D01F20054B984753
:1025D0000837BD4680BD00BF008000409525400003
:1025E00061254000B564400080B582B000AF064868
:1025F000064B98477860064B1B685A1C044B1A60C0
:102600000837BD4680BD00BF00080E4015254000BC
:102610004005002080B582B000AF00237B603B1DE9
:1026200025481946254B98470346002B41D1244B9A
:102630001B68591C224A11607A68D1B2214AD154D0
:102640001F4B1B68032B14D91D4B1B68023B1D4AF3
:10265000D35C0D2B0DD11A4B1B68013B194AD35C7F
:102660000A2B06D1184B1B6818460021174B9847B8
:1026700017E0134B1B68012B13D9114B1B68023B4E
:10268000104AD35C3E2B0CD10D4B1B68013B0D4A0D
:10269000D35C202B05D10C4B1B68184600210B4B3B
:1026A0009847074B1B68B3F5967F02D3044B002273
:1026B0001A600837BD4680BD00800240C96A4000EC
:1026C0007006002044050020D43200201D38400050
:1026D00080B500AF0A480B4B9847034603F0807360
:1026E000002B0BD00648084B98470246074B1A6050
:1026F000074B1B6818460021064B984780BD00BF5A
:102700000080034011624000F9614000740600201F
:10271000780600201D38400080B582B000AF274801
:10272000274B984778607B6803F00103002B42D069
:10273000244B1B68591C234A1160234A13441F4829
:102740001946224B98470346002B34D11D4B1B687A
:10275000002B09D11C4B1B78232B05D0194B0022D1
:102760001A60194B00221A70174B5B7808331A460F
:10277000144B1B689A4217D8134B5B780733124AE5
:10278000D35C0A2B0AD1124B1B68002B0CD0104BC8
:102790001B68184600210F4B984705E0094B0022A3
:1027A0001A60094B00221A70064B1B687F2B02D956
:1027B000044B00221A600837BD4680BD00060E405B
:1027C00015254000FC0600207C0600202D25400039
:1027D000000700201D38400090B583B000AF2B48A3
:1027E0002B4B984778607B6803F00103002B45D0A2
:1027F00000233B603B4625481946264B98473B68DB
:102800000D2B02D03B680A2B04D1234B1B68002BF5
:1028100000D133E0204B1B68591C1F4A11603A68F5
:10282000D1B21E4AD1541C4B1B68013B1B4AD35CDE
:102830000D2B06D0184B1B68013B184AD35C0A2BA2
:1028400015D1154B1B68013B144A0021D154124B82
:102850001B68124A0021D1540F4B00221A60104B02
:102860001B6818460D49002200230E4CA0470A4B56
:102870001B68FF2B02D9084B00221A600A4B1B6809
:102880005A1C094B1A600C37BD4690BD00400240EF
:10289000B16A4000C96A4000040800200407002013
:1028A0003C050020653640000808002080B483B055
:1028B00000AF78607B6803F108027B685A607B6830
:1028C0004FF0FF329A607B6803F108027B68DA60A0
:1028D0007B6803F108027B681A617B6800221A603A
:1028E0000C37BD465DF8047B704700BF80B483B0F1
:1028F00000AF78607B6800221A610C37BD465DF836
:10290000047B704780B485B000AF786039607B6825
:102910005B68FB603B68FA685A60FB689A683B68D2
:102920009A60FB689B683A685A60FB683A689A60EC
:102930003B687A681A617B681B685A1C7B681A605E
:102940001437BD465DF8047B704700BF80B485B086
:1029500000AF786039603B681B68BB60BB68B3F14F
:10296000FF3F03D17B681B69FB600CE07B68083389
:10297000FB6002E0FB685B68FB60FB685B681A68F1
:10298000BB689A42F6D9FB685A683B685A603B6854
:102990005B683A689A603B68FA689A60FB683A68D4
:1029A0005A603B687A681A617B681B685A1C7B68AE
:1029B0001A601437BD465DF8047B704780B485B05B
:1029C00000AF78607B681B69FB607B685B687A6836
:1029D00092689A607B689B687A6852685A60FB6864
:1029E0005A687B689A4203D17B689A68FB685A6090
:1029F0007B6800221A61FB681B685A1EFB681A601C
:102A0000FB681B6818461437BD465DF8047B7047A9
:102A100080B485B000AFF860B9607A60FB68043BB1
:102A2000FB60FB684FF080721A60FB68043BFB6040
:102A3000BA68FB681A60FB68043BFB60094AFB68E4
:102A40001A60FB68143BFB607A68FB681A60FB68DD
:102A5000203BFB60FB6818461437BD465DF8047BDD
:102A6000704700BF692A400080B500AF064B1B6865
:102A7000B3F1FF3F03D0054B9847054B9847034BF5
:102A80009847034B984780BD0C000020492C40001C
:102A9000F5014000074B19680868B0E8F00F80F3B3
:102AA0000988BFF36F8F4FF0000080F311884EF05C
:102AB0000D0E7047B41B002006480068006880F3C4
:102AC000088862B661B6BFF34F8FBFF36F8F00DF28
:102AD00000BF000008ED00E080B584B000AF284BD7
:102AE000FB60FB681B78DBB2BB60FB68FF221A70DF
:102AF000FB681B78DBB2FB71FB79DBB223F05F0371
:102B0000DAB2204B1A70204B07221A6009E01E4BE4
:102B10001B685A1E1C4B1A60FB79DBB25B00DBB2F0
:102B2000FB71FB79DBB2DBB25BB2002BEFDB164B48
:102B30001B681A02144B1A60134B1B6803F4E06203
:102B4000114B1A60BB68DAB2FB681A700F4B0F4A60
:102B5000126842F470021A600C4B0C4A126842F080
:102B600070421A600A4B98470A4B00221A600A4BBF
:102B700098470A4B9847002318461037BD4680BD3A
:102B800000E400E00C0800201008002020ED00E028
:102B9000DD2C40000C000020B92A4000692A4000CA
:102BA00080B400AF054B4FF080521A60BFF34F8FD7
:102BB000BFF36F8FBD465DF8047B704704ED00E006
:102BC00080B500AF0C4B98470C4B1B685A1C0B4B45
:102BD0001A60BFF34F8FBFF36F8F084B1B68012B39
:102BE00008D1074B1B68DBB2002B03D0024B984780
:102BF000044B984780BD00BF492C40000C000020CA
:102C000004ED00E0F501400080B500AF0A4B1B6801
:102C1000002B03D1094B9847094B9847064B1B687B
:102C20005A1E054B1A60044B1B68002B02D1002072
:102C3000044B984780BD00BF0C000020492C400089
:102C4000F50140005D2C4000EFF311804FF0A00132
:102C500081F3118870470023184600BF80F3118864
:102C6000704700BFEFF30980BFF36F8F0D4B1A68F9
:102C700020E9F00F10602DE908404FF0A00080F32C
:102C8000118801F0BFFD4FF0000080F31188BDE80E
:102C9000084019680868B0E8F00F80F30988BFF3AE
:102CA0006F8F7047B41B002080B500AF074B98476B
:102CB000074B98470346002B03D0064B4FF080523A
:102CC0001A600020044B984780BD00BF492C40008B
:102CD0002D46400004ED00E05D2C400080B400AFC4
:102CE000074B084A1168084AA2FB01029209013AFF
:102CF0001A60064B07221A60BD465DF8047B7047D8
:102D000014E000E010000020D34D621010E000E05D
:102D100080B582B000AFEFF305837B607B680F2B3B
:102D20000DD90E4A7B6813441B78FB700C4B1B7843
:102D3000FA789A4203D20B4B98470B4B98470B4BB0
:102D40001B6803F4E0620A4B1B689A4203D9054BE7
:102D50009847054B98470837BD4680BDF0E300E033
:102D60000C080020492C4000F50140000CED00E06B
:102D70001008002080B586B000AF78600023FB60AB
:102D8000564B9847564B1B68002B01D1554B984723
:102D9000554B1A687B681340002B7FD17B68002B52
:102DA00016D008237A6813447B607B6803F007031E
:102DB000002B0DD07B6823F0070308337B607B6812
:102DC00003F00703002B03D0484B9847484B984724
:102DD0007B68002B62D0474B1B687A689A425DD8AB
:102DE000454B3B61444B1B687B6104E07B693B6165
:102DF0007B691B687B617B695A687B689A4203D256
:102E00007B691B68002BF1D1354B1B687A699A42AC
:102E100044D03B691A6808231344FB607B691A6835
:102E20003B691A607B695A687B68D21A08235B0089
:102E30009A4218D97A697B681344BB60BB6803F077
:102E40000703002B03D0294B9847294B98477B69F0
:102E50005A687B68D21ABB685A607B697A685A6084
:102E6000B868264B9847234B1A687B695B68D21A6F
:102E7000204B1A601F4B1A68214B1B689A4203D2E1
:102E80001C4B1A681E4B1A607B695A68164B1B68EC
:102E90001A437B695A607B6900221A60FB68002B29
:102EA00006D0FA687B68942011461A46154B98475D
:102EB000154B9847FB68002B01D1144B9847FB68D2
:102EC00003F00703002B03D0084B9847084B9847A3
:102ED000FB6818461837BD4680BD00BFB1444000AE
:102EE000A41B0020D12F4000B01B0020492C400023
:102EF000F5014000A81B00209C1B002095304000DD
:102F0000AC1B00200D164000CD444000095B400082
:102F100080B584B000AF78607B68FB607B68002B75
:102F200043D008235B42FA681344FB60FB68BB6034
:102F3000BB685A681E4B1B681340002B03D11D4B06
:102F400098471D4B9847BB681B68002B03D0194B53
:102F50009847194B9847BB685A68154B1B68134034
:102F6000002B22D0BB681B68002B1ED1BB685A689F
:102F70000F4B1B68DB431A40BB685A600F4B9847E6
:102F8000BB685A680E4B1B681A440D4B1A607A686E
:102F9000BB685B685B42962011461A46094B98470E
:102FA000B868094B9847094B98471037BD4680BD14
:102FB000B01B0020492C4000F5014000B144400006
:102FC000A81B00200D16400095304000CD44400065
:102FD00080B485B000AF41F28833BB60274BFB6003
:102FE000FB6803F00703002B0CD0FB680733FB6082
:102FF000FB6823F00703FB60BA68FB68D21A1F4B1B
:103000001344BB60FB687B601D4B7A681A601C4BE5
:1030100000225A607A68BB681344FB600823FA6890
:10302000D31AFB60FB6823F00703FB60FA68154BBB
:103030001A60144B1B6800225A60124B1B68002256
:103040001A607B683B603B68FA68D21A3B685A603A
:103050000C4B1A683B681A603B685A680A4B1A6046
:103060003B685A68094B1A60094B4FF000421A60DE
:103070001437BD465DF8047B704700BF140800207C
:103080009C1B0020A41B0020AC1B0020A81B0020C0
:10309000B01B002080B485B000AF7860274BFB6088
:1030A00002E0FB681B68FB60FB681A687B689A4259
:1030B000F7D3FB68BB60FB685B68BA681A447B683F
:1030C0009A4208D1FB685A687B685B681A44FB68BF
:1030D0005A60FB687B607B68BB607B685B68BA6832
:1030E0001A44FB681B689A4218D1FB681A68144B93
:1030F0001B689A420DD07B685A68FB681B685B6846
:103100001A447B685A60FB681B681A687B681A60FF
:1031100008E00B4B1A687B681A6003E0FB681A68CA
:103120007B681A60FA687B689A4202D0FB687A680A
:103130001A601437BD465DF8047B70479C1B002065
:10314000A41B002080B584B000AF786039607B6834
:10315000FB60FB68002B03D1274B9847274B984710
:10316000274B9847FB681A68FB68DB6BF968096CAA
:1031700001FB03F31A44FB685A60FB6800229A6360
:10318000FB681A68FB689A60FB681A68FB68DB6B6F
:10319000013BF968096C01FB03F31A44FB68DA6030
:1031A000FB684FF0FF325A64FB684FF0FF329A64BD
:1031B0003B68002B0ED1FB681B69002B14D0FB6809
:1031C000103318460F4B98470346012B0CD10E4B7A
:1031D000984709E0FB68103318460C4B9847FB688A
:1031E00024331846094B9847094B98470123184642
:1031F0001037BD4680BD00BF492C4000F50140009E
:10320000C12B4000AD4A4000A12B4000AD2840003A
:10321000092C4000B0B588B000AFF860B960134623
:10322000FB710023BB61FB68002B03D13B4B98472C
:103230003B4B9847BB68002B02D10023FB6105E0A4
:10324000FB68BA6802FB03F30133FB61FB69583387
:103250001846344B984778617B69002B52D0BB6885
:10326000002B03D17B697A691A6004E07B6903F162
:1032700058027B691A607B69FA68DA637B69BA680D
:103280001A6478690121284B98477B69FA7983F899
:1032900050207B6900225A657869244B9847034681
:1032A000234AD35C1846234B984703461A467B694A
:1032B000DA6478691D4B984703461D4AD35C18337E
:1032C000DBB21D467869194B98470346184AD45C0F
:1032D0007869194B98470346284621461A46174BEA
:1032E00098477869114B98470346114AD45C78692E
:1032F000114B98470346204619460022104B984729
:103300007B69BB61BB69002B03D1044B9847044B1D
:103310009847BB6918462037BD46B0BD492C4000D0
:10332000F5014000752D4000453140000521400069
:1033300004000020E9084000E52040004517400057
:10334000891F4000B0B58AB000AFF860B9607A60FC
:103350003B6000237B62FB683B623B6A002B03D12E
:10336000604B9847604B9847BB68002B03D13B6A82
:103370001B6C002B01D1012300E00023002B03D1A3
:10338000584B9847584B98473B68022B03D13B6AF0
:10339000DB6B012B01D1012300E00023002B03D1C3
:1033A000504B9847504B9847504B98470346002B3B
:1033B00002D17B68002B01D1012300E00023002B08
:1033C00003D1484B9847484B9847494B98473B6A2D
:1033D0009A6B3B6ADB6B9A4202D33B68022B62D149
:1033E000386A444B98470346434AD35C2033DBB2E8
:1033F0001D46386A3F4B984703463F4AD45C386ABB
:103400003E4B98470346284621461A463C4B984770
:10341000386A384B98470346374AD55C386A374B89
:10342000984703461C46386A324B98470346324A4F
:10343000D35C022B05D03B6A9B6BDBB20133DBB262
:1034400000E00023284621461A462E4B9847386A4A
:10345000B9683A682C4B9847F8613B6A5B6D002B62
:1034600009D0386A3968294B98470346012B16D191
:10347000274B984713E03B6A5B6A002B0AD03B6AF4
:1034800024331846234B98470346012B07D1204B82
:10349000984704E0FB69002B01D01D4B98471E4B59
:1034A00098470123BDE07B68002B37D11A4B984722
:1034B000386A104B984703460F4AD35C4833DBB257
:1034C0001D46386A0B4B984703460B4AD45C386A52
:1034D0000A4B98470346284621461A46084B984708
:1034E00000239EE0492C4000F50140001D504000A3
:1034F000C12B40000521400004000020E5204000D1
:1035000045174000891F4000953D4000E1404000C4
:10351000A12B4000AD4A4000092C40007B6A002BE3
:1035200006D107F114031846404B984701237B62EC
:103530003F4B98473F4B98473F4B98473B6A5B6CE4
:10354000B3F1FF3F02D13B6A00225A643B6A9B6C95
:10355000B3F1FF3F02D13B6A00229A64344B984793
:1035600007F114023B1D10461946344B9847034699
:10357000002B36D1386A324B98470346002B2AD0AD
:10358000386A304B984703462F4AD35C7033DBB21E
:103590001D46386A2B4B984703462B4AD45C386A41
:1035A0002A4B98470346284621461A46284B9847F7
:1035B0003B6A03F110027B6810461946254B984779
:1035C000386A254B9847254B98470346002B27D14F
:1035D000234B984724E0386A1F4B98471F4B984766
:1035E000F3E6386A1C4B98471C4B9847386A154BD2
:1035F00098470346144AD35C4833DBB21D46386A09
:10360000104B98470346104AD45C386A0F4B9847D2
:103610000346284621461A460D4B9847002300E0F2
:10362000D3E618462837BD46B0BD00BF894B4000E1
:10363000092C4000B1444000C12B4000C54B400064
:10364000C53F40000521400004000020E520400067
:103650004517400025494000C93E4000CD44400088
:10366000A12B4000B0B588B000AFF860B9607A60B7
:103670003B60FB68BB61BB69002B03D15B4B984788
:103680005B4B9847BB68002B03D1BB691B6C002BBD
:1036900001D1012300E00023002B03D1534B9847B5
:1036A000534B98473B68022B03D1BB69DB6B012B63
:1036B00001D1012300E00023002B03D14B4B98479D
:1036C0004B4B98474B4B9847484B98477861BB69A1
:1036D0009A6BBB69DB6B9A4202D33B68022B63D1C6
:1036E000B869454B98470346444AD35C3033DBB254
:1036F0001D46B869404B98470346404AD45CB869B8
:103700003F4B98470346284621461A463D4B98476B
:10371000B869394B98470346384AD45CB869384B86
:10372000984703461A46BB699B6BDBB20133DBB299
:10373000204611461A46344B9847B869B9683A682A
:10374000324B9847BB699B6CB3F1FF3F24D1BB69F7
:103750005B6D002B0DD0B86939682D4B9847034637
:10376000012B1ED17B68002B1BD07B6801221A60C5
:1037700017E0BB695B6A002B13D0BB692433184682
:10378000244B98470346002B0BD07B68002B08D0B6
:103790007B6801221A6004E0BB699B6C5A1CBB6900
:1037A0009A640123FB6119E0B869134B98470346FB
:1037B000124AD35C5833DBB21D46B8690E4B9847AA
:1037C00003460E4AD45CB8690D4B98470346284619
:1037D00021461A460B4B98470023FB6178690E4B34
:1037E0009847FB6918462037BD46B0BD492C4000BC
:1037F000F5014000112D400005214000040000208B
:10380000E520400045174000891F4000953D4000DD
:10381000E1404000AD4A40005D2C4000B0B586B0AC
:1038200000AF786039607B683B613B69002B03D156
:10383000564B9847564B98473B691B6C002B03D05F
:10384000524B9847524B98473B691B68002B03D15A
:103850003B695B68002B01D1012300E00023002BB2
:1038600003D14A4B98474A4B98474A4B9847474B96
:103870009847F8603B699A6B3B69DB6B9A4263D26D
:103880003869454B98470346444AD35C3033DBB232
:103890001D463869404B98470346404AD45C386916
:1038A0003F4B98470346284621461A463D4B9847CA
:1038B0003869394B98470346384AD45C3869384BE5
:1038C000984703461A463B699B6BDBB20133DBB278
:1038D000204611461A46344B98473B699B6B5A1C4D
:1038E0003B699A633B699B6CB3F1FF3F24D13B6911
:1038F0005B6D002B0DD0386900212C4B9847034697
:10390000012B1ED13B68002B1BD03B6801221A60A3
:1039100017E03B695B6A002B13D03B6924331846E0
:10392000234B98470346002B0BD03B68002B08D055
:103930003B6801221A6004E03B699B6C5A1C3B699E
:103940009A6401237B6119E03869134B9847034659
:10395000124AD35C5833DBB21D4638690E4B984788
:1039600003460E4AD45C38690D4B984703462846F7
:1039700021461A460B4B984700237B61F8680D4B94
:1039800098477B6918461837BD46B0BD492C4000A2
:10399000F5014000112D40000521400004000020E9
:1039A000E520400045174000891F4000E1404000ED
:1039B000AD4A40005D2C4000B0B58AB000AFF86061
:1039C000B9607A603B6000237B62FB683B623B6AC4
:1039D000002B03D16D4B98476D4B9847BB68002B6C
:1039E00003D13B6A1B6C002B01D1012300E00023B3
:1039F000002B03D1654B9847654B9847654B98471B
:103A00000346002B02D17B68002B01D1012300E08B
:103A10000023002B03D15D4B98475D4B98475E4BCD
:103A200098473B6A9B6B002B00F091803B6ADB68F8
:103A3000FB61386AB968594B98473B68002B59D1EC
:103A4000386A574B98470346564AD35C2833DBB253
:103A50001D46386A524B98470346524AD45C386A2E
:103A6000514B98470346284621461A464F4B9847E4
:103A7000386A4B4B984703464A4AD55C386A4A4BEA
:103A8000984703461C46386A454B98470346454AC3
:103A9000D35C022B07D1464B984703461846454B4B
:103AA0009847034604E03B6A9B6BDBB2013BDBB209
:103AB000284621461A46404B98473B6A9B6B5A1E44
:103AC0003B6A9A633B6A1B68002B04D13B4B9847C7
:103AD00002463B6A5A603B6A1B69002B33D03B6A43
:103AE00010331846364B98470346012B2BD1354BE4
:103AF000984728E0386A2A4B98470346294AD35CFE
:103B00007833DBB21D46386A254B98470346254A71
:103B1000D45C386A244B98470346284621461A4607
:103B2000224B98473B6AFA69DA603B6A5B6A002B72
:103B300009D03B6A24331846214B98470346002B93
:103B400001D0204B9847204B98470123E0E07B6849
:103B5000002B3BD11C4B9847386A114B98470346C2
:103B6000104AD35C5033DBB21D46386A0C4B984781
:103B700003460C4AD45C386A0B4B984703462846E8
:103B800021461A46094B98470023C1E0492C4000C2
:103B9000F50140001D504000C12B4000793E40001F
:103BA0000521400004000020E520400045174000AA
:103BB0004121400021214000891F4000195340004D
:103BC000AD4A4000A12B4000092C40007B6A002B2D
:103BD00006D107F1140318464F4B984701237B6227
:103BE0004E4B98474E4B98474E4B98473B6A5B6C01
:103BF000B3F1FF3F02D13B6A00225A643B6A9B6CDF
:103C0000B3F1FF3F02D13B6A00229A64434B9847CD
:103C100007F114023B1D10461946434B98470346D3
:103C2000002B55D1386A414B98470346002B49D0A9
:103C3000386A3F4B984703463E4AD35C6833DBB251
:103C40001D46386A3A4B984703463A4AD45C386A6C
:103C5000394B98470346284621461A46374B984722
:103C6000386A334B98470346324AD35C022B09D05B
:103C7000334B984703461846324B9847034618463D
:103C8000314B98473B6A1B68002B08D1254B98475E
:103C90003B6A5B6818462D4B9847204B98473B6A18
:103CA00003F124027B6810461946294B9847386A6D
:103CB000284B9847284B98470346002B27D1274B82
:103CC000984724E0386A234B9847234B9847A6E649
:103CD000386A204B9847204B9847386A144B9847CE
:103CE0000346144AD35C5033DBB21D46386A104B8E
:103CF000984703460F4AD45C386A0F4B98470346EF
:103D0000284621461A460D4B9847002300E086E6D8
:103D100018462837BD46B0BD894B4000092C4000ED
:103D2000B1444000C12B4000C54B4000913F4000D2
:103D30000521400004000020E52040004517400018
:103D4000412140002121400089204000595040007D
:103D500025494000C93E4000CD444000A12B400011
:103D600080B483B000AF78607B68DB6C18460C379A
:103D7000BD465DF8047B704780B483B000AF7860C7
:103D80007B6893F8503018460C37BD465DF8047BCD
:103D9000704700BF80B586B000AFF860B9607A6048
:103DA00000237B61FB681B6C002B0DD1FB681B683B
:103DB000002B52D1FB685B6818462D4B9847786101
:103DC000FB6800225A6048E07B68002B1AD1FB6830
:103DD0009A68FB681B6C1046B9681A46254B9847D1
:103DE000FB689A68FB681B6C1A44FB689A60FB6866
:103DF0009A68FB685B689A422FD3FB681A68FB6875
:103E00009A602AE0FB68DA68FB681B6C1046B968A8
:103E10001A46184B9847FB68DA68FB681B6C5B42D4
:103E20001A44FB68DA60FB68DA68FB681B689A4230
:103E300007D2FB685A68FB681B6C5B421A44FB683C
:103E4000DA607B68022B08D1FB689B6B002B04D0E7
:103E5000FB689B6B5A1EFB689A63FB689B6B5A1C42
:103E6000FB689A637B6918461837BD4680BD00BF62
:103E7000B5514000B56B400080B582B000AF7860AE
:103E800039607B681B6C002B19D07B68DA687B6813
:103E90001B6C1A447B68DA607B68DA687B685B6855
:103EA0009A4203D37B681A687B68DA607B68DA68B9
:103EB0007B681B6C386811461A46024B98470837D6
:103EC000BD4680BDB56B400080B582B000AF786064
:103ED0002A4B984722E07B685B6D002B09D07868FD
:103EE0000021274B98470346012B12D1254B9847B9
:103EF0000FE07B685B6A002B0AD07B68243318468E
:103F0000214B98470346002B03D01E4B984700E0F7
:103F100008E07B689B6C5A1E7B689A647B689B6C8C
:103F2000002BD8DC7B684FF0FF329A64174B984720
:103F3000124B984714E07B681B69002B0FD07B68FD
:103F400010331846104B98470346002B01D00D4BF9
:103F500098477B685B6C5A1E7B685A6400E003E0FC
:103F60007B685B6C002BE6DC7B684FF0FF325A64A9
:103F7000064B98470837BD4680BD00BFC12B4000A7
:103F8000E14040007D4C4000AD4A4000092C40001B
:103F900080B584B000AF7860084B98477B689B6B16
:103FA000002B02D10123FB6001E00023FB60044BE6
:103FB0009847FB6818461037BD4680BDC12B4000AE
:103FC000092C400080B584B000AF7860094B984759
:103FD0007B689A6B7B68DB6B9A4202D10123FB60A2
:103FE00001E00023FB60044B9847FB68184610373C
:103FF000BD4680BDC12B4000092C400090B585B066
:1040000000AF786039600023FB6023E0144BFA684E
:1040100053F83230002B1AD1114BFA68396843F843
:1040200032100F4AFB68DB0013447A685A607868E4
:104030000C4B984703460C4AD45C78680B4B984766
:104040000346204619463A68094B984705E0FB6845
:104050000133FB60FB68132BD8D91437BD4690BDE4
:10406000D83200200521400004000020E520400057
:10407000F10B400080B586B000AFF860B9607A609F
:10408000FB687B61124B98477B695B6CB3F1FF3F28
:1040900002D17B6900225A647B699B6CB3F1FF3FBC
:1040A00002D17B6900229A640A4B98477B699B6B1B
:1040B000002B06D17B6924331846B9687A68064B11
:1040C00098477869054B98471837BD4680BD00BFB3
:1040D000C12B4000092C4000CD494000C93E4000A2
:1040E000B0B584B000AF786039607B685B6DBB6051
:1040F0000023FB60BB68002B03D1384B9847384B3B
:104100009847BB689A6BBB68DB6B9A4203D3334B0F
:104110009847334B9847BB689A6BBB68DB6B9A42F6
:1041200056D2B8682F4B984703462F4AD35C2033AA
:10413000DBB21D46B8682B4B984703462A4AD45C2D
:10414000B8682A4B98470346284621461A46284B0A
:104150009847B868234B98470346234AD55CB8680C
:10416000224B984703461C46B8681E4B98470346A7
:104170001D4AD35C022B05D0BB689B6BDBB20133BD
:10418000DBB200E00023284621461A46194B984727
:104190003B1DB86819463A68174B9847F860BB68EA
:1041A0009B6CB3F1FF3F0ED1BB685B6A002B0FD055
:1041B000BB6824331846114B98470346002B07D0A1
:1041C0000123FB6004E0BB689B6C5A1CBB689A64CB
:1041D000FB6818461037BD46B0BD00BF492C4000F3
:1041E000F50140000521400004000020E5204000CA
:1041F00045174000891F4000953D4000AD4A4000F2
:1042000090B58BB002AFF860B9603B601346FB809D
:10421000FB68002B03D16B4B98476B4B98473B6B6C
:10422000042B03D9674B9847674B9847FB88184680
:10423000B96B664B9847B861BB69002B00F0A6804C
:10424000BB691A6BFB8803F18043013B9B0013445D
:104250007B617B6923F007037B617B6903F00703C4
:10426000002B03D0574B9847574B9847FB88009338
:10427000B869B9683A6BFB6B554CA0477869F96827
:104280003A68544B98470246BB691A607B6B002B17
:1042900002D07B6BBA691A604F4B98474F4B1B6833
:1042A0005A1C4E4B1A604E4B1B68002B09D14C4BCD
:1042B000BA691A60494B1B68012B0FD1494B9847CB
:1042C0000CE0494B1B68002B08D1454B1B68DA6A90
:1042D0003B6B9A4202D8424BBA691A60434B1B6847
:1042E0005A1C424B1A60414B1A68BB695A64BB693D
:1042F000002B28D003203E4B984703461A46BB6943
:104300009A64B8693B4B984703461A46BB693433F5
:10431000032011461A46384B9847B869354B9847E1
:1043200003461A46BB69DB6ADBB2032011461A4614
:10433000324B9847B8692F4B984703461B200321FF
:104340001A462F4B9847B8692A4B98470346184698
:104350002C4B9847BB69DB6A01229A402A4B1B68A9
:104360001A43294B1A60BB69DA6A13469B0013444F
:104370009B00264A1A44BB69043310461946244B55
:1043800098470123FB61234B984707E04FF0FF3329
:10439000FB61432003210022194B9847FB69012B45
:1043A0000BD1114B1B68002B07D00D4B1B68DA6A31
:1043B0003B6B9A4201D2184B9847FB691846243749
:1043C000BD4690BD492C4000F5014000154F40000E
:1043D000F14C4000112A4000C12B40008C1C0020F1
:1043E000B41B0020994D4000981C0020A81C002000
:1043F000E908400021214000F10B4000891E4000E7
:104400004517400015154000941C0020B81B0020E3
:1044100005294000092C4000A12B400090B587B031
:1044200004AF002300930023019300230293002391
:104430000393154815494FF400720023144CA0470C
:1044400078607B68012B02D1124B984778607B68BB
:10445000012B0ED1104B9847104B4FF0FF321A60D2
:104460000F4B01221A600F4B00221A600E4B984727
:1044700006E07B68002B03D1074B98470B4B98470E
:104480000C37BD4690BD00BFC14C4000E0834000EA
:104490000142400041534000492C4000AC1C002028
:1044A000981C0020901C0020D92A4000F5014000F3
:1044B00080B400AF044B1B685A1C034B1A60BD4606
:1044C0005DF8047B704700BFB01C002080B582B04F
:1044D00000AF00237B603B4B1B68002B03D13A4BA2
:1044E00098473A4B98473A4B9847364B1B685A1EA9
:1044F000344B1A60334B1B68002B5CD1354B1B6867
:10450000002B58D035E0344BDB68DB683B603B6800
:1045100018331846314B98473B68043318462F4BE5
:10452000984738682E4B9847034618462D4B9847B6
:104530003B68DB6A01229A402B4B1B681A432A4BCB
:104540001A603B68DA6A13469B0013449B00274AB3
:104550001A443B68043310461946254B98473B687C
:10456000DA6A244B1B68DB6A9A4202D3224B01228F
:104570001A60194B1B68002BC5D1204B1B68002B00
:1045800011D00CE01E4B98470346002B02D01A4B6B
:1045900001221A60194B1B685A1E184B1A60174BE0
:1045A0001B68002BEED1144B1B68012B03D1012398
:1045B0007B60144B9847144B98477B681846083724
:1045C000BD4680BDB01C0020492C4000F5014000D4
:1045D000C12B40008C1C00204C1C0020BD29400039
:1045E0002121400015154000941C0020B81B00201C
:1045F00005294000B41B0020A01C00209C1C0020AA
:104600002D464000A12B4000092C400080B483B00F
:1046100000AF054B1B687B607B6818460C37BD46B6
:104620005DF8047B704700BF901C002080B586B009
:1046300000AF00237B615E4B1B68012B03D05D4BF9
:104640001B68002B07D15C4B1B685A1C5A4B1A6025
:1046500000205A4B9847564B1B68554B1B68002B44
:1046600040F09480564B1B685A1C554B1A60544BB3
:104670001B683B613B69002B19D1524B1B681B68BF
:10468000002B03D0504B9847504B98474D4B1B681D
:10469000FB604F4B1A684B4B1A604D4BFA681A601F
:1046A0004C4B1B685A1C4B4B1A604B4B98474B4B5F
:1046B0001B683A699A4254D3424B1B681B68002B13
:1046C00001D1012300E00023002B04D0434B4FF025
:1046D000FF321A6045E03B4B1B68DB68DB68BB6060
:1046E000BB685B687B603A697B689A4203D23B4B4C
:1046F0007A681A6035E0BB6804331846384B98472F
:10470000BB689B6A002B04D0BB6818331846344B37
:104710009847B868334B984703461846324B98473A
:10472000BB68DB6A01229A40304B1B681A432F4B4F
:104730001A60BB68DA6A13469B0013449B002C4A3C
:104740001A44BB680433104619462A4B9847BB6885
:10475000DA6A294B1B68DB6A9A4201D301237B6129
:10476000AAE7254B1B68DA6A214913469B001344CC
:104770009B000B441B68012B01D901237B610D4B6E
:104780001B68002B09D11D4B984706E0094B1B689D
:104790005A1C084B1A60194B9847194B1B68002B81
:1047A00001D001237B617B6918461837BD4680BD67
:1047B000B01C00209C1C0020180500205114400053
:1047C000901C0020441C0020492C4000F5014000B2
:1047D000481C0020A41C0020B54F4000AC1C002049
:1047E000BD2940002121400015154000941C0020E7
:1047F000B81B002005294000B41B00204D5B400081
:10480000A01C002080B584B000AF394B1B68002B82
:1048100003D0384B01221A6067E0364B00221A6041
:10482000354B1B681A68344B1B681B6B9A4208D8BF
:10483000314B1A68304B1B683433104619462F4BE6
:1048400098472D4B1B681B6B18462D4914222D4B86
:1048500098470346002B08D0274B1A68264B1B6845
:10486000343310461946254B9847274B1B687B600D
:104870007B68B3FA83F3FB70FB78C3F11F03FB6023
:104880002249FA6813469B0013449B000B441B68A3
:10489000002B03D11E4B98471E4B9847FA681346CE
:1048A0009B0013449B00194A1344BB60BB685B68C0
:1048B0005A68BB685A60BB685A68BB6808339A423A
:1048C00004D1BB685B685A68BB685A60BB685B68A8
:1048D000DA68094B1A60104B9847034618460F4B8D
:1048E0009847034618460E4B98471037BD4680BD83
:1048F000B01C0020A01C0020B41B00202D5B400039
:10490000E88340004D6B4000941C0020B81B002041
:10491000492C4000F5014000412140002121400088
:10492000AD1B400080B584B000AF786039607B6813
:10493000002B03D11B4B98471B4B98471B4B1B6805
:104940001833786819461A4B9847184B1B6804337C
:104950001846184B98470346002B0BD1134B1B6886
:10496000DB6A012202FA03F3DA43134B1B681A4095
:10497000114B1A603B68B3F1FF3F07D10B4B1B682B
:1049800004330E4819460E4B984707E00D4B1A6842
:104990003B681344FB60F8680B4B98471037BD46E3
:1049A00080BD00BF492C4000F5014000B41B002031
:1049B0004D294000BD294000941C0020781C002097
:1049C00005294000901C0020A54E400080B586B00F
:1049D00000AFF860B9607A60FB68002B03D1264B0A
:1049E0009847264B9847264B1B681833F86819469A
:1049F000244B9847224B1B6804331846224B984798
:104A00000346002B0BD11E4B1B68DB6A012202FA06
:104A100003F3DA431D4B1B681A401C4B1A607B687A
:104A2000012B07D1164B1B68043319481946154B47
:104A300098471EE0174B1A68BB6813447B618820B7
:104A40007969154B98470E4B1B681846134B9847CE
:104A500003461846124B9847124B98470346184690
:104A60000E4B9847034618460D4B984778690E4BF6
:104A700098471837BD4680BD492C4000F5014000DD
:104A8000B41B002005294000BD294000941C0020D3
:104A9000781C0020901C0020991A40002121400021
:104AA0008920400041214000A54E400080B584B0DF
:104AB00000AF78607B68DB68DB68BB60BB68002B9D
:104AC00003D1254B9847254B9847BB6818331846A8
:104AD000234B9847234B1B68002B23D1BB6804331F
:104AE00018461F4B9847B8681F4B9847034618460F
:104AF0001E4B9847BB68DB6A01229A401C4B1B681F
:104B00001A431B4B1A60BB68DA6A13469B001344B6
:104B10009B00184A1A44BB68043310461946164BCA
:104B2000984705E0BB68183314481946124B98475C
:104B3000BB68DA6A124B1B68DB6A9A4205D901230B
:104B4000FB60104B01221A6001E00023FB60FB6850
:104B500018461037BD4680BD492C4000F501400085
:104B6000BD294000B01C0020212140001515400047
:104B7000941C0020B81B0020052940004C1C00207C
:104B8000B41B0020A01C002080B582B000AF78606C
:104B90007B68002B03D1074B9847074B9847074B7F
:104BA0001A687B681A60064B1A687B685A60083777
:104BB000BD4680BD492C4000F5014000A41C0020EA
:104BC000901C002080B584B000AF786039607B68AD
:104BD000002B03D1224B9847224B98473B68002B70
:104BE00003D11F4B98471F4B98471F4B98471F4BAC
:104BF0001B68BB603B681B68B3F1FF3F02D1002319
:104C0000FB6026E07B681A68194B1B689A4207D044
:104C10007B685A68BB689A4202D80123FB6018E09F
:104C20007B685B68BA68D21A3B681B689A420ED2EE
:104C30003B681A687B685968BB68CB1A1A443B68A2
:104C40001A6078680B4B98470023FB6001E0012352
:104C5000FB60094B9847FB6818461037BD4680BD7E
:104C6000492C4000F5014000C12B4000901C002061
:104C7000A41C0020894B4000092C400080B400AFE8
:104C8000034B01221A60BD465DF8047B704700BFEC
:104C9000A01C002080B485B000AF78607B68002B3A
:104CA00005D07B68BB60BB689B6CFB6001E00023A8
:104CB000FB60FB6818461437BD465DF8047B7047FF
:104CC00080B582B000AF7860054B9847054B1B68F4
:104CD000012B01D9044B9847044B9847F4E700BFD8
:104CE000194E4000B81B0020A12B4000215B400062
:104CF00080B586B000AFF860B9607A603B60002391
:104D00007B6112E0BA687B6913441A78F9687B69A1
:104D10000B4430331A71BA687B6913441B78002B3B
:104D200000D105E07B6901337B617B690F2BE9D9F9
:104D3000FB68002283F843207B68042B01D90423FD
:104D40007B60FB687A68DA62FB687A68DA64FB6821
:104D500000221A65FB68043318460E4B9847FB681F
:104D6000183318460B4B9847FB68FA681A617B6842
:104D7000C3F10502FB689A61FB68FA685A62FB6836
:104D800000225A65FB68002283F858201837BD4678
:104D900080BD00BFED28400080B582B000AF002389
:104DA0007B600CE07A6813469B0013449B00114A19
:104DB00013441846104B98477B6801337B607B682F
:104DC000042BEFD90D480C4B98470D480A4B9847D8
:104DD0000C48094B98470C48074B98470B48064B23
:104DE00098470B4B054A1A600A4B054A1A60083768
:104DF000BD4680BDB81B0020AD2840001C1C002013
:104E0000301C00204C1C0020601C0020781C00205E
:104E1000441C0020481C002080B582B000AF28E070
:104E2000174B9847174B1B68002B14BF0023012317
:104E3000DBB27B60144B98477B68002B19D1134B76
:104E40009847104BDB68DB683B603B6804331846CF
:104E50000F4B98470F4B1B685A1E0E4B1A600E4B98
:104E60001B685A1E0C4B1A600C4B984738680C4B49
:104E70009847094B1B68002BD2D10837BD4680BD2F
:104E8000B1444000601C0020CD444000C12B4000D4
:104E9000BD2940008C1C0020741C0020092C4000FF
:104EA000914F400080B582B000AF7860134B1B6813
:104EB0007A685A60124B1B687A689A4209D2114B81
:104EC0001A680E4B1B680433104619460E4B984760
:104ED00010E00E4B1A68094B1B6804331046194644
:104EE000094B98470A4B1B687A689A4202D2084BD2
:104EF0007A681A600837BD4680BD00BFB41B002029
:104F0000901C0020481C00204D294000441C00201B
:104F1000AC1C002080B584B000AF03463960FB8034
:104F20003B68002B06D1FB889B001846154B984721
:104F3000034600E03B68BB60BB68002B0ED05C20E2
:104F4000104B9847F860FB68002B03D0FB68BA68E9
:104F50001A6305E0B8680C4B984701E00023FB603A
:104F6000FB68002B08D0FB681A6BFB889B0010467F
:104F7000A5211A46054B9847FB6818461037BD46D1
:104F800080BD00BF752D4000112F4000E96C40002E
:104F900080B582B000AF78607B681B6B1846044B0D
:104FA00098477868024B98470837BD4680BD00BFD8
:104FB000112F400080B483B000AF0E4B1B681B68FC
:104FC000002B01D1012300E00023002B04D00A4B69
:104FD0004FF0FF321A6008E0064B1B68DB68DB68A5
:104FE0007B607B685A68044B1A600C37BD465DF8DD
:104FF000047B7047441C0020AC1C002080B483B0AC
:1050000000AF054B1B687B607B6818460C37BD46BC
:105010005DF8047B704700BFB41B002080B483B0F0
:1050200000AF0B4B1B68002B02D101237B6008E013
:10503000084B1B68002B02D102237B6001E0002398
:105040007B607B6818460C37BD465DF8047B704773
:10505000981C0020B01C002090B585B000AF78608F
:105060007B68FB607B68002B00F08C80FB68DA6A51
:10507000464B1B68DB6A9A4280F08480FB689B6920
:10508000002B06DB414B1B68DB6AC3F10502FB68A2
:105090009A61FB685969FB68DA6A13469B001344FE
:1050A0009B003B4A1344994201D1012300E00023B5
:1050B000002B41D0FB6804331846364B9847034613
:1050C000002B15D1FB68DA6A314913469B00134463
:1050D0009B000B441B68002B0AD1FB68DB6A012292
:1050E00002FA03F3DA432C4B1B681A402A4B1A606E
:1050F000264B1B68DA6AFB68DA62F868274B984728
:1051000003461846264B9847FB68DB6A01229A4003
:10511000214B1B681A43204B1A60FB68DA6A13465E
:105120009B0013449B001A4A1A44FB680433104640
:1051300019461C4B984704E0144B1B68DA6AFB685D
:10514000DA62F868154B984703461C46F868134B1B
:105150009847034603201946134B984703468E2071
:1051600003212246114CA047F8680C4B9847034690
:105170001A46064B1B68DB6ADBB2032011461A464F
:105180000B4B98471437BD4690BD00BFB41B0020A1
:10519000B81B0020BD294000941C002021214000A4
:1051A0001515400005294000091F40009D184000CA
:1051B000891E400090B585B000AF78607B68BB6009
:1051C0000023FB607B68002B00F08880464B1B6847
:1051D000BA689A4203D0454B9847454B9847BB68FD
:1051E0001B6D002B03D1414B9847414B9847BB683F
:1051F0001B6D5A1EBB681A65BB68DA6ABB68DB6C3C
:105200009A426BD0BB681B6D002B67D1BB6804331F
:105210001846384B98470346002B15D1BB68DA6A0D
:10522000354913469B0013449B000B441B68002B1D
:105230000AD1BB68DB6A012202FA03F3DA432F4B7F
:105240001B681A402D4B1A60B8682D4B98470346CF
:105250001C46B8682A4B9847034603201946294B39
:10526000984703468F2003212246274CA047B86861
:10527000234B984703461A46BB68DB6CDBB203201E
:1052800011461A46214B9847BB68DA6CBB68DA6254
:10529000BB68DB6AC3F10502BB689A61B868184B4A
:1052A0009847034618461A4B9847BB68DB6A0122A9
:1052B0009A40124B1B681A43104B1A60BB68DA6A9B
:1052C00013469B0013449B000B4A1A44BB680433EB
:1052D000104619460F4B98470123FB60FB681846A0
:1052E0001437BD4690BD00BFB41B0020492C4000C0
:1052F000F5014000BD294000B81B0020941C00208F
:1053000021214000091F40009D184000891E4000D7
:10531000151540000529400080B400AF074B1B68FD
:10532000002B04D0054B1B681A6D01321A65034B24
:105330001B681846BD465DF8047B7047B41B00200F
:1053400090B587B004AF00237B60114B9847114B99
:105350001B68002B0FD0022300930F4B01930023F7
:105360000293002303930D480D494FF480620023FC
:105370000C4CA04778607B68002B03D10A4B984700
:105380000A4B98477B6818460C37BD4690BD00BF56
:1053900079594000E41C0020E81C00207D554000A5
:1053A000FC83400001424000492C4000F5014000D0
:1053B00090B58BB000AFF860B9607A603B600023B5
:1053C0007B62434B1B68002B7CD0BB687B617B6896
:1053D000BB61FB68FB61BB68052B1CDC3D4B984740
:1053E0000346022B0BD13A4B1A6807F114031046FF
:1053F0001946BA6B0023384CA047786216E0344B4C
:105400001A6807F114031046194600220023324C93
:10541000A04778620AE02E4B1A6807F11403104681
:1054200019463A6800232D4CA0477862BB68002BD0
:1054300048DDBB68042B0ED17B6A012B01D1B4235C
:1054400000E0BD23FA68926AD2B2184605217B6853
:10545000234CA04736E0BB68052B20D17B6A012B8B
:105460001DD1FB689B6ADBB2B52005211A461D4B96
:105470009847FB689B6ADBB2184605211A4B984790
:10548000FB689B6ADBB218460521184B9847FB68FE
:105490009B6ADBB205201946154B984712E0BB68A2
:1054A00003F1B0027B6A012B01D1002300E0092344
:1054B00013441A46FB689B6ADBB2104605211A4664
:1054C000084B98477B6A18462C37BD4690BD00BFF5
:1054D000E41C00201D50400045334000653640006C
:1054E0009D18400045174000F11C4000A91D4000D8
:1054F0004D0B400090B587B002AF78603960194B12
:105500001B68DB68DB68FB60FB6804331846164BDE
:105510009847FB68DB69012B1CD1FB689A697B68A3
:105520001344F86819463A687B68104CA047034654
:10553000012B0FD100230093F86800217A68002323
:105540000B4CA047B860BB68002B03D1094B9847B0
:10555000094B9847FB685B6AF86898471437BD4663
:1055600090BD00BFDC1C0020BD294000C556400096
:10557000B1534000492C4000F501400080B584B093
:1055800000AF786007F108031846054B9847F860AC
:10559000BB68F8681946034B9847034B9847F1E7F7
:1055A00035564000AD5540004D57400080B584B0A1
:1055B00000AF78603960184B984707F10803184628
:1055C000164B9847F860BB68002B1FD13B68002B37
:1055D0000AD17A68FB689A4206D8114B98477868D6
:1055E000F968104B984713E00F4B1A687968FB680D
:1055F000CB1A104619463A680C4B9847084B984707
:105600000346002B04D10A4B984701E0044B98470E
:105610001037BD4680BD00BFB14440007D564000FC
:10562000CD444000F5544000E41C0020754040008B
:10563000A12B400080B485B000AF78600E4B1B6892
:105640001B68002B14BF00230123DBB21A467B68C2
:105650001A607B681B68002B05D1074B1B68DB6851
:105660001B68FB6001E00023FB60FB6818461437F1
:10567000BD465DF8047B7047DC1C002080B584B01B
:1056800000AF78600C4B9847F8600C4B1B68FA68C9
:105690009A4205D20A4B98477B6801221A6002E0C1
:1056A0007B6800221A60054BFA681A60FB6818468E
:1056B0001037BD4680BD00BF0D464000EC1C0020E9
:1056C000B158400080B586B000AFF860B9607A602C
:1056D0003B6000237B61FB68BA685A60FB68FA682C
:1056E0001A61BA687B689A4212D87A683B68D21A03
:1056F000FB689B699A4202D301237B611BE0104B3C
:105700001A68FB680433104619460E4B984712E09E
:105710007A683B689A4206D2BA683B689A4202D3DA
:1057200001237B6107E0084B1A68FB6804331046CD
:105730001946044B98477B6918461837BD4680BD0B
:10574000E01C00204D294000DC1C002090B58DB0ED
:1057500002AF89E0BB68002B13DA07F108030433BA
:105760007B627B6A002B03D1484B9847484B984794
:105770007B6A1B687A6A51687A6A926808461146A1
:105780009847BB68002B6FDB3B693B623B6A5B69F8
:10579000002B04D03B6A043318463E4B98473B1D10
:1057A00018463D4B9847F861BB68092B5BD801A2AE
:1057B00052F823F0DD574000DD574000DD57400030
:1057C00067584000335840005F584000DD574000A4
:1057D000DD5740006758400033584000FA683B6A84
:1057E0009B691A44FB68386A1146FA692B4CA0473A
:1057F0000346012B1CD13B6A5B6A386A98473B6AB7
:10580000DB69012B14D1FA683B6A9B6913440022BF
:105810000092386A00211A460023214CA047B86143
:10582000BB69002B04D1194B9847194B98471BE0D3
:105830001AE0FA683B6A9A613B6A9B69002B03D1C4
:10584000124B9847124B98473B6A9A69FB6913447D
:10585000386A1946FA69FB69104CA04704E0386AB7
:10586000104B984700E000BF0F4B1A6807F1080380
:1058700010461946002200230C4CA0470346002B7B
:105880007FF468AF2C37BD4690BD00BF492C400067
:10589000F5014000BD2940007D564000C55640003E
:1058A000B1534000112F4000E41C0020B9394000E2
:1058B00090B589B002AF3EE0284B1B68DB681B68DF
:1058C0007B61264B1B68DB68DB683B613B6904330B
:1058D0001846234B98473B695B6A386998473B6990
:1058E000DB69012B27D13B699A697B691344FB6013
:1058F000FA687B699A420ED93B69FA685A603B693B
:105900003A691A61154B1A683B6904331046194607
:10591000144B98470FE000230093386900217A69FF
:105920000023114CA047B860BB68002B03D10F4B7C
:1059300098470F4B9847094B1B681B68002BBBD13E
:10594000064B1B687B600B4B1A68044B1A60094BB3
:105950007A681A601C37BD4690BD00BFDC1C002071
:10596000BD2940004D294000B1534000492C400062
:10597000F5014000E01C002080B500AF174B9847B0
:10598000174B1B68002B25D11648174B9847174813
:10599000154B9847164B134A1A60164B134A1A6058
:1059A000052010210022144B984702460C4B1A6028
:1059B0000B4B1B68002B03D1104B9847104B98479B
:1059C000074B1B68002B05D0054B1B6818460D497B
:1059D0000D4B98470D4B984780BD00BFC12B400031
:1059E000E41C0020B41C0020AD284000C81C00208E
:1059F000DC1C0020E01C002015324000492C400037
:105A0000F501400004844000FD3F4000092C4000A7
:105A100080B485B000AF78607B6803F00703FB605B
:105A20000C4BDB68BB60BA684FF6FF031340BB60EA
:105A3000FB681A02BB68134343F0BF6343F40033AF
:105A4000BB60044BBA68DA601437BD465DF8047B6E
:105A5000704700BF00ED00E080B500AF084B9847ED
:105A6000084B9847084B98470346012B01D0074B3A
:105A70009847074B9847054B98470023184680BD29
:105A8000955A40007904400089044000F501400027
:105A90001D44400080B500AF0E4B984700200E4BD0
:105AA00098470E4B98470E4B98470E480E4B984719
:105AB0000C480E4B98470E480E4B98472D204FF040
:105AC00060510D4B98472D200C4B98470C480D4BBF
:105AD000984780BD89614000115A40002101400073
